{
  "contractName": "PeaceMaster",
  "abi": [
    {
      "inputs": [
        {
          "internalType": "uint256",
          "name": "start",
          "type": "uint256"
        },
        {
          "internalType": "uint256",
          "name": "_epochDuration",
          "type": "uint256"
        },
        {
          "internalType": "contract Yin",
          "name": "_yin",
          "type": "address"
        },
        {
          "internalType": "contract Yang",
          "name": "_yang",
          "type": "address"
        },
        {
          "internalType": "address",
          "name": "_busd",
          "type": "address"
        },
        {
          "internalType": "address",
          "name": "_soup",
          "type": "address"
        },
        {
          "internalType": "address",
          "name": "_unirouter",
          "type": "address"
        }
      ],
      "stateMutability": "nonpayable",
      "type": "constructor"
    },
    {
      "anonymous": false,
      "inputs": [
        {
          "indexed": true,
          "internalType": "address",
          "name": "user",
          "type": "address"
        },
        {
          "indexed": false,
          "internalType": "uint256",
          "name": "amount",
          "type": "uint256"
        }
      ],
      "name": "Harvest",
      "type": "event"
    },
    {
      "anonymous": false,
      "inputs": [
        {
          "indexed": true,
          "internalType": "address",
          "name": "previousOwner",
          "type": "address"
        },
        {
          "indexed": true,
          "internalType": "address",
          "name": "newOwner",
          "type": "address"
        }
      ],
      "name": "OwnershipTransferred",
      "type": "event"
    },
    {
      "anonymous": false,
      "inputs": [
        {
          "indexed": true,
          "internalType": "address",
          "name": "user",
          "type": "address"
        },
        {
          "indexed": false,
          "internalType": "address",
          "name": "proposition",
          "type": "address"
        },
        {
          "indexed": false,
          "internalType": "uint256",
          "name": "amount",
          "type": "uint256"
        }
      ],
      "name": "Vote",
      "type": "event"
    },
    {
      "anonymous": false,
      "inputs": [
        {
          "indexed": true,
          "internalType": "address",
          "name": "user",
          "type": "address"
        },
        {
          "indexed": false,
          "internalType": "address",
          "name": "token",
          "type": "address"
        },
        {
          "indexed": false,
          "internalType": "uint256",
          "name": "amount",
          "type": "uint256"
        }
      ],
      "name": "Withdraw",
      "type": "event"
    },
    {
      "inputs": [],
      "name": "busd",
      "outputs": [
        {
          "internalType": "address",
          "name": "",
          "type": "address"
        }
      ],
      "stateMutability": "view",
      "type": "function",
      "constant": true
    },
    {
      "inputs": [],
      "name": "currentTarget",
      "outputs": [
        {
          "internalType": "address",
          "name": "",
          "type": "address"
        }
      ],
      "stateMutability": "view",
      "type": "function",
      "constant": true
    },
    {
      "inputs": [],
      "name": "epochDuration",
      "outputs": [
        {
          "internalType": "uint256",
          "name": "",
          "type": "uint256"
        }
      ],
      "stateMutability": "view",
      "type": "function",
      "constant": true
    },
    {
      "inputs": [],
      "name": "epochStart",
      "outputs": [
        {
          "internalType": "uint256",
          "name": "",
          "type": "uint256"
        }
      ],
      "stateMutability": "view",
      "type": "function",
      "constant": true
    },
    {
      "inputs": [],
      "name": "initialized",
      "outputs": [
        {
          "internalType": "bool",
          "name": "",
          "type": "bool"
        }
      ],
      "stateMutability": "view",
      "type": "function",
      "constant": true
    },
    {
      "inputs": [],
      "name": "origin",
      "outputs": [
        {
          "internalType": "uint256",
          "name": "",
          "type": "uint256"
        }
      ],
      "stateMutability": "view",
      "type": "function",
      "constant": true
    },
    {
      "inputs": [],
      "name": "owner",
      "outputs": [
        {
          "internalType": "address",
          "name": "",
          "type": "address"
        }
      ],
      "stateMutability": "view",
      "type": "function",
      "constant": true
    },
    {
      "inputs": [],
      "name": "renounceOwnership",
      "outputs": [],
      "stateMutability": "nonpayable",
      "type": "function"
    },
    {
      "inputs": [
        {
          "internalType": "address",
          "name": "",
          "type": "address"
        }
      ],
      "name": "shares",
      "outputs": [
        {
          "internalType": "uint256",
          "name": "",
          "type": "uint256"
        }
      ],
      "stateMutability": "view",
      "type": "function",
      "constant": true
    },
    {
      "inputs": [],
      "name": "soup",
      "outputs": [
        {
          "internalType": "address",
          "name": "",
          "type": "address"
        }
      ],
      "stateMutability": "view",
      "type": "function",
      "constant": true
    },
    {
      "inputs": [
        {
          "internalType": "address",
          "name": "",
          "type": "address"
        }
      ],
      "name": "tokenAccounts",
      "outputs": [
        {
          "internalType": "uint256",
          "name": "amount",
          "type": "uint256"
        },
        {
          "internalType": "uint256",
          "name": "shares",
          "type": "uint256"
        }
      ],
      "stateMutability": "view",
      "type": "function",
      "constant": true
    },
    {
      "inputs": [
        {
          "internalType": "address",
          "name": "newOwner",
          "type": "address"
        }
      ],
      "name": "transferOwnership",
      "outputs": [],
      "stateMutability": "nonpayable",
      "type": "function"
    },
    {
      "inputs": [],
      "name": "unirouter",
      "outputs": [
        {
          "internalType": "address",
          "name": "",
          "type": "address"
        }
      ],
      "stateMutability": "view",
      "type": "function",
      "constant": true
    },
    {
      "inputs": [
        {
          "internalType": "address",
          "name": "",
          "type": "address"
        },
        {
          "internalType": "address",
          "name": "",
          "type": "address"
        }
      ],
      "name": "userAccounts",
      "outputs": [
        {
          "internalType": "uint256",
          "name": "amount",
          "type": "uint256"
        },
        {
          "internalType": "uint256",
          "name": "shares",
          "type": "uint256"
        }
      ],
      "stateMutability": "view",
      "type": "function",
      "constant": true
    },
    {
      "inputs": [
        {
          "internalType": "address",
          "name": "",
          "type": "address"
        }
      ],
      "name": "voices",
      "outputs": [
        {
          "internalType": "uint256",
          "name": "",
          "type": "uint256"
        }
      ],
      "stateMutability": "view",
      "type": "function",
      "constant": true
    },
    {
      "inputs": [
        {
          "internalType": "address",
          "name": "",
          "type": "address"
        }
      ],
      "name": "voters",
      "outputs": [
        {
          "internalType": "uint256",
          "name": "epoch",
          "type": "uint256"
        },
        {
          "internalType": "address",
          "name": "token",
          "type": "address"
        },
        {
          "internalType": "uint256",
          "name": "voices",
          "type": "uint256"
        }
      ],
      "stateMutability": "view",
      "type": "function",
      "constant": true
    },
    {
      "inputs": [],
      "name": "wbnb",
      "outputs": [
        {
          "internalType": "address",
          "name": "",
          "type": "address"
        }
      ],
      "stateMutability": "view",
      "type": "function",
      "constant": true
    },
    {
      "inputs": [],
      "name": "yang",
      "outputs": [
        {
          "internalType": "contract Yang",
          "name": "",
          "type": "address"
        }
      ],
      "stateMutability": "view",
      "type": "function",
      "constant": true
    },
    {
      "inputs": [],
      "name": "yin",
      "outputs": [
        {
          "internalType": "contract Yin",
          "name": "",
          "type": "address"
        }
      ],
      "stateMutability": "view",
      "type": "function",
      "constant": true
    },
    {
      "inputs": [],
      "name": "zenGarden",
      "outputs": [
        {
          "internalType": "contract ZenGarden",
          "name": "",
          "type": "address"
        }
      ],
      "stateMutability": "view",
      "type": "function",
      "constant": true
    },
    {
      "inputs": [
        {
          "internalType": "address",
          "name": "account",
          "type": "address"
        }
      ],
      "name": "excludeAccount",
      "outputs": [],
      "stateMutability": "nonpayable",
      "type": "function"
    },
    {
      "inputs": [
        {
          "internalType": "address",
          "name": "_zenGarden",
          "type": "address"
        }
      ],
      "name": "setZenGarden",
      "outputs": [],
      "stateMutability": "nonpayable",
      "type": "function"
    },
    {
      "inputs": [],
      "name": "setYinYang",
      "outputs": [],
      "stateMutability": "nonpayable",
      "type": "function"
    },
    {
      "inputs": [],
      "name": "initialize",
      "outputs": [],
      "stateMutability": "nonpayable",
      "type": "function"
    },
    {
      "inputs": [
        {
          "internalType": "address",
          "name": "proposition",
          "type": "address"
        },
        {
          "internalType": "uint256",
          "name": "amount",
          "type": "uint256"
        }
      ],
      "name": "voteForNextTarget",
      "outputs": [],
      "stateMutability": "nonpayable",
      "type": "function"
    },
    {
      "inputs": [],
      "name": "harvest",
      "outputs": [],
      "stateMutability": "nonpayable",
      "type": "function"
    },
    {
      "inputs": [],
      "name": "getPropositionsLength",
      "outputs": [
        {
          "internalType": "uint256",
          "name": "index",
          "type": "uint256"
        }
      ],
      "stateMutability": "view",
      "type": "function",
      "constant": true
    },
    {
      "inputs": [
        {
          "internalType": "uint256",
          "name": "index",
          "type": "uint256"
        }
      ],
      "name": "getProposition",
      "outputs": [
        {
          "internalType": "address",
          "name": "",
          "type": "address"
        },
        {
          "internalType": "uint256",
          "name": "",
          "type": "uint256"
        },
        {
          "internalType": "uint256",
          "name": "",
          "type": "uint256"
        }
      ],
      "stateMutability": "view",
      "type": "function",
      "constant": true
    },
    {
      "inputs": [],
      "name": "getHistoryLength",
      "outputs": [
        {
          "internalType": "uint256",
          "name": "length",
          "type": "uint256"
        }
      ],
      "stateMutability": "view",
      "type": "function",
      "constant": true
    },
    {
      "inputs": [
        {
          "internalType": "uint256",
          "name": "index",
          "type": "uint256"
        }
      ],
      "name": "getHistory",
      "outputs": [
        {
          "internalType": "uint256",
          "name": "",
          "type": "uint256"
        },
        {
          "internalType": "address",
          "name": "",
          "type": "address"
        },
        {
          "internalType": "uint256",
          "name": "",
          "type": "uint256"
        },
        {
          "internalType": "uint256",
          "name": "",
          "type": "uint256"
        }
      ],
      "stateMutability": "view",
      "type": "function",
      "constant": true
    },
    {
      "inputs": [],
      "name": "getWinner",
      "outputs": [
        {
          "internalType": "address",
          "name": "",
          "type": "address"
        }
      ],
      "stateMutability": "view",
      "type": "function",
      "constant": true
    },
    {
      "inputs": [],
      "name": "isHarvestable",
      "outputs": [
        {
          "internalType": "bool",
          "name": "",
          "type": "bool"
        }
      ],
      "stateMutability": "view",
      "type": "function",
      "constant": true
    },
    {
      "inputs": [],
      "name": "claimAllVoterShares",
      "outputs": [],
      "stateMutability": "nonpayable",
      "type": "function"
    },
    {
      "inputs": [
        {
          "internalType": "address",
          "name": "user",
          "type": "address"
        }
      ],
      "name": "pendingVoterShares",
      "outputs": [
        {
          "components": [
            {
              "internalType": "address",
              "name": "token",
              "type": "address"
            },
            {
              "internalType": "uint8",
              "name": "decimals",
              "type": "uint8"
            },
            {
              "internalType": "uint256",
              "name": "amount",
              "type": "uint256"
            }
          ],
          "internalType": "struct PeaceMaster.ShareInfo[]",
          "name": "",
          "type": "tuple[]"
        }
      ],
      "stateMutability": "view",
      "type": "function",
      "constant": true
    },
    {
      "inputs": [
        {
          "internalType": "address",
          "name": "user",
          "type": "address"
        }
      ],
      "name": "updatesMissing",
      "outputs": [
        {
          "internalType": "uint256",
          "name": "",
          "type": "uint256"
        }
      ],
      "stateMutability": "view",
      "type": "function",
      "constant": true
    },
    {
      "inputs": [],
      "name": "updateUserAccount",
      "outputs": [],
      "stateMutability": "nonpayable",
      "type": "function"
    }
  ],
  "bytecode": "0x6080604052600c80546001600160a01b03191690556018805460ff191690553480156200002b57600080fd5b50604051620038f7380380620038f78339810160408190526200004e91620006cc565b60006200005a62000308565b600080546001600160a01b0319166001600160a01b0383169081178255604051929350917f8be0079c531659141344cd1fd0a4f28419497f9722a3daafe3b4186f6b6457e0908290a350600186905560028790556003879055620000cd600d60006200030c602090811b620020a817901c565b50600780546001600160a01b03199081166001600160a01b0388811691909117909255600880548216878416179055600980548216868416179055600a8054909116848316179055604080516315ab88c960e31b815290519183169163ad5c464891600480820192602092909190829003018186803b1580156200015057600080fd5b505afa15801562000165573d6000803e3d6000fd5b505050506040513d601f19601f820116820180604052508101906200018b91906200066b565b600480546001600160a01b03199081166001600160a01b0393841617825560058054909116848416179081905560075460405163095ea7b360e01b81529084169363095ea7b393620001e69390911691600019910162000796565b602060405180830381600087803b1580156200020157600080fd5b505af115801562000216573d6000803e3d6000fd5b505050506040513d601f19601f820116820180604052508101906200023c919062000691565b5060085460055460405163095ea7b360e01b81526001600160a01b039283169263095ea7b39262000277929116906000199060040162000796565b602060405180830381600087803b1580156200029257600080fd5b505af1158015620002a7573d6000803e3d6000fd5b505050506040513d601f19601f82011682018060405250810190620002cd919062000691565b50600554600454620002fb916001600160a01b0391821691166000196200032c602090811b620020c617901c565b505050505050506200090e565b3390565b600062000323836001600160a01b03841662000443565b90505b92915050565b801580620003bb5750604051636eb1769f60e11b81526001600160a01b0384169063dd62ed3e906200036590309086906004016200077c565b60206040518083038186803b1580156200037e57600080fd5b505afa15801562000393573d6000803e3d6000fd5b505050506040513d601f19601f82011682018060405250810190620003b99190620006b3565b155b620003e35760405162461bcd60e51b8152600401620003da906200082e565b60405180910390fd5b6200043e8363095ea7b360e01b84846040516024016200040592919062000796565b60408051808303601f190181529190526020810180516001600160e01b0319939093166001600160e01b03938416179052906200049216565b505050565b60006200045183836200052e565b620004895750815460018181018455600084815260208082209093018490558454848252828601909352604090209190915562000326565b50600062000326565b6060620004ee826040518060400160405280602081526020017f5361666542455032303a206c6f772d6c6576656c2063616c6c206661696c6564815250856001600160a01b03166200054660201b620021c5179092919060201c565b8051909150156200043e57808060200190518101906200050f919062000691565b6200043e5760405162461bcd60e51b8152600401620003da90620007e4565b60009081526001919091016020526040902054151590565b60606200055784846000856200055f565b949350505050565b60606200056c8562000631565b6200058b5760405162461bcd60e51b8152600401620003da906200088b565b60006060866001600160a01b03168587604051620005aa91906200075e565b60006040518083038185875af1925050503d8060008114620005e9576040519150601f19603f3d011682016040523d82523d6000602084013e620005ee565b606091505b5091509150811562000604579150620005579050565b805115620006155780518082602001fd5b8360405162461bcd60e51b8152600401620003da9190620007af565b6000813f7fc5d2460186f7233c927e7db2dcc703c0e500b653ca82273b7bfad8045d85a47081811480159062000557575050151592915050565b6000602082840312156200067d578081fd5b81516200068a81620008f5565b9392505050565b600060208284031215620006a3578081fd5b815180151581146200068a578182fd5b600060208284031215620006c5578081fd5b5051919050565b600080600080600080600060e0888a031215620006e7578283fd5b875196506020880151955060408801516200070281620008f5565b60608901519095506200071581620008f5565b60808901519094506200072881620008f5565b60a08901519093506200073b81620008f5565b60c08901519092506200074e81620008f5565b8091505092959891949750929550565b6000825162000772818460208701620008c2565b9190910192915050565b6001600160a01b0392831681529116602082015260400190565b6001600160a01b03929092168252602082015260400190565b6000602082528251806020840152620007d0816040850160208701620008c2565b601f01601f19169190910160400192915050565b6020808252602a908201527f5361666542455032303a204245503230206f7065726174696f6e20646964206e6040820152691bdd081cdd58d8d9595960b21b606082015260800190565b60208082526036908201527f5361666542455032303a20617070726f76652066726f6d206e6f6e2d7a65726f60408201527f20746f206e6f6e2d7a65726f20616c6c6f77616e636500000000000000000000606082015260800190565b6020808252601d908201527f416464726573733a2063616c6c20746f206e6f6e2d636f6e7472616374000000604082015260600190565b60005b83811015620008df578181015183820152602001620008c5565b83811115620008ef576000848401525b50505050565b6001600160a01b03811681146200090b57600080fd5b50565b612fd9806200091e6000396000f3fe608060405234801561001057600080fd5b506004361061021c5760003560e01c80637edaea5611610125578063a3ec138d116100ad578063ce7c2ac21161007c578063ce7c2ac2146103df578063d1ee3419146103f2578063f2cc0c1814610412578063f2fde38b14610425578063fbddff37146104385761021c565b8063a3ec138d1461038a578063b4852e7a146103ac578063bc6b4f32146103b4578063c8691b2a146103bc5761021c565b80638da5cb5b116100f45780638da5cb5b146103625780638e7ea5b21461036a5780638f8c06b714610372578063938b5f321461037a578063a2c71e7c146103825761021c565b80637edaea561461031d5780638129fc1c1461033f578063812ae972146103475780638d72647e1461035a5761021c565b806339148c53116101a85780635478f468116101775780635478f468146102ea57806358eeef45146102f2578063660fefa9146102fa5780636fc833a214610302578063715018a6146103155761021c565b806339148c53146102ca5780634641257d146102d25780634ff0876a146102da5780635175171e146102e25761021c565b80631e34b2f7116101ef5780631e34b2f71461027f5780631f2e884214610287578063257ae0de1461028f578063259a9a8c146102a45780632ff75c59146102b75761021c565b8063158ef93e1461022157806315e5a1e51461023f5780631a638f36146102545780631b85d64614610275575b600080fd5b61022961044b565b6040516102369190612a55565b60405180910390f35b610247610454565b6040516102369190612a60565b6102676102623660046127cb565b61045a565b604051610236929190612f09565b61027d610473565b005b61027d6105eb565b61027d6107a1565b61029761099d565b6040516102369190612988565b6102476102b23660046127cb565b6109ac565b6102676102c5366004612803565b6109d9565b6102976109fd565b61027d610a0c565b610247611401565b610229611407565b610247611427565b61029761142d565b61029761143c565b61027d6103103660046127cb565b61144b565b61027d6114c5565b61033061032b36600461291b565b611544565b604051610236939291906129cf565b61027d6115c9565b6102476103553660046127cb565b611730565b610297611742565b610297611751565b610297611760565b6102976117f6565b610247611805565b61024761180b565b61039d6103983660046127cb565b61181c565b60405161023693929190612e56565b610297611846565b610297611855565b6103cf6103ca36600461291b565b611864565b6040516102369493929190612e75565b6102476103ed3660046127cb565b61192e565b6104056104003660046127cb565b611940565b60405161023691906129f0565b61027d6104203660046127cb565b611b10565b61027d6104333660046127cb565b611c2f565b61027d61044636600461283b565b611c6d565b60185460ff1681565b60025481565b6013602052600090815260409020805460019091015482565b336000908152601760205260409020545b600b548110156105e8576000818152601560209081526040808320338452909152902054156105cb576104f0600b82815481106104bd57fe5b600091825260208083206001600490930201919091015433835260169091526040909120906001600160a01b03166120a8565b50336000908152601460205260408120600b80548391908590811061051157fe5b60009182526020808320600160049093020191909101546001600160a01b031683528281019390935260409182018120548582526015845282822033835290935220549091506105629082906121dc565b336000908152601460205260408120600b80549192918690811061058257fe5b60009182526020808320600160049093020191909101546001600160a01b0316835282810193909352604091820181209390935584835260158252808320338452909152812055505b336000908152601760205260409020600190910190819055610484565b50565b6105f3610473565b60606105fe33611940565b905060005b815181101561079d573360009081526014602052604081208351829085908590811061062b57fe5b602090810291909101810151516001600160a01b03168252818101929092526040908101600090812093909355338352601490915281208351829085908590811061067257fe5b6020026020010151600001516001600160a01b03166001600160a01b03168152602001908152602001600020600101819055506106d78282815181106106b457fe5b602090810291909101810151513360009081526016909252604090912090612201565b50610724338383815181106106e857fe5b60200260200101516040015184848151811061070057fe5b6020026020010151600001516001600160a01b03166122169092919063ffffffff16565b336001600160a01b03167f9b1bfa7fa9ee420a16e124f794c35ac9f90472acc99140eb2f6447c714cad8eb83838151811061075b57fe5b60200260200101516000015184848151811061077357fe5b60200260200101516040015160405161078d92919061299c565b60405180910390a2600101610603565b5050565b6107a9612235565b6000546001600160a01b039081169116146107df5760405162461bcd60e51b81526004016107d690612d6c565b60405180910390fd5b60185460ff16156108025760405162461bcd60e51b81526004016107d690612c3e565b60075460085460405163b9b14f0d60e01b81526001600160a01b039283169263b9b14f0d9261083692911690600401612988565b600060405180830381600087803b15801561085057600080fd5b505af1158015610864573d6000803e3d6000fd5b50506008546007546040516277a42760e31b81526001600160a01b0392831694506303bd2138935061089c9290911690600401612988565b600060405180830381600087803b1580156108b657600080fd5b505af11580156108ca573d6000803e3d6000fd5b505050506108d730611b10565b6007546040805163c1f1b1b560e01b81529051610955926001600160a01b03169163c1f1b1b5916004808301926020929190829003018186803b15801561091d57600080fd5b505afa158015610931573d6000803e3d6000fd5b505050506040513d601f19601f8201168201806040525081019061042091906127e7565b6008546040805163c1f1b1b560e01b8152905161099b926001600160a01b03169163c1f1b1b5916004808301926020929190829003018186803b15801561091d57600080fd5b565b6005546001600160a01b031681565b6001600160a01b038116600090815260176020526040812054600b546109d191612239565b90505b919050565b60146020908152600092835260408084209091529082529020805460019091015482565b600c546001600160a01b031681565b610a14611407565b610a305760405162461bcd60e51b81526004016107d690612ade565b6000610a53600154610a4d6002544261223990919063ffffffff16565b9061227b565b9050610a76610a6d826001546122bd90919063ffffffff16565b600254906121dc565b600255610a81611760565b600c80546001600160a01b0319166001600160a01b03928316179081905516600090815260106020908152604080832054601390925290912060010154610ac7916121dc565b600c546001600160a01b0316600090815260136020526040902060010155610aed6122f7565b610af7600d612350565b15610b145760405162461bcd60e51b81526004016107d690612e0f565b610b20600d60006120a8565b5060408051808201825260025481528151606081018352600c80546001600160a01b039081168084526000818152600f60209081528782205481870152918152601082528681205485880152818601948552600b8054600181018255915294517f0175b7a638427703f0dbe7bb9bbf987a2551717b34e79f33b5b1008d1fa01db9600490960295860155925180517f0175b7a638427703f0dbe7bb9bbf987a2551717b34e79f33b5b1008d1fa01dba860180546001600160a01b031916918416919091179055928301517f0175b7a638427703f0dbe7bb9bbf987a2551717b34e79f33b5b1008d1fa01dbb85015591909301517f0175b7a638427703f0dbe7bb9bbf987a2551717b34e79f33b5b1008d1fa01dbc90920191909155905416610c9257610c4a610473565b336001600160a01b03167fc9695243a805adb74c91f28311176c65b417e842d5699893cef56d18bfa48cba6000604051610c849190612a60565b60405180910390a25061099b565b60408051600380825260808201909252606091602082018380368337505060075482519293506001600160a01b031691839150600090610cce57fe5b6001600160a01b039283166020918202929092010152600954825191169082906001908110610cf957fe5b6001600160a01b039283166020918202929092010152600454825191169082906002908110610d2457fe5b6001600160a01b03929092166020928302919091018201526040805160038082526080820190925260609290919082018380368337505060085482519293506001600160a01b031691839150600090610d7957fe5b6001600160a01b039283166020918202929092010152600a54825191169082906001908110610da457fe5b6001600160a01b039283166020918202929092010152600454825191169082906002908110610dcf57fe5b6001600160a01b0392909216602092830291909101909101526040805160028082526060828101909352816020016020820280368337505060045482519293506001600160a01b031691839150600090610e2557fe5b6001600160a01b039283166020918202929092010152600c54825191169082906001908110610e5057fe5b6001600160a01b0392831660209182029290920101526007546040516370a0823160e01b815260009291909116906370a0823190610e92903090600401612988565b60206040518083038186803b158015610eaa57600080fd5b505afa158015610ebe573d6000803e3d6000fd5b505050506040513d601f19601f82011682018060405250810190610ee29190612933565b1115610fd6576005546007546040516370a0823160e01b81526001600160a01b0392831692635c11d7959216906370a0823190610f23903090600401612988565b60206040518083038186803b158015610f3b57600080fd5b505afa158015610f4f573d6000803e3d6000fd5b505050506040513d601f19601f82011682018060405250810190610f739190612933565b60008630610f83426102586121dc565b6040518663ffffffff1660e01b8152600401610fa3959493929190612e99565b600060405180830381600087803b158015610fbd57600080fd5b505af1158015610fd1573d6000803e3d6000fd5b505050505b6008546040516370a0823160e01b81526000916001600160a01b0316906370a0823190611007903090600401612988565b60206040518083038186803b15801561101f57600080fd5b505afa158015611033573d6000803e3d6000fd5b505050506040513d601f19601f820116820180604052508101906110579190612933565b111561114b576005546008546040516370a0823160e01b81526001600160a01b0392831692635c11d7959216906370a0823190611098903090600401612988565b60206040518083038186803b1580156110b057600080fd5b505afa1580156110c4573d6000803e3d6000fd5b505050506040513d601f19601f820116820180604052508101906110e89190612933565b600085306110f8426102586121dc565b6040518663ffffffff1660e01b8152600401611118959493929190612e99565b600060405180830381600087803b15801561113257600080fd5b505af1158015611146573d6000803e3d6000fd5b505050505b600480546040516370a0823160e01b81526000926001600160a01b03909216916370a082319161117d91309101612988565b60206040518083038186803b15801561119557600080fd5b505afa1580156111a9573d6000803e3d6000fd5b505050506040513d601f19601f820116820180604052508101906111cd9190612933565b1180156111eb5750600454600c546001600160a01b03908116911614155b1561130357600554600480546040516370a0823160e01b81526001600160a01b03938416936338ed1739939216916370a082319161122b91309101612988565b60206040518083038186803b15801561124357600080fd5b505afa158015611257573d6000803e3d6000fd5b505050506040513d601f19601f8201168201806040525081019061127b9190612933565b6000843061128b426102586121dc565b6040518663ffffffff1660e01b81526004016112ab959493929190612e99565b600060405180830381600087803b1580156112c557600080fd5b505af11580156112d9573d6000803e3d6000fd5b505050506040513d6000823e601f3d908101601f191682016040526113019190810190612866565b505b600c546040516370a0823160e01b81526001600160a01b03909116906370a0823190611333903090600401612988565b60206040518083038186803b15801561134b57600080fd5b505afa15801561135f573d6000803e3d6000fd5b505050506040513d601f19601f820116820180604052508101906113839190612933565b600c546001600160a01b03166000908152601360205260409020556113a6610473565b600c546001600160a01b03166000908152601360205260409081902054905133917fc9695243a805adb74c91f28311176c65b417e842d5699893cef56d18bfa48cba916113f39190612a60565b60405180910390a250505050565b60015481565b60006114206001546002546121dc90919063ffffffff16565b4211905090565b600b5490565b6006546001600160a01b031681565b6009546001600160a01b031681565b611453612235565b6000546001600160a01b039081169116146114805760405162461bcd60e51b81526004016107d690612d6c565b60185460ff16156114a35760405162461bcd60e51b81526004016107d690612c3e565b600680546001600160a01b0319166001600160a01b0392909216919091179055565b6114cd612235565b6000546001600160a01b039081169116146114fa5760405162461bcd60e51b81526004016107d690612d6c565b600080546040516001600160a01b03909116907f8be0079c531659141344cd1fd0a4f28419497f9722a3daafe3b4186f6b6457e0908390a3600080546001600160a01b0319169055565b60008080611553600d8561235b565b600f6000611562600d8861235b565b6001600160a01b03166001600160a01b03168152602001908152602001600020546010600061159b88600d61235b90919063ffffffff16565b6001600160a01b03166001600160a01b03168152602001908152602001600020549250925092509193909250565b6115d1612235565b6000546001600160a01b039081169116146115fe5760405162461bcd60e51b81526004016107d690612d6c565b6007546001600160a01b031663f84354f1611617611751565b6040518263ffffffff1660e01b81526004016116339190612988565b600060405180830381600087803b15801561164d57600080fd5b505af1158015611661573d6000803e3d6000fd5b50506008546001600160a01b0316915063f84354f19050611680611751565b6040518263ffffffff1660e01b815260040161169c9190612988565b600060405180830381600087803b1580156116b657600080fd5b505af11580156116ca573d6000803e3d6000fd5b50505050306001600160a01b031663715018a66040518163ffffffff1660e01b8152600401600060405180830381600087803b15801561170957600080fd5b505af115801561171d573d6000803e3d6000fd5b50506018805460ff191660011790555050565b600f6020526000908152604090205481565b6004546001600160a01b031681565b6000546001600160a01b031690565b60008080805b611770600d612350565b8110156117ef5782600f6000611787600d8561235b565b6001600160a01b03166001600160a01b031681526020019081526020016000205411156117e757600f60006117bd600d8461235b565b6001600160a01b0316815260208101919091526040016000205492506117e4600d8261235b565b91505b600101611766565b5091505090565b6008546001600160a01b031681565b60035481565b6000611817600d612350565b905090565b60116020526000908152604090208054600182015460029092015490916001600160a01b03169083565b600a546001600160a01b031681565b6007546001600160a01b031681565b600080600080600b80549050851061188e5760405162461bcd60e51b81526004016107d690612da1565b600b858154811061189b57fe5b906000526020600020906004020160000154600b86815481106118ba57fe5b6000918252602090912060016004909202010154600b80546001600160a01b0390921691889081106118e857fe5b906000526020600020906004020160010160010154600b888154811061190a57fe5b90600052602060002090600402016001016002015493509350935093509193509193565b60106020526000908152604090205481565b6001600160a01b0381166000908152601660205260409020606090819061196690612350565b67ffffffffffffffff8111801561197c57600080fd5b506040519080825280602002602001820160405280156119b657816020015b6119a36127ab565b81526020019060019003908161199b5790505b50905060005b6001600160a01b03841660009081526016602052604090206119dd90612350565b811015611b09576001600160a01b0384166000908152601660205260408120611a06908361235b565b90506040518060600160405280826001600160a01b03168152602001826001600160a01b031663313ce5676040518163ffffffff1660e01b815260040160206040518083038186803b158015611a5b57600080fd5b505afa158015611a6f573d6000803e3d6000fd5b505050506040513d601f19601f82011682018060405250810190611a93919061294b565b60ff1681526001600160a01b0380841660008181526013602081815260408084206001810154968e16855260148352818520958552948252909220549082529154930192611ae69291610a4d91906122bd565b815250838381518110611af557fe5b6020908102919091010152506001016119bc565b5092915050565b611b18612235565b6000546001600160a01b03908116911614611b455760405162461bcd60e51b81526004016107d690612d6c565b60185460ff1615611b685760405162461bcd60e51b81526004016107d690612c85565b600754604051631e59818360e31b81526001600160a01b039091169063f2cc0c1890611b98908490600401612988565b600060405180830381600087803b158015611bb257600080fd5b505af1158015611bc6573d6000803e3d6000fd5b5050600854604051631e59818360e31b81526001600160a01b03909116925063f2cc0c189150611bfa908490600401612988565b600060405180830381600087803b158015611c1457600080fd5b505af1158015611c28573d6000803e3d6000fd5b5050505050565b611c37612235565b6000546001600160a01b03908116911614611c645760405162461bcd60e51b81526004016107d690612d6c565b6105e881612367565b6006546040805163c8290efd60e01b815290516000926001600160a01b03169163c8290efd916004808301926020929190829003018186803b158015611cb257600080fd5b505afa158015611cc6573d6000803e3d6000fd5b505050506040513d601f19601f82011682018060405250810190611cea91906127e7565b6001600160a01b03166370a08231336040518263ffffffff1660e01b8152600401611d159190612988565b60206040518083038186803b158015611d2d57600080fd5b505afa158015611d41573d6000803e3d6000fd5b505050506040513d601f19601f82011682018060405250810190611d659190612933565b905060008111611d875760405162461bcd60e51b81526004016107d690612b33565b80821115611d93578091505b33600090815260116020526040902060025481541415611ec057600b546000908152601560209081526040808320338452909152812054611dd490856121dc565b600283015460018401546001600160a01b03166000908152600f6020526040902054919250611e039190612239565b6001830180546001600160a01b039081166000908152600f6020908152604080832095909555600b548252601581528482203383528152848220549354909216815260109091529190912054611e5891612239565b6001830180546001600160a01b0390811660009081526010602052604090209290925580546001600160a01b031916918716919091179055611e99816123e8565b6002830155600b546000908152601560209081526040808320338452909152902055611f10565b60025481556001810180546001600160a01b0319166001600160a01b038616179055611eeb836123e8565b6002820155600b54600090815260156020908152604080832033845290915290208390555b600281015460018201546001600160a01b03166000908152600f6020526040902054611f3b916121dc565b6001820180546001600160a01b039081166000908152600f6020908152604080832095909555600b548252601581528482203383528152848220549354909216815260109091529190912054611f90916121dc565b60018201546001600160a01b03908116600090815260106020526040902091909155601254811690851614611fe857611fc7611760565b601280546001600160a01b0319166001600160a01b03929092169190911790555b6006546040516314d755fb60e11b81526001600160a01b03909116906329aeabf69061201a903390879060040161299c565b600060405180830381600087803b15801561203457600080fd5b505af1158015612048573d6000803e3d6000fd5b5050505061206084600d61243990919063ffffffff16565b6120715761206f600d856120a8565b505b600281015460405133917f66a9138482c99e9baf08860110ef332cc0c23b4a199a53593d8db0fc8f96fbfc916113f391889161299c565b60006120bd836001600160a01b03841661244e565b90505b92915050565b80158061214e5750604051636eb1769f60e11b81526001600160a01b0384169063dd62ed3e906120fc90309086906004016129b5565b60206040518083038186803b15801561211457600080fd5b505afa158015612128573d6000803e3d6000fd5b505050506040513d601f19601f8201168201806040525081019061214c9190612933565b155b61216a5760405162461bcd60e51b81526004016107d690612d16565b6121c08363095ea7b360e01b848460405160240161218992919061299c565b60408051601f198184030181529190526020810180516001600160e01b03166001600160e01b031990931692909217909152612498565b505050565b60606121d48484600085612527565b949350505050565b6000828201838110156120bd5760405162461bcd60e51b81526004016107d690612c07565b60006120bd836001600160a01b0384166125eb565b6121c08363a9059cbb60e01b848460405160240161218992919061299c565b3390565b60006120bd83836040518060400160405280601e81526020017f536166654d6174683a207375627472616374696f6e206f766572666c6f7700008152506126ae565b60006120bd83836040518060400160405280601a81526020017f536166654d6174683a206469766973696f6e206279207a65726f0000000000008152506126da565b6000826122cc575060006120c0565b828202828482816122d957fe5b04146120bd5760405162461bcd60e51b81526004016107d690612cd5565b6000612303600d612350565b111561099b576000612316600d8261235b565b6001600160a01b0381166000908152600f6020908152604080832083905560109091528120559050612349600d82612201565b50506122f7565b60006109d182612711565b60006120bd8383612715565b6001600160a01b03811661238d5760405162461bcd60e51b81526004016107d690612bc1565b600080546040516001600160a01b03808516939216917f8be0079c531659141344cd1fd0a4f28419497f9722a3daafe3b4186f6b6457e091a3600080546001600160a01b0319166001600160a01b0392909216919091179055565b6000600382111561242b575080600160028204015b818110156124255780915060028182858161241457fe5b04018161241d57fe5b0490506123fd565b506109d4565b81156109d457506001919050565b60006120bd836001600160a01b03841661275a565b600061245a838361275a565b612490575081546001818101845560008481526020808220909301849055845484825282860190935260409020919091556120c0565b5060006120c0565b60606124ed826040518060400160405280602081526020017f5361666542455032303a206c6f772d6c6576656c2063616c6c206661696c6564815250856001600160a01b03166121c59092919063ffffffff16565b8051909150156121c0578080602001905181019061250b91906128fb565b6121c05760405162461bcd60e51b81526004016107d690612b77565b606061253285612772565b61254e5760405162461bcd60e51b81526004016107d690612dd8565b60006060866001600160a01b0316858760405161256b919061296c565b60006040518083038185875af1925050503d80600081146125a8576040519150601f19603f3d011682016040523d82523d6000602084013e6125ad565b606091505b509150915081156125c15791506121d49050565b8051156125d15780518082602001fd5b8360405162461bcd60e51b81526004016107d69190612a69565b600081815260018301602052604081205480156126a4578354600019808301919081019060009087908390811061261e57fe5b906000526020600020015490508087600001848154811061263b57fe5b60009182526020808320909101929092558281526001890190915260409020849055865487908061266857fe5b600190038181906000526020600020016000905590558660010160008781526020019081526020016000206000905560019450505050506120c0565b60009150506120c0565b600081848411156126d25760405162461bcd60e51b81526004016107d69190612a69565b505050900390565b600081836126fb5760405162461bcd60e51b81526004016107d69190612a69565b50600083858161270757fe5b0495945050505050565b5490565b815460009082106127385760405162461bcd60e51b81526004016107d690612a9c565b82600001828154811061274757fe5b9060005260206000200154905092915050565b60009081526001919091016020526040902054151590565b6000813f7fc5d2460186f7233c927e7db2dcc703c0e500b653ca82273b7bfad8045d85a4708181148015906121d4575050151592915050565b604080516060810182526000808252602082018190529181019190915290565b6000602082840312156127dc578081fd5b81356120bd81612f8e565b6000602082840312156127f8578081fd5b81516120bd81612f8e565b60008060408385031215612815578081fd5b823561282081612f8e565b9150602083013561283081612f8e565b809150509250929050565b6000806040838503121561284d578182fd5b823561285881612f8e565b946020939093013593505050565b60006020808385031215612878578182fd5b825167ffffffffffffffff81111561288e578283fd5b8301601f8101851361289e578283fd5b80516128b16128ac82612f3e565b612f17565b81815283810190838501858402850186018910156128cd578687fd5b8694505b838510156128ef5780518352600194909401939185019185016128d1565b50979650505050505050565b60006020828403121561290c578081fd5b815180151581146120bd578182fd5b60006020828403121561292c578081fd5b5035919050565b600060208284031215612944578081fd5b5051919050565b60006020828403121561295c578081fd5b815160ff811681146120bd578182fd5b6000825161297e818460208701612f5e565b9190910192915050565b6001600160a01b0391909116815260200190565b6001600160a01b03929092168252602082015260400190565b6001600160a01b0392831681529116602082015260400190565b6001600160a01b039390931683526020830191909152604082015260600190565b602080825282518282018190526000919060409081850190868401855b82811015612a4857815180516001600160a01b031685528681015160ff16878601528501518585015260609093019290850190600101612a0d565b5091979650505050505050565b901515815260200190565b90815260200190565b6000602082528251806020840152612a88816040850160208701612f5e565b601f01601f19169190910160400192915050565b60208082526022908201527f456e756d657261626c655365743a20696e646578206f7574206f6620626f756e604082015261647360f01b606082015260800190565b60208082526035908201527f50656163654d61737465723a2043757272656e742065706f63682068617320616040820152741b1c9958591e481899595b881a185c9d995cdd1959605a1b606082015260800190565b60208082526024908201527f50656163654d61737465723a205a656e2062616c616e63652063616e6e6f74206040820152630626520360e41b606082015260800190565b6020808252602a908201527f5361666542455032303a204245503230206f7065726174696f6e20646964206e6040820152691bdd081cdd58d8d9595960b21b606082015260800190565b60208082526026908201527f4f776e61626c653a206e6577206f776e657220697320746865207a65726f206160408201526564647265737360d01b606082015260800190565b6020808252601b908201527f536166654d6174683a206164646974696f6e206f766572666c6f770000000000604082015260600190565b60208082526027908201527f50656163654d61737465723a2054686520697320616c726561647920696e69746040820152661a585b1a5e995960ca1b606082015260800190565b60208082526030908201527f50656163654d61737465723a2054686520636f6e747261637420697320616c7260408201526f1958591e481a5b9a5d1a585b1a5e995960821b606082015260800190565b60208082526021908201527f536166654d6174683a206d756c7469706c69636174696f6e206f766572666c6f6040820152607760f81b606082015260800190565b60208082526036908201527f5361666542455032303a20617070726f76652066726f6d206e6f6e2d7a65726f60408201527520746f206e6f6e2d7a65726f20616c6c6f77616e636560501b606082015260800190565b6020808252818101527f4f776e61626c653a2063616c6c6572206973206e6f7420746865206f776e6572604082015260600190565b6020808252601a908201527f687973746f727920696e646578206f7574206f662072616e6765000000000000604082015260600190565b6020808252601d908201527f416464726573733a2063616c6c20746f206e6f6e2d636f6e7472616374000000604082015260600190565b60208082526027908201527f50656163654d61737465723a204661696c656420746f20726573657420746f6b604082015266195b881b1a5cdd60ca1b606082015260800190565b9283526001600160a01b03919091166020830152604082015260600190565b9384526001600160a01b039290921660208401526040830152606082015260800190565b600060a082018783526020878185015260a0604085015281875180845260c0860191508289019350845b81811015612ee85784516001600160a01b031683529383019391830191600101612ec3565b50506001600160a01b03969096166060850152505050608001529392505050565b918252602082015260400190565b60405181810167ffffffffffffffff81118282101715612f3657600080fd5b604052919050565b600067ffffffffffffffff821115612f54578081fd5b5060209081020190565b60005b83811015612f79578181015183820152602001612f61565b83811115612f88576000848401525b50505050565b6001600160a01b03811681146105e857600080fdfea26469706673582212207cdf5442fd6b58cfd1775564cb9d74cf31ddcbe7956cb3ad81aa97ebee4915fa64736f6c634300060c0033",
  "immutableReferences": {},
  "source": "// SPDX-License-Identifier: MIT\npragma solidity ^0.6.12;\npragma experimental ABIEncoderV2;\n\nimport \"./libraries/Address.sol\";\nimport \"./libraries/SafeMath.sol\";\nimport \"./libraries/SafeBEP20.sol\";\nimport \"./libraries/EnumerableSet.sol\";\nimport \"./interfaces/IPancakeRouter.sol\";\nimport \"./interfaces/IBEP20.sol\";\nimport \"./Ownable.sol\";\nimport \"./Yin.sol\";\nimport \"./Yang.sol\";\nimport \"./Zen.sol\";\nimport \"./ZenGarden.sol\";\n\ncontract PeaceMaster is Ownable {\n    using EnumerableSet for EnumerableSet.AddressSet;\n    using SafeMath for uint256;\n    using SafeBEP20 for IBEP20;\n\n    struct VoterInfo {\n        uint256 epoch;\n        address token;\n        uint256 voices;\n    }\n\n    struct EpochInfo {\n        uint256 startTime;\n        ProposalInfo result;\n    }\n\n    struct ProposalInfo {\n        address token;\n        uint256 voices;\n        uint256 shares;\n    }\n\n    struct AccountInfo {\n        uint256 amount;\n        uint256 shares;\n    }\n\n    struct ShareInfo {\n        address token;\n        uint8 decimals;\n        uint256 amount;\n    }\n\n    uint256 public epochDuration;\n    uint256 public epochStart;\n    uint256 public origin;\n\n    /**\n     * @dev Tokens Used:\n     * {wbnb} - Algo stable BNB.\n     */\n    address public wbnb;\n\n    /**\n     * @dev Third Party Contracts:\n     * {unirouter} - PancakeSwap unirouter\n     */\n    address public unirouter;\n\n    /**\n     * @dev Ecosystem contracts:\n     * {ZenGarden} - Responsible of token zen distribution\n     * {Yin} - Deflationnary reflective token\n     * {Yang} - Deflationnary reflective token\n     */\n    ZenGarden public zenGarden;\n    Yin public yin;\n    Yang public yang;\n    address public busd;\n    address public soup;\n\n    EpochInfo[] history;\n    address public currentTarget = address(0);\n    EnumerableSet.AddressSet proposedTokens;\n    mapping(address => uint256) public voices;\n    mapping(address => uint256) public shares;\n    mapping(address => VoterInfo) public voters;\n    address private lastWinner;\n\n    mapping(address => AccountInfo) public tokenAccounts;\n    mapping(address => mapping(address => AccountInfo)) public userAccounts;\n    mapping(uint256 => mapping(address => uint256)) private participations;\n    mapping(address => EnumerableSet.AddressSet) private userTokens;\n    mapping(address => uint256) private lastUpdate;\n\n    bool public initialized = false;\n\n    event Vote(address indexed user, address proposition, uint256 amount);\n    event Withdraw(address indexed user, address token, uint256 amount);\n    event Harvest(address indexed user, uint256 amount);\n\n    constructor(uint256 start, uint256 _epochDuration, Yin _yin, Yang _yang, address _busd, address _soup, address _unirouter) public {\n        epochDuration = _epochDuration;\n        epochStart = start;\n        origin = start;\n\n        proposedTokens.add(address(0));\n\n        yin = _yin;\n        yang = _yang;\n        busd = _busd;\n        soup = _soup;\n        wbnb = IPancakeRouter(_unirouter).WETH();\n        unirouter = _unirouter;\n\n        yin.approve(unirouter, uint256(-1));\n        yang.approve(unirouter, uint256(-1));\n        IBEP20(wbnb).safeApprove(unirouter, uint256(-1));\n    }\n\n    /// @notice Exclude an account from reflections and burns. Used to protect distribution farms\n    function excludeAccount(address account) public onlyOwner {\n        require(!initialized, \"PeaceMaster: The contract is already initialized\");\n\n        yin.excludeAccount(account);\n        yang.excludeAccount(account);\n    }\n\n    function setZenGarden(address _zenGarden) public onlyOwner {\n        require(!initialized, \"PeaceMaster: The is already initialized\");\n\n        zenGarden = ZenGarden(_zenGarden);\n    }\n\n    function setYinYang() public onlyOwner {\n        require(!initialized, \"PeaceMaster: The is already initialized\");\n        yin.setYang(yang);\n        yang.setYin(yin);\n        excludeAccount(address(this));\n        excludeAccount(yin.getPair());\n        excludeAccount(yang.getPair());\n    }\n\n    /// @notice Call this function once Yin and Yang distribution is set up.\n    function initialize() public onlyOwner {\n        yin.includeAccount(owner());\n        yang.includeAccount(owner());\n        this.renounceOwnership();\n        initialized = true;\n    }\n\n    /// @notice Votes for a token. If a vote has already been cast, all voices go to the new choice.\n    /// The proposed token should have a BNB LP on Pancake swap, else the harvest will not work.\n    /// This is checked by the UI.\n    function voteForNextTarget(address proposition, uint256 amount) public {\n        uint256 userBalance = zenGarden.zen().balanceOf(msg.sender);\n        require(userBalance > 0, \"PeaceMaster: Zen balance cannot be 0\");\n        \n        if(amount > userBalance) {\n            amount = userBalance;\n        }\n\n        VoterInfo storage info = voters[msg.sender];\n        \n        if(info.epoch == epochStart) {\n            // The user has already voted\n            uint256 totalAmount = participations[history.length][msg.sender].add(amount);\n            // Remove voices from the old proposition\n            voices[info.token] = voices[info.token].sub(info.voices);\n            shares[info.token] = shares[info.token].sub(participations[history.length][msg.sender]);\n            // Update infos\n            info.token = proposition;\n            info.voices = totalAmount.sqrt();\n            participations[history.length][msg.sender] = totalAmount;\n        } else {\n            info.epoch = epochStart;\n            info.token = proposition;\n            info.voices = amount.sqrt();\n            participations[history.length][msg.sender] = amount;\n        }\n\n        // Add voices to the new proposition\n        voices[info.token] = voices[info.token].add(info.voices);\n        shares[info.token] = shares[info.token].add(participations[history.length][msg.sender]);\n        if(lastWinner != proposition) {\n            lastWinner = getWinner();\n        }\n\n        zenGarden.safeZenBurn(msg.sender, amount);\n\n        // Update the list of voted tokens if needed\n        if(!proposedTokens.contains(proposition)) {\n            proposedTokens.add(proposition);\n        }\n\n        emit Vote(msg.sender, proposition, info.voices);\n    }\n\n    // Can be called once per epoch to sell collected tokens to buy the elected token\n    function harvest() public {\n        require(isHarvestable(), \"PeaceMaster: Current epoch has already been harvested\");\n        //require(lastWinner != address(0));\n\n        uint256 epochsPast = block.timestamp.sub(epochStart).div(epochDuration);\n        epochStart = epochStart.add(epochDuration.mul(epochsPast));\n\n        currentTarget = getWinner();\n        tokenAccounts[currentTarget].shares = tokenAccounts[currentTarget].shares.add(shares[currentTarget]);\n        cleanProposedTokens();\n        require(proposedTokens.length() == 0, \"PeaceMaster: Failed to reset token list\");\n        proposedTokens.add(address(0));\n        history.push(EpochInfo({\n            startTime: epochStart,\n            result: ProposalInfo({\n                token: currentTarget,\n                voices: voices[currentTarget],\n                shares: shares[currentTarget]\n            })\n        }));\n\n        if(currentTarget == address(0)) {\n            updateUserAccount();\n            emit Harvest(msg.sender, 0);\n            return;\n        }\n\n        address[] memory yinToBNB = new address[](3);\n        yinToBNB[0] = address(yin);\n        yinToBNB[1] = busd;\n        yinToBNB[2] = wbnb;\n\n        address[] memory yangToBNB = new address[](3);\n        yangToBNB[0] = address(yang);\n        yangToBNB[1] = soup;\n        yangToBNB[2] = wbnb;\n\n        address[] memory BNBToTarget = new address[](2);\n        BNBToTarget[0] = wbnb;\n        BNBToTarget[1] = currentTarget;\n\n        // Market sell Yin Yang for the target\n        if(yin.balanceOf(address(this)) > 0) {\n            IPancakeRouter(unirouter).swapExactTokensForTokensSupportingFeeOnTransferTokens(\n                yin.balanceOf(address(this)),\n                0,\n                yinToBNB,\n                address(this),\n                now.add(600)\n            );\n        }\n\n        if(yang.balanceOf(address(this)) > 0) {\n            IPancakeRouter(unirouter).swapExactTokensForTokensSupportingFeeOnTransferTokens(\n                yang.balanceOf(address(this)),\n                0,\n                yangToBNB,\n                address(this),\n                now.add(600)\n            );\n        }\n\n        if(IBEP20(wbnb).balanceOf(address(this)) > 0 && currentTarget != wbnb) {\n            IPancakeRouter(unirouter).swapExactTokensForTokens(\n                IBEP20(wbnb).balanceOf(address(this)),\n                0,\n                BNBToTarget,\n                address(this),\n                now.add(600)\n            );\n        }\n\n        tokenAccounts[currentTarget].amount = IBEP20(currentTarget).balanceOf(address(this));\n        updateUserAccount();\n\n        emit Harvest(msg.sender, tokenAccounts[currentTarget].amount);\n    }\n\n    function getPropositionsLength() external view returns (uint index) {\n        index = proposedTokens.length();\n    }\n\n    function getProposition(uint256 index) external view returns (address, uint256, uint256) {\n        return (proposedTokens.at(index), voices[proposedTokens.at(index)], shares[proposedTokens.at(index)]);\n    }\n\n    function getHistoryLength() external view returns (uint length) {\n        return history.length;\n    }\n\n    function getHistory(uint256 index) external view returns(uint256, address, uint256, uint256) {\n        require(index < history.length, \"hystory index out of range\");\n        return (history[index].startTime, history[index].result.token, history[index].result.voices, history[index].result.shares);\n    }\n\n    function getWinner() public view returns (address) {\n        uint256 maxVoices = 0;\n        address winner = address(0);\n        for(uint256 i = 0; i < proposedTokens.length(); i++) {\n            if(voices[proposedTokens.at(i)] > maxVoices) {\n                maxVoices = voices[proposedTokens.at(i)];\n                winner = proposedTokens.at(i);\n            }\n        }\n        return winner;\n    }\n\n    function isHarvestable() public view returns (bool) {\n        return block.timestamp > epochStart.add(epochDuration);\n    }\n\n    function claimAllVoterShares() public {\n        updateUserAccount();\n        ShareInfo[] memory s = pendingVoterShares(msg.sender);\n        for(uint i=0; i<s.length; i++) {\n            userAccounts[msg.sender][s[i].token].amount = 0;\n            userAccounts[msg.sender][s[i].token].shares = 0;\n            userTokens[msg.sender].remove(s[i].token);\n            IBEP20(s[i].token).safeTransfer(\n                msg.sender, \n                s[i].amount\n            );\n            emit Withdraw(msg.sender, s[i].token, s[i].amount);\n        }\n    }\n\n    function pendingVoterShares(address user) public view returns (ShareInfo[] memory) {\n        ShareInfo[] memory s = new ShareInfo[](userTokens[user].length());\n        for(uint i = 0; i < userTokens[user].length(); i++) {\n            address token = userTokens[user].at(i);\n            s[i] = ShareInfo({\n                token: token,\n                decimals: IBEP20(token).decimals(),\n                amount: tokenAccounts[token].amount.mul(userAccounts[user][token].amount).div(tokenAccounts[token].shares)\n            });\n        }\n        return s;\n    }\n\n    function updatesMissing(address user) public view returns (uint) {\n        return history.length.sub(lastUpdate[user]);\n    }\n\n    function updateUserAccount() public {\n        for(uint i = lastUpdate[msg.sender]; i < history.length; i++) {\n            if(participations[i][msg.sender] > 0) {\n                userTokens[msg.sender].add(history[i].result.token);\n                uint256 oldBalance = userAccounts[msg.sender][history[i].result.token].amount;\n                userAccounts[msg.sender][history[i].result.token].amount = oldBalance.add(participations[i][msg.sender]);\n                participations[i][msg.sender] = 0;\n            }\n            lastUpdate[msg.sender] = i+1;\n        }\n    }\n\n    function cleanProposedTokens() internal {\n        while(proposedTokens.length() > 0) {\n            address token = proposedTokens.at(0);\n            voices[token] = 0;\n            shares[token] = 0;\n            proposedTokens.remove(token);\n        }\n    }\n}\n",
  "sourcePath": "C:/Users/jumic/Projets/truffle/yinyang/contracts/PeaceMaster.sol",
  "compiler": {
    "name": "solc",
    "version": "0.6.12+commit.27d51765.Emscripten.clang"
  },
  "schemaVersion": "3.3.4",
  "updatedAt": "2021-04-11T00:22:23.301Z",
  "networkType": "ethereum",
  "devdoc": {
    "kind": "dev",
    "methods": {
      "owner()": {
        "details": "Returns the address of the current owner."
      },
      "renounceOwnership()": {
        "details": "Leaves the contract without owner. It will not be possible to call `onlyOwner` functions anymore. Can only be called by the current owner. NOTE: Renouncing ownership will leave the contract without an owner, thereby removing any functionality that is only available to the owner."
      },
      "transferOwnership(address)": {
        "details": "Transfers ownership of the contract to a new account (`newOwner`). Can only be called by the current owner."
      }
    },
    "stateVariables": {
      "unirouter": {
        "details": "Third Party Contracts: {unirouter} - PancakeSwap unirouter"
      },
      "wbnb": {
        "details": "Tokens Used: {wbnb} - Algo stable BNB."
      },
      "zenGarden": {
        "details": "Ecosystem contracts: {ZenGarden} - Responsible of token zen distribution {Yin} - Deflationnary reflective token {Yang} - Deflationnary reflective token"
      }
    },
    "version": 1
  },
  "userdoc": {
    "kind": "user",
    "methods": {
      "excludeAccount(address)": {
        "notice": "Exclude an account from reflections and burns. Used to protect distribution farms"
      },
      "initialize()": {
        "notice": "Call this function once Yin and Yang distribution is set up."
      },
      "voteForNextTarget(address,uint256)": {
        "notice": "Votes for a token. If a vote has already been cast, all voices go to the new choice. The proposed token should have a BNB LP on Pancake swap, else the harvest will not work. This is checked by the UI."
      }
    },
    "version": 1
  }
}