{
  "contractName": "YangDistributor",
  "abi": [
    {
      "inputs": [
        {
          "internalType": "address",
          "name": "_yang",
          "type": "address"
        },
        {
          "internalType": "uint256",
          "name": "_startBlock",
          "type": "uint256"
        }
      ],
      "stateMutability": "nonpayable",
      "type": "constructor"
    },
    {
      "anonymous": false,
      "inputs": [
        {
          "indexed": true,
          "internalType": "address",
          "name": "user",
          "type": "address"
        },
        {
          "indexed": true,
          "internalType": "uint256",
          "name": "pid",
          "type": "uint256"
        },
        {
          "indexed": false,
          "internalType": "uint256",
          "name": "amount",
          "type": "uint256"
        }
      ],
      "name": "Deposit",
      "type": "event"
    },
    {
      "anonymous": false,
      "inputs": [
        {
          "indexed": true,
          "internalType": "address",
          "name": "user",
          "type": "address"
        },
        {
          "indexed": true,
          "internalType": "uint256",
          "name": "pid",
          "type": "uint256"
        },
        {
          "indexed": false,
          "internalType": "uint256",
          "name": "amount",
          "type": "uint256"
        }
      ],
      "name": "EmergencyWithdraw",
      "type": "event"
    },
    {
      "anonymous": false,
      "inputs": [
        {
          "indexed": true,
          "internalType": "address",
          "name": "user",
          "type": "address"
        },
        {
          "indexed": false,
          "internalType": "uint256",
          "name": "amount",
          "type": "uint256"
        }
      ],
      "name": "RewardPaid",
      "type": "event"
    },
    {
      "anonymous": false,
      "inputs": [
        {
          "indexed": true,
          "internalType": "address",
          "name": "user",
          "type": "address"
        },
        {
          "indexed": true,
          "internalType": "uint256",
          "name": "pid",
          "type": "uint256"
        },
        {
          "indexed": false,
          "internalType": "uint256",
          "name": "amount",
          "type": "uint256"
        }
      ],
      "name": "Withdraw",
      "type": "event"
    },
    {
      "inputs": [],
      "name": "BLOCKS_PER_WEEK",
      "outputs": [
        {
          "internalType": "uint256",
          "name": "",
          "type": "uint256"
        }
      ],
      "stateMutability": "view",
      "type": "function"
    },
    {
      "inputs": [
        {
          "internalType": "uint256",
          "name": "",
          "type": "uint256"
        }
      ],
      "name": "epochEndBlocks",
      "outputs": [
        {
          "internalType": "uint256",
          "name": "",
          "type": "uint256"
        }
      ],
      "stateMutability": "view",
      "type": "function"
    },
    {
      "inputs": [
        {
          "internalType": "uint256",
          "name": "",
          "type": "uint256"
        }
      ],
      "name": "epochTotalRewards",
      "outputs": [
        {
          "internalType": "uint256",
          "name": "",
          "type": "uint256"
        }
      ],
      "stateMutability": "view",
      "type": "function"
    },
    {
      "inputs": [
        {
          "internalType": "uint256",
          "name": "",
          "type": "uint256"
        }
      ],
      "name": "epochYangPerBlock",
      "outputs": [
        {
          "internalType": "uint256",
          "name": "",
          "type": "uint256"
        }
      ],
      "stateMutability": "view",
      "type": "function"
    },
    {
      "inputs": [],
      "name": "operator",
      "outputs": [
        {
          "internalType": "address",
          "name": "",
          "type": "address"
        }
      ],
      "stateMutability": "view",
      "type": "function"
    },
    {
      "inputs": [
        {
          "internalType": "uint256",
          "name": "",
          "type": "uint256"
        }
      ],
      "name": "poolInfo",
      "outputs": [
        {
          "internalType": "contract IBEP20",
          "name": "lpToken",
          "type": "address"
        },
        {
          "internalType": "uint256",
          "name": "allocPoint",
          "type": "uint256"
        },
        {
          "internalType": "uint256",
          "name": "lastRewardBlock",
          "type": "uint256"
        },
        {
          "internalType": "uint256",
          "name": "accYangPerShare",
          "type": "uint256"
        },
        {
          "internalType": "bool",
          "name": "isStarted",
          "type": "bool"
        }
      ],
      "stateMutability": "view",
      "type": "function"
    },
    {
      "inputs": [],
      "name": "startBlock",
      "outputs": [
        {
          "internalType": "uint256",
          "name": "",
          "type": "uint256"
        }
      ],
      "stateMutability": "view",
      "type": "function"
    },
    {
      "inputs": [],
      "name": "totalAllocPoint",
      "outputs": [
        {
          "internalType": "uint256",
          "name": "",
          "type": "uint256"
        }
      ],
      "stateMutability": "view",
      "type": "function"
    },
    {
      "inputs": [
        {
          "internalType": "uint256",
          "name": "",
          "type": "uint256"
        },
        {
          "internalType": "address",
          "name": "",
          "type": "address"
        }
      ],
      "name": "userInfo",
      "outputs": [
        {
          "internalType": "uint256",
          "name": "amount",
          "type": "uint256"
        },
        {
          "internalType": "uint256",
          "name": "rewardDebt",
          "type": "uint256"
        }
      ],
      "stateMutability": "view",
      "type": "function"
    },
    {
      "inputs": [],
      "name": "yang",
      "outputs": [
        {
          "internalType": "contract IBEP20",
          "name": "",
          "type": "address"
        }
      ],
      "stateMutability": "view",
      "type": "function"
    },
    {
      "inputs": [],
      "name": "collectLeftOvers",
      "outputs": [],
      "stateMutability": "nonpayable",
      "type": "function"
    },
    {
      "inputs": [
        {
          "internalType": "uint256",
          "name": "_allocPoint",
          "type": "uint256"
        },
        {
          "internalType": "contract IBEP20",
          "name": "_lpToken",
          "type": "address"
        },
        {
          "internalType": "bool",
          "name": "_withUpdate",
          "type": "bool"
        },
        {
          "internalType": "uint256",
          "name": "_lastRewardBlock",
          "type": "uint256"
        }
      ],
      "name": "add",
      "outputs": [],
      "stateMutability": "nonpayable",
      "type": "function"
    },
    {
      "inputs": [
        {
          "internalType": "uint256",
          "name": "_pid",
          "type": "uint256"
        },
        {
          "internalType": "uint256",
          "name": "_allocPoint",
          "type": "uint256"
        }
      ],
      "name": "set",
      "outputs": [],
      "stateMutability": "nonpayable",
      "type": "function"
    },
    {
      "inputs": [
        {
          "internalType": "uint256",
          "name": "_from",
          "type": "uint256"
        },
        {
          "internalType": "uint256",
          "name": "_to",
          "type": "uint256"
        }
      ],
      "name": "getGeneratedReward",
      "outputs": [
        {
          "internalType": "uint256",
          "name": "",
          "type": "uint256"
        }
      ],
      "stateMutability": "view",
      "type": "function"
    },
    {
      "inputs": [
        {
          "internalType": "uint256",
          "name": "_pid",
          "type": "uint256"
        },
        {
          "internalType": "address",
          "name": "_user",
          "type": "address"
        }
      ],
      "name": "pendingRewards",
      "outputs": [
        {
          "internalType": "uint256",
          "name": "",
          "type": "uint256"
        }
      ],
      "stateMutability": "view",
      "type": "function"
    },
    {
      "inputs": [
        {
          "internalType": "uint256",
          "name": "_pid",
          "type": "uint256"
        },
        {
          "internalType": "address",
          "name": "_user",
          "type": "address"
        }
      ],
      "name": "balanceOf",
      "outputs": [
        {
          "internalType": "uint256",
          "name": "",
          "type": "uint256"
        }
      ],
      "stateMutability": "view",
      "type": "function"
    },
    {
      "inputs": [],
      "name": "massUpdatePools",
      "outputs": [],
      "stateMutability": "nonpayable",
      "type": "function"
    },
    {
      "inputs": [
        {
          "internalType": "uint256",
          "name": "_pid",
          "type": "uint256"
        }
      ],
      "name": "updatePool",
      "outputs": [],
      "stateMutability": "nonpayable",
      "type": "function"
    },
    {
      "inputs": [
        {
          "internalType": "uint256",
          "name": "_pid",
          "type": "uint256"
        },
        {
          "internalType": "uint256",
          "name": "_amount",
          "type": "uint256"
        }
      ],
      "name": "deposit",
      "outputs": [],
      "stateMutability": "nonpayable",
      "type": "function"
    },
    {
      "inputs": [
        {
          "internalType": "uint256",
          "name": "_pid",
          "type": "uint256"
        },
        {
          "internalType": "uint256",
          "name": "_amount",
          "type": "uint256"
        }
      ],
      "name": "withdraw",
      "outputs": [],
      "stateMutability": "nonpayable",
      "type": "function"
    },
    {
      "inputs": [
        {
          "internalType": "uint256",
          "name": "_pid",
          "type": "uint256"
        }
      ],
      "name": "emergencyWithdraw",
      "outputs": [],
      "stateMutability": "nonpayable",
      "type": "function"
    },
    {
      "inputs": [
        {
          "internalType": "address",
          "name": "_operator",
          "type": "address"
        }
      ],
      "name": "setOperator",
      "outputs": [],
      "stateMutability": "nonpayable",
      "type": "function"
    }
  ],
  "bytecode": "0x600060045560e06040526954b40b1f852bda000000608081815260a091909152692a5a058fc295ed00000060c0526200003d90600690600362000273565b503480156200004b57600080fd5b5060405162001c4b38038062001c4b833981810160405260408110156200007157600080fd5b50805160209091015143811015620000865750435b6001600160a01b03821615620000b257600180546001600160a01b0319166001600160a01b0384161790555b600581905562062700810160075560015b60028111620000fd576206270060076001830360038110620000e157fe5b01540160078260038110620000f257fe5b0155600101620000c3565b5060005b6002811162000158576200013f62062700600683815481106200012057fe5b90600052602060002001546200017b60201b620011d21790919060201c565b600a82600481106200014d57fe5b015560010162000101565b6000600a600301555050600080546001600160a01b0319163317905550620002e5565b6000620001c583836040518060400160405280601a81526020017f536166654d6174683a206469766973696f6e206279207a65726f000000000000815250620001cc60201b60201c565b9392505050565b600081836200025c5760405162461bcd60e51b81526004018080602001828103825283818151815260200191508051906020019080838360005b838110156200022057818101518382015260200162000206565b50505050905090810190601f1680156200024e5780820380516001836020036101000a031916815260200191505b509250505060405180910390fd5b5060008385816200026957fe5b0495945050505050565b828054828255906000526020600020908101928215620002bc579160200282015b82811115620002bc57825182906001600160501b031690559160200191906001019062000294565b50620002ca929150620002ce565b5090565b5b80821115620002ca5760008155600101620002cf565b61195680620002f56000396000f3fe608060405234801561001057600080fd5b50600436106101425760003560e01c8063630b5ba1116100b85780639a25cefc1161007c5780639a25cefc14610366578063acca993e14610383578063b3ab15fb146103a0578063d18df53c146103c6578063e2bbb158146103f2578063fc47e2091461041557610142565b8063630b5ba1146102cf5780637af954ce146102d75780638f8c06b7146102df57806393f1a40b146102e757806396805e541461032c57610142565b80633fd500011161010a5780633fd5000114610229578063441a3e701461024657806348cd4cb11461026957806351eb05a6146102715780635312ea8e1461028e578063570ca735146102ab57610142565b80631526fe271461014757806317caf6f11461019b5780631ab06ee5146101b5578063231f0c6a146101da5780633656eec2146101fd575b600080fd5b6101646004803603602081101561015d57600080fd5b503561041d565b604080516001600160a01b039096168652602086019490945284840192909252606084015215156080830152519081900360a00190f35b6101a3610468565b60408051918252519081900360200190f35b6101d8600480360360408110156101cb57600080fd5b508035906020013561046e565b005b6101a3600480360360408110156101f057600080fd5b508035906020013561051c565b6101a36004803603604081101561021357600080fd5b50803590602001356001600160a01b03166106db565b6101a36004803603602081101561023f57600080fd5b5035610703565b6101d86004803603604081101561025c57600080fd5b5080359060200135610717565b6101a36108f8565b6101d86004803603602081101561028757600080fd5b50356108fe565b6101d8600480360360208110156102a457600080fd5b5035610a5c565b6102b3610af8565b604080516001600160a01b039092168252519081900360200190f35b6101d8610b07565b6101d8610b2a565b6102b3610c39565b610313600480360360408110156102fd57600080fd5b50803590602001356001600160a01b0316610c48565b6040805192835260208301919091528051918290030190f35b6101d86004803603608081101561034257600080fd5b508035906001600160a01b0360208201351690604081013515159060600135610c6c565b6101a36004803603602081101561037c57600080fd5b5035610e69565b6101a36004803603602081101561039957600080fd5b5035610e87565b6101d8600480360360208110156103b657600080fd5b50356001600160a01b0316610e94565b6101a3600480360360408110156103dc57600080fd5b50803590602001356001600160a01b0316610eff565b6101d86004803603604081101561040857600080fd5b508035906020013561105b565b6101a36111cb565b6002818154811061042a57fe5b6000918252602090912060059091020180546001820154600283015460038401546004909401546001600160a01b0390931694509092909160ff1685565b60045481565b6000546001600160a01b031633146104b75760405162461bcd60e51b815260040180806020018281038252602b8152602001806118f6602b913960400191505060405180910390fd5b6104bf610b07565b6000600283815481106104ce57fe5b60009182526020909120600590910201600481015490915060ff1615610515576105118261050b836001015460045461121490919063ffffffff16565b90611256565b6004555b6001015550565b600060035b60018160ff16106106c05760076001820360ff166003811061053f57fe5b015483106106b75760076001820360ff166003811061055a57fe5b0154841061058f57610587600a8260ff166004811061057557fe5b01546105818587611214565b906112b0565b9150506106d5565b60006105c5600a8360ff16600481106105a457fe5b015461058160076001860360ff16600381106105bc57fe5b01548790611214565b90508160ff1660011415610601576105f86105f1600a60005b015461058188600760005b015490611214565b8290611256565b925050506106d5565b6001820391505b60018260ff16106106a85760076001830360ff166003811061062657fe5b0154851061065a576105f86105f1600a8460ff166004811061064457fe5b01546105818860078760ff16600381106105e957fe5b61069a6105f1600a8460ff166004811061067057fe5b015461058160076001870360ff166003811061068857fe5b015460078760ff16600381106105e957fe5b600019909201919050610608565b6105f86105f1600a60006105de565b60001901610521565b50600a546106d2906105818486611214565b90505b92915050565b60009182526003602090815260408084206001600160a01b0393909316845291905290205490565b6007816003811061071057fe5b0154905081565b600033905060006002848154811061072b57fe5b600091825260208083208784526003825260408085206001600160a01b038816865290925292208054600590920290920192508411156107a7576040805162461bcd60e51b81526020600482015260126024820152711dda5d1a191c985dce881b9bdd0819dbdbd960721b604482015290519081900360640190fd5b6107b0856108fe565b60006107ed82600101546107e7670de0b6b3a76400006107e1876003015487600001546112b090919063ffffffff16565b906111d2565b90611214565b9050801561083f576107ff8482611309565b6040805182815290516001600160a01b038616917fe2403640ba68fed3a2f88b7557551d1993f84b99bb10ff833f0cf8db0c5e0486919081900360200190a25b841561086e5781546108519086611214565b82558254610869906001600160a01b031685876113c8565b61088d565b815460008355835490955061088d906001600160a01b031685876113c8565b600383015482546108ab91670de0b6b3a7640000916107e1916112b0565b600183015560408051868152905187916001600160a01b038716917ff279e6a1f5e320cca91135676d9cb6e44ca8a08c0b88342bcdb1144f6511b5689181900360200190a3505050505050565b60055481565b60006002828154811061090d57fe5b906000526020600020906005020190508060020154431161092e5750610a59565b8054604080516370a0823160e01b815230600482015290516000926001600160a01b0316916370a08231916024808301926020929190829003018186803b15801561097857600080fd5b505afa15801561098c573d6000803e3d6000fd5b505050506040513d60208110156109a257600080fd5b50519050806109b8575043600290910155610a59565b600482015460ff166109e9576004808301805460ff1916600190811790915583015490546109e591611256565b6004555b60045415610a50576000610a0183600201544361051c565b90506000610a226004546107e18660010154856112b090919063ffffffff16565b9050610a48610a3d846107e184670de0b6b3a76400006112b0565b600386015490611256565b600385015550505b50436002909101555b50565b600060028281548110610a6b57fe5b600091825260208083208584526003825260408085203380875293528420805485825560018201959095556005909302018054909450919291610abb916001600160a01b039190911690836113c8565b604080518281529051859133917fbb757047c2b5f3974fe26b7c10f732e7bce710b0952a71082702781e62ae05959181900360200190a350505050565b6000546001600160a01b031681565b60025460005b81811015610b2657610b1e816108fe565b600101610b0d565b5050565b6000546001600160a01b03163314610b735760405162461bcd60e51b815260040180806020018281038252602b8152602001806118f6602b913960400191505060405180910390fd5b6009544310610bb35760405162461bcd60e51b815260040180806020018281038252602c8152602001806118a9602c913960400191505060405180910390fd5b600054600154604080516370a0823160e01b81523060048201529051610c37936001600160a01b039081169316916370a08231916024808301926020929190829003018186803b158015610c0657600080fd5b505afa158015610c1a573d6000803e3d6000fd5b505050506040513d6020811015610c3057600080fd5b5051611309565b565b6001546001600160a01b031681565b60036020908152600092835260408084209091529082529020805460019091015482565b6000546001600160a01b03163314610cb55760405162461bcd60e51b815260040180806020018281038252602b8152602001806118f6602b913960400191505060405180910390fd5b610cbe8361141a565b8115610ccc57610ccc610b07565b600554431015610cf85780610ce45750600554610cf3565b600554811015610cf357506005545b610d0c565b801580610d0457504381105b15610d0c5750435b600060055482111580610d1f5750438211155b6040805160a0810182526001600160a01b03878116825260208201898152928201868152600060608401818152861580156080870190815260028054600181018255945295517f405787fa12a823e0f2b7631cc41b3ba8828b3321ca811111fa75cd3aa3bb5ace600590940293840180546001600160a01b031916919096161790945594517f405787fa12a823e0f2b7631cc41b3ba8828b3321ca811111fa75cd3aa3bb5acf82015590517f405787fa12a823e0f2b7631cc41b3ba8828b3321ca811111fa75cd3aa3bb5ad082015592517f405787fa12a823e0f2b7631cc41b3ba8828b3321ca811111fa75cd3aa3bb5ad184015590517f405787fa12a823e0f2b7631cc41b3ba8828b3321ca811111fa75cd3aa3bb5ad2909201805460ff191692151592909217909155909150610e6257600454610e5e9086611256565b6004555b5050505050565b60068181548110610e7657fe5b600091825260209091200154905081565b600a816004811061071057fe5b6000546001600160a01b03163314610edd5760405162461bcd60e51b815260040180806020018281038252602b8152602001806118f6602b913960400191505060405180910390fd5b600080546001600160a01b0319166001600160a01b0392909216919091179055565b60008060028481548110610f0f57fe5b60009182526020808320878452600380835260408086206001600160a01b03808b168852908552818720600590960290930191820154825482516370a0823160e01b815230600482015292519398509596909590949316926370a0823192602480840193829003018186803b158015610f8757600080fd5b505afa158015610f9b573d6000803e3d6000fd5b505050506040513d6020811015610fb157600080fd5b5051600285015490915043118015610fc857508015155b15611025576000610fdd85600201544361051c565b90506000610ffe6004546107e18860010154856112b090919063ffffffff16565b9050611020611019846107e184670de0b6b3a76400006112b0565b8590611256565b935050505b61105083600101546107e7670de0b6b3a76400006107e18688600001546112b090919063ffffffff16565b979650505050505050565b600033905060006002848154811061106f57fe5b600091825260208083208784526003825260408085206001600160a01b03881686529092529220600590910290910191506110a9856108fe565b8054156111355760006110e182600101546107e7670de0b6b3a76400006107e1876003015487600001546112b090919063ffffffff16565b90508015611133576110f38482611309565b6040805182815290516001600160a01b038616917fe2403640ba68fed3a2f88b7557551d1993f84b99bb10ff833f0cf8db0c5e0486919081900360200190a25b505b8315611161578154611152906001600160a01b03168430876114b4565b805461115e9085611256565b81555b6003820154815461117f91670de0b6b3a7640000916107e1916112b0565b600182015560408051858152905186916001600160a01b038616917f90890809c654f11d6e72a28fa60149770a0d11ec6c92319d6ceb2bb0a4ea1a159181900360200190a35050505050565b6206270081565b60006106d283836040518060400160405280601a81526020017f536166654d6174683a206469766973696f6e206279207a65726f000000000000815250611514565b60006106d283836040518060400160405280601e81526020017f536166654d6174683a207375627472616374696f6e206f766572666c6f7700008152506115b6565b6000828201838110156106d2576040805162461bcd60e51b815260206004820152601b60248201527f536166654d6174683a206164646974696f6e206f766572666c6f770000000000604482015290519081900360640190fd5b6000826112bf575060006106d5565b828202828482816112cc57fe5b04146106d25760405162461bcd60e51b81526004018080602001828103825260218152602001806118d56021913960400191505060405180910390fd5b600154604080516370a0823160e01b815230600482015290516000926001600160a01b0316916370a08231916024808301926020929190829003018186803b15801561135457600080fd5b505afa158015611368573d6000803e3d6000fd5b505050506040513d602081101561137e57600080fd5b5051905080156113c357808211156113ac576001546113a7906001600160a01b031684836113c8565b6113c3565b6001546113c3906001600160a01b031684846113c8565b505050565b604080516001600160a01b038416602482015260448082018490528251808303909101815260649091019091526020810180516001600160e01b031663a9059cbb60e01b1790526113c3908490611610565b60025460005b818110156113c357826001600160a01b03166002828154811061143f57fe5b60009182526020909120600590910201546001600160a01b031614156114ac576040805162461bcd60e51b815260206004820152601f60248201527f59616e674469737472696275746f723a206578697374696e6720706f6f6c3f00604482015290519081900360640190fd5b600101611420565b604080516001600160a01b0380861660248301528416604482015260648082018490528251808303909101815260849091019091526020810180516001600160e01b03166323b872dd60e01b17905261150e908590611610565b50505050565b600081836115a05760405162461bcd60e51b81526004018080602001828103825283818151815260200191508051906020019080838360005b8381101561156557818101518382015260200161154d565b50505050905090810190601f1680156115925780820380516001836020036101000a031916815260200191505b509250505060405180910390fd5b5060008385816115ac57fe5b0495945050505050565b600081848411156116085760405162461bcd60e51b815260206004820181815283516024840152835190928392604490910191908501908083836000831561156557818101518382015260200161154d565b505050900390565b6060611665826040518060400160405280602081526020017f5361666542455032303a206c6f772d6c6576656c2063616c6c206661696c6564815250856001600160a01b03166116c19092919063ffffffff16565b8051909150156113c35780806020019051602081101561168457600080fd5b50516113c35760405162461bcd60e51b815260040180806020018281038252602a81526020018061187f602a913960400191505060405180910390fd5b60606116d084846000856116d8565b949350505050565b60606116e385611845565b611734576040805162461bcd60e51b815260206004820152601d60248201527f416464726573733a2063616c6c20746f206e6f6e2d636f6e7472616374000000604482015290519081900360640190fd5b60006060866001600160a01b031685876040518082805190602001908083835b602083106117735780518252601f199092019160209182019101611754565b6001836020036101000a03801982511681845116808217855250505050505090500191505060006040518083038185875af1925050503d80600081146117d5576040519150601f19603f3d011682016040523d82523d6000602084013e6117da565b606091505b509150915081156117ee5791506116d09050565b8051156117fe5780518082602001fd5b60405162461bcd60e51b815260206004820181815286516024840152865187939192839260440191908501908083836000831561156557818101518382015260200161154d565b6000813f7fc5d2460186f7233c927e7db2dcc703c0e500b653ca82273b7bfad8045d85a4708181148015906116d057505015159291505056fe5361666542455032303a204245503230206f7065726174696f6e20646964206e6f74207375636365656459696e4469737472696275746f723a20646973747269627574696f6e206973206e6f74206f76657220796574536166654d6174683a206d756c7469706c69636174696f6e206f766572666c6f7759616e674469737472696275746f723a2063616c6c6572206973206e6f7420746865206f70657261746f72a2646970667358221220fb861b1d588b264d30a23969af0273630cfe1e4153def819ce4951032d87042864736f6c634300060c0033",
  "immutableReferences": {},
  "source": "// SPDX-License-Identifier: MIT\r\npragma solidity ^0.6.12;\r\n\r\nimport \"./libraries/SafeMath.sol\";\r\nimport \"./libraries/SafeBEP20.sol\";\r\nimport \"./interfaces/IBEP20.sol\";\r\n\r\n// Note that this pool has no minter key of YANG (rewards).\r\n// Instead, the governance will call YANG distributeReward method and send reward to this pool at the beginning.\r\ncontract YangDistributor {\r\n    using SafeMath for uint256;\r\n    using SafeBEP20 for IBEP20;\r\n\r\n    // governance\r\n    address public operator;\r\n\r\n    // Info of each user.\r\n    struct UserInfo {\r\n        uint256 amount; // How many LP tokens the user has provided.\r\n        uint256 rewardDebt; // Reward debt. See explanation below.\r\n    }\r\n\r\n    // Info of each pool.\r\n    struct PoolInfo {\r\n        IBEP20 lpToken; // Address of LP token contract.\r\n        uint256 allocPoint; // How many allocation points assigned to this pool. YANGs to distribute per block.\r\n        uint256 lastRewardBlock; // Last block number that YANG distribution occurs.\r\n        uint256 accYangPerShare; // Accumulated YANGs per share, times 1e18.\r\n        bool isStarted; // if lastRewardBlock has passed\r\n    }\r\n\r\n    IBEP20 public yang;\r\n\r\n    // Info of each pool.\r\n    PoolInfo[] public poolInfo;\r\n\r\n    // Info of each user that stakes LP tokens.\r\n    mapping(uint256 => mapping(address => UserInfo)) public userInfo;\r\n\r\n    // Total allocation points. Must be the sum of all allocation points in all pools.\r\n    uint256 public totalAllocPoint = 0;\r\n\r\n    // The block number when YANG mining starts.\r\n    uint256 public startBlock;\r\n\r\n    uint256 public constant BLOCKS_PER_WEEK = 86400 * 14 / 3; // 14 DAYS!\r\n\r\n    uint256[] public epochTotalRewards = [400000 ether, 400000 ether, 200000 ether];\r\n\r\n    // Block number when each epoch ends.\r\n    uint[3] public epochEndBlocks;\r\n\r\n    // Reward per block for each of 3 epochs (last item is equal to 0 - for sanity).\r\n    uint[4] public epochYangPerBlock;\r\n\r\n    event Deposit(address indexed user, uint256 indexed pid, uint256 amount);\r\n    event Withdraw(address indexed user, uint256 indexed pid, uint256 amount);\r\n    event EmergencyWithdraw(address indexed user, uint256 indexed pid, uint256 amount);\r\n    event RewardPaid(address indexed user, uint256 amount);\r\n\r\n    constructor(\r\n        address _yang,\r\n        uint256 _startBlock\r\n    ) public {\r\n        if (_startBlock < block.number) _startBlock = block.number;\r\n        if (_yang != address(0)) yang = IBEP20(_yang);\r\n        startBlock = _startBlock; // supposed to be 3,410,000 (Fri Dec 25 2020 15:00:00 UTC)\r\n        epochEndBlocks[0] = startBlock + BLOCKS_PER_WEEK;\r\n        uint256 i;\r\n        for (i = 1; i <= 2; ++i) {\r\n            epochEndBlocks[i] = epochEndBlocks[i - 1] + BLOCKS_PER_WEEK;\r\n        }\r\n        for (i = 0; i <= 2; ++i) {\r\n            epochYangPerBlock[i] = epochTotalRewards[i].div(BLOCKS_PER_WEEK);\r\n        }\r\n        epochYangPerBlock[3] = 0;\r\n        operator = msg.sender;\r\n    }\r\n\r\n    modifier onlyOperator() {\r\n        require(operator == msg.sender, \"YangDistributor: caller is not the operator\");\r\n        _;\r\n    }\r\n\r\n    function collectLeftOvers() public onlyOperator {\r\n        require(block.number < epochEndBlocks[2], \"YinDistributor: distribution is not over yet\");\r\n        safeYangTransfer(operator, yang.balanceOf(address(this)));\r\n    }\r\n\r\n    function checkPoolDuplicate(IBEP20 _lpToken) internal view {\r\n        uint256 length = poolInfo.length;\r\n        for (uint256 pid = 0; pid < length; ++pid) {\r\n            require(poolInfo[pid].lpToken != _lpToken, \"YangDistributor: existing pool?\");\r\n        }\r\n    }\r\n\r\n    // Add a new lp to the pool. Can only be called by the owner.\r\n    function add(\r\n        uint256 _allocPoint,\r\n        IBEP20 _lpToken,\r\n        bool _withUpdate,\r\n        uint256 _lastRewardBlock\r\n    ) public onlyOperator {\r\n        checkPoolDuplicate(_lpToken);\r\n        if (_withUpdate) {\r\n            massUpdatePools();\r\n        }\r\n        if (block.number < startBlock) {\r\n            // chef is sleeping\r\n            if (_lastRewardBlock == 0) {\r\n                _lastRewardBlock = startBlock;\r\n            } else {\r\n                if (_lastRewardBlock < startBlock) {\r\n                    _lastRewardBlock = startBlock;\r\n                }\r\n            }\r\n        } else {\r\n            // chef is cooking\r\n            if (_lastRewardBlock == 0 || _lastRewardBlock < block.number) {\r\n                _lastRewardBlock = block.number;\r\n            }\r\n        }\r\n        bool _isStarted =\r\n        (_lastRewardBlock <= startBlock) ||\r\n        (_lastRewardBlock <= block.number);\r\n        poolInfo.push(PoolInfo({\r\n            lpToken : _lpToken,\r\n            allocPoint : _allocPoint,\r\n            lastRewardBlock : _lastRewardBlock,\r\n            accYangPerShare : 0,\r\n            isStarted : _isStarted\r\n            }));\r\n        if (_isStarted) {\r\n            totalAllocPoint = totalAllocPoint.add(_allocPoint);\r\n        }\r\n    }\r\n\r\n    // Update the given pool's YANG allocation point. Can only be called by the owner.\r\n    function set(uint256 _pid, uint256 _allocPoint) public onlyOperator {\r\n        massUpdatePools();\r\n        PoolInfo storage pool = poolInfo[_pid];\r\n        if (pool.isStarted) {\r\n            totalAllocPoint = totalAllocPoint.sub(pool.allocPoint).add(\r\n                _allocPoint\r\n            );\r\n        }\r\n        pool.allocPoint = _allocPoint;\r\n    }\r\n\r\n    // Return accumulate rewards over the given _from to _to block.\r\n    function getGeneratedReward(uint256 _from, uint256 _to) public view returns (uint256) {\r\n        for (uint8 epochId = 3; epochId >= 1; --epochId) {\r\n            if (_to >= epochEndBlocks[epochId - 1]) {\r\n                if (_from >= epochEndBlocks[epochId - 1]) return _to.sub(_from).mul(epochYangPerBlock[epochId]);\r\n                uint256 _generatedReward = _to.sub(epochEndBlocks[epochId - 1]).mul(epochYangPerBlock[epochId]);\r\n                if (epochId == 1) return _generatedReward.add(epochEndBlocks[0].sub(_from).mul(epochYangPerBlock[0]));\r\n                for (epochId = epochId - 1; epochId >= 1; --epochId) {\r\n                    if (_from >= epochEndBlocks[epochId - 1]) return _generatedReward.add(epochEndBlocks[epochId].sub(_from).mul(epochYangPerBlock[epochId]));\r\n                    _generatedReward = _generatedReward.add(epochEndBlocks[epochId].sub(epochEndBlocks[epochId - 1]).mul(epochYangPerBlock[epochId]));\r\n                }\r\n                return _generatedReward.add(epochEndBlocks[0].sub(_from).mul(epochYangPerBlock[0]));\r\n            }\r\n        }\r\n        return _to.sub(_from).mul(epochYangPerBlock[0]);\r\n    }\r\n\r\n    // View function to see pending YANGs on frontend.\r\n    function pendingRewards(uint256 _pid, address _user) external view returns (uint256) {\r\n        PoolInfo storage pool = poolInfo[_pid];\r\n        UserInfo storage user = userInfo[_pid][_user];\r\n        uint256 accYangPerShare = pool.accYangPerShare;\r\n        uint256 lpSupply = pool.lpToken.balanceOf(address(this));\r\n        if (block.number > pool.lastRewardBlock && lpSupply != 0) {\r\n            uint256 _generatedReward = getGeneratedReward(pool.lastRewardBlock, block.number);\r\n            uint256 _yangReward = _generatedReward.mul(pool.allocPoint).div(totalAllocPoint);\r\n            accYangPerShare = accYangPerShare.add(_yangReward.mul(1e18).div(lpSupply));\r\n        }\r\n        return user.amount.mul(accYangPerShare).div(1e18).sub(user.rewardDebt);\r\n    }\r\n    // View function to see user balance on frontend.\r\n    function balanceOf(uint256 _pid, address _user) external view returns (uint256) {\r\n        UserInfo storage user = userInfo[_pid][_user];\r\n        return user.amount;\r\n    }\r\n\r\n    // Update reward variables for all pools. Be careful of gas spending!\r\n    function massUpdatePools() public {\r\n        uint256 length = poolInfo.length;\r\n        for (uint256 pid = 0; pid < length; ++pid) {\r\n            updatePool(pid);\r\n        }\r\n    }\r\n\r\n    // Update reward variables of the given pool to be up-to-date.\r\n    function updatePool(uint256 _pid) public {\r\n        PoolInfo storage pool = poolInfo[_pid];\r\n        if (block.number <= pool.lastRewardBlock) {\r\n            return;\r\n        }\r\n        uint256 lpSupply = pool.lpToken.balanceOf(address(this));\r\n        if (lpSupply == 0) {\r\n            pool.lastRewardBlock = block.number;\r\n            return;\r\n        }\r\n        if (!pool.isStarted) {\r\n            pool.isStarted = true;\r\n            totalAllocPoint = totalAllocPoint.add(pool.allocPoint);\r\n        }\r\n        if (totalAllocPoint > 0) {\r\n            uint256 _generatedReward = getGeneratedReward(pool.lastRewardBlock, block.number);\r\n            uint256 _yangReward = _generatedReward.mul(pool.allocPoint).div(totalAllocPoint);\r\n            pool.accYangPerShare = pool.accYangPerShare.add(_yangReward.mul(1e18).div(lpSupply));\r\n        }\r\n        pool.lastRewardBlock = block.number;\r\n    }\r\n\r\n    // Deposit LP tokens.\r\n    function deposit(uint256 _pid, uint256 _amount) public {\r\n        address _sender = msg.sender;\r\n        PoolInfo storage pool = poolInfo[_pid];\r\n        UserInfo storage user = userInfo[_pid][_sender];\r\n        updatePool(_pid);\r\n        if (user.amount > 0) {\r\n            uint256 _pending = user.amount.mul(pool.accYangPerShare).div(1e18).sub(user.rewardDebt);\r\n            if (_pending > 0) {\r\n                safeYangTransfer(_sender, _pending);\r\n                emit RewardPaid(_sender, _pending);\r\n            }\r\n        }\r\n        if (_amount > 0) {\r\n            pool.lpToken.safeTransferFrom(_sender, address(this), _amount);\r\n            user.amount = user.amount.add(_amount);\r\n        }\r\n        user.rewardDebt = user.amount.mul(pool.accYangPerShare).div(1e18);\r\n        emit Deposit(_sender, _pid, _amount);\r\n    }\r\n\r\n    // Withdraw LP tokens.\r\n    function withdraw(uint256 _pid, uint256 _amount) public {\r\n        address _sender = msg.sender;\r\n        PoolInfo storage pool = poolInfo[_pid];\r\n        UserInfo storage user = userInfo[_pid][_sender];\r\n        require(user.amount >= _amount, \"withdraw: not good\");\r\n        updatePool(_pid);\r\n        uint256 _pending = user.amount.mul(pool.accYangPerShare).div(1e18).sub(user.rewardDebt);\r\n        if (_pending > 0) {\r\n            safeYangTransfer(_sender, _pending);\r\n            emit RewardPaid(_sender, _pending);\r\n        }\r\n        if (_amount > 0) {\r\n            user.amount = user.amount.sub(_amount);\r\n            pool.lpToken.safeTransfer(_sender, _amount);\r\n        } else {\r\n            // withdraws all\r\n            _amount = user.amount;\r\n            user.amount = 0;\r\n            pool.lpToken.safeTransfer(_sender, _amount);\r\n        }\r\n        user.rewardDebt = user.amount.mul(pool.accYangPerShare).div(1e18);\r\n        emit Withdraw(_sender, _pid, _amount);\r\n    }\r\n\r\n    // Withdraw without caring about rewards. EMERGENCY ONLY.\r\n    function emergencyWithdraw(uint256 _pid) public {\r\n        PoolInfo storage pool = poolInfo[_pid];\r\n        UserInfo storage user = userInfo[_pid][msg.sender];\r\n        uint256 _amount = user.amount;\r\n        user.amount = 0;\r\n        user.rewardDebt = 0;\r\n        pool.lpToken.safeTransfer(msg.sender, _amount);\r\n        emit EmergencyWithdraw(msg.sender, _pid, _amount);\r\n    }\r\n\r\n    // Safe yang transfer function, just in case if rounding error causes pool to not have enough Yang.\r\n    function safeYangTransfer(address _to, uint256 _amount) internal {\r\n        uint256 _yangBal = yang.balanceOf(address(this));\r\n        if (_yangBal > 0) {\r\n            if (_amount > _yangBal) {\r\n                yang.safeTransfer(_to, _yangBal);\r\n            } else {\r\n                yang.safeTransfer(_to, _amount);\r\n            }\r\n        }\r\n    }\r\n\r\n    function setOperator(address _operator) external onlyOperator {\r\n        operator = _operator;\r\n    }\r\n}",
  "sourcePath": "C:/Users/jumic/Projets/truffle/yinyang/contracts/YangDistributor.sol",
  "compiler": {
    "name": "solc",
    "version": "0.6.12+commit.27d51765.Emscripten.clang"
  },
  "schemaVersion": "3.3.4",
  "updatedAt": "2021-04-11T00:19:20.288Z",
  "devdoc": {
    "kind": "dev",
    "methods": {},
    "version": 1
  },
  "userdoc": {
    "kind": "user",
    "methods": {},
    "version": 1
  }
}