{
  "contractName": "Yin",
  "abi": [
    {
      "inputs": [
        {
          "internalType": "address",
          "name": "_factory",
          "type": "address"
        },
        {
          "internalType": "address",
          "name": "_busd",
          "type": "address"
        }
      ],
      "stateMutability": "nonpayable",
      "type": "constructor"
    },
    {
      "anonymous": false,
      "inputs": [
        {
          "indexed": true,
          "internalType": "address",
          "name": "owner",
          "type": "address"
        },
        {
          "indexed": true,
          "internalType": "address",
          "name": "spender",
          "type": "address"
        },
        {
          "indexed": false,
          "internalType": "uint256",
          "name": "value",
          "type": "uint256"
        }
      ],
      "name": "Approval",
      "type": "event"
    },
    {
      "anonymous": false,
      "inputs": [
        {
          "indexed": true,
          "internalType": "address",
          "name": "previousOwner",
          "type": "address"
        },
        {
          "indexed": true,
          "internalType": "address",
          "name": "newOwner",
          "type": "address"
        }
      ],
      "name": "OwnershipTransferred",
      "type": "event"
    },
    {
      "anonymous": false,
      "inputs": [
        {
          "indexed": true,
          "internalType": "address",
          "name": "from",
          "type": "address"
        },
        {
          "indexed": true,
          "internalType": "address",
          "name": "to",
          "type": "address"
        },
        {
          "indexed": false,
          "internalType": "uint256",
          "name": "value",
          "type": "uint256"
        }
      ],
      "name": "Transfer",
      "type": "event"
    },
    {
      "inputs": [],
      "name": "owner",
      "outputs": [
        {
          "internalType": "address",
          "name": "",
          "type": "address"
        }
      ],
      "stateMutability": "view",
      "type": "function",
      "constant": true
    },
    {
      "inputs": [],
      "name": "pancakeYinBUSDPair",
      "outputs": [
        {
          "internalType": "address",
          "name": "",
          "type": "address"
        }
      ],
      "stateMutability": "view",
      "type": "function",
      "constant": true
    },
    {
      "inputs": [],
      "name": "renounceOwnership",
      "outputs": [],
      "stateMutability": "nonpayable",
      "type": "function"
    },
    {
      "inputs": [
        {
          "internalType": "address",
          "name": "newOwner",
          "type": "address"
        }
      ],
      "name": "transferOwnership",
      "outputs": [],
      "stateMutability": "nonpayable",
      "type": "function"
    },
    {
      "inputs": [],
      "name": "yang",
      "outputs": [
        {
          "internalType": "contract Yang",
          "name": "",
          "type": "address"
        }
      ],
      "stateMutability": "view",
      "type": "function",
      "constant": true
    },
    {
      "inputs": [
        {
          "internalType": "contract Yang",
          "name": "_yang",
          "type": "address"
        }
      ],
      "name": "setYang",
      "outputs": [],
      "stateMutability": "nonpayable",
      "type": "function"
    },
    {
      "inputs": [
        {
          "internalType": "address",
          "name": "_distributor",
          "type": "address"
        }
      ],
      "name": "setDistributor",
      "outputs": [],
      "stateMutability": "nonpayable",
      "type": "function"
    },
    {
      "inputs": [],
      "name": "name",
      "outputs": [
        {
          "internalType": "string",
          "name": "",
          "type": "string"
        }
      ],
      "stateMutability": "view",
      "type": "function",
      "constant": true
    },
    {
      "inputs": [],
      "name": "symbol",
      "outputs": [
        {
          "internalType": "string",
          "name": "",
          "type": "string"
        }
      ],
      "stateMutability": "view",
      "type": "function",
      "constant": true
    },
    {
      "inputs": [],
      "name": "decimals",
      "outputs": [
        {
          "internalType": "uint8",
          "name": "",
          "type": "uint8"
        }
      ],
      "stateMutability": "view",
      "type": "function",
      "constant": true
    },
    {
      "inputs": [],
      "name": "totalSupply",
      "outputs": [
        {
          "internalType": "uint256",
          "name": "",
          "type": "uint256"
        }
      ],
      "stateMutability": "view",
      "type": "function",
      "constant": true
    },
    {
      "inputs": [],
      "name": "getOwner",
      "outputs": [
        {
          "internalType": "address",
          "name": "",
          "type": "address"
        }
      ],
      "stateMutability": "view",
      "type": "function",
      "constant": true
    },
    {
      "inputs": [
        {
          "internalType": "address",
          "name": "account",
          "type": "address"
        }
      ],
      "name": "balanceOf",
      "outputs": [
        {
          "internalType": "uint256",
          "name": "",
          "type": "uint256"
        }
      ],
      "stateMutability": "view",
      "type": "function",
      "constant": true
    },
    {
      "inputs": [
        {
          "internalType": "address",
          "name": "recipient",
          "type": "address"
        },
        {
          "internalType": "uint256",
          "name": "amount",
          "type": "uint256"
        }
      ],
      "name": "transfer",
      "outputs": [
        {
          "internalType": "bool",
          "name": "",
          "type": "bool"
        }
      ],
      "stateMutability": "nonpayable",
      "type": "function"
    },
    {
      "inputs": [
        {
          "internalType": "address",
          "name": "owner",
          "type": "address"
        },
        {
          "internalType": "address",
          "name": "spender",
          "type": "address"
        }
      ],
      "name": "allowance",
      "outputs": [
        {
          "internalType": "uint256",
          "name": "",
          "type": "uint256"
        }
      ],
      "stateMutability": "view",
      "type": "function",
      "constant": true
    },
    {
      "inputs": [
        {
          "internalType": "address",
          "name": "spender",
          "type": "address"
        },
        {
          "internalType": "uint256",
          "name": "amount",
          "type": "uint256"
        }
      ],
      "name": "approve",
      "outputs": [
        {
          "internalType": "bool",
          "name": "",
          "type": "bool"
        }
      ],
      "stateMutability": "nonpayable",
      "type": "function"
    },
    {
      "inputs": [
        {
          "internalType": "address",
          "name": "sender",
          "type": "address"
        },
        {
          "internalType": "address",
          "name": "recipient",
          "type": "address"
        },
        {
          "internalType": "uint256",
          "name": "amount",
          "type": "uint256"
        }
      ],
      "name": "transferFrom",
      "outputs": [
        {
          "internalType": "bool",
          "name": "",
          "type": "bool"
        }
      ],
      "stateMutability": "nonpayable",
      "type": "function"
    },
    {
      "inputs": [
        {
          "internalType": "address",
          "name": "spender",
          "type": "address"
        },
        {
          "internalType": "uint256",
          "name": "addedValue",
          "type": "uint256"
        }
      ],
      "name": "increaseAllowance",
      "outputs": [
        {
          "internalType": "bool",
          "name": "",
          "type": "bool"
        }
      ],
      "stateMutability": "nonpayable",
      "type": "function"
    },
    {
      "inputs": [
        {
          "internalType": "address",
          "name": "spender",
          "type": "address"
        },
        {
          "internalType": "uint256",
          "name": "subtractedValue",
          "type": "uint256"
        }
      ],
      "name": "decreaseAllowance",
      "outputs": [
        {
          "internalType": "bool",
          "name": "",
          "type": "bool"
        }
      ],
      "stateMutability": "nonpayable",
      "type": "function"
    },
    {
      "inputs": [],
      "name": "getPair",
      "outputs": [
        {
          "internalType": "address",
          "name": "",
          "type": "address"
        }
      ],
      "stateMutability": "view",
      "type": "function",
      "constant": true
    },
    {
      "inputs": [],
      "name": "totalFees",
      "outputs": [
        {
          "internalType": "uint256",
          "name": "",
          "type": "uint256"
        }
      ],
      "stateMutability": "view",
      "type": "function",
      "constant": true
    },
    {
      "inputs": [
        {
          "internalType": "uint256",
          "name": "tokenAmount",
          "type": "uint256"
        },
        {
          "internalType": "bool",
          "name": "deductTransferFee",
          "type": "bool"
        }
      ],
      "name": "reflectionFromToken",
      "outputs": [
        {
          "internalType": "uint256",
          "name": "",
          "type": "uint256"
        }
      ],
      "stateMutability": "view",
      "type": "function",
      "constant": true
    },
    {
      "inputs": [
        {
          "internalType": "uint256",
          "name": "reflectedAmount",
          "type": "uint256"
        }
      ],
      "name": "tokenFromReflection",
      "outputs": [
        {
          "internalType": "uint256",
          "name": "",
          "type": "uint256"
        }
      ],
      "stateMutability": "view",
      "type": "function",
      "constant": true
    },
    {
      "inputs": [
        {
          "internalType": "address",
          "name": "account",
          "type": "address"
        }
      ],
      "name": "isExcluded",
      "outputs": [
        {
          "internalType": "bool",
          "name": "",
          "type": "bool"
        }
      ],
      "stateMutability": "view",
      "type": "function",
      "constant": true
    },
    {
      "inputs": [
        {
          "internalType": "address",
          "name": "account",
          "type": "address"
        }
      ],
      "name": "excludeAccount",
      "outputs": [],
      "stateMutability": "nonpayable",
      "type": "function"
    },
    {
      "inputs": [
        {
          "internalType": "address",
          "name": "account",
          "type": "address"
        }
      ],
      "name": "includeAccount",
      "outputs": [],
      "stateMutability": "nonpayable",
      "type": "function"
    }
  ],
  "bytecode": "0x60c060405260036080819052622cb4b760e91b60a0908152620000269160099190620001bd565b50604080518082019091526003808252622ca4a760e91b60209092019182526200005391600a91620001bd565b50600b805460ff1916601217905569d3c21bcecceda1000000600c5569085afffa6ff50bffffff19600d553480156200008b57600080fd5b50604051620022303803806200223083398181016040526040811015620000b157600080fd5b5080516020909101516000620000c6620001b9565b600080546001600160a01b0319166001600160a01b0383169081178255604051929350917f8be0079c531659141344cd1fd0a4f28419497f9722a3daafe3b4186f6b6457e0908290a350604080516364e329cb60e11b81523060048201526001600160a01b03838116602483015291519184169163c9c65396916044808201926020929091908290030181600087803b1580156200016357600080fd5b505af115801562000178573d6000803e3d6000fd5b505050506040513d60208110156200018f57600080fd5b5051600180546001600160a01b0319166001600160a01b0390921691909117905550620002599050565b3390565b828054600181600116156101000203166002900490600052602060002090601f016020900481019282601f106200020057805160ff191683800117855562000230565b8280016001018555821562000230579182015b828111156200023057825182559160200191906001019062000213565b506200023e92915062000242565b5090565b5b808211156200023e576000815560010162000243565b611fc780620002696000396000f3fe608060405234801561001057600080fd5b506004361061018e5760003560e01c8063893d20e8116100de578063b9b14f0d11610097578063dd62ed3e11610071578063dd62ed3e1461047a578063f2cc0c18146104a8578063f2fde38b146104ce578063f84354f1146104f45761018e565b8063b9b14f0d14610426578063c1f1b1b51461044c578063cba0e996146104545761018e565b8063893d20e8146103ae5780638da5cb5b146103b65780638f8c06b7146103be57806395d89b41146103c6578063a457c2d7146103ce578063a9059cbb146103fa5761018e565b8063313ce5671161014b57806364f9f1f11161012557806364f9f1f11461033457806370a0823114610358578063715018a61461037e57806375619ab5146103885761018e565b8063313ce567146102c557806339509351146102e35780634549b0391461030f5761018e565b806306fdde0314610193578063095ea7b31461021057806313114a9d1461025057806318160ddd1461026a57806323b872dd146102725780632d838119146102a8575b600080fd5b61019b61051a565b6040805160208082528351818301528351919283929083019185019080838360005b838110156101d55781810151838201526020016101bd565b50505050905090810190601f1680156102025780820380516001836020036101000a031916815260200191505b509250505060405180910390f35b61023c6004803603604081101561022657600080fd5b506001600160a01b0381351690602001356105b0565b604080519115158252519081900360200190f35b6102586105ce565b60408051918252519081900360200190f35b6102586105d4565b61023c6004803603606081101561028857600080fd5b506001600160a01b038135811691602081013590911690604001356105da565b610258600480360360208110156102be57600080fd5b503561068c565b6102cd6106ee565b6040805160ff9092168252519081900360200190f35b61023c600480360360408110156102f957600080fd5b506001600160a01b0381351690602001356106f7565b6102586004803603604081101561032557600080fd5b50803590602001351515610745565b61033c6107d3565b604080516001600160a01b039092168252519081900360200190f35b6102586004803603602081101561036e57600080fd5b50356001600160a01b03166107e2565b610386610844565b005b6103866004803603602081101561039e57600080fd5b50356001600160a01b03166108e6565b61033c610a17565b61033c610a26565b61033c610a35565b61019b610a44565b61023c600480360360408110156103e457600080fd5b506001600160a01b038135169060200135610aa5565b61023c6004803603604081101561041057600080fd5b506001600160a01b038135169060200135610b0d565b6103866004803603602081101561043c57600080fd5b50356001600160a01b0316610b21565b61033c610b9b565b61023c6004803603602081101561046a57600080fd5b50356001600160a01b0316610baa565b6102586004803603604081101561049057600080fd5b506001600160a01b0381358116916020013516610bc8565b610386600480360360208110156104be57600080fd5b50356001600160a01b0316610bf3565b610386600480360360208110156104e457600080fd5b50356001600160a01b0316610d79565b6103866004803603602081101561050a57600080fd5b50356001600160a01b0316610ddd565b60098054604080516020601f60026000196101006001881615020190951694909404938401819004810282018101909252828152606093909290918301828280156105a65780601f1061057b576101008083540402835291602001916105a6565b820191906000526020600020905b81548152906001019060200180831161058957829003601f168201915b5050505050905090565b60006105c46105bd610f9e565b8484610fa2565b5060015b92915050565b600e5490565b600c5490565b60006105e78484846110a4565b610682846105f3610f9e565b61067d856040518060400160405280601f81526020017f59696e3a207472616e73666572206578636565647320616c6c6f77616e636500815250600660008b6001600160a01b03166001600160a01b03168152602001908152602001600020600061065c610f9e565b6001600160a01b0316815260208101919091526040016000205491906112c6565b610fa2565b5060019392505050565b6000600d548211156106cf5760405162461bcd60e51b815260040180806020018281038252602a815260200180611e52602a913960400191505060405180910390fd5b60006106d961135d565b90506106e58382611380565b9150505b919050565b600b5460ff1690565b60006105c4610704610f9e565b8461067d8560066000610715610f9e565b6001600160a01b03908116825260208083019390935260409182016000908120918c1681529252902054906113c9565b6000600c5483111561079e576040805162461bcd60e51b815260206004820152601f60248201527f416d6f756e74206d757374206265206c657373207468616e20737570706c7900604482015290519081900360640190fd5b816107bb5760006107ae84611423565b509193506105c892505050565b60006107c684611423565b509093506105c892505050565b6001546001600160a01b031681565b6001600160a01b03811660009081526007602052604081205460ff161561082257506001600160a01b0381166000908152600560205260409020546106e9565b6001600160a01b0382166000908152600460205260409020546105c89061068c565b61084c610f9e565b6000546001600160a01b0390811691161461089c576040805162461bcd60e51b81526020600482018190526024820152600080516020611ee6833981519152604482015290519081900360640190fd5b600080546040516001600160a01b03909116907f8be0079c531659141344cd1fd0a4f28419497f9722a3daafe3b4186f6b6457e0908390a3600080546001600160a01b0319169055565b6108ee610f9e565b6000546001600160a01b0390811691161461093e576040805162461bcd60e51b81526020600482018190526024820152600080516020611ee6833981519152604482015290519081900360640190fd5b6003546001600160a01b03161561099c576040805162461bcd60e51b815260206004820152601c60248201527f59696e3a204469737472696275746f7220616c72656164792073657400000000604482015290519081900360640190fd5b600380546001600160a01b0319166001600160a01b038316179055600c54600019816109c457fe5b600380546001600160a01b03908116600090815260046020908152604080832096909506199095559154600c54845190815293519116939192600080516020611f2f83398151915292908290030190a350565b6000610a21610a26565b905090565b6000546001600160a01b031690565b6002546001600160a01b031681565b600a8054604080516020601f60026000196101006001881615020190951694909404938401819004810282018101909252828152606093909290918301828280156105a65780601f1061057b576101008083540402835291602001916105a6565b60006105c4610ab2610f9e565b8461067d85604051806060016040528060238152602001611ec36023913960066000610adc610f9e565b6001600160a01b03908116825260208083019390935260409182016000908120918d168152925290205491906112c6565b60006105c4610b1a610f9e565b84846110a4565b610b29610f9e565b6000546001600160a01b03908116911614610b79576040805162461bcd60e51b81526020600482018190526024820152600080516020611ee6833981519152604482015290519081900360640190fd5b600280546001600160a01b0319166001600160a01b0392909216919091179055565b6001546001600160a01b031690565b6001600160a01b031660009081526007602052604090205460ff1690565b6001600160a01b03918216600090815260066020908152604080832093909416825291909152205490565b610bfb610f9e565b6000546001600160a01b03908116911614610c4b576040805162461bcd60e51b81526020600482018190526024820152600080516020611ee6833981519152604482015290519081900360640190fd5b6001600160a01b03811660009081526007602052604090205460ff1615610cb9576040805162461bcd60e51b815260206004820152601b60248201527f4163636f756e7420697320616c7265616479206578636c756465640000000000604482015290519081900360640190fd5b6001600160a01b03811660009081526004602052604090205415610d13576001600160a01b038116600090815260046020526040902054610cf99061068c565b6001600160a01b0382166000908152600560205260409020555b6001600160a01b03166000818152600760205260408120805460ff191660019081179091556008805491820181559091527ff3f7a9fe364faab93b216da50a3214154f22a0a2b415b23a84c8169e8b636ee30180546001600160a01b0319169091179055565b610d81610f9e565b6000546001600160a01b03908116911614610dd1576040805162461bcd60e51b81526020600482018190526024820152600080516020611ee6833981519152604482015290519081900360640190fd5b610dda81611595565b50565b610de5610f9e565b6000546001600160a01b03908116911614610e35576040805162461bcd60e51b81526020600482018190526024820152600080516020611ee6833981519152604482015290519081900360640190fd5b6001600160a01b03811660009081526007602052604090205460ff16610ea2576040805162461bcd60e51b815260206004820152601b60248201527f4163636f756e7420697320616c7265616479206578636c756465640000000000604482015290519081900360640190fd5b60005b600854811015610f9a57816001600160a01b031660088281548110610ec657fe5b6000918252602090912001546001600160a01b03161415610f9257600880546000198101908110610ef357fe5b600091825260209091200154600880546001600160a01b039092169183908110610f1957fe5b600091825260208083209190910180546001600160a01b0319166001600160a01b039485161790559184168152600582526040808220829055600790925220805460ff191690556008805480610f6b57fe5b600082815260209020810160001990810180546001600160a01b0319169055019055610f9a565b600101610ea5565b5050565b3390565b6001600160a01b038316610fe75760405162461bcd60e51b8152600401808060200182810382526022815260200180611f706022913960400191505060405180910390fd5b6001600160a01b038216611042576040805162461bcd60e51b815260206004820181905260248201527f59696e3a20617070726f766520746f20746865207a65726f2061646472657373604482015290519081900360640190fd5b6001600160a01b03808416600081815260066020908152604080832094871680845294825291829020859055815185815291517f8c5be1e5ebec7d5bd14f71427d1e84f3dd0314c0f7b2291e5b200ac8c7c3b9259281900390910190a3505050565b6001600160a01b0383166110e95760405162461bcd60e51b8152600401808060200182810382526023815260200180611e2f6023913960400191505060405180910390fd5b6001600160a01b03821661112e5760405162461bcd60e51b8152600401808060200182810382526021815260200180611f4f6021913960400191505060405180910390fd5b6000811161116d5760405162461bcd60e51b8152600401808060200182810382526029815260200180611f066029913960400191505060405180910390fd5b6001600160a01b03831660009081526007602052604090205460ff1680156111ae57506001600160a01b03821660009081526007602052604090205460ff16155b156111c3576111be838383611635565b6112c1565b6001600160a01b03831660009081526007602052604090205460ff1615801561120457506001600160a01b03821660009081526007602052604090205460ff165b15611214576111be83838361170f565b6001600160a01b03831660009081526007602052604090205460ff1615801561125657506001600160a01b03821660009081526007602052604090205460ff16155b15611266576111be8383836117f3565b6001600160a01b03831660009081526007602052604090205460ff1680156112a657506001600160a01b03821660009081526007602052604090205460ff165b156112b6576111be838383611841565b6112c18383836117f3565b505050565b600081848411156113555760405162461bcd60e51b81526004018080602001828103825283818151815260200191508051906020019080838360005b8381101561131a578181015183820152602001611302565b50505050905090810190601f1680156113475780820380516001836020036101000a031916815260200191505b509250505060405180910390fd5b505050900390565b600080600061136a6118c0565b90925090506113798282611380565b9250505090565b60006113c283836040518060400160405280601a81526020017f536166654d6174683a206469766973696f6e206279207a65726f000000000000815250611a23565b9392505050565b6000828201838110156113c2576040805162461bcd60e51b815260206004820152601b60248201527f536166654d6174683a206164646974696f6e206f766572666c6f770000000000604482015290519081900360640190fd5b600080808080611434866032611380565b90506000611443876032611380565b90506000611452886064611380565b90506000611461896032611380565b90506000306001600160a01b03166318160ddd6040518163ffffffff1660e01b815260040160206040518083038186803b15801561149e57600080fd5b505afa1580156114b2573d6000803e3d6000fd5b505050506040513d60208110156114c857600080fd5b5051600254604080516318160ddd60e01b815290519293506000926001600160a01b03909216916318160ddd91600480820192602092909190829003018186803b15801561151557600080fd5b505afa158015611529573d6000803e3d6000fd5b505050506040513d602081101561153f57600080fd5b5051905080821061155b5761155484846113c9565b9350611568565b61156586846113c9565b95505b506000915061158590508261157f85818d89611a88565b90611a88565b9993985091965094509092505050565b6001600160a01b0381166115da5760405162461bcd60e51b8152600401808060200182810382526026815260200180611e7c6026913960400191505060405180910390fd5b600080546040516001600160a01b03808516939216917f8be0079c531659141344cd1fd0a4f28419497f9722a3daafe3b4186f6b6457e091a3600080546001600160a01b0319166001600160a01b0392909216919091179055565b600080600061164384611423565b9350935093505060008061165986868686611aca565b50506001600160a01b038a1660009081526005602052604090205491935091506116839087611a88565b6001600160a01b0389166000908152600560209081526040808320939093556004905220546116b29083611a88565b6001600160a01b03808a1660009081526004602052604080822093909355908916815220546116e190826113c9565b6001600160a01b038816600090815260046020526040902055611705888888611b3d565b5050505050505050565b60008060008061171e85611423565b935093509350935060008061173587868686611aca565b50506001600160a01b038b16600090815260046020526040902054919350915061175f9083611a88565b6001600160a01b03808b16600090815260046020908152604080832094909455918b1681526005909152205461179590876113c9565b6001600160a01b0389166000908152600560209081526040808320939093556004905220546117c490826113c9565b6001600160a01b0389166000908152600460205260409020556117e8898989611b3d565b505050505050505050565b600080600061180184611423565b9350935093505060008061181786868686611aca565b50506001600160a01b038a1660009081526004602052604090205491935091506116b29083611a88565b60008060008061185085611423565b935093509350935060008061186787868686611aca565b50506001600160a01b038b1660009081526005602052604090205491935091506118919088611a88565b6001600160a01b038a1660009081526005602090815260408083209390935560049052205461175f9083611a88565b600d54600c546000918291825b6008548110156119f1578260046000600884815481106118e957fe5b60009182526020808320909101546001600160a01b03168352820192909252604001902054118061194e575081600560006008848154811061192757fe5b60009182526020808320909101546001600160a01b03168352820192909252604001902054115b1561196557600d54600c5494509450505050611a1f565b6119a5600460006008848154811061197957fe5b60009182526020808320909101546001600160a01b031683528201929092526040019020548490611a88565b92506119e760056000600884815481106119bb57fe5b60009182526020808320909101546001600160a01b031683528201929092526040019020548390611a88565b91506001016118cd565b50600c54600d54611a0191611380565b821015611a1957600d54600c54935093505050611a1f565b90925090505b9091565b60008183611a725760405162461bcd60e51b815260206004820181815283516024840152835190928392604490910191908501908083836000831561131a578181015183820152602001611302565b506000838581611a7e57fe5b0495945050505050565b60006113c283836040518060400160405280601e81526020017f536166654d6174683a207375627472616374696f6e206f766572666c6f7700008152506112c6565b6000806000806000611ada61135d565b90506000611ae88a83611bcc565b90506000611af68a84611bcc565b90506000611b048a85611bcc565b90506000611b128a86611bcc565b90506000611b268261157f85818989611a88565b949e949d50929b5090995091975050505050505050565b600080600080611b4c85611423565b9350935093509350600080611b6387868686611aca565b935093505050611b738286611c25565b611b7e898583611c49565b611b888984611d63565b876001600160a01b0316896001600160a01b0316600080516020611f2f833981519152886040518082815260200191505060405180910390a3505050505050505050565b600082611bdb575060006105c8565b82820282848281611be857fe5b04146113c25760405162461bcd60e51b8152600401808060200182810382526021815260200180611ea26021913960400191505060405180910390fd5b600d54611c329083611a88565b600d55600e54611c4290826113c9565b600e555050565b6000611c53610a26565b6001600160a01b03811660009081526007602052604090205490915060ff1615611ce7576001600160a01b038116600090815260056020526040902054611c9a90846113c9565b6001600160a01b038216600090815260056020908152604080832093909355600490522054611cc990836113c9565b6001600160a01b038216600090815260046020526040902055611d24565b6001600160a01b038116600090815260046020526040902054611d0a90836113c9565b6001600160a01b0382166000908152600460205260409020555b806001600160a01b0316846001600160a01b0316600080516020611f2f833981519152856040518082815260200191505060405180910390a350505050565b6001600160a01b038216611dbe576040805162461bcd60e51b815260206004820152601f60248201527f59696e3a206275726e2066726f6d20746865207a65726f206164647265737300604482015290519081900360640190fd5b6000611dc861135d565b90506000611dd68383611bcc565b600c54909150611de69084611a88565b600c55600d54611df69082611a88565b600d556040805184815290516000916001600160a01b03871691600080516020611f2f8339815191529181900360200190a35050505056fe59696e3a207472616e736665722066726f6d20746865207a65726f2061646472657373416d6f756e74206d757374206265206c657373207468616e20746f74616c207265666c656374696f6e734f776e61626c653a206e6577206f776e657220697320746865207a65726f2061646472657373536166654d6174683a206d756c7469706c69636174696f6e206f766572666c6f7759696e3a2064656372656173656420616c6c6f77616e63652062656c6f77207a65726f4f776e61626c653a2063616c6c6572206973206e6f7420746865206f776e65725472616e7366657220616d6f756e74206d7573742062652067726561746572207468616e207a65726fddf252ad1be2c89b69c2b068fc378daa952ba7f163c4a11628f55a4df523b3ef59696e3a207472616e7366657220746f20746865207a65726f206164647265737359696e3a20617070726f76652066726f6d20746865207a65726f2061646472657373a2646970667358221220f4fa898ec5348c5fcccb24c4956cf9b32f1e13ac32bc2f88611104386ed03c0864736f6c634300060c0033",
  "immutableReferences": {},
  "source": "// SPDX-License-Identifier: MIT\npragma solidity ^0.6.12;\n\nimport \"./libraries/Address.sol\";\nimport \"./libraries/SafeMath.sol\";\nimport \"./libraries/SafeBEP20.sol\";\nimport \"./interfaces/IBEP20.sol\";\nimport \"./interfaces/IPancakeRouter.sol\";\nimport \"./interfaces/IPancakeFactory.sol\";\nimport \"./Ownable.sol\";\n\nimport \"./Yang.sol\";\n\ncontract Yin is Context, Ownable, IBEP20 {\n    using SafeMath for uint256;\n    using Address for address;\n\n    address public pancakeYinBUSDPair;\n\n    Yang public yang;\n    address distributor;\n\n    mapping (address => uint256) private _rOwned;\n    mapping (address => uint256) private _tOwned;\n    mapping (address => mapping (address => uint256)) private _allowances;\n\n    mapping (address => bool) private _isExcluded;\n    address[] private _excluded;\n\n    string private _name = 'Yin';\n    string private _symbol = 'YIN';\n    uint8 private _decimals = 18;\n\n    uint256 private constant MAX = ~uint256(0);\n    uint256 private _tTotal = 10**6 * 10**18;\n    uint256 private _rTotal = (MAX - (MAX % _tTotal));\n    uint256 private _tFeeTotal;\n\n    constructor (\n        address _factory,\n        address _busd\n    ) public {\n        pancakeYinBUSDPair = IPancakeFactory(_factory).createPair(address(this), _busd);\n    }\n\n    function setYang(Yang _yang) public onlyOwner {\n        yang = _yang;\n    }\n\n    function setDistributor(address _distributor) public onlyOwner {\n        require(distributor == address(0), \"Yin: Distributor already set\");\n        distributor = _distributor;\n        _rOwned[distributor] = (MAX - (MAX % _tTotal));\n\n        emit Transfer(address(0), distributor, _tTotal);\n    }\n\n    /// @notice The name of the token\n    function name() public view override returns (string memory) {\n        return _name;\n    }\n\n    /// @notice The symbol of the token\n    function symbol() public view override returns (string memory) {\n        return _symbol;\n    }\n\n    /// @notice The number of decimals of the token\n    function decimals() public view override returns (uint8) {\n        return _decimals;\n    }\n\n    /// @notice The current total supply of the token\n    function totalSupply() public view override returns (uint256) {\n        return _tTotal;\n    }\n\n    /// @notice The owner\n    function getOwner() public view override returns (address) {\n        return owner();\n    }\n\n    /**\n     * @notice The balance of an account\n     * @param account The address of the account\n     */\n    function balanceOf(address account) public view override returns (uint256) {\n        if (_isExcluded[account]) return _tOwned[account];\n        return tokenFromReflection(_rOwned[account]);\n    }\n\n    /**\n     * @notice Transfers tokens from the sender's account to a recipient\n     * @param recipient The account receiving the transfer\n     * @param amount The amount of tokens to be transfered\n     */\n    function transfer(address recipient, uint256 amount) public override returns (bool) {\n        _transfer(_msgSender(), recipient, amount);\n        return true;\n    }\n\n    /**\n     * @notice Allows an account to spend for another\n     * @param owner The owner of the spending account\n     * @param spender The account actually spending the tokens\n     */\n    function allowance(address owner, address spender) public view override returns (uint256) {\n        return _allowances[owner][spender];\n    }\n\n    function approve(address spender, uint256 amount) public override returns (bool) {\n        _approve(_msgSender(), spender, amount);\n        return true;\n    }\n\n    function transferFrom(address sender, address recipient, uint256 amount) public override returns (bool) {\n        _transfer(sender, recipient, amount);\n        _approve(sender, _msgSender(), _allowances[sender][_msgSender()].sub(amount, \"Yin: transfer exceeds allowance\"));\n        return true;\n    }\n\n    function increaseAllowance(address spender, uint256 addedValue) public virtual returns (bool) {\n        _approve(_msgSender(), spender, _allowances[_msgSender()][spender].add(addedValue));\n        return true;\n    }\n\n    function decreaseAllowance(address spender, uint256 subtractedValue) public virtual returns (bool) {\n        _approve(_msgSender(), spender, _allowances[_msgSender()][spender].sub(subtractedValue, \"Yin: decreased allowance below zero\"));\n        return true;\n    }\n\n    /// @notice Returns the farmed pair\n    function getPair() public view returns (address) {\n        return pancakeYinBUSDPair;\n    }\n\n    function totalFees() public view returns (uint256) {\n        return _tFeeTotal;\n    }\n\n    function reflectionFromToken(uint256 tokenAmount, bool deductTransferFee) public view returns(uint256) {\n        require(tokenAmount <= _tTotal, \"Amount must be less than supply\");\n        if (!deductTransferFee) {\n            (uint256 reflectedAmount, , , ) = _getValues(tokenAmount);\n            return reflectedAmount;\n        } else {\n            ( ,uint256 tokenTransferAmount, , ) = _getValues(tokenAmount);\n            return tokenTransferAmount;\n        }\n    }\n\n    function tokenFromReflection(uint256 reflectedAmount) public view returns(uint256) {\n        require(reflectedAmount <= _rTotal, \"Amount must be less than total reflections\");\n        uint256 currentRate =  _getRate();\n        return reflectedAmount.div(currentRate);\n    }\n\n    function isExcluded(address account) public view returns (bool) {\n        return _isExcluded[account];\n    }\n\n    function excludeAccount(address account) external onlyOwner() {\n        require(!_isExcluded[account], \"Account is already excluded\");\n        if(_rOwned[account] > 0) {\n            _tOwned[account] = tokenFromReflection(_rOwned[account]);\n        }\n        _isExcluded[account] = true;\n        _excluded.push(account);\n    }\n\n    function includeAccount(address account) external onlyOwner() {\n        require(_isExcluded[account], \"Account is already excluded\");\n        for (uint256 i = 0; i < _excluded.length; i++) {\n            if (_excluded[i] == account) {\n                _excluded[i] = _excluded[_excluded.length - 1];\n                _tOwned[account] = 0;\n                _isExcluded[account] = false;\n                _excluded.pop();\n                break;\n            }\n        }\n    }\n\n    function _approve(address owner, address spender, uint256 amount) private {\n        require(owner != address(0), \"Yin: approve from the zero address\");\n        require(spender != address(0), \"Yin: approve to the zero address\");\n\n        _allowances[owner][spender] = amount;\n        emit Approval(owner, spender, amount);\n    }\n\n    function _transfer(address sender, address recipient, uint256 amount) private {\n        require(sender != address(0), \"Yin: transfer from the zero address\");\n        require(recipient != address(0), \"Yin: transfer to the zero address\");\n        require(amount > 0, \"Transfer amount must be greater than zero\");\n        if (_isExcluded[sender] && !_isExcluded[recipient]) {\n            _transferFromExcluded(sender, recipient, amount);\n        } else if (!_isExcluded[sender] && _isExcluded[recipient]) {\n            _transferToExcluded(sender, recipient, amount);\n        } else if (!_isExcluded[sender] && !_isExcluded[recipient]) {\n            _transferStandard(sender, recipient, amount);\n        } else if (_isExcluded[sender] && _isExcluded[recipient]) {\n            _transferBothExcluded(sender, recipient, amount);\n        } else {\n            _transferStandard(sender, recipient, amount);\n        }\n    }\n\n    function _transferStandard(address sender, address recipient, uint256 tokenAmount) private {\n        (, uint256 reflectionFee, uint256 zenFee, uint256 burnFee) = _getValues(tokenAmount);\n        (uint256 reflectedAmount, uint256 reflectedTransferAmount, , ) = _getRValues(tokenAmount, reflectionFee, zenFee, burnFee);\n        _rOwned[sender] = _rOwned[sender].sub(reflectedAmount);\n        _rOwned[recipient] = _rOwned[recipient].add(reflectedTransferAmount);\n        _absorbTransfer(sender, recipient, tokenAmount);\n    }\n\n    function _transferToExcluded(address sender, address recipient, uint256 tokenAmount) private {\n        (uint256 tokenTransferAmount, uint256 reflectionFee, uint256 zenFee, uint256 burnFee) = _getValues(tokenAmount);\n        (uint256 reflectedAmount, uint256 reflectedTransferAmount, , ) = _getRValues(tokenAmount, reflectionFee, zenFee, burnFee);\n        _rOwned[sender] = _rOwned[sender].sub(reflectedAmount);\n        _tOwned[recipient] = _tOwned[recipient].add(tokenTransferAmount);\n        _rOwned[recipient] = _rOwned[recipient].add(reflectedTransferAmount);\n        _absorbTransfer(sender, recipient, tokenAmount);\n    }\n\n    function _transferFromExcluded(address sender, address recipient, uint256 tokenAmount) private {\n        (, uint256 reflectionFee, uint256 zenFee, uint256 burnFee) = _getValues(tokenAmount);\n        (uint256 reflectedAmount, uint256 reflectedTransferAmount, , ) = _getRValues(tokenAmount, reflectionFee, zenFee, burnFee);\n        _tOwned[sender] = _tOwned[sender].sub(tokenAmount);\n        _rOwned[sender] = _rOwned[sender].sub(reflectedAmount);\n        _rOwned[recipient] = _rOwned[recipient].add(reflectedTransferAmount);\n        _absorbTransfer(sender, recipient, tokenAmount);\n    }\n\n    function _transferBothExcluded(address sender, address recipient, uint256 tokenAmount) private {\n        (uint256 tokenTransferAmount, uint256 reflectionFee, uint256 zenFee, uint256 burnFee) = _getValues(tokenAmount);\n        (uint256 reflectedAmount, uint256 reflectedTransferAmount, , ) = _getRValues(tokenAmount, reflectionFee, zenFee, burnFee);\n        _tOwned[sender] = _tOwned[sender].sub(tokenAmount);\n        _rOwned[sender] = _rOwned[sender].sub(reflectedAmount);\n        _tOwned[recipient] = _tOwned[recipient].add(tokenTransferAmount);\n        _rOwned[recipient] = _rOwned[recipient].add(reflectedTransferAmount);\n        _absorbTransfer(sender, recipient, tokenAmount);\n    }\n\n    function _absorbTransfer(address sender, address recipient, uint256 tokenAmount) private {\n      (uint256 transferAmount, uint256 reflectionFee, uint256 zenFee, uint256 burnFee) = _getValues(tokenAmount);\n      ( , , uint256 reflectedFee, uint256 reflectedZenFee) = _getRValues(tokenAmount, reflectionFee, zenFee, burnFee);\n      _absorbFee(reflectedFee, reflectionFee);\n      _zenFee(sender, zenFee, reflectedZenFee);\n      _burn(sender, burnFee);\n      emit Transfer(sender, recipient, transferAmount);\n    }\n\n    function _absorbFee(uint256 rFee, uint256 tFee) private {\n        _rTotal = _rTotal.sub(rFee);\n        _tFeeTotal = _tFeeTotal.add(tFee);\n    }\n\n    function _zenFee(address sender, uint256 zenFee, uint256 reflectedZenFee) private {\n      address owner = owner();\n      if (_isExcluded[owner]) {\n        _tOwned[owner] = _tOwned[owner].add(zenFee);\n        _rOwned[owner] = _rOwned[owner].add(reflectedZenFee);\n      } else {\n        _rOwned[owner] = _rOwned[owner].add(reflectedZenFee);\n      }\n      emit Transfer(sender, owner, zenFee);\n    }\n\n    function _getValues(uint256 transferAmount) private view returns (uint256, uint256, uint256, uint256) {\n        uint256 reflectionFee = transferAmount.div(50); // 2% reflected to holders accounts\n        uint256 zenFee = transferAmount.div(50); // 2% sent to the zen pool\n        uint256 burnFee = transferAmount.div(100); // 1% is burnt\n\n        {\n            uint256 variableFee = transferAmount.div(50); // 2% used to balance Yin and Yang\n            uint256 yinSupply = this.totalSupply();\n            uint256 yangSupply = yang.totalSupply();\n\n            // Burn if there are more Yin than Yang, else reflect (linear transition)\n            if(yinSupply >= yangSupply) {\n                burnFee = burnFee.add(variableFee);\n            } else {\n                reflectionFee = reflectionFee.add(variableFee);\n            }\n        }\n\n        uint256 finalTransferAmount = (((transferAmount.sub(reflectionFee)).sub(zenFee)).sub(burnFee));\n        return (finalTransferAmount, reflectionFee, zenFee, burnFee);\n    }\n\n    function _getRValues(uint256 tokenAmount, uint256 reflectionFee, uint256 zenFee, uint256 burnFee) private view returns (uint256, uint256, uint256, uint256) {\n        uint256 currentRate =  _getRate();\n        uint256 reflectedAmount = tokenAmount.mul(currentRate);\n        uint256 reflectedFee = reflectionFee.mul(currentRate);\n        uint256 reflectedZenFee = zenFee.mul(currentRate);\n        uint256 reflectedBurningAmount = burnFee.mul(currentRate);\n        uint256 reflectedTransferAmount = reflectedAmount.sub(reflectedFee).sub(reflectedZenFee).sub(reflectedBurningAmount);\n        return (reflectedAmount, reflectedTransferAmount, reflectedFee, reflectedZenFee);\n    }\n\n    function _burn(address account, uint256 burningAmount) internal virtual {\n      require(account != address(0), \"Yin: burn from the zero address\");\n      uint256 currentRate =  _getRate();\n      uint256 rBurningAmount = burningAmount.mul(currentRate);\n      _tTotal = _tTotal.sub(burningAmount);\n      _rTotal = _rTotal.sub(rBurningAmount);\n      emit Transfer(account, address(0), burningAmount);\n    }\n\n    function _getRate() private view returns(uint256) {\n        (uint256 rSupply, uint256 tSupply) = _getCurrentSupply();\n        return rSupply.div(tSupply);\n    }\n\n    function _getCurrentSupply() private view returns(uint256, uint256) {\n        uint256 rSupply = _rTotal;\n        uint256 tSupply = _tTotal;\n        for (uint256 i = 0; i < _excluded.length; i++) {\n            if (_rOwned[_excluded[i]] > rSupply || _tOwned[_excluded[i]] > tSupply) return (_rTotal, _tTotal);\n            rSupply = rSupply.sub(_rOwned[_excluded[i]]);\n            tSupply = tSupply.sub(_tOwned[_excluded[i]]);\n        }\n        if (rSupply < _rTotal.div(_tTotal)) return (_rTotal, _tTotal);\n        return (rSupply, tSupply);\n    }\n}",
  "sourcePath": "C:\\Users\\jumic\\Projets\\truffle\\yinyang\\contracts\\Yin.sol",
  "compiler": {
    "name": "solc",
    "version": "0.6.12+commit.27d51765.Emscripten.clang"
  },
  "schemaVersion": "3.3.4",
  "updatedAt": "2021-04-11T00:22:23.330Z",
  "networkType": "ethereum",
  "devdoc": {
    "kind": "dev",
    "methods": {
      "allowance(address,address)": {
        "params": {
          "owner": "The owner of the spending account",
          "spender": "The account actually spending the tokens"
        }
      },
      "approve(address,uint256)": {
        "details": "Sets `amount` as the allowance of `spender` over the caller's tokens. Returns a boolean value indicating whether the operation succeeded. IMPORTANT: Beware that changing an allowance with this method brings the risk that someone may use both the old and the new allowance by unfortunate transaction ordering. One possible solution to mitigate this race condition is to first reduce the spender's allowance to 0 and set the desired value afterwards: https://github.com/ethereum/EIPs/issues/20#issuecomment-263524729 Emits an {Approval} event."
      },
      "balanceOf(address)": {
        "params": {
          "account": "The address of the account"
        }
      },
      "owner()": {
        "details": "Returns the address of the current owner."
      },
      "renounceOwnership()": {
        "details": "Leaves the contract without owner. It will not be possible to call `onlyOwner` functions anymore. Can only be called by the current owner. NOTE: Renouncing ownership will leave the contract without an owner, thereby removing any functionality that is only available to the owner."
      },
      "transfer(address,uint256)": {
        "params": {
          "amount": "The amount of tokens to be transfered",
          "recipient": "The account receiving the transfer"
        }
      },
      "transferFrom(address,address,uint256)": {
        "details": "Moves `amount` tokens from `sender` to `recipient` using the allowance mechanism. `amount` is then deducted from the caller's allowance. Returns a boolean value indicating whether the operation succeeded. Emits a {Transfer} event."
      },
      "transferOwnership(address)": {
        "details": "Transfers ownership of the contract to a new account (`newOwner`). Can only be called by the current owner."
      }
    },
    "version": 1
  },
  "userdoc": {
    "kind": "user",
    "methods": {
      "allowance(address,address)": {
        "notice": "Allows an account to spend for another"
      },
      "balanceOf(address)": {
        "notice": "The balance of an account"
      },
      "decimals()": {
        "notice": "The number of decimals of the token"
      },
      "getOwner()": {
        "notice": "The owner"
      },
      "getPair()": {
        "notice": "Returns the farmed pair"
      },
      "name()": {
        "notice": "The name of the token"
      },
      "symbol()": {
        "notice": "The symbol of the token"
      },
      "totalSupply()": {
        "notice": "The current total supply of the token"
      },
      "transfer(address,uint256)": {
        "notice": "Transfers tokens from the sender's account to a recipient"
      }
    },
    "version": 1
  }
}