{
  "contractName": "Zen",
  "abi": [
    {
      "inputs": [
        {
          "internalType": "contract IPancakeFactory",
          "name": "pancakeFactory",
          "type": "address"
        },
        {
          "internalType": "address",
          "name": "bnb",
          "type": "address"
        },
        {
          "internalType": "address",
          "name": "usd",
          "type": "address"
        }
      ],
      "stateMutability": "nonpayable",
      "type": "constructor"
    },
    {
      "anonymous": false,
      "inputs": [
        {
          "indexed": true,
          "internalType": "address",
          "name": "owner",
          "type": "address"
        },
        {
          "indexed": true,
          "internalType": "address",
          "name": "spender",
          "type": "address"
        },
        {
          "indexed": false,
          "internalType": "uint256",
          "name": "value",
          "type": "uint256"
        }
      ],
      "name": "Approval",
      "type": "event"
    },
    {
      "anonymous": false,
      "inputs": [
        {
          "indexed": true,
          "internalType": "address",
          "name": "previousOwner",
          "type": "address"
        },
        {
          "indexed": true,
          "internalType": "address",
          "name": "newOwner",
          "type": "address"
        }
      ],
      "name": "OwnershipTransferred",
      "type": "event"
    },
    {
      "anonymous": false,
      "inputs": [
        {
          "indexed": true,
          "internalType": "address",
          "name": "from",
          "type": "address"
        },
        {
          "indexed": true,
          "internalType": "address",
          "name": "to",
          "type": "address"
        },
        {
          "indexed": false,
          "internalType": "uint256",
          "name": "value",
          "type": "uint256"
        }
      ],
      "name": "Transfer",
      "type": "event"
    },
    {
      "inputs": [
        {
          "internalType": "address",
          "name": "owner",
          "type": "address"
        },
        {
          "internalType": "address",
          "name": "spender",
          "type": "address"
        }
      ],
      "name": "allowance",
      "outputs": [
        {
          "internalType": "uint256",
          "name": "",
          "type": "uint256"
        }
      ],
      "stateMutability": "view",
      "type": "function",
      "constant": true
    },
    {
      "inputs": [
        {
          "internalType": "address",
          "name": "spender",
          "type": "address"
        },
        {
          "internalType": "uint256",
          "name": "amount",
          "type": "uint256"
        }
      ],
      "name": "approve",
      "outputs": [
        {
          "internalType": "bool",
          "name": "",
          "type": "bool"
        }
      ],
      "stateMutability": "nonpayable",
      "type": "function"
    },
    {
      "inputs": [
        {
          "internalType": "address",
          "name": "account",
          "type": "address"
        }
      ],
      "name": "balanceOf",
      "outputs": [
        {
          "internalType": "uint256",
          "name": "",
          "type": "uint256"
        }
      ],
      "stateMutability": "view",
      "type": "function",
      "constant": true
    },
    {
      "inputs": [
        {
          "internalType": "uint256",
          "name": "amount",
          "type": "uint256"
        }
      ],
      "name": "burn",
      "outputs": [
        {
          "internalType": "bool",
          "name": "",
          "type": "bool"
        }
      ],
      "stateMutability": "nonpayable",
      "type": "function"
    },
    {
      "inputs": [],
      "name": "decimals",
      "outputs": [
        {
          "internalType": "uint8",
          "name": "",
          "type": "uint8"
        }
      ],
      "stateMutability": "view",
      "type": "function",
      "constant": true
    },
    {
      "inputs": [
        {
          "internalType": "address",
          "name": "spender",
          "type": "address"
        },
        {
          "internalType": "uint256",
          "name": "subtractedValue",
          "type": "uint256"
        }
      ],
      "name": "decreaseAllowance",
      "outputs": [
        {
          "internalType": "bool",
          "name": "",
          "type": "bool"
        }
      ],
      "stateMutability": "nonpayable",
      "type": "function"
    },
    {
      "inputs": [],
      "name": "getOwner",
      "outputs": [
        {
          "internalType": "address",
          "name": "",
          "type": "address"
        }
      ],
      "stateMutability": "view",
      "type": "function",
      "constant": true
    },
    {
      "inputs": [
        {
          "internalType": "address",
          "name": "spender",
          "type": "address"
        },
        {
          "internalType": "uint256",
          "name": "addedValue",
          "type": "uint256"
        }
      ],
      "name": "increaseAllowance",
      "outputs": [
        {
          "internalType": "bool",
          "name": "",
          "type": "bool"
        }
      ],
      "stateMutability": "nonpayable",
      "type": "function"
    },
    {
      "inputs": [
        {
          "internalType": "uint256",
          "name": "amount",
          "type": "uint256"
        }
      ],
      "name": "mint",
      "outputs": [
        {
          "internalType": "bool",
          "name": "",
          "type": "bool"
        }
      ],
      "stateMutability": "nonpayable",
      "type": "function"
    },
    {
      "inputs": [],
      "name": "name",
      "outputs": [
        {
          "internalType": "string",
          "name": "",
          "type": "string"
        }
      ],
      "stateMutability": "view",
      "type": "function",
      "constant": true
    },
    {
      "inputs": [],
      "name": "owner",
      "outputs": [
        {
          "internalType": "address",
          "name": "",
          "type": "address"
        }
      ],
      "stateMutability": "view",
      "type": "function",
      "constant": true
    },
    {
      "inputs": [],
      "name": "pancakeZenBNBPair",
      "outputs": [
        {
          "internalType": "address",
          "name": "",
          "type": "address"
        }
      ],
      "stateMutability": "view",
      "type": "function",
      "constant": true
    },
    {
      "inputs": [],
      "name": "pancakeZenUSDPair",
      "outputs": [
        {
          "internalType": "address",
          "name": "",
          "type": "address"
        }
      ],
      "stateMutability": "view",
      "type": "function",
      "constant": true
    },
    {
      "inputs": [],
      "name": "renounceOwnership",
      "outputs": [],
      "stateMutability": "nonpayable",
      "type": "function"
    },
    {
      "inputs": [],
      "name": "symbol",
      "outputs": [
        {
          "internalType": "string",
          "name": "",
          "type": "string"
        }
      ],
      "stateMutability": "view",
      "type": "function",
      "constant": true
    },
    {
      "inputs": [],
      "name": "totalSupply",
      "outputs": [
        {
          "internalType": "uint256",
          "name": "",
          "type": "uint256"
        }
      ],
      "stateMutability": "view",
      "type": "function",
      "constant": true
    },
    {
      "inputs": [
        {
          "internalType": "address",
          "name": "recipient",
          "type": "address"
        },
        {
          "internalType": "uint256",
          "name": "amount",
          "type": "uint256"
        }
      ],
      "name": "transfer",
      "outputs": [
        {
          "internalType": "bool",
          "name": "",
          "type": "bool"
        }
      ],
      "stateMutability": "nonpayable",
      "type": "function"
    },
    {
      "inputs": [
        {
          "internalType": "address",
          "name": "sender",
          "type": "address"
        },
        {
          "internalType": "address",
          "name": "recipient",
          "type": "address"
        },
        {
          "internalType": "uint256",
          "name": "amount",
          "type": "uint256"
        }
      ],
      "name": "transferFrom",
      "outputs": [
        {
          "internalType": "bool",
          "name": "",
          "type": "bool"
        }
      ],
      "stateMutability": "nonpayable",
      "type": "function"
    },
    {
      "inputs": [
        {
          "internalType": "address",
          "name": "newOwner",
          "type": "address"
        }
      ],
      "name": "transferOwnership",
      "outputs": [],
      "stateMutability": "nonpayable",
      "type": "function"
    },
    {
      "inputs": [
        {
          "internalType": "address",
          "name": "account",
          "type": "address"
        },
        {
          "internalType": "uint256",
          "name": "amount",
          "type": "uint256"
        }
      ],
      "name": "burnFrom",
      "outputs": [],
      "stateMutability": "nonpayable",
      "type": "function"
    },
    {
      "inputs": [],
      "name": "getPairs",
      "outputs": [
        {
          "internalType": "address",
          "name": "",
          "type": "address"
        },
        {
          "internalType": "address",
          "name": "",
          "type": "address"
        }
      ],
      "stateMutability": "view",
      "type": "function",
      "constant": true
    },
    {
      "inputs": [],
      "name": "circulatingSupply",
      "outputs": [
        {
          "internalType": "uint256",
          "name": "",
          "type": "uint256"
        }
      ],
      "stateMutability": "view",
      "type": "function",
      "constant": true
    }
  ],
  "bytecode": "0x60806040523480156200001157600080fd5b506040516200164c3803806200164c833981810160405260608110156200003757600080fd5b508051602080830151604093840151845180860186526003808252622d32b760e91b8286015286518088019097528652622d22a760e91b9386019390935292939092919060006200008762000250565b600080546001600160a01b0319166001600160a01b0383169081178255604051929350917f8be0079c531659141344cd1fd0a4f28419497f9722a3daafe3b4186f6b6457e0908290a3508151620000e690600490602085019062000254565b508051620000fc90600590602084019062000254565b50506006805460ff1916601217905550604080516364e329cb60e11b81523060048201526001600160a01b03848116602483015291519185169163c9c65396916044808201926020929091908290030181600087803b1580156200015f57600080fd5b505af115801562000174573d6000803e3d6000fd5b505050506040513d60208110156200018b57600080fd5b505160068054610100600160a81b0319166101006001600160a01b0393841602179055604080516364e329cb60e11b8152306004820152838316602482015290519185169163c9c65396916044808201926020929091908290030181600087803b158015620001f957600080fd5b505af11580156200020e573d6000803e3d6000fd5b505050506040513d60208110156200022557600080fd5b5051600780546001600160a01b0319166001600160a01b0390921691909117905550620002f0915050565b3390565b828054600181600116156101000203166002900490600052602060002090601f016020900481019282601f106200029757805160ff1916838001178555620002c7565b82800160010185558215620002c7579182015b82811115620002c7578251825591602001919060010190620002aa565b50620002d5929150620002d9565b5090565b5b80821115620002d55760008155600101620002da565b61134c80620003006000396000f3fe608060405234801561001057600080fd5b50600436106101425760003560e01c8063767eb5ef116100b857806395d89b411161007c57806395d89b4114610392578063a0712d681461039a578063a457c2d7146103b7578063a9059cbb146103e3578063dd62ed3e1461040f578063f2fde38b1461043d57610142565b8063767eb5ef1461031757806379cc67901461034e578063893d20e81461037a5780638da5cb5b146103825780639358928b1461038a57610142565b8063313ce5671161010a578063313ce56714610278578063395093511461029657806342966c68146102c25780634e6cce7a146102df57806370a08231146102e7578063715018a61461030d57610142565b806306fdde0314610147578063095ea7b3146101c45780630f4389371461020457806318160ddd1461022857806323b872dd14610242575b600080fd5b61014f610463565b6040805160208082528351818301528351919283929083019185019080838360005b83811015610189578181015183820152602001610171565b50505050905090810190601f1680156101b65780820380516001836020036101000a031916815260200191505b509250505060405180910390f35b6101f0600480360360408110156101da57600080fd5b506001600160a01b0381351690602001356104f9565b604080519115158252519081900360200190f35b61020c610516565b604080516001600160a01b039092168252519081900360200190f35b61023061052a565b60408051918252519081900360200190f35b6101f06004803603606081101561025857600080fd5b506001600160a01b03813581169160208101359091169060400135610530565b6102806105b7565b6040805160ff9092168252519081900360200190f35b6101f0600480360360408110156102ac57600080fd5b506001600160a01b0381351690602001356105c0565b6101f0600480360360208110156102d857600080fd5b503561060e565b61020c610681565b610230600480360360208110156102fd57600080fd5b50356001600160a01b0316610690565b6103156106ab565b005b61031f61074d565b60405180836001600160a01b03168152602001826001600160a01b031681526020019250505060405180910390f35b6103156004803603604081101561036457600080fd5b506001600160a01b038135169060200135610769565b61020c6107cf565b61020c6107de565b6102306107ed565b61014f6109c3565b6101f0600480360360208110156103b057600080fd5b5035610a24565b6101f0600480360360408110156103cd57600080fd5b506001600160a01b038135169060200135610a8f565b6101f0600480360360408110156103f957600080fd5b506001600160a01b038135169060200135610af7565b6102306004803603604081101561042557600080fd5b506001600160a01b0381358116916020013516610b0b565b6103156004803603602081101561045357600080fd5b50356001600160a01b0316610b36565b60048054604080516020601f60026000196101006001881615020190951694909404938401819004810282018101909252828152606093909290918301828280156104ef5780601f106104c4576101008083540402835291602001916104ef565b820191906000526020600020905b8154815290600101906020018083116104d257829003601f168201915b5050505050905090565b600061050d610506610b9a565b8484610b9e565b50600192915050565b60065461010090046001600160a01b031681565b60035490565b600061053d848484610c8a565b6105ad84610549610b9a565b6105a8856040518060600160405280602881526020016111fc602891396001600160a01b038a16600090815260026020526040812090610587610b9a565b6001600160a01b031681526020810191909152604001600020549190610ddc565b610b9e565b5060019392505050565b60065460ff1690565b600061050d6105cd610b9a565b846105a885600260006105de610b9a565b6001600160a01b03908116825260208083019390935260409182016000908120918c168152925290205490610e73565b6000610618610b9a565b6000546001600160a01b03908116911614610668576040805162461bcd60e51b81526020600482018190526024820152600080516020611224833981519152604482015290519081900360640190fd5b610679610673610b9a565b83610ed4565b506001919050565b6007546001600160a01b031681565b6001600160a01b031660009081526001602052604090205490565b6106b3610b9a565b6000546001600160a01b03908116911614610703576040805162461bcd60e51b81526020600482018190526024820152600080516020611224833981519152604482015290519081900360640190fd5b600080546040516001600160a01b03909116907f8be0079c531659141344cd1fd0a4f28419497f9722a3daafe3b4186f6b6457e0908390a3600080546001600160a01b0319169055565b6006546007546001600160a01b03610100909204821691169091565b610771610b9a565b6000546001600160a01b039081169116146107c1576040805162461bcd60e51b81526020600482018190526024820152600080516020611224833981519152604482015290519081900360640190fd5b6107cb8282610ed4565b5050565b60006107d96107de565b905090565b6000546001600160a01b031690565b6000806000306001600160a01b031663767eb5ef6040518163ffffffff1660e01b8152600401604080518083038186803b15801561082a57600080fd5b505afa15801561083e573d6000803e3d6000fd5b505050506040513d604081101561085457600080fd5b508051602091820151604080516370a0823160e01b81526001600160a01b038316600482015290519295509093506109bc9230926370a08231926024808201939291829003018186803b1580156108aa57600080fd5b505afa1580156108be573d6000803e3d6000fd5b505050506040513d60208110156108d457600080fd5b5051604080516370a0823160e01b81526001600160a01b038616600482015290516109b69130916370a0823191602480820192602092909190829003018186803b15801561092157600080fd5b505afa158015610935573d6000803e3d6000fd5b505050506040513d602081101561094b57600080fd5b5051604080516318160ddd60e01b8152905130916318160ddd916004808301926020929190829003018186803b15801561098457600080fd5b505afa158015610998573d6000803e3d6000fd5b505050506040513d60208110156109ae57600080fd5b505190610fc4565b90610fc4565b9250505090565b60058054604080516020601f60026000196101006001881615020190951694909404938401819004810282018101909252828152606093909290918301828280156104ef5780601f106104c4576101008083540402835291602001916104ef565b6000610a2e610b9a565b6000546001600160a01b03908116911614610a7e576040805162461bcd60e51b81526020600482018190526024820152600080516020611224833981519152604482015290519081900360640190fd5b610679610a89610b9a565b83611006565b600061050d610a9c610b9a565b846105a88560405180606001604052806025815260200161128d6025913960026000610ac6610b9a565b6001600160a01b03908116825260208083019390935260409182016000908120918d16815292529020549190610ddc565b600061050d610b04610b9a565b8484610c8a565b6001600160a01b03918216600090815260026020908152604080832093909416825291909152205490565b610b3e610b9a565b6000546001600160a01b03908116911614610b8e576040805162461bcd60e51b81526020600482018190526024820152600080516020611224833981519152604482015290519081900360640190fd5b610b97816110ec565b50565b3390565b6001600160a01b038316610be35760405162461bcd60e51b81526004018080602001828103825260248152602001806111b26024913960400191505060405180910390fd5b6001600160a01b038216610c285760405162461bcd60e51b81526004018080602001828103825260228152602001806112f56022913960400191505060405180910390fd5b6001600160a01b03808416600081815260026020908152604080832094871680845294825291829020859055815185815291517f8c5be1e5ebec7d5bd14f71427d1e84f3dd0314c0f7b2291e5b200ac8c7c3b9259281900390910190a3505050565b6001600160a01b038316610ccf5760405162461bcd60e51b815260040180806020018281038252602581526020018061118d6025913960400191505060405180910390fd5b6001600160a01b038216610d145760405162461bcd60e51b815260040180806020018281038252602381526020018061126a6023913960400191505060405180910390fd5b610d5181604051806060016040528060268152602001611244602691396001600160a01b0386166000908152600160205260409020549190610ddc565b6001600160a01b038085166000908152600160205260408082209390935590841681522054610d809082610e73565b6001600160a01b0380841660008181526001602090815260409182902094909455805185815290519193928716927fddf252ad1be2c89b69c2b068fc378daa952ba7f163c4a11628f55a4df523b3ef92918290030190a3505050565b60008184841115610e6b5760405162461bcd60e51b81526004018080602001828103825283818151815260200191508051906020019080838360005b83811015610e30578181015183820152602001610e18565b50505050905090810190601f168015610e5d5780820380516001836020036101000a031916815260200191505b509250505060405180910390fd5b505050900390565b600082820183811015610ecd576040805162461bcd60e51b815260206004820152601b60248201527f536166654d6174683a206164646974696f6e206f766572666c6f770000000000604482015290519081900360640190fd5b9392505050565b6001600160a01b038216610f195760405162461bcd60e51b81526004018080602001828103825260218152602001806112b26021913960400191505060405180910390fd5b610f56816040518060600160405280602281526020016112d3602291396001600160a01b0385166000908152600160205260409020549190610ddc565b6001600160a01b038316600090815260016020526040902055600354610f7c9082610fc4565b6003556040805182815290516000916001600160a01b038516917fddf252ad1be2c89b69c2b068fc378daa952ba7f163c4a11628f55a4df523b3ef9181900360200190a35050565b6000610ecd83836040518060400160405280601e81526020017f536166654d6174683a207375627472616374696f6e206f766572666c6f770000815250610ddc565b6001600160a01b038216611061576040805162461bcd60e51b815260206004820152601f60248201527f42455032303a206d696e7420746f20746865207a65726f206164647265737300604482015290519081900360640190fd5b60035461106e9082610e73565b6003556001600160a01b0382166000908152600160205260409020546110949082610e73565b6001600160a01b03831660008181526001602090815260408083209490945583518581529351929391927fddf252ad1be2c89b69c2b068fc378daa952ba7f163c4a11628f55a4df523b3ef9281900390910190a35050565b6001600160a01b0381166111315760405162461bcd60e51b81526004018080602001828103825260268152602001806111d66026913960400191505060405180910390fd5b600080546040516001600160a01b03808516939216917f8be0079c531659141344cd1fd0a4f28419497f9722a3daafe3b4186f6b6457e091a3600080546001600160a01b0319166001600160a01b039290921691909117905556fe42455032303a207472616e736665722066726f6d20746865207a65726f206164647265737342455032303a20617070726f76652066726f6d20746865207a65726f20616464726573734f776e61626c653a206e6577206f776e657220697320746865207a65726f206164647265737342455032303a207472616e7366657220616d6f756e74206578636565647320616c6c6f77616e63654f776e61626c653a2063616c6c6572206973206e6f7420746865206f776e657242455032303a207472616e7366657220616d6f756e7420657863656564732062616c616e636542455032303a207472616e7366657220746f20746865207a65726f206164647265737342455032303a2064656372656173656420616c6c6f77616e63652062656c6f77207a65726f42455032303a206275726e2066726f6d20746865207a65726f206164647265737342455032303a206275726e20616d6f756e7420657863656564732062616c616e636542455032303a20617070726f766520746f20746865207a65726f2061646472657373a2646970667358221220452d6d6c666326a3d146795e3ffbfd8036f1367cde09fd9728b16cff5fbdf8fc64736f6c634300060c0033",
  "immutableReferences": {},
  "source": "// SPDX-License-Identifier: MIT\npragma solidity ^0.6.12;\n\nimport \"./libraries/Address.sol\";\nimport \"./libraries/SafeMath.sol\";\nimport \"./interfaces/IBEP20.sol\";\nimport \"./interfaces/IPancakeRouter.sol\";\nimport \"./interfaces/IPancakeFactory.sol\";\nimport \"./BEP20.sol\";\n\n// ZenToken with Governance.\ncontract Zen is BEP20('Zen', 'ZEN') {\n    address public pancakeZenBNBPair;\n    address public pancakeZenUSDPair;\n\n    constructor (\n        IPancakeFactory pancakeFactory,\n        address bnb,\n        address usd\n    ) public {\n        pancakeZenBNBPair = pancakeFactory.createPair(address(this), bnb);\n        pancakeZenUSDPair = pancakeFactory.createPair(address(this), usd);\n    }\n\n    function burnFrom(address account, uint256 amount) public onlyOwner() {\n        _burn(account, amount);\n    }\n\n    function getPairs() public view returns (address, address) {\n        return (pancakeZenBNBPair, pancakeZenUSDPair);\n    }\n\n    function circulatingSupply() public view returns (uint256) {\n        (address zenBNB, address zenBUSD) = this.getPairs();\n        return this.totalSupply().sub(this.balanceOf(zenBNB)).sub(this.balanceOf(zenBUSD));\n    }\n}",
  "sourcePath": "C:/Users/jumic/Projets/truffle/yinyang/contracts/Zen.sol",
  "compiler": {
    "name": "solc",
    "version": "0.6.12+commit.27d51765.Emscripten.clang"
  },
  "schemaVersion": "3.3.4",
  "updatedAt": "2021-04-11T00:22:23.377Z",
  "networkType": "ethereum",
  "devdoc": {
    "kind": "dev",
    "methods": {
      "allowance(address,address)": {
        "details": "See {BEP20-allowance}."
      },
      "approve(address,uint256)": {
        "details": "See {BEP20-approve}. Requirements: - `spender` cannot be the zero address."
      },
      "balanceOf(address)": {
        "details": "See {BEP20-balanceOf}."
      },
      "burn(uint256)": {
        "details": "Destroy `amount` tokens from `msg.sender` balance, decreasing the total supply."
      },
      "decimals()": {
        "details": "Returns the token decimals."
      },
      "decreaseAllowance(address,uint256)": {
        "details": "Atomically decreases the allowance granted to `spender` by the caller. This is an alternative to {approve} that can be used as a mitigation for problems described in {BEP20-approve}. Emits an {Approval} event indicating the updated allowance. Requirements: - `spender` cannot be the zero address. - `spender` must have allowance for the caller of at least `subtractedValue`."
      },
      "getOwner()": {
        "details": "Returns the bep token owner."
      },
      "increaseAllowance(address,uint256)": {
        "details": "Atomically increases the allowance granted to `spender` by the caller. This is an alternative to {approve} that can be used as a mitigation for problems described in {BEP20-approve}. Emits an {Approval} event indicating the updated allowance. Requirements: - `spender` cannot be the zero address."
      },
      "mint(uint256)": {
        "details": "Creates `amount` tokens and assigns them to `msg.sender`, increasing the total supply. Requirements - `msg.sender` must be the token owner"
      },
      "name()": {
        "details": "Returns the token name."
      },
      "owner()": {
        "details": "Returns the address of the current owner."
      },
      "renounceOwnership()": {
        "details": "Leaves the contract without owner. It will not be possible to call `onlyOwner` functions anymore. Can only be called by the current owner. NOTE: Renouncing ownership will leave the contract without an owner, thereby removing any functionality that is only available to the owner."
      },
      "symbol()": {
        "details": "Returns the token symbol."
      },
      "totalSupply()": {
        "details": "See {BEP20-totalSupply}."
      },
      "transfer(address,uint256)": {
        "details": "See {BEP20-transfer}. Requirements: - `recipient` cannot be the zero address. - the caller must have a balance of at least `amount`."
      },
      "transferFrom(address,address,uint256)": {
        "details": "See {BEP20-transferFrom}. Emits an {Approval} event indicating the updated allowance. This is not required by the EIP. See the note at the beginning of {BEP20}; Requirements: - `sender` and `recipient` cannot be the zero address. - `sender` must have a balance of at least `amount`. - the caller must have allowance for `sender`'s tokens of at least `amount`."
      },
      "transferOwnership(address)": {
        "details": "Transfers ownership of the contract to a new account (`newOwner`). Can only be called by the current owner."
      }
    },
    "version": 1
  },
  "userdoc": {
    "kind": "user",
    "methods": {},
    "version": 1
  }
}