{
  "contractName": "ZenGarden",
  "abi": [
    {
      "inputs": [
        {
          "internalType": "uint256",
          "name": "_zenPerBlock",
          "type": "uint256"
        },
        {
          "internalType": "uint256",
          "name": "_startBlock",
          "type": "uint256"
        },
        {
          "internalType": "contract Yin",
          "name": "_yin",
          "type": "address"
        },
        {
          "internalType": "contract Yang",
          "name": "_yang",
          "type": "address"
        },
        {
          "internalType": "address",
          "name": "_zen",
          "type": "address"
        },
        {
          "internalType": "address",
          "name": "_usd",
          "type": "address"
        },
        {
          "internalType": "address",
          "name": "_bnb",
          "type": "address"
        }
      ],
      "stateMutability": "nonpayable",
      "type": "constructor"
    },
    {
      "anonymous": false,
      "inputs": [
        {
          "indexed": true,
          "internalType": "address",
          "name": "user",
          "type": "address"
        },
        {
          "indexed": true,
          "internalType": "uint256",
          "name": "pid",
          "type": "uint256"
        },
        {
          "indexed": false,
          "internalType": "uint256",
          "name": "amount",
          "type": "uint256"
        }
      ],
      "name": "Deposit",
      "type": "event"
    },
    {
      "anonymous": false,
      "inputs": [
        {
          "indexed": true,
          "internalType": "address",
          "name": "user",
          "type": "address"
        },
        {
          "indexed": true,
          "internalType": "uint256",
          "name": "pid",
          "type": "uint256"
        },
        {
          "indexed": false,
          "internalType": "uint256",
          "name": "amount",
          "type": "uint256"
        }
      ],
      "name": "EmergencyWithdraw",
      "type": "event"
    },
    {
      "anonymous": false,
      "inputs": [
        {
          "indexed": true,
          "internalType": "address",
          "name": "previousOwner",
          "type": "address"
        },
        {
          "indexed": true,
          "internalType": "address",
          "name": "newOwner",
          "type": "address"
        }
      ],
      "name": "OwnershipTransferred",
      "type": "event"
    },
    {
      "anonymous": false,
      "inputs": [
        {
          "indexed": true,
          "internalType": "address",
          "name": "user",
          "type": "address"
        },
        {
          "indexed": true,
          "internalType": "uint256",
          "name": "pid",
          "type": "uint256"
        },
        {
          "indexed": false,
          "internalType": "uint256",
          "name": "amount",
          "type": "uint256"
        }
      ],
      "name": "Withdraw",
      "type": "event"
    },
    {
      "inputs": [],
      "name": "bnb",
      "outputs": [
        {
          "internalType": "address",
          "name": "",
          "type": "address"
        }
      ],
      "stateMutability": "view",
      "type": "function",
      "constant": true
    },
    {
      "inputs": [],
      "name": "owner",
      "outputs": [
        {
          "internalType": "address",
          "name": "",
          "type": "address"
        }
      ],
      "stateMutability": "view",
      "type": "function",
      "constant": true
    },
    {
      "inputs": [
        {
          "internalType": "uint256",
          "name": "",
          "type": "uint256"
        }
      ],
      "name": "poolInfo",
      "outputs": [
        {
          "internalType": "contract IBEP20",
          "name": "lpToken",
          "type": "address"
        },
        {
          "internalType": "uint256",
          "name": "allocPoint",
          "type": "uint256"
        },
        {
          "internalType": "uint256",
          "name": "lastRewardBlock",
          "type": "uint256"
        },
        {
          "internalType": "uint256",
          "name": "accZenPerShare",
          "type": "uint256"
        }
      ],
      "stateMutability": "view",
      "type": "function",
      "constant": true
    },
    {
      "inputs": [],
      "name": "renounceOwnership",
      "outputs": [],
      "stateMutability": "nonpayable",
      "type": "function"
    },
    {
      "inputs": [],
      "name": "startBlock",
      "outputs": [
        {
          "internalType": "uint256",
          "name": "",
          "type": "uint256"
        }
      ],
      "stateMutability": "view",
      "type": "function",
      "constant": true
    },
    {
      "inputs": [],
      "name": "totalAllocPoint",
      "outputs": [
        {
          "internalType": "uint256",
          "name": "",
          "type": "uint256"
        }
      ],
      "stateMutability": "view",
      "type": "function",
      "constant": true
    },
    {
      "inputs": [
        {
          "internalType": "address",
          "name": "newOwner",
          "type": "address"
        }
      ],
      "name": "transferOwnership",
      "outputs": [],
      "stateMutability": "nonpayable",
      "type": "function"
    },
    {
      "inputs": [],
      "name": "unirouter",
      "outputs": [
        {
          "internalType": "address",
          "name": "",
          "type": "address"
        }
      ],
      "stateMutability": "view",
      "type": "function",
      "constant": true
    },
    {
      "inputs": [],
      "name": "usd",
      "outputs": [
        {
          "internalType": "address",
          "name": "",
          "type": "address"
        }
      ],
      "stateMutability": "view",
      "type": "function",
      "constant": true
    },
    {
      "inputs": [
        {
          "internalType": "uint256",
          "name": "",
          "type": "uint256"
        },
        {
          "internalType": "address",
          "name": "",
          "type": "address"
        }
      ],
      "name": "userInfo",
      "outputs": [
        {
          "internalType": "uint256",
          "name": "amount",
          "type": "uint256"
        },
        {
          "internalType": "uint256",
          "name": "rewardDebt",
          "type": "uint256"
        }
      ],
      "stateMutability": "view",
      "type": "function",
      "constant": true
    },
    {
      "inputs": [],
      "name": "zen",
      "outputs": [
        {
          "internalType": "contract Zen",
          "name": "",
          "type": "address"
        }
      ],
      "stateMutability": "view",
      "type": "function",
      "constant": true
    },
    {
      "inputs": [],
      "name": "zenPerBlock",
      "outputs": [
        {
          "internalType": "uint256",
          "name": "",
          "type": "uint256"
        }
      ],
      "stateMutability": "view",
      "type": "function",
      "constant": true
    },
    {
      "inputs": [],
      "name": "poolLength",
      "outputs": [
        {
          "internalType": "uint256",
          "name": "",
          "type": "uint256"
        }
      ],
      "stateMutability": "view",
      "type": "function",
      "constant": true
    },
    {
      "inputs": [
        {
          "internalType": "uint256",
          "name": "_from",
          "type": "uint256"
        },
        {
          "internalType": "uint256",
          "name": "_to",
          "type": "uint256"
        }
      ],
      "name": "getMultiplier",
      "outputs": [
        {
          "internalType": "uint256",
          "name": "",
          "type": "uint256"
        }
      ],
      "stateMutability": "pure",
      "type": "function",
      "constant": true
    },
    {
      "inputs": [
        {
          "internalType": "uint256",
          "name": "_pid",
          "type": "uint256"
        },
        {
          "internalType": "address",
          "name": "_user",
          "type": "address"
        }
      ],
      "name": "pendingRewards",
      "outputs": [
        {
          "internalType": "uint256",
          "name": "",
          "type": "uint256"
        }
      ],
      "stateMutability": "view",
      "type": "function",
      "constant": true
    },
    {
      "inputs": [
        {
          "internalType": "uint256",
          "name": "_pid",
          "type": "uint256"
        }
      ],
      "name": "updatePool",
      "outputs": [],
      "stateMutability": "nonpayable",
      "type": "function"
    },
    {
      "inputs": [
        {
          "internalType": "uint256",
          "name": "_pid",
          "type": "uint256"
        },
        {
          "internalType": "uint256",
          "name": "_amount",
          "type": "uint256"
        }
      ],
      "name": "deposit",
      "outputs": [],
      "stateMutability": "nonpayable",
      "type": "function"
    },
    {
      "inputs": [
        {
          "internalType": "uint256",
          "name": "_pid",
          "type": "uint256"
        },
        {
          "internalType": "uint256",
          "name": "_amount",
          "type": "uint256"
        }
      ],
      "name": "withdraw",
      "outputs": [],
      "stateMutability": "nonpayable",
      "type": "function"
    },
    {
      "inputs": [
        {
          "internalType": "uint256",
          "name": "_pid",
          "type": "uint256"
        }
      ],
      "name": "emergencyWithdraw",
      "outputs": [],
      "stateMutability": "nonpayable",
      "type": "function"
    },
    {
      "inputs": [
        {
          "internalType": "address",
          "name": "_from",
          "type": "address"
        },
        {
          "internalType": "uint256",
          "name": "_amount",
          "type": "uint256"
        }
      ],
      "name": "safeZenBurn",
      "outputs": [],
      "stateMutability": "nonpayable",
      "type": "function"
    }
  ],
  "bytecode": "0x608060405260006007553480156200001657600080fd5b506040516200188938038062001889833981810160405260e08110156200003c57600080fd5b508051602082015160408301516060840151608085015160a086015160c0909601519495939492939192909190600062000075620004ee565b600080546001600160a01b0319166001600160a01b0383169081178255604051929350917f8be0079c531659141344cd1fd0a4f28419497f9722a3daafe3b4186f6b6457e0908290a35060048781556008879055600380546001600160a01b038087166001600160a01b0319928316179283905560018054868316908416179055600280548783169316929092179091556040805163767eb5ef60e01b8152815160009586959094169363767eb5ef938382019390929190829003018186803b1580156200014257600080fd5b505afa15801562000157573d6000803e3d6000fd5b505050506040513d60408110156200016e57600080fd5b508051602091820151604080516080810180835263c1f1b1b560e01b90529051929550909350600592909182916001600160a01b038c169163c1f1b1b59160848086019290818703018186803b158015620001c857600080fd5b505afa158015620001dd573d6000803e3d6000fd5b505050506040513d6020811015620001f457600080fd5b50516001600160a01b0390811682526101c26020808401919091526008546040808501919091526000606094850181905286546001808201895597825290839020865160049092020180546001600160a01b0319169185169190911781558583015196810196909655848101516002870155939092015160039094019390935581516080810180845263c1f1b1b560e01b905291516005938392908b169163c1f1b1b59160848086019290818703018186803b158015620002b457600080fd5b505afa158015620002c9573d6000803e3d6000fd5b505050506040513d6020811015620002e057600080fd5b81019080805190602001909291905050506001600160a01b031681526020016101c2815260200160085481526020016000815250908060018154018082558091505060019003906000526020600020906004020160009091909190915060008201518160000160006101000a8154816001600160a01b0302191690836001600160a01b03160217905550602082015181600101556040820151816002015560608201518160030155505060056040518060800160405280836001600160a01b031681526020016032815260200160085481526020016000815250908060018154018082558091505060019003906000526020600020906004020160009091909190915060008201518160000160006101000a8154816001600160a01b0302191690836001600160a01b03160217905550602082015181600101556040820151816002015560608201518160030155505060056040518060800160405280846001600160a01b031681526020016032815260200160085481526020016000815250908060018154018082558091505060019003906000526020600020906004020160009091909190915060008201518160000160006101000a8154816001600160a01b0302191690836001600160a01b0316021790555060208201518160010155604082015181600201556060820151816003015550506103e8600781905550505050505050505050620004f2565b3390565b61138780620005026000396000f3fe608060405234801561001057600080fd5b506004361061012c5760003560e01c8063715018a6116100ad578063d18df53c11610071578063d18df53c146102df578063d586002e1461030b578063d63a6ccd14610313578063e2bbb1581461031b578063f2fde38b1461033e5761012c565b8063715018a61461025f5780638da5cb5b146102675780638dbb1e3a1461026f57806393f1a40b14610292578063c8290efd146102d75761012c565b8063441a3e70116100f4578063441a3e70146101f257806348cd4cb11461021557806349a876e41461021d57806351eb05a6146102255780635312ea8e146102425761012c565b8063081e3eda146101315780631526fe271461014b57806317caf6f114610198578063257ae0de146101a057806329aeabf6146101c4575b600080fd5b610139610364565b60408051918252519081900360200190f35b6101686004803603602081101561016157600080fd5b503561036a565b604080516001600160a01b0390951685526020850193909352838301919091526060830152519081900360800190f35b6101396103ab565b6101a86103b1565b604080516001600160a01b039092168252519081900360200190f35b6101f0600480360360408110156101da57600080fd5b506001600160a01b0381351690602001356103c9565b005b6101f06004803603604081101561020857600080fd5b50803590602001356104a4565b610139610603565b6101a8610609565b6101f06004803603602081101561023b57600080fd5b5035610618565b6101f06004803603602081101561025857600080fd5b5035610748565b6101f06107e3565b6101a8610897565b6101396004803603604081101561028557600080fd5b50803590602001356108a6565b6102be600480360360408110156102a857600080fd5b50803590602001356001600160a01b03166108bb565b6040805192835260208301919091528051918290030190f35b6101a86108df565b610139600480360360408110156102f557600080fd5b50803590602001356001600160a01b03166108ee565b610139610a50565b6101a8610a56565b6101f06004803603604081101561033157600080fd5b5080359060200135610a65565b6101f06004803603602081101561035457600080fd5b50356001600160a01b0316610b77565b60055490565b6005818154811061037757fe5b600091825260209091206004909102018054600182015460028301546003909301546001600160a01b039092169350919084565b60075481565b7305ff2b0db69458a0750badebc4f9e13add608c7f81565b6103d1610bea565b6000546001600160a01b03908116911614610433576040805162461bcd60e51b815260206004820181905260248201527f4f776e61626c653a2063616c6c6572206973206e6f7420746865206f776e6572604482015290519081900360640190fd5b6003546040805163079cc67960e41b81526001600160a01b03858116600483015260248201859052915191909216916379cc679091604480830192600092919082900301818387803b15801561048857600080fd5b505af115801561049c573d6000803e3d6000fd5b505050505050565b6000600583815481106104b357fe5b600091825260208083208684526006825260408085203386529092529220805460049092029092019250831115610526576040805162461bcd60e51b81526020600482015260126024820152711dda5d1a191c985dce881b9bdd0819dbdbd960721b604482015290519081900360640190fd5b61052f84610618565b6000610569826001015461056364e8d4a5100061055d87600301548760000154610bee90919063ffffffff16565b90610c47565b90610c89565b9050801561057b5761057b3382610ccb565b83156105a557815461058d9085610c89565b825582546105a5906001600160a01b03163386610dcb565b600383015482546105c09164e8d4a510009161055d91610bee565b6001830155604080518581529051869133917ff279e6a1f5e320cca91135676d9cb6e44ca8a08c0b88342bcdb1144f6511b5689181900360200190a35050505050565b60085481565b6001546001600160a01b031681565b60006005828154811061062757fe5b90600052602060002090600402019050806002015443116106485750610745565b8054604080516370a0823160e01b815230600482015290516000926001600160a01b0316916370a08231916024808301926020929190829003018186803b15801561069257600080fd5b505afa1580156106a6573d6000803e3d6000fd5b505050506040513d60208110156106bc57600080fd5b50519050806106d2575043600290910155610745565b60006106e28360020154436108a6565b9050600061070f60075461055d866001015461070960045487610bee90919063ffffffff16565b90610bee565b90506107326107278461055d8464e8d4a51000610bee565b600386015490610e22565b6003850155505043600290920191909155505b50565b60006005828154811061075757fe5b6000918252602080832085845260068252604080852033808752935290932080546004909302909301805490945061079c926001600160a01b03919091169190610dcb565b80546040805191825251849133917fbb757047c2b5f3974fe26b7c10f732e7bce710b0952a71082702781e62ae05959181900360200190a360008082556001909101555050565b6107eb610bea565b6000546001600160a01b0390811691161461084d576040805162461bcd60e51b815260206004820181905260248201527f4f776e61626c653a2063616c6c6572206973206e6f7420746865206f776e6572604482015290519081900360640190fd5b600080546040516001600160a01b03909116907f8be0079c531659141344cd1fd0a4f28419497f9722a3daafe3b4186f6b6457e0908390a3600080546001600160a01b0319169055565b6000546001600160a01b031690565b60006108b28284610c89565b90505b92915050565b60066020908152600092835260408084209091529082529020805460019091015482565b6003546001600160a01b031681565b600080600584815481106108fe57fe5b600091825260208083208784526006825260408085206001600160a01b03898116875290845281862060049586029093016003810154815484516370a0823160e01b81523098810198909852935191985093969395939492909116926370a08231926024808301939192829003018186803b15801561097c57600080fd5b505afa158015610990573d6000803e3d6000fd5b505050506040513d60208110156109a657600080fd5b50516002850154909150431180156109bd57508015155b15610a1d5760006109d28560020154436108a6565b905060006109f960075461055d886001015461070960045487610bee90919063ffffffff16565b9050610a18610a118461055d8464e8d4a51000610bee565b8590610e22565b935050505b610a45836001015461056364e8d4a5100061055d868860000154610bee90919063ffffffff16565b979650505050505050565b60045481565b6002546001600160a01b031681565b600060058381548110610a7457fe5b60009182526020808320868452600682526040808520338652909252922060049091029091019150610aa584610618565b805415610aee576000610ada826001015461056364e8d4a5100061055d87600301548760000154610bee90919063ffffffff16565b90508015610aec57610aec3382610ccb565b505b8215610b1a578154610b0b906001600160a01b0316333086610e7c565b8054610b179084610e22565b81555b60038201548154610b359164e8d4a510009161055d91610bee565b6001820155604080518481529051859133917f90890809c654f11d6e72a28fa60149770a0d11ec6c92319d6ceb2bb0a4ea1a159181900360200190a350505050565b610b7f610bea565b6000546001600160a01b03908116911614610be1576040805162461bcd60e51b815260206004820181905260248201527f4f776e61626c653a2063616c6c6572206973206e6f7420746865206f776e6572604482015290519081900360640190fd5b61074581610ed6565b3390565b600082610bfd575060006108b5565b82820282848281610c0a57fe5b04146108b25760405162461bcd60e51b81526004018080602001828103825260218152602001806113316021913960400191505060405180910390fd5b60006108b283836040518060400160405280601a81526020017f536166654d6174683a206469766973696f6e206279207a65726f000000000000815250610f76565b60006108b283836040518060400160405280601e81526020017f536166654d6174683a207375627472616374696f6e206f766572666c6f770000815250611018565b6003546040805163140e25ad60e31b81526004810184905290516001600160a01b039092169163a0712d68916024808201926020929091908290030181600087803b158015610d1957600080fd5b505af1158015610d2d573d6000803e3d6000fd5b505050506040513d6020811015610d4357600080fd5b50506003546040805163a9059cbb60e01b81526001600160a01b038581166004830152602482018590529151919092169163a9059cbb9160448083019260209291908290030181600087803b158015610d9b57600080fd5b505af1158015610daf573d6000803e3d6000fd5b505050506040513d6020811015610dc557600080fd5b50505050565b604080516001600160a01b038416602482015260448082018490528251808303909101815260649091019091526020810180516001600160e01b031663a9059cbb60e01b179052610e1d908490611072565b505050565b6000828201838110156108b2576040805162461bcd60e51b815260206004820152601b60248201527f536166654d6174683a206164646974696f6e206f766572666c6f770000000000604482015290519081900360640190fd5b604080516001600160a01b0380861660248301528416604482015260648082018490528251808303909101815260849091019091526020810180516001600160e01b03166323b872dd60e01b179052610dc5908590611072565b6001600160a01b038116610f1b5760405162461bcd60e51b815260040180806020018281038252602681526020018061130b6026913960400191505060405180910390fd5b600080546040516001600160a01b03808516939216917f8be0079c531659141344cd1fd0a4f28419497f9722a3daafe3b4186f6b6457e091a3600080546001600160a01b0319166001600160a01b0392909216919091179055565b600081836110025760405162461bcd60e51b81526004018080602001828103825283818151815260200191508051906020019080838360005b83811015610fc7578181015183820152602001610faf565b50505050905090810190601f168015610ff45780820380516001836020036101000a031916815260200191505b509250505060405180910390fd5b50600083858161100e57fe5b0495945050505050565b6000818484111561106a5760405162461bcd60e51b8152602060048201818152835160248401528351909283926044909101919085019080838360008315610fc7578181015183820152602001610faf565b505050900390565b60606110c7826040518060400160405280602081526020017f5361666542455032303a206c6f772d6c6576656c2063616c6c206661696c6564815250856001600160a01b03166111239092919063ffffffff16565b805190915015610e1d578080602001905160208110156110e657600080fd5b5051610e1d5760405162461bcd60e51b815260040180806020018281038252602a8152602001806112e1602a913960400191505060405180910390fd5b6060611132848460008561113a565b949350505050565b6060611145856112a7565b611196576040805162461bcd60e51b815260206004820152601d60248201527f416464726573733a2063616c6c20746f206e6f6e2d636f6e7472616374000000604482015290519081900360640190fd5b60006060866001600160a01b031685876040518082805190602001908083835b602083106111d55780518252601f1990920191602091820191016111b6565b6001836020036101000a03801982511681845116808217855250505050505090500191505060006040518083038185875af1925050503d8060008114611237576040519150601f19603f3d011682016040523d82523d6000602084013e61123c565b606091505b509150915081156112505791506111329050565b8051156112605780518082602001fd5b60405162461bcd60e51b8152602060048201818152865160248401528651879391928392604401919085019080838360008315610fc7578181015183820152602001610faf565b6000813f7fc5d2460186f7233c927e7db2dcc703c0e500b653ca82273b7bfad8045d85a47081811480159061113257505015159291505056fe5361666542455032303a204245503230206f7065726174696f6e20646964206e6f7420737563636565644f776e61626c653a206e6577206f776e657220697320746865207a65726f2061646472657373536166654d6174683a206d756c7469706c69636174696f6e206f766572666c6f77a2646970667358221220787e507c487e6265ffcddfb8cfbf0762c574d46968d1dc68ee420cde3ee898cf64736f6c634300060c0033",
  "immutableReferences": {},
  "source": "// SPDX-License-Identifier: MIT\npragma solidity ^0.6.12;\n\nimport \"./libraries/Address.sol\";\nimport \"./libraries/SafeMath.sol\";\nimport \"./libraries/SafeBEP20.sol\";\nimport \"./interfaces/IPancakeRouter.sol\";\nimport \"./interfaces/IBEP20.sol\";\nimport \"./Ownable.sol\";\n\nimport \"./Yin.sol\";\nimport \"./Yang.sol\";\nimport \"./Zen.sol\";\n\ncontract ZenGarden is Ownable {\n    using SafeMath for uint256;\n    using SafeBEP20 for IBEP20;\n\n    // Info of each user.\n    struct UserInfo {\n        uint256 amount;     // How many LP tokens the user has provided.\n        uint256 rewardDebt; // Reward debt. See explanation below.\n        //\n        // We do some fancy math here. Basically, any point in time, the amount of ZENs\n        // entitled to a user but is pending to be distributed is:\n        //\n        //   pending reward = (user.amount * pool.accZenPerShare) - user.rewardDebt\n        //\n        // Whenever a user deposits or withdraws LP tokens to a pool. Here's what happens:\n        //   1. The pool's `accZenPerShare` (and `lastRewardBlock`) gets updated.\n        //   2. User receives the pending reward sent to his/her address.\n        //   3. User's `amount` gets updated.\n        //   4. User's `rewardDebt` gets updated.\n    }\n\n    // Info of each pool.\n    struct PoolInfo {\n        IBEP20 lpToken;           // Address of LP token contract.\n        uint256 allocPoint;       // How many allocation points assigned to this pool. ZENs to distribute per block.\n        uint256 lastRewardBlock;  // Last block number that ZENs distribution occurs.\n        uint256 accZenPerShare; // Accumulated ZENs per share, times 1e12. See below.\n    }\n\n    /**\n     * @dev Tokens Used:\n     * {wbnb} - Algo stable bnb\n     * {busd} - Algo stable usd\n     */\n    address public bnb;\n    address public usd;\n\n    /**\n     * @dev Third Party Contracts:\n     * {unirouter} - PancakeSwap unirouter\n     */\n    address constant public unirouter  = address(0x05fF2B0DB69458A0750badebc4f9e13aDd608C7F);\n\n    // The ZEN TOKEN!\n    Zen public zen;\n    // ZEN tokens created per block.\n    uint256 public zenPerBlock;\n\n    // Info of each pool.\n    PoolInfo[] public poolInfo;\n    // Info of each user that stakes LP tokens.\n    mapping (uint256 => mapping (address => UserInfo)) public userInfo;\n    // Total allocation poitns. Must be the sum of all allocation points in all pools.\n    uint256 public totalAllocPoint = 0;\n    // The block number when ZEN mining starts.\n    uint256 public startBlock;\n\n    event Deposit(address indexed user, uint256 indexed pid, uint256 amount);\n    event Withdraw(address indexed user, uint256 indexed pid, uint256 amount);\n    event EmergencyWithdraw(address indexed user, uint256 indexed pid, uint256 amount);\n\n    constructor(\n        uint256 _zenPerBlock,\n        uint256 _startBlock,\n        Yin _yin,\n        Yang _yang,\n        address _zen,\n        address _usd,\n        address _bnb\n    ) public {\n        zenPerBlock = _zenPerBlock;\n        startBlock = _startBlock;\n        zen = Zen(_zen);\n        bnb = _bnb;\n        usd = _usd;\n\n        (address zenBNB, address zenBUSD) = zen.getPairs();\n\n        // Liquidity providers pools\n        poolInfo.push(PoolInfo({\n            lpToken: IBEP20(_yin.getPair()),\n            allocPoint: 450,\n            lastRewardBlock: startBlock,\n            accZenPerShare: 0\n        }));\n\n        poolInfo.push(PoolInfo({\n            lpToken: IBEP20(_yang.getPair()),\n            allocPoint: 450,\n            lastRewardBlock: startBlock,\n            accZenPerShare: 0\n        }));\n\n        poolInfo.push(PoolInfo({\n            lpToken: IBEP20(zenBUSD),\n            allocPoint: 50,\n            lastRewardBlock: startBlock,\n            accZenPerShare: 0\n        }));\n        \n        poolInfo.push(PoolInfo({\n            lpToken: IBEP20(zenBNB),\n            allocPoint: 50,\n            lastRewardBlock: startBlock,\n            accZenPerShare: 0\n        }));\n\n        totalAllocPoint = 1000;\n    }\n\n    function poolLength() external view returns (uint256) {\n        return poolInfo.length;\n    }\n\n    // Return reward multiplier over the given _from to _to block.\n    function getMultiplier(uint256 _from, uint256 _to) public pure returns (uint256) {\n        return _to.sub(_from);\n    }\n\n    // View function to see pending ZENs on frontend.\n    function pendingRewards(uint256 _pid, address _user) external view returns (uint256) {\n        PoolInfo storage pool = poolInfo[_pid];\n        UserInfo storage user = userInfo[_pid][_user];\n        uint256 accZenPerShare = pool.accZenPerShare;\n        uint256 lpSupply = pool.lpToken.balanceOf(address(this));\n        if (block.number > pool.lastRewardBlock && lpSupply != 0) {\n            uint256 multiplier = getMultiplier(pool.lastRewardBlock, block.number);\n            uint256 zenReward = multiplier.mul(zenPerBlock).mul(pool.allocPoint).div(totalAllocPoint);\n            accZenPerShare = accZenPerShare.add(zenReward.mul(1e12).div(lpSupply));\n        }\n        return user.amount.mul(accZenPerShare).div(1e12).sub(user.rewardDebt);\n    }\n\n    // Update reward variables of the given pool to be up-to-date.\n    function updatePool(uint256 _pid) public {\n        PoolInfo storage pool = poolInfo[_pid];\n        if (block.number <= pool.lastRewardBlock) {\n            return;\n        }\n        uint256 lpSupply = pool.lpToken.balanceOf(address(this));\n        if (lpSupply == 0) {\n            pool.lastRewardBlock = block.number;\n            return;\n        }\n        uint256 multiplier = getMultiplier(pool.lastRewardBlock, block.number);\n        uint256 zenReward = multiplier.mul(zenPerBlock).mul(pool.allocPoint).div(totalAllocPoint);\n        pool.accZenPerShare = pool.accZenPerShare.add(zenReward.mul(1e12).div(lpSupply));\n        pool.lastRewardBlock = block.number;\n    }\n\n    // Deposit LP tokens to MasterChef for ZEN allocation.\n    function deposit(uint256 _pid, uint256 _amount) public {\n        PoolInfo storage pool = poolInfo[_pid];\n        UserInfo storage user = userInfo[_pid][msg.sender];\n        updatePool(_pid);\n        if (user.amount > 0) {\n            uint256 pending = user.amount.mul(pool.accZenPerShare).div(1e12).sub(user.rewardDebt);\n            if(pending > 0) {\n                safeZenTransfer(msg.sender, pending);\n            }\n        }\n        if (_amount > 0) {\n            pool.lpToken.safeTransferFrom(address(msg.sender), address(this), _amount);\n            user.amount = user.amount.add(_amount);\n        }\n        user.rewardDebt = user.amount.mul(pool.accZenPerShare).div(1e12);\n        emit Deposit(msg.sender, _pid, _amount);\n    }\n\n    // Withdraw LP tokens from MasterChef.\n    function withdraw(uint256 _pid, uint256 _amount) public {\n        PoolInfo storage pool = poolInfo[_pid];\n        UserInfo storage user = userInfo[_pid][msg.sender];\n        require(user.amount >= _amount, \"withdraw: not good\");\n        updatePool(_pid);\n        uint256 pending = user.amount.mul(pool.accZenPerShare).div(1e12).sub(user.rewardDebt);\n        if(pending > 0) {\n            safeZenTransfer(msg.sender, pending);\n        }\n        if(_amount > 0) {\n            user.amount = user.amount.sub(_amount);\n            pool.lpToken.safeTransfer(address(msg.sender), _amount);\n        }\n        user.rewardDebt = user.amount.mul(pool.accZenPerShare).div(1e12);\n        emit Withdraw(msg.sender, _pid, _amount);\n    }\n\n    // Withdraw without caring about rewards. EMERGENCY ONLY.\n    function emergencyWithdraw(uint256 _pid) public {\n        PoolInfo storage pool = poolInfo[_pid];\n        UserInfo storage user = userInfo[_pid][msg.sender];\n        pool.lpToken.safeTransfer(address(msg.sender), user.amount);\n        emit EmergencyWithdraw(msg.sender, _pid, user.amount);\n        user.amount = 0;\n        user.rewardDebt = 0;\n    }\n\n    // Some would say the name does not fit\n    function safeZenTransfer(address _to, uint256 _amount) internal {\n        zen.mint(_amount);\n        zen.transfer(_to, _amount);\n    }\n\n    function safeZenBurn(address _from, uint256 _amount) public onlyOwner {\n        zen.burnFrom(_from, _amount);\n    }\n}\n",
  "sourcePath": "C:/Users/jumic/Projets/truffle/yinyang/contracts/ZenGarden.sol",
  "compiler": {
    "name": "solc",
    "version": "0.6.12+commit.27d51765.Emscripten.clang"
  },
  "schemaVersion": "3.3.4",
  "updatedAt": "2021-04-11T00:22:23.280Z",
  "networkType": "ethereum",
  "devdoc": {
    "kind": "dev",
    "methods": {
      "owner()": {
        "details": "Returns the address of the current owner."
      },
      "renounceOwnership()": {
        "details": "Leaves the contract without owner. It will not be possible to call `onlyOwner` functions anymore. Can only be called by the current owner. NOTE: Renouncing ownership will leave the contract without an owner, thereby removing any functionality that is only available to the owner."
      },
      "transferOwnership(address)": {
        "details": "Transfers ownership of the contract to a new account (`newOwner`). Can only be called by the current owner."
      }
    },
    "stateVariables": {
      "bnb": {
        "details": "Tokens Used: {wbnb} - Algo stable bnb {busd} - Algo stable usd"
      },
      "unirouter": {
        "details": "Third Party Contracts: {unirouter} - PancakeSwap unirouter"
      }
    },
    "version": 1
  },
  "userdoc": {
    "kind": "user",
    "methods": {},
    "version": 1
  }
}