{
  "contractName": "PeaceMaster",
  "abi": [
    {
      "inputs": [
        {
          "internalType": "uint256",
          "name": "start",
          "type": "uint256"
        },
        {
          "internalType": "uint256",
          "name": "_epochDuration",
          "type": "uint256"
        },
        {
          "internalType": "contract Yin",
          "name": "_yin",
          "type": "address"
        },
        {
          "internalType": "contract Yang",
          "name": "_yang",
          "type": "address"
        },
        {
          "internalType": "address",
          "name": "_busd",
          "type": "address"
        },
        {
          "internalType": "address",
          "name": "_unirouter",
          "type": "address"
        }
      ],
      "stateMutability": "nonpayable",
      "type": "constructor"
    },
    {
      "anonymous": false,
      "inputs": [
        {
          "indexed": true,
          "internalType": "address",
          "name": "user",
          "type": "address"
        },
        {
          "indexed": false,
          "internalType": "uint256",
          "name": "amount",
          "type": "uint256"
        }
      ],
      "name": "Harvest",
      "type": "event"
    },
    {
      "anonymous": false,
      "inputs": [
        {
          "indexed": true,
          "internalType": "address",
          "name": "previousOwner",
          "type": "address"
        },
        {
          "indexed": true,
          "internalType": "address",
          "name": "newOwner",
          "type": "address"
        }
      ],
      "name": "OwnershipTransferred",
      "type": "event"
    },
    {
      "anonymous": false,
      "inputs": [
        {
          "indexed": true,
          "internalType": "address",
          "name": "user",
          "type": "address"
        },
        {
          "indexed": false,
          "internalType": "address",
          "name": "token",
          "type": "address"
        },
        {
          "indexed": false,
          "internalType": "uint256",
          "name": "amount",
          "type": "uint256"
        }
      ],
      "name": "Withdraw",
      "type": "event"
    },
    {
      "inputs": [],
      "name": "busd",
      "outputs": [
        {
          "internalType": "address",
          "name": "",
          "type": "address"
        }
      ],
      "stateMutability": "view",
      "type": "function",
      "constant": true
    },
    {
      "inputs": [],
      "name": "currentTarget",
      "outputs": [
        {
          "internalType": "address",
          "name": "",
          "type": "address"
        }
      ],
      "stateMutability": "view",
      "type": "function",
      "constant": true
    },
    {
      "inputs": [],
      "name": "epochDuration",
      "outputs": [
        {
          "internalType": "uint256",
          "name": "",
          "type": "uint256"
        }
      ],
      "stateMutability": "view",
      "type": "function",
      "constant": true
    },
    {
      "inputs": [],
      "name": "epochStart",
      "outputs": [
        {
          "internalType": "uint256",
          "name": "",
          "type": "uint256"
        }
      ],
      "stateMutability": "view",
      "type": "function",
      "constant": true
    },
    {
      "inputs": [],
      "name": "initialized",
      "outputs": [
        {
          "internalType": "bool",
          "name": "",
          "type": "bool"
        }
      ],
      "stateMutability": "view",
      "type": "function",
      "constant": true
    },
    {
      "inputs": [],
      "name": "origin",
      "outputs": [
        {
          "internalType": "uint256",
          "name": "",
          "type": "uint256"
        }
      ],
      "stateMutability": "view",
      "type": "function",
      "constant": true
    },
    {
      "inputs": [],
      "name": "owner",
      "outputs": [
        {
          "internalType": "address",
          "name": "",
          "type": "address"
        }
      ],
      "stateMutability": "view",
      "type": "function",
      "constant": true
    },
    {
      "inputs": [
        {
          "internalType": "uint256",
          "name": "",
          "type": "uint256"
        },
        {
          "internalType": "address",
          "name": "",
          "type": "address"
        }
      ],
      "name": "participations",
      "outputs": [
        {
          "internalType": "uint256",
          "name": "",
          "type": "uint256"
        }
      ],
      "stateMutability": "view",
      "type": "function",
      "constant": true
    },
    {
      "inputs": [],
      "name": "renounceOwnership",
      "outputs": [],
      "stateMutability": "nonpayable",
      "type": "function"
    },
    {
      "inputs": [
        {
          "internalType": "address",
          "name": "",
          "type": "address"
        }
      ],
      "name": "shares",
      "outputs": [
        {
          "internalType": "uint256",
          "name": "",
          "type": "uint256"
        }
      ],
      "stateMutability": "view",
      "type": "function",
      "constant": true
    },
    {
      "inputs": [
        {
          "internalType": "address",
          "name": "",
          "type": "address"
        }
      ],
      "name": "tokenAccounts",
      "outputs": [
        {
          "internalType": "uint256",
          "name": "amount",
          "type": "uint256"
        },
        {
          "internalType": "uint256",
          "name": "shares",
          "type": "uint256"
        }
      ],
      "stateMutability": "view",
      "type": "function",
      "constant": true
    },
    {
      "inputs": [
        {
          "internalType": "address",
          "name": "newOwner",
          "type": "address"
        }
      ],
      "name": "transferOwnership",
      "outputs": [],
      "stateMutability": "nonpayable",
      "type": "function"
    },
    {
      "inputs": [],
      "name": "unirouter",
      "outputs": [
        {
          "internalType": "address",
          "name": "",
          "type": "address"
        }
      ],
      "stateMutability": "view",
      "type": "function",
      "constant": true
    },
    {
      "inputs": [
        {
          "internalType": "address",
          "name": "",
          "type": "address"
        },
        {
          "internalType": "address",
          "name": "",
          "type": "address"
        }
      ],
      "name": "userAccounts",
      "outputs": [
        {
          "internalType": "uint256",
          "name": "",
          "type": "uint256"
        }
      ],
      "stateMutability": "view",
      "type": "function",
      "constant": true
    },
    {
      "inputs": [
        {
          "internalType": "address",
          "name": "",
          "type": "address"
        }
      ],
      "name": "voices",
      "outputs": [
        {
          "internalType": "uint256",
          "name": "",
          "type": "uint256"
        }
      ],
      "stateMutability": "view",
      "type": "function",
      "constant": true
    },
    {
      "inputs": [
        {
          "internalType": "address",
          "name": "",
          "type": "address"
        }
      ],
      "name": "votersEpoch",
      "outputs": [
        {
          "internalType": "uint256",
          "name": "",
          "type": "uint256"
        }
      ],
      "stateMutability": "view",
      "type": "function",
      "constant": true
    },
    {
      "inputs": [
        {
          "internalType": "address",
          "name": "",
          "type": "address"
        }
      ],
      "name": "votersToken",
      "outputs": [
        {
          "internalType": "address",
          "name": "",
          "type": "address"
        }
      ],
      "stateMutability": "view",
      "type": "function",
      "constant": true
    },
    {
      "inputs": [],
      "name": "wbnb",
      "outputs": [
        {
          "internalType": "address",
          "name": "",
          "type": "address"
        }
      ],
      "stateMutability": "view",
      "type": "function",
      "constant": true
    },
    {
      "inputs": [],
      "name": "yang",
      "outputs": [
        {
          "internalType": "contract Yang",
          "name": "",
          "type": "address"
        }
      ],
      "stateMutability": "view",
      "type": "function",
      "constant": true
    },
    {
      "inputs": [],
      "name": "yin",
      "outputs": [
        {
          "internalType": "contract Yin",
          "name": "",
          "type": "address"
        }
      ],
      "stateMutability": "view",
      "type": "function",
      "constant": true
    },
    {
      "inputs": [],
      "name": "zenGarden",
      "outputs": [
        {
          "internalType": "contract ZenGarden",
          "name": "",
          "type": "address"
        }
      ],
      "stateMutability": "view",
      "type": "function",
      "constant": true
    },
    {
      "inputs": [
        {
          "internalType": "address",
          "name": "_zenGarden",
          "type": "address"
        }
      ],
      "name": "initialize",
      "outputs": [],
      "stateMutability": "nonpayable",
      "type": "function"
    },
    {
      "inputs": [
        {
          "internalType": "address",
          "name": "proposition",
          "type": "address"
        },
        {
          "internalType": "uint256",
          "name": "amount",
          "type": "uint256"
        }
      ],
      "name": "voteForNextTarget",
      "outputs": [],
      "stateMutability": "nonpayable",
      "type": "function"
    },
    {
      "inputs": [],
      "name": "harvest",
      "outputs": [],
      "stateMutability": "nonpayable",
      "type": "function"
    },
    {
      "inputs": [],
      "name": "getPropositionsLength",
      "outputs": [
        {
          "internalType": "uint256",
          "name": "index",
          "type": "uint256"
        }
      ],
      "stateMutability": "view",
      "type": "function",
      "constant": true
    },
    {
      "inputs": [
        {
          "internalType": "uint256",
          "name": "index",
          "type": "uint256"
        }
      ],
      "name": "getProposition",
      "outputs": [
        {
          "internalType": "address",
          "name": "",
          "type": "address"
        },
        {
          "internalType": "uint256",
          "name": "",
          "type": "uint256"
        },
        {
          "internalType": "uint256",
          "name": "",
          "type": "uint256"
        }
      ],
      "stateMutability": "view",
      "type": "function",
      "constant": true
    },
    {
      "inputs": [],
      "name": "getHistoryLength",
      "outputs": [
        {
          "internalType": "uint256",
          "name": "length",
          "type": "uint256"
        }
      ],
      "stateMutability": "view",
      "type": "function",
      "constant": true
    },
    {
      "inputs": [
        {
          "internalType": "uint256",
          "name": "index",
          "type": "uint256"
        }
      ],
      "name": "getHistory",
      "outputs": [
        {
          "internalType": "uint256",
          "name": "",
          "type": "uint256"
        },
        {
          "internalType": "address",
          "name": "",
          "type": "address"
        },
        {
          "internalType": "uint256",
          "name": "",
          "type": "uint256"
        },
        {
          "internalType": "uint256",
          "name": "",
          "type": "uint256"
        }
      ],
      "stateMutability": "view",
      "type": "function",
      "constant": true
    },
    {
      "inputs": [],
      "name": "getWinner",
      "outputs": [
        {
          "internalType": "address",
          "name": "",
          "type": "address"
        }
      ],
      "stateMutability": "view",
      "type": "function",
      "constant": true
    },
    {
      "inputs": [
        {
          "internalType": "address",
          "name": "user",
          "type": "address"
        }
      ],
      "name": "getUserVote",
      "outputs": [
        {
          "internalType": "address",
          "name": "token",
          "type": "address"
        },
        {
          "internalType": "uint256",
          "name": "userShares",
          "type": "uint256"
        }
      ],
      "stateMutability": "view",
      "type": "function",
      "constant": true
    },
    {
      "inputs": [],
      "name": "isHarvestable",
      "outputs": [
        {
          "internalType": "bool",
          "name": "",
          "type": "bool"
        }
      ],
      "stateMutability": "view",
      "type": "function",
      "constant": true
    },
    {
      "inputs": [],
      "name": "claimAllVoterShares",
      "outputs": [],
      "stateMutability": "nonpayable",
      "type": "function"
    },
    {
      "inputs": [
        {
          "internalType": "address",
          "name": "user",
          "type": "address"
        }
      ],
      "name": "pendingVoterShares",
      "outputs": [
        {
          "components": [
            {
              "internalType": "address",
              "name": "token",
              "type": "address"
            },
            {
              "internalType": "uint8",
              "name": "decimals",
              "type": "uint8"
            },
            {
              "internalType": "uint256",
              "name": "amount",
              "type": "uint256"
            }
          ],
          "internalType": "struct PeaceMaster.ShareInfo[]",
          "name": "",
          "type": "tuple[]"
        }
      ],
      "stateMutability": "view",
      "type": "function",
      "constant": true
    },
    {
      "inputs": [
        {
          "internalType": "address",
          "name": "user",
          "type": "address"
        }
      ],
      "name": "updatesMissing",
      "outputs": [
        {
          "internalType": "uint256",
          "name": "",
          "type": "uint256"
        }
      ],
      "stateMutability": "view",
      "type": "function",
      "constant": true
    },
    {
      "inputs": [],
      "name": "updateUserAccount",
      "outputs": [],
      "stateMutability": "nonpayable",
      "type": "function"
    }
  ],
  "bytecode": "0x6080604052600b80546001600160a01b03191690556017805460ff191690553480156200002b57600080fd5b5060405162003949380380620039498339810160408190526200004e9162000795565b60006200005a620003d1565b600080546001600160a01b0319166001600160a01b0383169081178255604051929350917f8be0079c531659141344cd1fd0a4f28419497f9722a3daafe3b4186f6b6457e0908290a350600185905560028690556003869055620000cd600c6000620003d5602090811b620020f817901c565b50600880546001600160a01b038087166001600160a01b03199283161790925560098054868416908316179055600580548584169216919091179055604080516315ab88c960e31b815290519183169163ad5c464891600481810192602092909190829003018186803b1580156200014457600080fd5b505afa15801562000159573d6000803e3d6000fd5b505050506040513d601f19601f820116820180604052508101906200017f919062000734565b600480546001600160a01b03199081166001600160a01b0393841617825560068054909116848416179081905560085460405163095ea7b360e01b81529084169363095ea7b393620001da9390911691600019910162000848565b602060405180830381600087803b158015620001f557600080fd5b505af11580156200020a573d6000803e3d6000fd5b505050506040513d601f19601f820116820180604052508101906200023091906200075a565b5060095460065460405163095ea7b360e01b81526001600160a01b039283169263095ea7b3926200026b929116906000199060040162000848565b602060405180830381600087803b1580156200028657600080fd5b505af11580156200029b573d6000803e3d6000fd5b505050506040513d601f19601f82011682018060405250810190620002c191906200075a565b506006546008546040805163075d16e960e51b8152905162000370936001600160a01b03908116936000199391169163eba2dd2091600480820192602092909190829003018186803b1580156200031757600080fd5b505afa1580156200032c573d6000803e3d6000fd5b505050506040513d601f19601f8201168201806040525081019062000352919062000734565b6001600160a01b0316620003f560201b62002116179092919060201c565b6006546009546040805163075d16e960e51b81529051620003c5936001600160a01b03908116936000199391169163eba2dd2091600480820192602092909190829003018186803b1580156200031757600080fd5b505050505050620009c0565b3390565b6000620003ec836001600160a01b0384166200050c565b90505b92915050565b801580620004845750604051636eb1769f60e11b81526001600160a01b0384169063dd62ed3e906200042e90309086906004016200082e565b60206040518083038186803b1580156200044757600080fd5b505afa1580156200045c573d6000803e3d6000fd5b505050506040513d601f19601f820116820180604052508101906200048291906200077c565b155b620004ac5760405162461bcd60e51b8152600401620004a390620008e0565b60405180910390fd5b620005078363095ea7b360e01b8484604051602401620004ce92919062000848565b60408051808303601f190181529190526020810180516001600160e01b0319939093166001600160e01b03938416179052906200055b16565b505050565b60006200051a8383620005f7565b6200055257508154600181810184556000848152602080822090930184905584548482528286019093526040902091909155620003ef565b506000620003ef565b6060620005b7826040518060400160405280602081526020017f5361666542455032303a206c6f772d6c6576656c2063616c6c206661696c6564815250856001600160a01b03166200060f60201b6200225b179092919060201c565b805190915015620005075780806020019051810190620005d891906200075a565b620005075760405162461bcd60e51b8152600401620004a39062000896565b60009081526001919091016020526040902054151590565b606062000620848460008562000628565b949350505050565b60606200063585620006fa565b620006545760405162461bcd60e51b8152600401620004a3906200093d565b60006060866001600160a01b0316858760405162000673919062000810565b60006040518083038185875af1925050503d8060008114620006b2576040519150601f19603f3d011682016040523d82523d6000602084013e620006b7565b606091505b50915091508115620006cd579150620006209050565b805115620006de5780518082602001fd5b8360405162461bcd60e51b8152600401620004a3919062000861565b6000813f7fc5d2460186f7233c927e7db2dcc703c0e500b653ca82273b7bfad8045d85a47081811480159062000620575050151592915050565b60006020828403121562000746578081fd5b81516200075381620009a7565b9392505050565b6000602082840312156200076c578081fd5b8151801515811462000753578182fd5b6000602082840312156200078e578081fd5b5051919050565b60008060008060008060c08789031215620007ae578182fd5b86519550602087015194506040870151620007c981620009a7565b6060880151909450620007dc81620009a7565b6080880151909350620007ef81620009a7565b60a08801519092506200080281620009a7565b809150509295509295509295565b600082516200082481846020870162000974565b9190910192915050565b6001600160a01b0392831681529116602082015260400190565b6001600160a01b03929092168252602082015260400190565b60006020825282518060208401526200088281604085016020870162000974565b601f01601f19169190910160400192915050565b6020808252602a908201527f5361666542455032303a204245503230206f7065726174696f6e20646964206e6040820152691bdd081cdd58d8d9595960b21b606082015260800190565b60208082526036908201527f5361666542455032303a20617070726f76652066726f6d206e6f6e2d7a65726f60408201527f20746f206e6f6e2d7a65726f20616c6c6f77616e636500000000000000000000606082015260800190565b6020808252601d908201527f416464726573733a2063616c6c20746f206e6f6e2d636f6e7472616374000000604082015260600190565b60005b838110156200099157818101518382015260200162000977565b83811115620009a1576000848401525b50505050565b6001600160a01b0381168114620009bd57600080fd5b50565b612f7980620009d06000396000f3fe608060405234801561001057600080fd5b50600436106102415760003560e01c8063715018a611610145578063a4b3dae4116100bd578063ce7c2ac21161008c578063d4923d4e11610071578063d4923d4e14610436578063f2fde38b14610457578063fbddff371461046a57610241565b8063ce7c2ac214610403578063d1ee34191461041657610241565b8063a4b3dae4146103b2578063bc6b4f32146103c5578063c4d66de8146103cd578063c8691b2a146103e057610241565b80638da5cb5b116101145780638f8c06b7116100f95780638f8c06b71461039a578063938b5f32146103a2578063a2c71e7c146103aa57610241565b80638da5cb5b1461038a5780638e7ea5b21461039257610241565b8063715018a6146103455780637edaea561461034d578063812ae9721461036f5780638d72647e1461038257610241565b80632ff75c59116101d85780634b64218b116101a75780635175171e1161018c5780635175171e1461032d5780635478f4681461033557806358eeef451461033d57610241565b80634b64218b146103125780634ff0876a1461032557610241565b80632ff75c59146102e757806339148c53146102fa5780633ca5b234146103025780634641257d1461030a57610241565b80631e34b2f7116102145780631e34b2f7146102a45780631f2ff92a146102ac578063257ae0de146102cc578063259a9a8c146102d457610241565b8063158ef93e1461024657806315e5a1e5146102645780631a638f36146102795780631b85d6461461029a575b600080fd5b61024e61047d565b60405161025b9190612aa5565b60405180910390f35b61026c610486565b60405161025b9190612ab0565b61028c61028736600461288c565b61048c565b60405161025b929190612ef4565b6102a26104a5565b005b6102a2610688565b6102bf6102ba36600461288c565b610ac3565b60405161025b91906129d8565b6102bf610ade565b61026c6102e236600461288c565b610aed565b61026c6102f53660046128c4565b610b1a565b6102bf610b37565b6102bf610b46565b6102a2610b55565b61026c610320366004612977565b6115a6565b61026c6115c3565b61024e6115c9565b61026c6115e9565b6102bf6115ef565b6102a26115fe565b61036061035b366004612947565b61168a565b60405161025b93929190612a1f565b61026c61037d36600461288c565b61170f565b6102bf611721565b6102bf611730565b6102bf61173f565b6102bf6117d5565b61026c6117e4565b61026c6117ea565b61026c6103c036600461288c565b6117fb565b6102bf61180d565b6102a26103db36600461288c565b61181c565b6103f36103ee366004612947565b6119c7565b60405161025b9493929190612e60565b61026c61041136600461288c565b611a91565b61042961042436600461288c565b611aa3565b60405161025b9190612a40565b61044961044436600461288c565b611c73565b60405161025b9291906129ec565b6102a261046536600461288c565b611cd0565b6102a26104783660046128fc565b611d0e565b60175460ff1681565b60025481565b6012602052600090815260409020805460019091015482565b336000908152601660205260409020545b600a54811015610685576000818152601460209081526040808320338452909152902054156106685760006001600160a01b0316600a82815481106104f757fe5b60009182526020909120600160049092020101546001600160a01b0316141561055157600081815260146020818152604080842033808652908352818520546001870186529383528185209085529091529091205561064d565b610594600a828154811061056157fe5b600091825260208083206001600490930201919091015433835260159091526040909120906001600160a01b03166120f8565b50600081815260146020908152604080832033845282528083205460139092528220600a80546105fe949190869081106105ca57fe5b60009182526020808320600160049093020191909101546001600160a01b0316835282019290925260400190205490612272565b336000908152601360205260408120600a80549192918590811061061e57fe5b60009182526020808320600160049093020191909101546001600160a01b031683528201929092526040019020555b60008181526014602090815260408083203384529091528120555b3360009081526016602052604090206001909101908190556104b6565b50565b6106906104a5565b606061069b33611aa3565b905060005b8151811015610abf578181815181106106b557fe5b6020026020010151600001516001600160a01b03166370a08231306040518263ffffffff1660e01b81526004016106ec91906129d8565b60206040518083038186803b15801561070457600080fd5b505afa158015610718573d6000803e3d6000fd5b505050506040513d601f19601f8201168201806040525081019061073c919061295f565b82828151811061074857fe5b602002602001015160400151111561080a5781818151811061076657fe5b6020026020010151600001516001600160a01b03166370a08231306040518263ffffffff1660e01b815260040161079d91906129d8565b60206040518083038186803b1580156107b557600080fd5b505afa1580156107c9573d6000803e3d6000fd5b505050506040513d601f19601f820116820180604052508101906107ed919061295f565b8282815181106107f957fe5b602002602001015160400181815250505b33600090815260136020526040812083516108a7929085908590811061082c57fe5b6020026020010151600001516001600160a01b03166001600160a01b03168152602001908152602001600020546012600085858151811061086957fe5b6020026020010151600001516001600160a01b03166001600160a01b031681526020019081526020016000206001015461229790919063ffffffff16565b601260008484815181106108b757fe5b6020026020010151600001516001600160a01b03166001600160a01b03168152602001908152602001600020600101819055506109408282815181106108f957fe5b6020026020010151604001516012600085858151811061091557fe5b602090810291909101810151516001600160a01b031682528101919091526040016000205490612297565b6012600084848151811061095057fe5b602090810291909101810151516001600160a01b03168252818101929092526040908101600090812093909355338352601390915281208351829085908590811061099757fe5b6020026020010151600001516001600160a01b03166001600160a01b03168152602001908152602001600020819055506109f98282815181106109d657fe5b6020908102919091018101515133600090815260159092526040909120906122d9565b50610a4633838381518110610a0a57fe5b602002602001015160400151848481518110610a2257fe5b6020026020010151600001516001600160a01b03166122ee9092919063ffffffff16565b336001600160a01b03167f9b1bfa7fa9ee420a16e124f794c35ac9f90472acc99140eb2f6447c714cad8eb838381518110610a7d57fe5b602002602001015160000151848481518110610a9557fe5b602002602001015160400151604051610aaf9291906129ec565b60405180910390a26001016106a0565b5050565b6010602052600090815260409020546001600160a01b031681565b6006546001600160a01b031681565b6001600160a01b038116600090815260166020526040812054600a54610b1291612297565b90505b919050565b601360209081526000928352604080842090915290825290205481565b600b546001600160a01b031681565b6005546001600160a01b031681565b610b5d6115c9565b610b825760405162461bcd60e51b8152600401610b7990612c97565b60405180910390fd5b6000610ba5600154610b9f6002544261229790919063ffffffff16565b9061230d565b9050610bc8610bbf8260015461234f90919063ffffffff16565b60025490612272565b600255610bd361173f565b600b805473ffffffffffffffffffffffffffffffffffffffff19166001600160a01b039283161790819055166000908152600f6020908152604080832054601290925290912060010154610c279082612272565b600b80546001600160a01b0390811660009081526012602090815260408083206001908101969096558051808201825260025481528151606081018352955485168087528452600e83528184205486840152858201889052808301958652600a8054978801815590935291517fc65a7bb8d6351c1cf70c95a316cc6a92839c986682d98bc35f958f4883f9d2a8600490960295860155925180517fc65a7bb8d6351c1cf70c95a316cc6a92839c986682d98bc35f958f4883f9d2a98601805473ffffffffffffffffffffffffffffffffffffffff19169190941617909255918101517fc65a7bb8d6351c1cf70c95a316cc6a92839c986682d98bc35f958f4883f9d2aa84015501517fc65a7bb8d6351c1cf70c95a316cc6a92839c986682d98bc35f958f4883f9d2ab90910155610d5c612389565b610d68600c60006120f8565b50600b546001600160a01b0316610dca57610d816104a5565b336001600160a01b03167fc9695243a805adb74c91f28311176c65b417e842d5699893cef56d18bfa48cba6000604051610dbb9190612ab0565b60405180910390a250506115a4565b6008546040516370a0823160e01b81526000916001600160a01b0316906370a0823190610dfb9030906004016129d8565b60206040518083038186803b158015610e1357600080fd5b505afa158015610e27573d6000803e3d6000fd5b505050506040513d601f19601f82011682018060405250810190610e4b919061295f565b1115610fe15760408051600380825260808201909252606091602082018380368337505060085482519293506001600160a01b031691839150600090610e8d57fe5b6001600160a01b039283166020918202929092010152600554825191169082906001908110610eb857fe5b6001600160a01b039283166020918202929092010152600454825191169082906002908110610ee357fe5b6001600160a01b0392831660209182029290920101526006546008546040516370a0823160e01b815291831692635c11d795929116906370a0823190610f2d9030906004016129d8565b60206040518083038186803b158015610f4557600080fd5b505afa158015610f59573d6000803e3d6000fd5b505050506040513d601f19601f82011682018060405250810190610f7d919061295f565b60008430610f8d42610168612272565b6040518663ffffffff1660e01b8152600401610fad959493929190612e84565b600060405180830381600087803b158015610fc757600080fd5b505af1158015610fdb573d6000803e3d6000fd5b50505050505b6009546040516370a0823160e01b81526000916001600160a01b0316906370a08231906110129030906004016129d8565b60206040518083038186803b15801561102a57600080fd5b505afa15801561103e573d6000803e3d6000fd5b505050506040513d601f19601f82011682018060405250810190611062919061295f565b11156111cb576040805160028082526060808301845292602083019080368337505060095482519293506001600160a01b0316918391506000906110a257fe5b6001600160a01b0392831660209182029290920101526004548251911690829060019081106110cd57fe5b6001600160a01b0392831660209182029290920101526006546009546040516370a0823160e01b815291831692635c11d795929116906370a08231906111179030906004016129d8565b60206040518083038186803b15801561112f57600080fd5b505afa158015611143573d6000803e3d6000fd5b505050506040513d601f19601f82011682018060405250810190611167919061295f565b6000843061117742610168612272565b6040518663ffffffff1660e01b8152600401611197959493929190612e84565b600060405180830381600087803b1580156111b157600080fd5b505af11580156111c5573d6000803e3d6000fd5b50505050505b600954604080517feba2dd2000000000000000000000000000000000000000000000000000000000815290516000926001600160a01b03169163eba2dd20916004808301926020929190829003018186803b15801561122957600080fd5b505afa15801561123d573d6000803e3d6000fd5b505050506040513d601f19601f8201168201806040525081019061126191906128a8565b6001600160a01b03166370a08231306040518263ffffffff1660e01b815260040161128c91906129d8565b60206040518083038186803b1580156112a457600080fd5b505afa1580156112b8573d6000803e3d6000fd5b505050506040513d601f19601f820116820180604052508101906112dc919061295f565b905060006112eb82606461230d565b905061139d6112f8611730565b600954604080517feba2dd20000000000000000000000000000000000000000000000000000000008152905185926001600160a01b03169163eba2dd20916004808301926020929190829003018186803b15801561135557600080fd5b505afa158015611369573d6000803e3d6000fd5b505050506040513d601f19601f8201168201806040525081019061138d91906128a8565b6001600160a01b031691906122ee565b600454600b546001600160a01b039081169116146114a7576040805160028082526060808301845292602083019080368337505060045482519293506001600160a01b0316918391506000906113ef57fe5b6001600160a01b039283166020918202929092010152600b5482519116908290600190811061141a57fe5b6001600160a01b03928316602091820292909201015260065416635c11d7956114438585612297565b6000843061145342610168612272565b6040518663ffffffff1660e01b8152600401611473959493929190612e84565b600060405180830381600087803b15801561148d57600080fd5b505af11580156114a1573d6000803e3d6000fd5b50505050505b600b546040516370a0823160e01b81526001600160a01b03909116906370a08231906114d79030906004016129d8565b60206040518083038186803b1580156114ef57600080fd5b505afa158015611503573d6000803e3d6000fd5b505050506040513d601f19601f82011682018060405250810190611527919061295f565b600b546001600160a01b031660009081526012602052604090205561154a6104a5565b600b546001600160a01b03166000908152601260205260409081902054905133917fc9695243a805adb74c91f28311176c65b417e842d5699893cef56d18bfa48cba916115979190612ab0565b60405180910390a2505050505b565b601460209081526000928352604080842090915290825290205481565b60015481565b60006115e260015460025461227290919063ffffffff16565b4211905090565b600a5490565b6007546001600160a01b031681565b6116066123e2565b6000546001600160a01b039081169116146116335760405162461bcd60e51b8152600401610b7990612dbd565b600080546040516001600160a01b03909116907f8be0079c531659141344cd1fd0a4f28419497f9722a3daafe3b4186f6b6457e0908390a36000805473ffffffffffffffffffffffffffffffffffffffff19169055565b60008080611699600c856123e6565b600e60006116a8600c886123e6565b6001600160a01b03166001600160a01b0316815260200190815260200160002054600f60006116e188600c6123e690919063ffffffff16565b6001600160a01b03166001600160a01b03168152602001908152602001600020549250925092509193909250565b600e6020526000908152604090205481565b6004546001600160a01b031681565b6000546001600160a01b031690565b60008080805b61174f600c6123f2565b8110156117ce5782600e6000611766600c856123e6565b6001600160a01b03166001600160a01b031681526020019081526020016000205411156117c657600e600061179c600c846123e6565b6001600160a01b0316815260208101919091526040016000205492506117c3600c826123e6565b91505b600101611745565b5091505090565b6009546001600160a01b031681565b60035481565b60006117f6600c6123f2565b905090565b60116020526000908152604090205481565b6008546001600160a01b031681565b6118246123e2565b6000546001600160a01b039081169116146118515760405162461bcd60e51b8152600401610b7990612dbd565b60175460ff16156118745760405162461bcd60e51b8152600401610b7990612d2b565b6007805473ffffffffffffffffffffffffffffffffffffffff19166001600160a01b03838116919091179091556008546009546040517f485cc9550000000000000000000000000000000000000000000000000000000081529183169263485cc955926118e79230921690600401612a05565b600060405180830381600087803b15801561190157600080fd5b505af1158015611915573d6000803e3d6000fd5b50506009546008546040517f485cc9550000000000000000000000000000000000000000000000000000000081526001600160a01b03928316945063485cc95593506119679230921690600401612a05565b600060405180830381600087803b15801561198157600080fd5b505af1158015611995573d6000803e3d6000fd5b5050601780547fffffffffffffffffffffffffffffffffffffffffffffffffffffffffffffff00166001179055505050565b600080600080600a8054905085106119f15760405162461bcd60e51b8152600401610b7990612df2565b600a85815481106119fe57fe5b906000526020600020906004020160000154600a8681548110611a1d57fe5b6000918252602090912060016004909202010154600a80546001600160a01b039092169188908110611a4b57fe5b906000526020600020906004020160010160010154600a8881548110611a6d57fe5b90600052602060002090600402016001016002015493509350935093509193509193565b600f6020526000908152604090205481565b6001600160a01b03811660009081526015602052604090206060908190611ac9906123f2565b67ffffffffffffffff81118015611adf57600080fd5b50604051908082528060200260200182016040528015611b1957816020015b611b0661286c565b815260200190600190039081611afe5790505b50905060005b6001600160a01b0384166000908152601560205260409020611b40906123f2565b811015611c6c576001600160a01b0384166000908152601560205260408120611b6990836123e6565b90506040518060600160405280826001600160a01b03168152602001826001600160a01b031663313ce5676040518163ffffffff1660e01b815260040160206040518083038186803b158015611bbe57600080fd5b505afa158015611bd2573d6000803e3d6000fd5b505050506040513d601f19601f82011682018060405250810190611bf6919061299b565b60ff1681526001600160a01b0380841660008181526012602081815260408084206001810154968e16855260138352818520958552948252909220549082529154930192611c499291610b9f919061234f565b815250838381518110611c5857fe5b602090810291909101015250600101611b1f565b5092915050565b6000806000611c8184610aed565b1115611c9257506000905080611ccb565b50506001600160a01b03808216600081815260106020908152604080832054600a54845260148352818420948452939091529020549116905b915091565b611cd86123e2565b6000546001600160a01b03908116911614611d055760405162461bcd60e51b8152600401610b7990612dbd565b610685816123fd565b600754604080517fc8290efd00000000000000000000000000000000000000000000000000000000815290516000926001600160a01b03169163c8290efd916004808301926020929190829003018186803b158015611d6c57600080fd5b505afa158015611d80573d6000803e3d6000fd5b505050506040513d601f19601f82011682018060405250810190611da491906128a8565b6001600160a01b03166370a08231336040518263ffffffff1660e01b8152600401611dcf91906129d8565b60206040518083038186803b158015611de757600080fd5b505afa158015611dfb573d6000803e3d6000fd5b505050506040513d601f19601f82011682018060405250810190611e1f919061295f565b905060008111611e415760405162461bcd60e51b8152600401610b7990612b49565b80821115611e4d578091505b600254336000908152601160205260409020541415611f3757600a5460009081526014602090815260408083203384528252808320546010909252909120546001600160a01b0316611ec0611ea18361248b565b6001600160a01b0383166000908152600e602052604090205490612297565b6001600160a01b0382166000908152600e6020908152604080832093909355600f90522054611eef9083612297565b6001600160a01b0382166000908152600f6020526040902055611f128285612272565b600a54600090815260146020908152604080832033845290915290205550611f959050565b611f3f6104a5565b60025433600081815260116020908152604080832094909455600a54825260148152838220928252919091522054611f779083612272565b600a5460009081526014602090815260408083203384529091529020555b336000818152601060209081526040808320805473ffffffffffffffffffffffffffffffffffffffff19166001600160a01b038916179055600a54835260148252808320938352929052205461200c611fed8261248b565b6001600160a01b0386166000908152600e602052604090205490612272565b6001600160a01b0385166000908152600e6020908152604080832093909355600f9052205461203b9082612272565b6001600160a01b038086166000908152600f6020526040908190209290925560075491517f29aeabf60000000000000000000000000000000000000000000000000000000081529116906329aeabf69061209b90339087906004016129ec565b600060405180830381600087803b1580156120b557600080fd5b505af11580156120c9573d6000803e3d6000fd5b505050506120e184600c6124dc90919063ffffffff16565b6120f2576120f0600c856120f8565b505b50505050565b600061210d836001600160a01b0384166124f1565b90505b92915050565b8015806121b757506040517fdd62ed3e0000000000000000000000000000000000000000000000000000000081526001600160a01b0384169063dd62ed3e906121659030908690600401612a05565b60206040518083038186803b15801561217d57600080fd5b505afa158015612191573d6000803e3d6000fd5b505050506040513d601f19601f820116820180604052508101906121b5919061295f565b155b6121d35760405162461bcd60e51b8152600401610b7990612d60565b6122568363095ea7b360e01b84846040516024016121f29291906129ec565b60408051601f198184030181529190526020810180517bffffffffffffffffffffffffffffffffffffffffffffffffffffffff167fffffffff000000000000000000000000000000000000000000000000000000009093169290921790915261253b565b505050565b606061226a84846000856125ca565b949350505050565b60008282018381101561210d5760405162461bcd60e51b8152600401610b7990612c60565b600061210d83836040518060400160405280601e81526020017f536166654d6174683a207375627472616374696f6e206f766572666c6f77000081525061268e565b600061210d836001600160a01b0384166126ba565b6122568363a9059cbb60e01b84846040516024016121f29291906129ec565b600061210d83836040518060400160405280601a81526020017f536166654d6174683a206469766973696f6e206279207a65726f00000000000081525061279b565b60008261235e57506000612110565b8282028284828161236b57fe5b041461210d5760405162461bcd60e51b8152600401610b7990612cce565b6000612395600c6123f2565b11156115a45760006123a8600c826123e6565b6001600160a01b0381166000908152600e60209081526040808320839055600f90915281205590506123db600c826122d9565b5050612389565b3390565b600061210d83836127d2565b6000610b1282612817565b6001600160a01b0381166124235760405162461bcd60e51b8152600401610b7990612c03565b600080546040516001600160a01b03808516939216917f8be0079c531659141344cd1fd0a4f28419497f9722a3daafe3b4186f6b6457e091a36000805473ffffffffffffffffffffffffffffffffffffffff19166001600160a01b0392909216919091179055565b600060038211156124ce575080600160028204015b818110156124c8578091506002818285816124b757fe5b0401816124c057fe5b0490506124a0565b50610b15565b8115610b1557506001919050565b600061210d836001600160a01b03841661281b565b60006124fd838361281b565b61253357508154600181810184556000848152602080822090930184905584548482528286019093526040902091909155612110565b506000612110565b6060612590826040518060400160405280602081526020017f5361666542455032303a206c6f772d6c6576656c2063616c6c206661696c6564815250856001600160a01b031661225b9092919063ffffffff16565b80519091501561225657808060200190518101906125ae9190612927565b6122565760405162461bcd60e51b8152600401610b7990612ba6565b60606125d585612833565b6125f15760405162461bcd60e51b8152600401610b7990612e29565b60006060866001600160a01b0316858760405161260e91906129bc565b60006040518083038185875af1925050503d806000811461264b576040519150601f19603f3d011682016040523d82523d6000602084013e612650565b606091505b5091509150811561266457915061226a9050565b8051156126745780518082602001fd5b8360405162461bcd60e51b8152600401610b799190612ab9565b600081848411156126b25760405162461bcd60e51b8152600401610b799190612ab9565b505050900390565b600081815260018301602052604081205480156127915783547fffffffffffffffffffffffffffffffffffffffffffffffffffffffffffffffff808301919081019060009087908390811061270b57fe5b906000526020600020015490508087600001848154811061272857fe5b60009182526020808320909101929092558281526001890190915260409020849055865487908061275557fe5b60019003818190600052602060002001600090559055866001016000878152602001908152602001600020600090556001945050505050612110565b6000915050612110565b600081836127bc5760405162461bcd60e51b8152600401610b799190612ab9565b5060008385816127c857fe5b0495945050505050565b815460009082106127f55760405162461bcd60e51b8152600401610b7990612aec565b82600001828154811061280457fe5b9060005260206000200154905092915050565b5490565b60009081526001919091016020526040902054151590565b6000813f7fc5d2460186f7233c927e7db2dcc703c0e500b653ca82273b7bfad8045d85a47081811480159061226a575050151592915050565b604080516060810182526000808252602082018190529181019190915290565b60006020828403121561289d578081fd5b813561210d81612f2e565b6000602082840312156128b9578081fd5b815161210d81612f2e565b600080604083850312156128d6578081fd5b82356128e181612f2e565b915060208301356128f181612f2e565b809150509250929050565b6000806040838503121561290e578182fd5b823561291981612f2e565b946020939093013593505050565b600060208284031215612938578081fd5b8151801515811461210d578182fd5b600060208284031215612958578081fd5b5035919050565b600060208284031215612970578081fd5b5051919050565b60008060408385031215612989578182fd5b8235915060208301356128f181612f2e565b6000602082840312156129ac578081fd5b815160ff8116811461210d578182fd5b600082516129ce818460208701612f02565b9190910192915050565b6001600160a01b0391909116815260200190565b6001600160a01b03929092168252602082015260400190565b6001600160a01b0392831681529116602082015260400190565b6001600160a01b039390931683526020830191909152604082015260600190565b602080825282518282018190526000919060409081850190868401855b82811015612a9857815180516001600160a01b031685528681015160ff16878601528501518585015260609093019290850190600101612a5d565b5091979650505050505050565b901515815260200190565b90815260200190565b6000602082528251806020840152612ad8816040850160208701612f02565b601f01601f19169190910160400192915050565b60208082526022908201527f456e756d657261626c655365743a20696e646578206f7574206f6620626f756e60408201527f6473000000000000000000000000000000000000000000000000000000000000606082015260800190565b60208082526024908201527f50656163654d61737465723a205a656e2062616c616e63652063616e6e6f742060408201527f6265203000000000000000000000000000000000000000000000000000000000606082015260800190565b6020808252602a908201527f5361666542455032303a204245503230206f7065726174696f6e20646964206e60408201527f6f74207375636365656400000000000000000000000000000000000000000000606082015260800190565b60208082526026908201527f4f776e61626c653a206e6577206f776e657220697320746865207a65726f206160408201527f6464726573730000000000000000000000000000000000000000000000000000606082015260800190565b6020808252601b908201527f536166654d6174683a206164646974696f6e206f766572666c6f770000000000604082015260600190565b6020808252601b908201527f50656163654d61737465723a2063616e6e6f7420686172766573740000000000604082015260600190565b60208082526021908201527f536166654d6174683a206d756c7469706c69636174696f6e206f766572666c6f60408201527f7700000000000000000000000000000000000000000000000000000000000000606082015260800190565b6020808252818101527f50656163654d61737465723a20616c726561647920696e697469616c697a6564604082015260600190565b60208082526036908201527f5361666542455032303a20617070726f76652066726f6d206e6f6e2d7a65726f60408201527f20746f206e6f6e2d7a65726f20616c6c6f77616e636500000000000000000000606082015260800190565b6020808252818101527f4f776e61626c653a2063616c6c6572206973206e6f7420746865206f776e6572604082015260600190565b6020808252601a908201527f687973746f727920696e646578206f7574206f662072616e6765000000000000604082015260600190565b6020808252601d908201527f416464726573733a2063616c6c20746f206e6f6e2d636f6e7472616374000000604082015260600190565b9384526001600160a01b039290921660208401526040830152606082015260800190565b600060a082018783526020878185015260a0604085015281875180845260c0860191508289019350845b81811015612ed35784516001600160a01b031683529383019391830191600101612eae565b50506001600160a01b03969096166060850152505050608001529392505050565b918252602082015260400190565b60005b83811015612f1d578181015183820152602001612f05565b838111156120f25750506000910152565b6001600160a01b038116811461068557600080fdfea2646970667358221220b183b5d97900c87aed77a4927e9648421c4911995c9f33f4d28fdad3031b2e6064736f6c634300060c0033",
  "immutableReferences": {},
  "source": "// SPDX-License-Identifier: MIT\npragma solidity ^0.6.12;\npragma experimental ABIEncoderV2;\n\nimport \"./libraries/Address.sol\";\nimport \"./libraries/SafeMath.sol\";\nimport \"./libraries/SafeBEP20.sol\";\nimport \"./libraries/EnumerableSet.sol\";\nimport \"./interfaces/IPancakeRouter02.sol\";\nimport \"./interfaces/IBEP20.sol\";\nimport \"./Ownable.sol\";\nimport \"./Yin.sol\";\nimport \"./Yang.sol\";\nimport \"./Zen.sol\";\nimport \"./ZenGarden.sol\";\n\ncontract PeaceMaster is Ownable {\n    using EnumerableSet for EnumerableSet.AddressSet;\n    using SafeMath for uint256;\n    using SafeBEP20 for IBEP20;\n\n    struct VoterInfo {\n        uint256 epoch;\n        address token;\n        uint256 voices;\n    }\n\n    struct EpochInfo {\n        uint256 startTime;\n        ProposalInfo result;\n    }\n\n    struct ProposalInfo {\n        address token;\n        uint256 voices;\n        uint256 shares;\n    }\n\n    struct AccountInfo {\n        uint256 amount;\n        uint256 shares;\n    }\n\n    struct ShareInfo {\n        address token;\n        uint8 decimals;\n        uint256 amount;\n    }\n\n    uint256 public epochDuration;\n    uint256 public epochStart;\n    uint256 public origin;\n\n    /**\n     * @dev Tokens Used:\n     * {wbnb} - Wrapped BNB.\n     * {busd} - Binance USD.\n     */\n    address public wbnb;\n    address public busd;\n\n    /**\n     * @dev Third Party Contracts:\n     * {unirouter} - PancakeSwap unirouter\n     */\n    address public unirouter;\n\n    /**\n     * @dev Ecosystem contracts:\n     * {ZenGarden} - Responsible of token zen distribution\n     * {Yin} - Deflationnary reflective token\n     * {Yang} - Deflationnary reflective token\n     */\n    ZenGarden public zenGarden;\n    Yin public yin;\n    Yang public yang;\n\n    EpochInfo[] history;\n    address public currentTarget = address(0);\n    EnumerableSet.AddressSet proposedTokens;\n    mapping(address => uint256) public voices;\n    mapping(address => uint256) public shares;\n    mapping(address => address) public votersToken;\n    mapping(address => uint256) public votersEpoch;\n\n    mapping(address => AccountInfo) public tokenAccounts;\n    mapping(address => mapping(address => uint256)) public userAccounts;\n    mapping(uint256 => mapping(address => uint256)) public participations;\n    mapping(address => EnumerableSet.AddressSet) private userTokens;\n    mapping(address => uint256) private lastUpdate;\n\n    bool public initialized = false;\n    \n    event Withdraw(address indexed user, address token, uint256 amount);\n    event Harvest(address indexed user, uint256 amount);\n\n    constructor(uint256 start, uint256 _epochDuration, Yin _yin, Yang _yang, address _busd, address _unirouter) public {\n        epochDuration = _epochDuration;\n        epochStart = start;\n        origin = start;\n\n        proposedTokens.add(address(0));\n\n        yin = _yin;\n        yang = _yang;\n        busd = _busd;\n        wbnb = IPancakeRouter02(_unirouter).WETH();\n        unirouter = _unirouter;\n\n        yin.approve(unirouter, uint256(-1));\n        yang.approve(unirouter, uint256(-1));\n        IBEP20(yin.baseCoin()).safeApprove(unirouter, uint256(-1));\n        IBEP20(yang.baseCoin()).safeApprove(unirouter, uint256(-1));\n    }\n\n    /// @notice Exclude an account from reflections and burns. Used to protect distribution farms\n    function excludeAccount(address account) internal {\n        yin.excludeAccount(account);\n        yang.excludeAccount(account);\n    }\n\n    function initialize(address _zenGarden) public onlyOwner {\n        require(!initialized, \"PeaceMaster: already initialized\");\n        zenGarden = ZenGarden(_zenGarden);\n        yin.initialize(address(this), yang);\n        yang.initialize(address(this), yin);\n        initialized = true;\n    }\n\n    /// @notice Votes for a token. If a vote has already been cast, all voices go to the new choice.\n    /// The proposed token should have a BNB LP on Pancake swap, else the harvest will not work.\n    /// This is checked by the UI.\n    function voteForNextTarget(address proposition, uint256 amount) public {\n        uint256 userBalance = zenGarden.zen().balanceOf(msg.sender);\n        require(userBalance > 0, \"PeaceMaster: Zen balance cannot be 0\");\n        \n        if(amount > userBalance) {\n            amount = userBalance;\n        }\n\n        if(votersEpoch[msg.sender] == epochStart) {\n            // The user has already voted\n            uint256 oldAmount = participations[history.length][msg.sender];\n            address oldToken = votersToken[msg.sender];\n            // Remove voices from the old proposition\n            voices[oldToken] = voices[oldToken].sub(oldAmount.sqrt());\n            shares[oldToken] = shares[oldToken].sub(oldAmount);\n            // Update infos\n            participations[history.length][msg.sender] = oldAmount.add(amount);\n        } else {\n            // Check for pending shgares due to skipped epoch\n            updateUserAccount();\n            votersEpoch[msg.sender] = epochStart;\n            participations[history.length][msg.sender] = participations[history.length][msg.sender].add(amount);\n        }\n\n        // Add voices to the new proposition\n        votersToken[msg.sender] = proposition;\n        uint256 usedAmount = participations[history.length][msg.sender];\n        voices[proposition] = voices[proposition].add(usedAmount.sqrt());\n        shares[proposition] = shares[proposition].add(usedAmount);\n\n        zenGarden.safeZenBurn(msg.sender, amount);\n\n        // Update the list of voted tokens if needed\n        if(!proposedTokens.contains(proposition)) {\n            proposedTokens.add(proposition);\n        }\n    }\n\n    // Can be called once per epoch to sell collected tokens to buy the elected token\n    function harvest() public {\n        require(isHarvestable(), \"PeaceMaster: cannot harvest\");\n\n        uint256 epochsPast = block.timestamp.sub(epochStart).div(epochDuration);\n        epochStart = epochStart.add(epochDuration.mul(epochsPast));\n\n        currentTarget = getWinner();\n        uint256 spentShares = shares[currentTarget];\n        tokenAccounts[currentTarget].shares = tokenAccounts[currentTarget].shares.add(spentShares);\n        history.push(EpochInfo({\n            startTime: epochStart,\n            result: ProposalInfo({\n                token: currentTarget,\n                voices: voices[currentTarget],\n                shares: spentShares\n            })\n        }));\n\n        cleanProposedTokens();\n        proposedTokens.add(address(0));\n\n        if(currentTarget == address(0)) {\n            updateUserAccount();\n            emit Harvest(msg.sender, 0);\n            return;\n        }\n\n        // Market sell Yin Yang for the target\n        if(yin.balanceOf(address(this)) > 0) {\n            address[] memory yinToBNB = new address[](3);\n            yinToBNB[0] = address(yin);\n            yinToBNB[1] = busd;\n            yinToBNB[2] = wbnb;\n\n            IPancakeRouter02(unirouter).swapExactTokensForTokensSupportingFeeOnTransferTokens(\n                yin.balanceOf(address(this)), \n                0, \n                yinToBNB, \n                address(this), \n                now.add(360)\n            );\n        }\n\n        if(yang.balanceOf(address(this)) > 0) {\n            address[] memory yangToBNB = new address[](2);\n            yangToBNB[0] = address(yang);\n            yangToBNB[1] = wbnb;\n\n            IPancakeRouter02(unirouter).swapExactTokensForTokensSupportingFeeOnTransferTokens(\n                yang.balanceOf(address(this)), \n                0, \n                yangToBNB, \n                address(this), \n                now.add(360)\n            );\n        }\n\n        // 1% Dev fee\n        uint256 bnbBalance = IBEP20(yang.baseCoin()).balanceOf(address(this));\n        uint256 devFee = bnbBalance.div(100);\n        IBEP20(yang.baseCoin()).safeTransfer(owner(), devFee);\n\n        if(currentTarget != wbnb) {\n            address[] memory BNBToTarget = new address[](2);\n            BNBToTarget[0] = wbnb;\n            BNBToTarget[1] = currentTarget;\n\n            IPancakeRouter02(unirouter).swapExactTokensForTokensSupportingFeeOnTransferTokens(\n                bnbBalance.sub(devFee), \n                0, \n                BNBToTarget, \n                address(this), \n                now.add(360)\n            );\n        }\n\n        tokenAccounts[currentTarget].amount = IBEP20(currentTarget).balanceOf(address(this));\n        updateUserAccount();\n\n        emit Harvest(msg.sender, tokenAccounts[currentTarget].amount);\n    }\n\n    function getPropositionsLength() external view returns (uint index) {\n        index = proposedTokens.length();\n    }\n\n    function getProposition(uint256 index) external view returns (address, uint256, uint256) {\n        return (proposedTokens.at(index), voices[proposedTokens.at(index)], shares[proposedTokens.at(index)]);\n    }\n\n    function getHistoryLength() external view returns (uint length) {\n        return history.length;\n    }\n\n    function getHistory(uint256 index) external view returns(uint256, address, uint256, uint256) {\n        require(index < history.length, \"hystory index out of range\");\n        return (history[index].startTime, history[index].result.token, history[index].result.voices, history[index].result.shares);\n    }\n\n    function getWinner() public view returns (address) {\n        uint256 maxVoices = 0;\n        address winner = address(0);\n        for(uint256 i = 0; i < proposedTokens.length(); i++) {\n            if(voices[proposedTokens.at(i)] > maxVoices) {\n                maxVoices = voices[proposedTokens.at(i)];\n                winner = proposedTokens.at(i);\n            }\n        }\n        return winner;\n    }\n\n    function getUserVote(address user) public view returns (address token, uint256 userShares) {\n        if(updatesMissing(user) > 0) {\n            return (address(0), 0);\n        } else {\n            return (votersToken[user], participations[history.length][user]);\n        }\n    }\n\n    function isHarvestable() public view returns (bool) {\n        return block.timestamp > epochStart.add(epochDuration);\n    }\n\n    function claimAllVoterShares() public {\n        updateUserAccount();\n        ShareInfo[] memory s = pendingVoterShares(msg.sender);\n        for(uint i=0; i<s.length; i++) {\n            if(s[i].amount > IBEP20(s[i].token).balanceOf(address(this))) {\n                s[i].amount = IBEP20(s[i].token).balanceOf(address(this)); // For rounding errors\n            }\n            tokenAccounts[s[i].token].shares = tokenAccounts[s[i].token].shares.sub(userAccounts[msg.sender][s[i].token]);\n            tokenAccounts[s[i].token].amount = tokenAccounts[s[i].token].amount.sub(s[i].amount);\n            userAccounts[msg.sender][s[i].token] = 0;\n            userTokens[msg.sender].remove(s[i].token);\n            IBEP20(s[i].token).safeTransfer(\n                msg.sender, \n                s[i].amount\n            );\n            emit Withdraw(msg.sender, s[i].token, s[i].amount);\n        }\n    }\n\n    function pendingVoterShares(address user) public view returns (ShareInfo[] memory) {\n        ShareInfo[] memory s = new ShareInfo[](userTokens[user].length());\n        for(uint i = 0; i < userTokens[user].length(); i++) {\n            address token = userTokens[user].at(i);\n            s[i] = ShareInfo({\n                token: token,\n                decimals: IBEP20(token).decimals(),\n                amount: tokenAccounts[token].amount.mul(userAccounts[user][token]).div(tokenAccounts[token].shares)\n            });\n        }\n        return s;\n    }\n\n    function updatesMissing(address user) public view returns (uint) {\n        return history.length.sub(lastUpdate[user]);\n    }\n\n    function updateUserAccount() public {\n        for(uint i = lastUpdate[msg.sender]; i < history.length; i++) {\n            if(participations[i][msg.sender] > 0) {\n                if(history[i].result.token == address(0)) {\n                    // Epoch was skipped, transfer shares to next round\n                    participations[i+1][msg.sender] = participations[i][msg.sender];\n                } else {\n                    userTokens[msg.sender].add(history[i].result.token);\n                    userAccounts[msg.sender][history[i].result.token] = userAccounts[msg.sender][history[i].result.token].add(participations[i][msg.sender]);\n                }\n                participations[i][msg.sender] = 0;\n            }\n            lastUpdate[msg.sender] = i+1;\n        }\n    }\n\n    function cleanProposedTokens() internal {\n        while(proposedTokens.length() > 0) {\n            address token = proposedTokens.at(0);\n            voices[token] = 0;\n            shares[token] = 0;\n            proposedTokens.remove(token);\n        }\n    }\n}\n",
  "sourcePath": "C:/Users/jumic/Projets/truffle/yinyang/contracts/PeaceMaster.sol",
  "compiler": {
    "name": "solc",
    "version": "0.6.12+commit.27d51765.Emscripten.clang"
  },
  "schemaVersion": "3.3.4",
  "updatedAt": "2021-04-24T09:04:00.952Z",
  "networkType": "ethereum",
  "devdoc": {
    "kind": "dev",
    "methods": {
      "owner()": {
        "details": "Returns the address of the current owner."
      },
      "renounceOwnership()": {
        "details": "Leaves the contract without owner. It will not be possible to call `onlyOwner` functions anymore. Can only be called by the current owner. NOTE: Renouncing ownership will leave the contract without an owner, thereby removing any functionality that is only available to the owner."
      },
      "transferOwnership(address)": {
        "details": "Transfers ownership of the contract to a new account (`newOwner`). Can only be called by the current owner."
      }
    },
    "stateVariables": {
      "unirouter": {
        "details": "Third Party Contracts: {unirouter} - PancakeSwap unirouter"
      },
      "wbnb": {
        "details": "Tokens Used: {wbnb} - Wrapped BNB. {busd} - Binance USD."
      },
      "zenGarden": {
        "details": "Ecosystem contracts: {ZenGarden} - Responsible of token zen distribution {Yin} - Deflationnary reflective token {Yang} - Deflationnary reflective token"
      }
    },
    "version": 1
  },
  "userdoc": {
    "kind": "user",
    "methods": {
      "voteForNextTarget(address,uint256)": {
        "notice": "Votes for a token. If a vote has already been cast, all voices go to the new choice. The proposed token should have a BNB LP on Pancake swap, else the harvest will not work. This is checked by the UI."
      }
    },
    "version": 1
  }
}