{
  "contractName": "Yang",
  "abi": [
    {
      "inputs": [
        {
          "internalType": "address",
          "name": "_router",
          "type": "address"
        },
        {
          "internalType": "address",
          "name": "_busd",
          "type": "address"
        }
      ],
      "stateMutability": "nonpayable",
      "type": "constructor"
    },
    {
      "anonymous": false,
      "inputs": [
        {
          "indexed": true,
          "internalType": "address",
          "name": "owner",
          "type": "address"
        },
        {
          "indexed": true,
          "internalType": "address",
          "name": "spender",
          "type": "address"
        },
        {
          "indexed": false,
          "internalType": "uint256",
          "name": "value",
          "type": "uint256"
        }
      ],
      "name": "Approval",
      "type": "event"
    },
    {
      "anonymous": false,
      "inputs": [
        {
          "indexed": true,
          "internalType": "address",
          "name": "previousOwner",
          "type": "address"
        },
        {
          "indexed": true,
          "internalType": "address",
          "name": "newOwner",
          "type": "address"
        }
      ],
      "name": "OwnershipTransferred",
      "type": "event"
    },
    {
      "anonymous": false,
      "inputs": [
        {
          "indexed": false,
          "internalType": "uint256",
          "name": "tokensSwapped",
          "type": "uint256"
        },
        {
          "indexed": false,
          "internalType": "uint256",
          "name": "ethReceived",
          "type": "uint256"
        },
        {
          "indexed": false,
          "internalType": "uint256",
          "name": "tokensIntoLiqudity",
          "type": "uint256"
        }
      ],
      "name": "SwapAndLiquify",
      "type": "event"
    },
    {
      "anonymous": false,
      "inputs": [
        {
          "indexed": false,
          "internalType": "bool",
          "name": "enabled",
          "type": "bool"
        }
      ],
      "name": "SwapAndLiquifyEnabledUpdated",
      "type": "event"
    },
    {
      "anonymous": false,
      "inputs": [
        {
          "indexed": true,
          "internalType": "address",
          "name": "from",
          "type": "address"
        },
        {
          "indexed": true,
          "internalType": "address",
          "name": "to",
          "type": "address"
        },
        {
          "indexed": false,
          "internalType": "uint256",
          "name": "value",
          "type": "uint256"
        }
      ],
      "name": "Transfer",
      "type": "event"
    },
    {
      "inputs": [],
      "name": "baseCoin",
      "outputs": [
        {
          "internalType": "address",
          "name": "",
          "type": "address"
        }
      ],
      "stateMutability": "view",
      "type": "function",
      "constant": true
    },
    {
      "inputs": [],
      "name": "distributor",
      "outputs": [
        {
          "internalType": "address",
          "name": "",
          "type": "address"
        }
      ],
      "stateMutability": "view",
      "type": "function",
      "constant": true
    },
    {
      "inputs": [],
      "name": "owner",
      "outputs": [
        {
          "internalType": "address",
          "name": "",
          "type": "address"
        }
      ],
      "stateMutability": "view",
      "type": "function",
      "constant": true
    },
    {
      "inputs": [],
      "name": "pancakePair",
      "outputs": [
        {
          "internalType": "address",
          "name": "",
          "type": "address"
        }
      ],
      "stateMutability": "view",
      "type": "function",
      "constant": true
    },
    {
      "inputs": [],
      "name": "pancakeRouter",
      "outputs": [
        {
          "internalType": "address",
          "name": "",
          "type": "address"
        }
      ],
      "stateMutability": "view",
      "type": "function",
      "constant": true
    },
    {
      "inputs": [],
      "name": "peaceMaster",
      "outputs": [
        {
          "internalType": "address",
          "name": "",
          "type": "address"
        }
      ],
      "stateMutability": "view",
      "type": "function",
      "constant": true
    },
    {
      "inputs": [],
      "name": "renounceOwnership",
      "outputs": [],
      "stateMutability": "nonpayable",
      "type": "function"
    },
    {
      "inputs": [
        {
          "internalType": "address",
          "name": "newOwner",
          "type": "address"
        }
      ],
      "name": "transferOwnership",
      "outputs": [],
      "stateMutability": "nonpayable",
      "type": "function"
    },
    {
      "inputs": [],
      "name": "yin",
      "outputs": [
        {
          "internalType": "contract Yin",
          "name": "",
          "type": "address"
        }
      ],
      "stateMutability": "view",
      "type": "function",
      "constant": true
    },
    {
      "inputs": [
        {
          "internalType": "address",
          "name": "_peaceMaster",
          "type": "address"
        },
        {
          "internalType": "contract Yin",
          "name": "_yin",
          "type": "address"
        }
      ],
      "name": "initialize",
      "outputs": [],
      "stateMutability": "nonpayable",
      "type": "function"
    },
    {
      "inputs": [
        {
          "internalType": "address",
          "name": "_distributor",
          "type": "address"
        }
      ],
      "name": "setDistributor",
      "outputs": [],
      "stateMutability": "nonpayable",
      "type": "function"
    },
    {
      "inputs": [],
      "name": "name",
      "outputs": [
        {
          "internalType": "string",
          "name": "",
          "type": "string"
        }
      ],
      "stateMutability": "view",
      "type": "function",
      "constant": true
    },
    {
      "inputs": [],
      "name": "symbol",
      "outputs": [
        {
          "internalType": "string",
          "name": "",
          "type": "string"
        }
      ],
      "stateMutability": "view",
      "type": "function",
      "constant": true
    },
    {
      "inputs": [],
      "name": "decimals",
      "outputs": [
        {
          "internalType": "uint8",
          "name": "",
          "type": "uint8"
        }
      ],
      "stateMutability": "view",
      "type": "function",
      "constant": true
    },
    {
      "inputs": [],
      "name": "totalSupply",
      "outputs": [
        {
          "internalType": "uint256",
          "name": "",
          "type": "uint256"
        }
      ],
      "stateMutability": "view",
      "type": "function",
      "constant": true
    },
    {
      "inputs": [],
      "name": "getOwner",
      "outputs": [
        {
          "internalType": "address",
          "name": "",
          "type": "address"
        }
      ],
      "stateMutability": "view",
      "type": "function",
      "constant": true
    },
    {
      "inputs": [
        {
          "internalType": "address",
          "name": "account",
          "type": "address"
        }
      ],
      "name": "balanceOf",
      "outputs": [
        {
          "internalType": "uint256",
          "name": "",
          "type": "uint256"
        }
      ],
      "stateMutability": "view",
      "type": "function",
      "constant": true
    },
    {
      "inputs": [
        {
          "internalType": "address",
          "name": "recipient",
          "type": "address"
        },
        {
          "internalType": "uint256",
          "name": "amount",
          "type": "uint256"
        }
      ],
      "name": "transfer",
      "outputs": [
        {
          "internalType": "bool",
          "name": "",
          "type": "bool"
        }
      ],
      "stateMutability": "nonpayable",
      "type": "function"
    },
    {
      "inputs": [
        {
          "internalType": "address",
          "name": "owner",
          "type": "address"
        },
        {
          "internalType": "address",
          "name": "spender",
          "type": "address"
        }
      ],
      "name": "allowance",
      "outputs": [
        {
          "internalType": "uint256",
          "name": "",
          "type": "uint256"
        }
      ],
      "stateMutability": "view",
      "type": "function",
      "constant": true
    },
    {
      "inputs": [
        {
          "internalType": "address",
          "name": "spender",
          "type": "address"
        },
        {
          "internalType": "uint256",
          "name": "amount",
          "type": "uint256"
        }
      ],
      "name": "approve",
      "outputs": [
        {
          "internalType": "bool",
          "name": "",
          "type": "bool"
        }
      ],
      "stateMutability": "nonpayable",
      "type": "function"
    },
    {
      "inputs": [
        {
          "internalType": "address",
          "name": "sender",
          "type": "address"
        },
        {
          "internalType": "address",
          "name": "recipient",
          "type": "address"
        },
        {
          "internalType": "uint256",
          "name": "amount",
          "type": "uint256"
        }
      ],
      "name": "transferFrom",
      "outputs": [
        {
          "internalType": "bool",
          "name": "",
          "type": "bool"
        }
      ],
      "stateMutability": "nonpayable",
      "type": "function"
    },
    {
      "inputs": [
        {
          "internalType": "address",
          "name": "spender",
          "type": "address"
        },
        {
          "internalType": "uint256",
          "name": "addedValue",
          "type": "uint256"
        }
      ],
      "name": "increaseAllowance",
      "outputs": [
        {
          "internalType": "bool",
          "name": "",
          "type": "bool"
        }
      ],
      "stateMutability": "nonpayable",
      "type": "function"
    },
    {
      "inputs": [
        {
          "internalType": "address",
          "name": "spender",
          "type": "address"
        },
        {
          "internalType": "uint256",
          "name": "subtractedValue",
          "type": "uint256"
        }
      ],
      "name": "decreaseAllowance",
      "outputs": [
        {
          "internalType": "bool",
          "name": "",
          "type": "bool"
        }
      ],
      "stateMutability": "nonpayable",
      "type": "function"
    },
    {
      "inputs": [],
      "name": "getPair",
      "outputs": [
        {
          "internalType": "address",
          "name": "",
          "type": "address"
        }
      ],
      "stateMutability": "view",
      "type": "function",
      "constant": true
    },
    {
      "inputs": [],
      "name": "totalFees",
      "outputs": [
        {
          "internalType": "uint256",
          "name": "",
          "type": "uint256"
        }
      ],
      "stateMutability": "view",
      "type": "function",
      "constant": true
    },
    {
      "inputs": [
        {
          "internalType": "uint256",
          "name": "tokenAmount",
          "type": "uint256"
        },
        {
          "internalType": "bool",
          "name": "deductTransferFee",
          "type": "bool"
        }
      ],
      "name": "reflectionFromToken",
      "outputs": [
        {
          "internalType": "uint256",
          "name": "",
          "type": "uint256"
        }
      ],
      "stateMutability": "view",
      "type": "function",
      "constant": true
    },
    {
      "inputs": [
        {
          "internalType": "uint256",
          "name": "reflectedAmount",
          "type": "uint256"
        }
      ],
      "name": "tokenFromReflection",
      "outputs": [
        {
          "internalType": "uint256",
          "name": "",
          "type": "uint256"
        }
      ],
      "stateMutability": "view",
      "type": "function",
      "constant": true
    },
    {
      "inputs": [
        {
          "internalType": "address",
          "name": "account",
          "type": "address"
        }
      ],
      "name": "isExcluded",
      "outputs": [
        {
          "internalType": "bool",
          "name": "",
          "type": "bool"
        }
      ],
      "stateMutability": "view",
      "type": "function",
      "constant": true
    },
    {
      "inputs": [
        {
          "internalType": "address",
          "name": "account",
          "type": "address"
        }
      ],
      "name": "excludeAccount",
      "outputs": [],
      "stateMutability": "nonpayable",
      "type": "function"
    },
    {
      "inputs": [
        {
          "internalType": "address",
          "name": "account",
          "type": "address"
        }
      ],
      "name": "includeAccount",
      "outputs": [],
      "stateMutability": "nonpayable",
      "type": "function"
    }
  ],
  "bytecode": "0x60c060405260076080819052662cb0b733902b1960c91b60a09081526200002a91600c9190620003f7565b506040805180820190915260048082526359414e4760e01b60209092019182526200005891600d91620003f7565b50600e8054601260ff1990911617905569d3c21bcecceda1000000600f819055620000ae90612710906200009a9060016200029b602090811b6200187217901c565b6200030260201b620018d21790919060201c565b601055600f5460001981620000bf57fe5b06196011556013805461ffff19169055348015620000dc57600080fd5b506040516200345338038062003453833981810160405260408110156200010257600080fd5b5080516020909101516000620001176200034c565b600080546001600160a01b0319166001600160a01b0383169081178255604051929350917f8be0079c531659141344cd1fd0a4f28419497f9722a3daafe3b4186f6b6457e0908290a350600180546001600160a01b0319166001600160a01b0384169081179091556040805163c45a015560e01b8152905163c45a015591600480820192602092909190829003018186803b158015620001b657600080fd5b505afa158015620001cb573d6000803e3d6000fd5b505050506040513d6020811015620001e257600080fd5b5051604080516364e329cb60e11b81523060048201526001600160a01b0384811660248301529151919092169163c9c653969160448083019260209291908290030181600087803b1580156200023757600080fd5b505af11580156200024c573d6000803e3d6000fd5b505050506040513d60208110156200026357600080fd5b5051600280546001600160a01b039283166001600160a01b031991821617909155600380549390921692169190911790555062000493565b600082620002ac57506000620002fc565b82820282848281620002ba57fe5b0414620002f95760405162461bcd60e51b8152600401808060200182810382526021815260200180620034326021913960400191505060405180910390fd5b90505b92915050565b6000620002f983836040518060400160405280601a81526020017f536166654d6174683a206469766973696f6e206279207a65726f0000000000008152506200035060201b60201c565b3390565b60008183620003e05760405162461bcd60e51b81526004018080602001828103825283818151815260200191508051906020019080838360005b83811015620003a45781810151838201526020016200038a565b50505050905090810190601f168015620003d25780820380516001836020036101000a031916815260200191505b509250505060405180910390fd5b506000838581620003ed57fe5b0495945050505050565b828054600181600116156101000203166002900490600052602060002090601f016020900481019282601f106200043a57805160ff19168380011785556200046a565b828001600101855582156200046a579182015b828111156200046a5782518255916020019190600101906200044d565b50620004789291506200047c565b5090565b5b808211156200047857600081556001016200047d565b612f8f80620004a36000396000f3fe608060405234801561001057600080fd5b50600436106101da5760003560e01c80638da5cb5b11610104578063c1f1b1b5116100a2578063eba2dd2011610071578063eba2dd2014610514578063f2cc0c181461051c578063f2fde38b14610542578063f84354f114610568576101da565b8063c1f1b1b5146104b0578063c21ebd07146104b8578063cba0e996146104c0578063dd62ed3e146104e6576101da565b8063a9059cbb116100de578063a9059cbb1461046c578063b8c9d25c14610498578063bc6b4f32146104a0578063bfe10928146104a8576101da565b80638da5cb5b1461043057806395d89b4114610438578063a457c2d714610440576101da565b8063313ce5671161017c57806370a082311161014b57806370a08231146103d4578063715018a6146103fa57806375619ab514610402578063893d20e814610428576101da565b8063313ce5671461033557806339509351146103535780634549b0391461037f578063485cc955146103a4576101da565b806313114a9d116101b857806313114a9d146102c057806318160ddd146102da57806323b872dd146102e25780632d83811914610318576101da565b806306fdde03146101df57806308391d601461025c578063095ea7b314610280575b600080fd5b6101e761058e565b6040805160208082528351818301528351919283929083019185019080838360005b83811015610221578181015183820152602001610209565b50505050905090810190601f16801561024e5780820380516001836020036101000a031916815260200191505b509250505060405180910390f35b610264610624565b604080516001600160a01b039092168252519081900360200190f35b6102ac6004803603604081101561029657600080fd5b506001600160a01b038135169060200135610633565b604080519115158252519081900360200190f35b6102c8610651565b60408051918252519081900360200190f35b6102c8610657565b6102ac600480360360608110156102f857600080fd5b506001600160a01b03813581169160208101359091169060400135610681565b6102c86004803603602081101561032e57600080fd5b5035610724565b61033d610786565b6040805160ff9092168252519081900360200190f35b6102ac6004803603604081101561036957600080fd5b506001600160a01b03813516906020013561078f565b6102c86004803603604081101561039557600080fd5b508035906020013515156107dd565b6103d2600480360360408110156103ba57600080fd5b506001600160a01b038135811691602001351661086d565b005b6102c8600480360360208110156103ea57600080fd5b50356001600160a01b0316611019565b6103d261107b565b6103d26004803603602081101561041857600080fd5b50356001600160a01b0316611147565b6102646112b4565b6102646112ba565b6101e76112c9565b6102ac6004803603604081101561045657600080fd5b506001600160a01b03813516906020013561132a565b6102ac6004803603604081101561048257600080fd5b506001600160a01b038135169060200135611392565b6102646113a6565b6102646113b5565b6102646113c4565b6102646113d3565b6102646113e2565b6102ac600480360360208110156104d657600080fd5b50356001600160a01b03166113f1565b6102c8600480360360408110156104fc57600080fd5b506001600160a01b038135811691602001351661140f565b61026461143a565b6103d26004803603602081101561053257600080fd5b50356001600160a01b0316611449565b6103d26004803603602081101561055857600080fd5b50356001600160a01b03166115f9565b6103d26004803603602081101561057e57600080fd5b50356001600160a01b031661166f565b600c8054604080516020601f600260001961010060018816150201909516949094049384018190048102820181019092528281526060939092909183018282801561061a5780601f106105ef5761010080835404028352916020019161061a565b820191906000526020600020905b8154815290600101906020018083116105fd57829003601f168201915b5050505050905090565b6005546001600160a01b031681565b6000610647610640611914565b8484611918565b5060015b92915050565b60125490565b60065460009061067c90610673906001600160a01b0316611019565b600f5490611a04565b905090565b600061068e848484611a46565b61071a8461069a611914565b60408051808201825260208082527f59616e673a207472616e73666572206578636565647320616c6c6f77616e6365818301526001600160a01b038a166000908152600990915291822061071592889291906106f4611914565b6001600160a01b031681526020810191909152604001600020549190611c33565b611918565b5060019392505050565b60006011548211156107675760405162461bcd60e51b815260040180806020018281038252602a815260200180612e12602a913960400191505060405180910390fd5b6000610771611cca565b905061077d83826118d2565b9150505b919050565b600e5460ff1690565b600061064761079c611914565b8461071585600960006107ad611914565b6001600160a01b03908116825260208083019390935260409182016000908120918c168152925290205490611ced565b6000600f54831115610836576040805162461bcd60e51b815260206004820152601f60248201527f416d6f756e74206d757374206265206c657373207468616e20737570706c7900604482015290519081900360640190fd5b8161085457600061084684611d47565b5092945061064b9350505050565b600061085f84611d47565b5091945061064b9350505050565b601354610100900460ff16156108ca576040805162461bcd60e51b815260206004820152601960248201527f59616e673a20616c726561647920696e697469616c697a656400000000000000604482015290519081900360640190fd5b600580546001600160a01b038085167fffffffffffffffffffffffff0000000000000000000000000000000000000000928316179092556004805484841692169190911790819055600154610926929182169116600019611918565b60048054600154604080517f095ea7b30000000000000000000000000000000000000000000000000000000081526001600160a01b039283169481019490945260001960248501525191169163095ea7b39160448083019260209291908290030181600087803b15801561099957600080fd5b505af11580156109ad573d6000803e3d6000fd5b505050506040513d60208110156109c357600080fd5b5050600154604080517fad5c464800000000000000000000000000000000000000000000000000000000815290516001600160a01b039092169163ad5c464891600480820192602092909190829003018186803b158015610a2357600080fd5b505afa158015610a37573d6000803e3d6000fd5b505050506040513d6020811015610a4d57600080fd5b5051600154604080517f095ea7b30000000000000000000000000000000000000000000000000000000081526001600160a01b03928316600482015260001960248201529051919092169163095ea7b39160448083019260209291908290030181600087803b158015610abf57600080fd5b505af1158015610ad3573d6000803e3d6000fd5b505050506040513d6020811015610ae957600080fd5b5050600354600154604080517f095ea7b30000000000000000000000000000000000000000000000000000000081526001600160a01b03928316600482015260001960248201529051919092169163095ea7b39160448083019260209291908290030181600087803b158015610b5e57600080fd5b505af1158015610b72573d6000803e3d6000fd5b505050506040513d6020811015610b8857600080fd5b505060048054604080517feba2dd2000000000000000000000000000000000000000000000000000000000815290516001600160a01b039092169263eba2dd20928282019260209290829003018186803b158015610be557600080fd5b505afa158015610bf9573d6000803e3d6000fd5b505050506040513d6020811015610c0f57600080fd5b5051600154604080517f095ea7b30000000000000000000000000000000000000000000000000000000081526001600160a01b03928316600482015260001960248201529051919092169163095ea7b39160448083019260209291908290030181600087803b158015610c8157600080fd5b505af1158015610c95573d6000803e3d6000fd5b505050506040513d6020811015610cab57600080fd5b5050600580546001600160a01b039081166000908152600a602081815260408084208054600160ff1991821681179092559654600b805480840182557f0175b7a638427703f0dbe7bb9bbf987a2551717b34e79f33b5b1008d1fa01db99081018054938a167fffffffffffffffffffffffff00000000000000000000000000000000000000009485161790558354891688528488208054909a1684179099558254815480850183559188529801805498881698909116979097179096556004805482517fc1f1b1b500000000000000000000000000000000000000000000000000000000815292519496169363c1f1b1b59383830193909290829003018186803b158015610db857600080fd5b505afa158015610dcc573d6000803e3d6000fd5b505050506040513d6020811015610de257600080fd5b50516001600160a01b0390811682526020808301939093526040918201600020805460ff1916941515949094179093556004805482517fc1f1b1b50000000000000000000000000000000000000000000000000000000081529251600b95919091169363c1f1b1b5938084019391929190829003018186803b158015610e6757600080fd5b505afa158015610e7b573d6000803e3d6000fd5b505050506040513d6020811015610e9157600080fd5b505181546001808201845560009384526020842090910180547fffffffffffffffffffffffff0000000000000000000000000000000000000000166001600160a01b039093169290921790915590600a90610eea6113d3565b6001600160a01b031681526020810191909152604001600020805460ff1916911515919091179055600b610f1c6113d3565b8154600181810184556000938452602080852090920180546001600160a01b039485167fffffffffffffffffffffffff0000000000000000000000000000000000000000918216179091556004805485168652600a9093526040808620805460ff1990811685179091559354600b805480860182557f0175b7a638427703f0dbe7bb9bbf987a2551717b34e79f33b5b1008d1fa01db9908101805486169390981692909217909655308088529187208054909516841790945584549283018555939094520180549092161790555050601380547fffffffffffffffffffffffffffffffffffffffffffffffffffffffffffff00ff16610100179055565b6001600160a01b0381166000908152600a602052604081205460ff161561105957506001600160a01b038116600090815260086020526040902054610781565b6001600160a01b03821660009081526007602052604090205461064b90610724565b611083611914565b6000546001600160a01b039081169116146110e5576040805162461bcd60e51b815260206004820181905260248201527f4f776e61626c653a2063616c6c6572206973206e6f7420746865206f776e6572604482015290519081900360640190fd5b600080546040516001600160a01b03909116907f8be0079c531659141344cd1fd0a4f28419497f9722a3daafe3b4186f6b6457e0908390a3600080547fffffffffffffffffffffffff0000000000000000000000000000000000000000169055565b61114f611914565b6000546001600160a01b039081169116146111b1576040805162461bcd60e51b815260206004820181905260248201527f4f776e61626c653a2063616c6c6572206973206e6f7420746865206f776e6572604482015290519081900360640190fd5b6006546001600160a01b03161561120f576040805162461bcd60e51b815260206004820152601d60248201527f59616e673a204469737472696275746f7220616c726561647920736574000000604482015290519081900360640190fd5b600680547fffffffffffffffffffffffff0000000000000000000000000000000000000000166001600160a01b038316179055600f546000198161124f57fe5b600680546001600160a01b03908116600090815260076020908152604080832096909506199095559154600f548451908152935191169391927fddf252ad1be2c89b69c2b068fc378daa952ba7f163c4a11628f55a4df523b3ef92908290030190a350565b600061067c5b6000546001600160a01b031690565b600d8054604080516020601f600260001961010060018816150201909516949094049384018190048102820181019092528281526060939092909183018282801561061a5780601f106105ef5761010080835404028352916020019161061a565b6000610647611337611914565b8461071585604051806060016040528060248152602001612f366024913960096000611361611914565b6001600160a01b03908116825260208083019390935260409182016000908120918d16815292529020549190611c33565b600061064761139f611914565b8484611a46565b6002546001600160a01b031681565b6004546001600160a01b031681565b6006546001600160a01b031681565b6002546001600160a01b031690565b6001546001600160a01b031681565b6001600160a01b03166000908152600a602052604090205460ff1690565b6001600160a01b03918216600090815260096020908152604080832093909416825291909152205490565b6003546001600160a01b031681565b611451611914565b6000546001600160a01b039081169116146114b3576040805162461bcd60e51b815260206004820181905260248201527f4f776e61626c653a2063616c6c6572206973206e6f7420746865206f776e6572604482015290519081900360640190fd5b6001600160a01b0381166000908152600a602052604090205460ff1615611521576040805162461bcd60e51b815260206004820152601b60248201527f4163636f756e7420697320616c7265616479206578636c756465640000000000604482015290519081900360640190fd5b6001600160a01b0381166000908152600760205260409020541561157b576001600160a01b03811660009081526007602052604090205461156190610724565b6001600160a01b0382166000908152600860205260409020555b6001600160a01b03166000818152600a60205260408120805460ff19166001908117909155600b805491820181559091527f0175b7a638427703f0dbe7bb9bbf987a2551717b34e79f33b5b1008d1fa01db90180547fffffffffffffffffffffffff0000000000000000000000000000000000000000169091179055565b611601611914565b6000546001600160a01b03908116911614611663576040805162461bcd60e51b815260206004820181905260248201527f4f776e61626c653a2063616c6c6572206973206e6f7420746865206f776e6572604482015290519081900360640190fd5b61166c81611eac565b50565b611677611914565b6000546001600160a01b039081169116146116d9576040805162461bcd60e51b815260206004820181905260248201527f4f776e61626c653a2063616c6c6572206973206e6f7420746865206f776e6572604482015290519081900360640190fd5b6001600160a01b0381166000908152600a602052604090205460ff16611746576040805162461bcd60e51b815260206004820152601b60248201527f4163636f756e7420697320616c7265616479206578636c756465640000000000604482015290519081900360640190fd5b60005b600b5481101561186e57816001600160a01b0316600b828154811061176a57fe5b6000918252602090912001546001600160a01b0316141561186657600b8054600019810190811061179757fe5b600091825260209091200154600b80546001600160a01b0390921691839081106117bd57fe5b600091825260208083209190910180547fffffffffffffffffffffffff0000000000000000000000000000000000000000166001600160a01b039485161790559184168152600882526040808220829055600a90925220805460ff19169055600b80548061182757fe5b600082815260209020810160001990810180547fffffffffffffffffffffffff000000000000000000000000000000000000000016905501905561186e565b600101611749565b5050565b6000826118815750600061064b565b8282028284828161188e57fe5b04146118cb5760405162461bcd60e51b8152600401808060200182810382526021815260200180612ecb6021913960400191505060405180910390fd5b9392505050565b60006118cb83836040518060400160405280601a81526020017f536166654d6174683a206469766973696f6e206279207a65726f000000000000815250611f64565b3390565b6001600160a01b03831661195d5760405162461bcd60e51b8152600401808060200182810382526023815260200180612e866023913960400191505060405180910390fd5b6001600160a01b0382166119a25760405162461bcd60e51b8152600401808060200182810382526021815260200180612f156021913960400191505060405180910390fd5b6001600160a01b03808416600081815260096020908152604080832094871680845294825291829020859055815185815291517f8c5be1e5ebec7d5bd14f71427d1e84f3dd0314c0f7b2291e5b200ac8c7c3b9259281900390910190a3505050565b60006118cb83836040518060400160405280601e81526020017f536166654d6174683a207375627472616374696f6e206f766572666c6f770000815250611c33565b6001600160a01b038316611a8b5760405162461bcd60e51b8152600401808060200182810382526024815260200180612e626024913960400191505060405180910390fd5b6001600160a01b038216611ad05760405162461bcd60e51b8152600401808060200182810382526022815260200180612ea96022913960400191505060405180910390fd5b60008111611b0f5760405162461bcd60e51b8152600401808060200182810382526029815260200180612eec6029913960400191505060405180910390fd5b6001600160a01b0383166000908152600a602052604090205460ff168015611b5057506001600160a01b0382166000908152600a602052604090205460ff16155b15611b6e57611b5e83611fc9565b611b698383836126e8565b611c2e565b6001600160a01b0383166000908152600a602052604090205460ff16158015611baf57506001600160a01b0382166000908152600a602052604090205460ff165b15611bc857611bbd83611fc9565b611b69838383612809565b6001600160a01b0383166000908152600a602052604090205460ff16158015611c0a57506001600160a01b0382166000908152600a602052604090205460ff16155b15611c2357611c1883611fc9565b611b698383836128b7565b611c2e8383836129d6565b505050565b60008184841115611cc25760405162461bcd60e51b81526004018080602001828103825283818151815260200191508051906020019080838360005b83811015611c87578181015183820152602001611c6f565b50505050905090810190601f168015611cb45780820380516001836020036101000a031916815260200191505b509250505060405180910390fd5b505050900390565b6000806000611cd7612a84565b9092509050611ce682826118d2565b9250505090565b6000828201838110156118cb576040805162461bcd60e51b815260206004820152601b60248201527f536166654d6174683a206164646974696f6e206f766572666c6f770000000000604482015290519081900360640190fd5b60008080808080611d598760326118d2565b90506000611d688860646118d2565b90506000600460009054906101000a90046001600160a01b03166001600160a01b03166318160ddd6040518163ffffffff1660e01b815260040160206040518083038186803b158015611dba57600080fd5b505afa158015611dce573d6000803e3d6000fd5b505050506040513d6020811015611de457600080fd5b5051604080517f18160ddd000000000000000000000000000000000000000000000000000000008152905130916318160ddd916004808301926020929190829003018186803b158015611e3657600080fd5b505afa158015611e4a573d6000803e3d6000fd5b505050506040513d6020811015611e6057600080fd5b505110611e7857611e718284611ced565b9150611e7b565b50815b611e9b611e946064611e8e8c6007611872565b906118d2565b8a90611a04565b999298508897509095509350915050565b6001600160a01b038116611ef15760405162461bcd60e51b8152600401808060200182810382526026815260200180612e3c6026913960400191505060405180910390fd5b600080546040516001600160a01b03808516939216917f8be0079c531659141344cd1fd0a4f28419497f9722a3daafe3b4186f6b6457e091a3600080547fffffffffffffffffffffffff0000000000000000000000000000000000000000166001600160a01b0392909216919091179055565b60008183611fb35760405162461bcd60e51b8152602060048201818152835160248401528351909283926044909101919085019080838360008315611c87578181015183820152602001611c6f565b506000838581611fbf57fe5b0495945050505050565b60048054604080517f70a082310000000000000000000000000000000000000000000000000000000081523093810193909352516000926001600160a01b03909216916370a08231916024808301926020929190829003018186803b15801561203157600080fd5b505afa158015612045573d6000803e3d6000fd5b505050506040513d602081101561205b57600080fd5b505160135490915060ff1615801561207557506010548110155b801561208f57506002546001600160a01b03838116911614155b80156121225750600254604080517f18160ddd00000000000000000000000000000000000000000000000000000000815290516000926001600160a01b0316916318160ddd916004808301926020929190829003018186803b1580156120f457600080fd5b505afa158015612108573d6000803e3d6000fd5b505050506040513d602081101561211e57600080fd5b5051115b1561186e576013805460ff1916600117905560006121486103e8611e8e84610217611872565b905060006121568383611a04565b90506000600460009054906101000a90046001600160a01b03166001600160a01b031663eba2dd206040518163ffffffff1660e01b815260040160206040518083038186803b1580156121a857600080fd5b505afa1580156121bc573d6000803e3d6000fd5b505050506040513d60208110156121d257600080fd5b5051604080517f70a0823100000000000000000000000000000000000000000000000000000000815230600482015290516001600160a01b03909216916370a0823191602480820192602092909190829003018186803b15801561223557600080fd5b505afa158015612249573d6000803e3d6000fd5b505050506040513d602081101561225f57600080fd5b5051604080516002808252606080830184529394509091602083019080368337505060045482519293506001600160a01b03169183915060009061229f57fe5b60200260200101906001600160a01b031690816001600160a01b031681525050600460009054906101000a90046001600160a01b03166001600160a01b031663eba2dd206040518163ffffffff1660e01b815260040160206040518083038186803b15801561230d57600080fd5b505afa158015612321573d6000803e3d6000fd5b505050506040513d602081101561233757600080fd5b505181518290600190811061234857fe5b6001600160a01b03928316602091820292909201015260015416635c11d795856000843061237842610168611ced565b6040518663ffffffff1660e01b81526004018086815260200185815260200180602001846001600160a01b03168152602001838152602001828103825285818151815260200191508051906020019060200280838360005b838110156123e85781810151838201526020016123d0565b505050509050019650505050505050600060405180830381600087803b15801561241157600080fd5b505af1158015612425573d6000803e3d6000fd5b50505050600061253c83600460009054906101000a90046001600160a01b03166001600160a01b031663eba2dd206040518163ffffffff1660e01b815260040160206040518083038186803b15801561247d57600080fd5b505afa158015612491573d6000803e3d6000fd5b505050506040513d60208110156124a757600080fd5b5051604080517f70a0823100000000000000000000000000000000000000000000000000000000815230600482015290516001600160a01b03909216916370a0823191602480820192602092909190829003018186803b15801561250a57600080fd5b505afa15801561251e573d6000803e3d6000fd5b505050506040513d602081101561253457600080fd5b505190611a04565b60015460048054604080517feba2dd2000000000000000000000000000000000000000000000000000000000815290519495506001600160a01b039384169463e8e337009490921692839263eba2dd20928083019260209291829003018186803b1580156125a957600080fd5b505afa1580156125bd573d6000803e3d6000fd5b505050506040513d60208110156125d357600080fd5b50518785600080306125e742610168611ced565b6040518963ffffffff1660e01b815260040180896001600160a01b03168152602001886001600160a01b03168152602001878152602001868152602001858152602001848152602001836001600160a01b0316815260200182815260200198505050505050505050606060405180830381600087803b15801561266957600080fd5b505af115801561267d573d6000803e3d6000fd5b505050506040513d606081101561269357600080fd5b5050604080518681526020810183905280820186905290517f17bbfb9a6069321b6ded73bd96327c9e6b7212a5cd51ff219cd61370acafb5619181900360600190a150506013805460ff191690555050505050565b60008060008060006126f986611d47565b945094509450945094506000806127138887878787612be7565b6001600160a01b038d16600090815260086020526040902054919450925061273c915089611a04565b6001600160a01b03808c16600090815260086020908152604080832094909455918c168152600790915220546127729083611ced565b6001600160a01b038a166000908152600760205260409020556127958187612c63565b61279f8a86612c87565b6127a98a85612d0f565b6127b283612d85565b886001600160a01b03168a6001600160a01b03167fddf252ad1be2c89b69c2b068fc378daa952ba7f163c4a11628f55a4df523b3ef896040518082815260200191505060405180910390a350505050505050505050565b600080600080600061281a86611d47565b945094509450945094506000806128348887878787612be7565b6001600160a01b038d16600090815260076020526040902054929450925061285e91905083611a04565b6001600160a01b03808c16600090815260076020908152604080832094909455918c168152600890915220546128949088611ced565b6001600160a01b038a166000908152600860205260409020556127958187612c63565b60008060008060006128c886611d47565b9450945094509450945060008060006128e48988888888612be7565b6001600160a01b038e16600090815260076020526040902054929550909350915061290f9084611a04565b6001600160a01b03808d1660009081526007602052604080822093909355908c168152205461293e9083611ced565b6001600160a01b038b166000908152600760205260409020556129618188612c63565b61296b8b87612c87565b6129758b86612d0f565b61297e84612d85565b896001600160a01b03168b6001600160a01b03167fddf252ad1be2c89b69c2b068fc378daa952ba7f163c4a11628f55a4df523b3ef8a6040518082815260200191505060405180910390a35050505050505050505050565b6001600160a01b0383166000908152600860205260409020546129f99082611a04565b6001600160a01b038085166000908152600860205260408082209390935590841681522054612a289082611ced565b6001600160a01b0380841660008181526008602090815260409182902094909455805185815290519193928716927fddf252ad1be2c89b69c2b068fc378daa952ba7f163c4a11628f55a4df523b3ef92918290030190a3505050565b601154600f546000918291825b600b54811015612bb5578260076000600b8481548110612aad57fe5b60009182526020808320909101546001600160a01b031683528201929092526040019020541180612b1257508160086000600b8481548110612aeb57fe5b60009182526020808320909101546001600160a01b03168352820192909252604001902054115b15612b2957601154600f5494509450505050612be3565b612b6960076000600b8481548110612b3d57fe5b60009182526020808320909101546001600160a01b031683528201929092526040019020548490611a04565b9250612bab60086000600b8481548110612b7f57fe5b60009182526020808320909101546001600160a01b031683528201929092526040019020548390611a04565b9150600101612a91565b50600f54601154612bc5916118d2565b821015612bdd57601154600f54935093505050612be3565b90925090505b9091565b600080600080612bf5611cca565b90506000612c038a83611872565b90506000612c118a84611872565b90506000612c1f8a85611872565b905082612c4e612c2f8a87611872565b612c48612c3c8d89611872565b612c4886818a8a611a04565b90611a04565b909d909c50919a509098505050505050505050565b601154612c709083611a04565b601155601254612c809082611ced565b6012555050565b6005546001600160a01b0316600090815260086020526040902054612cac9082611ced565b600580546001600160a01b039081166000908152600860209081526040918290209490945591548251858152925190821693918616927fddf252ad1be2c89b69c2b068fc378daa952ba7f163c4a11628f55a4df523b3ef92908290030190a35050565b600f54612d1c9082611a04565b600f55612d3d612d34612d2d611cca565b8390611872565b60115490611a04565b6011556040805182815290516000916001600160a01b038516917fddf252ad1be2c89b69c2b068fc378daa952ba7f163c4a11628f55a4df523b3ef9181900360200190a35050565b801561166c576004546001600160a01b0316600090815260086020526040902054612db09082611ced565b600480546001600160a01b039081166000908152600860209081526040918290209490945591548251858152925191169230927fddf252ad1be2c89b69c2b068fc378daa952ba7f163c4a11628f55a4df523b3ef929081900390910190a35056fe416d6f756e74206d757374206265206c657373207468616e20746f74616c207265666c656374696f6e734f776e61626c653a206e6577206f776e657220697320746865207a65726f206164647265737359616e673a207472616e736665722066726f6d20746865207a65726f206164647265737359616e673a20617070726f76652066726f6d20746865207a65726f206164647265737359616e673a207472616e7366657220746f20746865207a65726f2061646472657373536166654d6174683a206d756c7469706c69636174696f6e206f766572666c6f775472616e7366657220616d6f756e74206d7573742062652067726561746572207468616e207a65726f59616e673a20617070726f766520746f20746865207a65726f206164647265737359616e673a2064656372656173656420616c6c6f77616e63652062656c6f77207a65726fa2646970667358221220247c2e13a6d150494bf11bf8d38a6770a218a3e4ee414c7ea1dcd24abd51330064736f6c634300060c0033536166654d6174683a206d756c7469706c69636174696f6e206f766572666c6f77",
  "immutableReferences": {},
  "source": "// SPDX-License-Identifier: MIT\r\npragma solidity ^0.6.12;\r\n\r\nimport \"./libraries/Address.sol\";\r\nimport \"./libraries/SafeMath.sol\";\r\nimport \"./libraries/SafeBEP20.sol\";\r\nimport \"./interfaces/IBEP20.sol\";\r\nimport \"./interfaces/IPancakeRouter02.sol\";\r\nimport \"./interfaces/IPancakePair.sol\";\r\nimport \"./interfaces/IPancakeFactory.sol\";\r\nimport \"./Ownable.sol\";\r\n\r\nimport \"./Yin.sol\";\r\n\r\ncontract Yang is Context, Ownable, IBEP20 {\r\n    using SafeMath for uint256;\r\n    using Address for address;\r\n\r\n    address public pancakeRouter;\r\n    address public pancakePair;\r\n    address public baseCoin;\r\n\r\n    Yin public yin;\r\n    address public peaceMaster;\r\n    address public distributor;\r\n\r\n    mapping (address => uint256) private _rOwned;\r\n    mapping (address => uint256) private _tOwned;\r\n    mapping (address => mapping (address => uint256)) private _allowances;\r\n\r\n    mapping (address => bool) private _isExcluded;\r\n    address[] private _excluded;\r\n\r\n    string private _name = 'Yang V2';\r\n    string private _symbol = 'YANG';\r\n    uint8 private _decimals = 18;\r\n\r\n    uint256 private constant MAX = ~uint256(0);\r\n    uint256 private _tTotal = 10**6 * 10**18;\r\n    uint256 private _minTokenToSell = _tTotal.mul(1).div(10000);\r\n    uint256 private _rTotal = (MAX - (MAX % _tTotal));\r\n    uint256 private _tFeeTotal;\r\n\r\n    bool private inSwapAndLiquify = false;\r\n    bool private initialized = false;\r\n\r\n    event SwapAndLiquifyEnabledUpdated(bool enabled);\r\n    event SwapAndLiquify(\r\n        uint256 tokensSwapped,\r\n        uint256 ethReceived,\r\n        uint256 tokensIntoLiqudity\r\n    );\r\n\r\n    constructor (\r\n        address _router,\r\n        address _busd\r\n    ) public {\r\n        pancakeRouter = _router;\r\n        pancakePair = IPancakeFactory(IPancakeRouter02(_router).factory()).createPair(address(this), _busd);\r\n        baseCoin = _busd;\r\n    }\r\n\r\n    function initialize(address _peaceMaster, Yin _yin) public {\r\n        require(!initialized, \"Yang: already initialized\");\r\n        peaceMaster =_peaceMaster;\r\n        yin = _yin;\r\n        _approve(address(yin), pancakeRouter, uint256(-1));\r\n        yin.approve(pancakeRouter, uint256(-1));\r\n        IBEP20(IPancakeRouter02(pancakeRouter).WETH()).approve(pancakeRouter, uint256(-1));\r\n        IBEP20(baseCoin).approve(pancakeRouter, uint256(-1));\r\n        IBEP20(yin.baseCoin()).approve(pancakeRouter, uint256(-1));\r\n\r\n        _isExcluded[peaceMaster] = true;\r\n        _excluded.push(peaceMaster);\r\n        _isExcluded[pancakeRouter] = true;\r\n        _excluded.push(pancakeRouter);\r\n        _isExcluded[yin.getPair()] = true;\r\n        _excluded.push(yin.getPair());\r\n        _isExcluded[getPair()] = true;\r\n        _excluded.push(getPair());\r\n        _isExcluded[address(yin)] = true;\r\n        _excluded.push(address(yin));\r\n        _isExcluded[address(this)] = true;\r\n        _excluded.push(address(this));\r\n\r\n        initialized = true;\r\n    }\r\n\r\n    function setDistributor(address _distributor) public onlyOwner {\r\n        require(distributor == address(0), \"Yang: Distributor already set\");\r\n        distributor = _distributor;\r\n        _rOwned[distributor] = (MAX - (MAX % _tTotal));\r\n\r\n        emit Transfer(address(0), distributor, _tTotal);\r\n    }\r\n\r\n    /// @notice The name of the token\r\n    function name() public view override returns (string memory) {\r\n        return _name;\r\n    }\r\n\r\n    /// @notice The symbol of the token\r\n    function symbol() public view override returns (string memory) {\r\n        return _symbol;\r\n    }\r\n\r\n    /// @notice The number of decimals of the token\r\n    function decimals() public view override returns (uint8) {\r\n        return _decimals;\r\n    }\r\n\r\n    /// @notice The current total supply of the token\r\n    function totalSupply() public view override returns (uint256) {\r\n        return _tTotal.sub(balanceOf(distributor));\r\n    }\r\n\r\n    /// @notice The owner\r\n    function getOwner() public view override returns (address) {\r\n        return owner();\r\n    }\r\n\r\n    /**\r\n     * @notice The balance of an account\r\n     * @param account The address of the account\r\n     */\r\n    function balanceOf(address account) public view override returns (uint256) {\r\n        if (_isExcluded[account]) return _tOwned[account];\r\n        return tokenFromReflection(_rOwned[account]);\r\n    }\r\n\r\n    /**\r\n     * @notice Transfers tokens from the sender's account to a recipient\r\n     * @param recipient The account receiving the transfer\r\n     * @param amount The amount of tokens to be transfered\r\n     */\r\n    function transfer(address recipient, uint256 amount) public override returns (bool) {\r\n        _transfer(_msgSender(), recipient, amount);\r\n        return true;\r\n    }\r\n\r\n    /**\r\n     * @notice Allows an account to spend for another\r\n     * @param owner The owner of the spending account\r\n     * @param spender The account actually spending the tokens\r\n     */\r\n    function allowance(address owner, address spender) public view override returns (uint256) {\r\n        return _allowances[owner][spender];\r\n    }\r\n\r\n    function approve(address spender, uint256 amount) public override returns (bool) {\r\n        _approve(_msgSender(), spender, amount);\r\n        return true;\r\n    }\r\n\r\n    function transferFrom(address sender, address recipient, uint256 amount) public override returns (bool) {\r\n        _transfer(sender, recipient, amount);\r\n        _approve(sender, _msgSender(), _allowances[sender][_msgSender()].sub(amount, \"Yang: transfer exceeds allowance\"));\r\n        return true;\r\n    }\r\n\r\n    function increaseAllowance(address spender, uint256 addedValue) public virtual returns (bool) {\r\n        _approve(_msgSender(), spender, _allowances[_msgSender()][spender].add(addedValue));\r\n        return true;\r\n    }\r\n\r\n    function decreaseAllowance(address spender, uint256 subtractedValue) public virtual returns (bool) {\r\n        _approve(_msgSender(), spender, _allowances[_msgSender()][spender].sub(subtractedValue, \"Yang: decreased allowance below zero\"));\r\n        return true;\r\n    }\r\n\r\n    /// @notice Returns the farmed pair\r\n    function getPair() public view returns (address) {\r\n        return pancakePair;\r\n    }\r\n\r\n    function totalFees() public view returns (uint256) {\r\n        return _tFeeTotal;\r\n    }\r\n\r\n    function reflectionFromToken(uint256 tokenAmount, bool deductTransferFee) public view returns(uint256) {\r\n        require(tokenAmount <= _tTotal, \"Amount must be less than supply\");\r\n        if (!deductTransferFee) {\r\n            (uint256 reflectedAmount, , , , ) = _getValues(tokenAmount);\r\n            return reflectedAmount;\r\n        } else {\r\n            ( ,uint256 tokenTransferAmount, , , ) = _getValues(tokenAmount);\r\n            return tokenTransferAmount;\r\n        }\r\n    }\r\n\r\n    function tokenFromReflection(uint256 reflectedAmount) public view returns(uint256) {\r\n        require(reflectedAmount <= _rTotal, \"Amount must be less than total reflections\");\r\n        uint256 currentRate =  _getRate();\r\n        return reflectedAmount.div(currentRate);\r\n    }\r\n\r\n    function isExcluded(address account) public view returns (bool) {\r\n        return _isExcluded[account];\r\n    }\r\n\r\n    function excludeAccount(address account) external onlyOwner() {\r\n        require(!_isExcluded[account], \"Account is already excluded\");\r\n        if(_rOwned[account] > 0) {\r\n            _tOwned[account] = tokenFromReflection(_rOwned[account]);\r\n        }\r\n        _isExcluded[account] = true;\r\n        _excluded.push(account);\r\n    }\r\n\r\n    function includeAccount(address account) external onlyOwner() {\r\n        require(_isExcluded[account], \"Account is already excluded\");\r\n        for (uint256 i = 0; i < _excluded.length; i++) {\r\n            if (_excluded[i] == account) {\r\n                _excluded[i] = _excluded[_excluded.length - 1];\r\n                _tOwned[account] = 0;\r\n                _isExcluded[account] = false;\r\n                _excluded.pop();\r\n                break;\r\n            }\r\n        }\r\n    }\r\n\r\n    function _approve(address owner, address spender, uint256 amount) private {\r\n        require(owner != address(0), \"Yang: approve from the zero address\");\r\n        require(spender != address(0), \"Yang: approve to the zero address\");\r\n\r\n        _allowances[owner][spender] = amount;\r\n        emit Approval(owner, spender, amount);\r\n    }\r\n\r\n    function _transfer(address sender, address recipient, uint256 amount) private {\r\n        require(sender != address(0), \"Yang: transfer from the zero address\");\r\n        require(recipient != address(0), \"Yang: transfer to the zero address\");\r\n        require(amount > 0, \"Transfer amount must be greater than zero\");\r\n\r\n        if (_isExcluded[sender] && !_isExcluded[recipient]) {\r\n            _swapAndLiquify(sender);\r\n            _transferFromExcluded(sender, recipient, amount);\r\n        } else if (!_isExcluded[sender] && _isExcluded[recipient]) {\r\n            _swapAndLiquify(sender);\r\n            _transferToExcluded(sender, recipient, amount);\r\n        } else if (!_isExcluded[sender] && !_isExcluded[recipient]) {\r\n            _swapAndLiquify(sender);\r\n            _transferStandard(sender, recipient, amount);\r\n        } else {\r\n            _transferBothExcluded(sender, recipient, amount);\r\n        }\r\n    }\r\n\r\n    function _transferStandard(address sender, address recipient, uint256 tokenAmount) private {\r\n        (\r\n            uint256 tokenTransferAmount, \r\n            uint256 reflectionFee, \r\n            uint256 zenFee, \r\n            uint256 burnFee, \r\n            uint256 liquidityFee\r\n        ) = _getValues(tokenAmount);\r\n        (\r\n            uint256 reflectedAmount, \r\n            uint256 reflectedTransferAmount, \r\n            uint256 reflectedFee\r\n        ) = _getRValues(tokenAmount, reflectionFee, zenFee, burnFee, liquidityFee);\r\n\r\n        _rOwned[sender] = _rOwned[sender].sub(reflectedAmount);\r\n        _rOwned[recipient] = _rOwned[recipient].add(reflectedTransferAmount);\r\n\r\n        _absorbFee(reflectedFee, reflectionFee);\r\n        _zenFee(sender, zenFee);\r\n        _burn(sender, burnFee);\r\n        _takeLiquidity(liquidityFee);\r\n\r\n        emit Transfer(sender, recipient, tokenTransferAmount);\r\n    }\r\n\r\n    function _transferToExcluded(address sender, address recipient, uint256 tokenAmount) private {\r\n        (\r\n            uint256 tokenTransferAmount, \r\n            uint256 reflectionFee, \r\n            uint256 zenFee, \r\n            uint256 burnFee, \r\n            uint256 liquidityFee\r\n        ) = _getValues(tokenAmount);\r\n        (\r\n            uint256 reflectedAmount, \r\n            , \r\n            uint256 reflectedFee\r\n        ) = _getRValues(tokenAmount, reflectionFee, zenFee, burnFee, liquidityFee);\r\n        \r\n        _rOwned[sender] = _rOwned[sender].sub(reflectedAmount);\r\n        _tOwned[recipient] = _tOwned[recipient].add(tokenTransferAmount);\r\n        \r\n        _absorbFee(reflectedFee, reflectionFee);\r\n        _zenFee(sender, zenFee);\r\n        _burn(sender, burnFee);\r\n        _takeLiquidity(liquidityFee);\r\n\r\n        emit Transfer(sender, recipient, tokenTransferAmount);\r\n    }\r\n\r\n    function _transferFromExcluded(address sender, address recipient, uint256 tokenAmount) private {\r\n        (\r\n            uint256 tokenTransferAmount, \r\n            uint256 reflectionFee, \r\n            uint256 zenFee, \r\n            uint256 burnFee, \r\n            uint256 liquidityFee\r\n        ) = _getValues(tokenAmount);\r\n        (\r\n            , \r\n            uint256 reflectedTransferAmount, \r\n            uint256 reflectedFee\r\n        ) = _getRValues(tokenAmount, reflectionFee, zenFee, burnFee, liquidityFee);\r\n\r\n        _tOwned[sender] = _tOwned[sender].sub(tokenAmount);\r\n        _rOwned[recipient] = _rOwned[recipient].add(reflectedTransferAmount);\r\n        \r\n        _absorbFee(reflectedFee, reflectionFee);\r\n        _zenFee(sender, zenFee);\r\n        _burn(sender, burnFee);\r\n        _takeLiquidity(liquidityFee);\r\n\r\n        emit Transfer(sender, recipient, tokenTransferAmount);\r\n    }\r\n\r\n    function _transferBothExcluded(address sender, address recipient, uint256 tokenAmount) private {\r\n        _tOwned[sender] = _tOwned[sender].sub(tokenAmount);\r\n        _tOwned[recipient] = _tOwned[recipient].add(tokenAmount);\r\n\r\n        emit Transfer(sender, recipient, tokenAmount);\r\n    }\r\n\r\n    function _absorbFee(uint256 rFee, uint256 tFee) private {\r\n        _rTotal = _rTotal.sub(rFee);\r\n        _tFeeTotal = _tFeeTotal.add(tFee);\r\n    }\r\n\r\n    function _zenFee(address sender, uint256 zenFee) private {\r\n        _tOwned[peaceMaster] = _tOwned[peaceMaster].add(zenFee);\r\n        emit Transfer(sender, peaceMaster, zenFee);\r\n    }\r\n\r\n    function _burn(address account, uint256 burningAmount) internal virtual {\r\n      _tTotal = _tTotal.sub(burningAmount);\r\n      _rTotal = _rTotal.sub(burningAmount.mul(_getRate()));\r\n      emit Transfer(account, address(0), burningAmount);\r\n    }\r\n\r\n    function _takeLiquidity(uint256 tLiquidity) private {\r\n        if(tLiquidity > 0) {\r\n            // Transfer to the other token\r\n            _tOwned[address(yin)] = _tOwned[address(yin)].add(tLiquidity);\r\n            emit Transfer(address(this), address(yin), tLiquidity);\r\n        }\r\n    }\r\n\r\n    function _getValues(uint256 transferAmount) private view returns (uint256, uint256, uint256, uint256, uint256) {\r\n        // 1% burnt, 2% reflected, 2% to zen, 2% variable liquidity/burn\r\n        uint256 twoPercent = transferAmount.div(50);\r\n        uint256 burnFee = transferAmount.div(100); // 1% is burnt\r\n        uint256 liquidityFee = 0;\r\n\r\n        // Burn if there are more Yang than Yin, else liquify\r\n        if(this.totalSupply() >= yin.totalSupply()) {\r\n            burnFee = burnFee.add(twoPercent);\r\n        } else {\r\n            liquidityFee = twoPercent;\r\n        }\r\n\r\n        return (\r\n            transferAmount.sub(transferAmount.mul(7).div(100)),\r\n            twoPercent, // reflection fee\r\n            twoPercent, // zen fee\r\n            burnFee,\r\n            liquidityFee\r\n        );\r\n    }\r\n\r\n    function _getRValues(uint256 tokenAmount, uint256 reflectionFee, uint256 zenFee, uint256 burnFee, uint256 liquidityFee) private view returns (uint256, uint256, uint256) {\r\n        uint256 currentRate =  _getRate();\r\n        uint256 reflectedAmount = tokenAmount.mul(currentRate);\r\n        uint256 reflectedFee = reflectionFee.mul(currentRate);\r\n        uint256 reflectedZenFee = zenFee.mul(currentRate);\r\n        return (\r\n            reflectedAmount,\r\n            reflectedAmount.sub(reflectedFee).sub(reflectedZenFee).sub(burnFee.mul(currentRate)).sub(liquidityFee.mul(currentRate)),\r\n            reflectedFee\r\n        );\r\n    }\r\n\r\n    function _getRate() private view returns(uint256) {\r\n        (uint256 rSupply, uint256 tSupply) = _getCurrentSupply();\r\n        return rSupply.div(tSupply);\r\n    }\r\n\r\n    function _swapAndLiquify(address from) private {\r\n        // Adding liquidity for the other token\r\n        uint256 contractTokenBalance = yin.balanceOf(address(this));\r\n\r\n        if (\r\n            !inSwapAndLiquify &&\r\n            contractTokenBalance >= _minTokenToSell &&\r\n            from != pancakePair &&\r\n            IPancakePair(pancakePair).totalSupply() > 0\r\n        ) {\r\n            inSwapAndLiquify = true;\r\n\r\n            // Sell half for some base coins\r\n            uint256 tokenAmountToBeSwapped = contractTokenBalance.mul(535).div(1000);\r\n            uint256 otherHalf = contractTokenBalance.sub(tokenAmountToBeSwapped);\r\n            uint256 oldBalance = IBEP20(yin.baseCoin()).balanceOf(address(this));\r\n            address[] memory toBaseCoin = new address[](2);\r\n            toBaseCoin[0] = address(yin);\r\n            toBaseCoin[1] = yin.baseCoin();\r\n            IPancakeRouter02(pancakeRouter).swapExactTokensForTokensSupportingFeeOnTransferTokens(\r\n                tokenAmountToBeSwapped, \r\n                0, \r\n                toBaseCoin, \r\n                address(this), \r\n                now.add(360)\r\n            );\r\n\r\n            uint256 newBalance = IBEP20(yin.baseCoin()).balanceOf(address(this)).sub(oldBalance);\r\n\r\n            // add liquidity to pancake\r\n            IPancakeRouter02(pancakeRouter).addLiquidity(\r\n                address(yin),\r\n                yin.baseCoin(),\r\n                otherHalf,\r\n                newBalance,\r\n                0,\r\n                0,\r\n                address(this),\r\n                now.add(360)\r\n            );\r\n\r\n            emit SwapAndLiquify(tokenAmountToBeSwapped, newBalance, otherHalf);\r\n            inSwapAndLiquify = false;\r\n        }\r\n    }\r\n\r\n    function _getCurrentSupply() private view returns(uint256, uint256) {\r\n        uint256 rSupply = _rTotal;\r\n        uint256 tSupply = _tTotal;\r\n        for (uint256 i = 0; i < _excluded.length; i++) {\r\n            if (_rOwned[_excluded[i]] > rSupply || _tOwned[_excluded[i]] > tSupply) return (_rTotal, _tTotal);\r\n            rSupply = rSupply.sub(_rOwned[_excluded[i]]);\r\n            tSupply = tSupply.sub(_tOwned[_excluded[i]]);\r\n        }\r\n        if (rSupply < _rTotal.div(_tTotal)) return (_rTotal, _tTotal);\r\n        return (rSupply, tSupply);\r\n    }\r\n}",
  "sourcePath": "C:\\Users\\jumic\\Projets\\truffle\\yinyang\\contracts\\Yang.sol",
  "compiler": {
    "name": "solc",
    "version": "0.6.12+commit.27d51765.Emscripten.clang"
  },
  "schemaVersion": "3.3.4",
  "updatedAt": "2021-04-24T09:04:01.015Z",
  "networkType": "ethereum",
  "devdoc": {
    "kind": "dev",
    "methods": {
      "allowance(address,address)": {
        "params": {
          "owner": "The owner of the spending account",
          "spender": "The account actually spending the tokens"
        }
      },
      "approve(address,uint256)": {
        "details": "Sets `amount` as the allowance of `spender` over the caller's tokens. Returns a boolean value indicating whether the operation succeeded. IMPORTANT: Beware that changing an allowance with this method brings the risk that someone may use both the old and the new allowance by unfortunate transaction ordering. One possible solution to mitigate this race condition is to first reduce the spender's allowance to 0 and set the desired value afterwards: https://github.com/ethereum/EIPs/issues/20#issuecomment-263524729 Emits an {Approval} event."
      },
      "balanceOf(address)": {
        "params": {
          "account": "The address of the account"
        }
      },
      "owner()": {
        "details": "Returns the address of the current owner."
      },
      "renounceOwnership()": {
        "details": "Leaves the contract without owner. It will not be possible to call `onlyOwner` functions anymore. Can only be called by the current owner. NOTE: Renouncing ownership will leave the contract without an owner, thereby removing any functionality that is only available to the owner."
      },
      "transfer(address,uint256)": {
        "params": {
          "amount": "The amount of tokens to be transfered",
          "recipient": "The account receiving the transfer"
        }
      },
      "transferFrom(address,address,uint256)": {
        "details": "Moves `amount` tokens from `sender` to `recipient` using the allowance mechanism. `amount` is then deducted from the caller's allowance. Returns a boolean value indicating whether the operation succeeded. Emits a {Transfer} event."
      },
      "transferOwnership(address)": {
        "details": "Transfers ownership of the contract to a new account (`newOwner`). Can only be called by the current owner."
      }
    },
    "version": 1
  },
  "userdoc": {
    "kind": "user",
    "methods": {
      "allowance(address,address)": {
        "notice": "Allows an account to spend for another"
      },
      "balanceOf(address)": {
        "notice": "The balance of an account"
      },
      "decimals()": {
        "notice": "The number of decimals of the token"
      },
      "getOwner()": {
        "notice": "The owner"
      },
      "getPair()": {
        "notice": "Returns the farmed pair"
      },
      "name()": {
        "notice": "The name of the token"
      },
      "symbol()": {
        "notice": "The symbol of the token"
      },
      "totalSupply()": {
        "notice": "The current total supply of the token"
      },
      "transfer(address,uint256)": {
        "notice": "Transfers tokens from the sender's account to a recipient"
      }
    },
    "version": 1
  }
}