{
  "contractName": "YangDistributor",
  "abi": [
    {
      "inputs": [
        {
          "internalType": "address",
          "name": "_yang",
          "type": "address"
        },
        {
          "internalType": "uint256",
          "name": "_startBlock",
          "type": "uint256"
        }
      ],
      "stateMutability": "nonpayable",
      "type": "constructor"
    },
    {
      "anonymous": false,
      "inputs": [
        {
          "indexed": true,
          "internalType": "address",
          "name": "user",
          "type": "address"
        },
        {
          "indexed": true,
          "internalType": "uint256",
          "name": "pid",
          "type": "uint256"
        },
        {
          "indexed": false,
          "internalType": "uint256",
          "name": "amount",
          "type": "uint256"
        }
      ],
      "name": "Deposit",
      "type": "event"
    },
    {
      "anonymous": false,
      "inputs": [
        {
          "indexed": true,
          "internalType": "address",
          "name": "user",
          "type": "address"
        },
        {
          "indexed": true,
          "internalType": "uint256",
          "name": "pid",
          "type": "uint256"
        },
        {
          "indexed": false,
          "internalType": "uint256",
          "name": "amount",
          "type": "uint256"
        }
      ],
      "name": "EmergencyWithdraw",
      "type": "event"
    },
    {
      "anonymous": false,
      "inputs": [
        {
          "indexed": true,
          "internalType": "address",
          "name": "user",
          "type": "address"
        },
        {
          "indexed": false,
          "internalType": "uint256",
          "name": "amount",
          "type": "uint256"
        }
      ],
      "name": "RewardPaid",
      "type": "event"
    },
    {
      "anonymous": false,
      "inputs": [
        {
          "indexed": true,
          "internalType": "address",
          "name": "user",
          "type": "address"
        },
        {
          "indexed": true,
          "internalType": "uint256",
          "name": "pid",
          "type": "uint256"
        },
        {
          "indexed": false,
          "internalType": "uint256",
          "name": "amount",
          "type": "uint256"
        }
      ],
      "name": "Withdraw",
      "type": "event"
    },
    {
      "inputs": [],
      "name": "BLOCKS_PER_WEEK",
      "outputs": [
        {
          "internalType": "uint256",
          "name": "",
          "type": "uint256"
        }
      ],
      "stateMutability": "view",
      "type": "function",
      "constant": true
    },
    {
      "inputs": [],
      "name": "creator",
      "outputs": [
        {
          "internalType": "address",
          "name": "",
          "type": "address"
        }
      ],
      "stateMutability": "view",
      "type": "function",
      "constant": true
    },
    {
      "inputs": [
        {
          "internalType": "uint256",
          "name": "",
          "type": "uint256"
        }
      ],
      "name": "epochEndBlocks",
      "outputs": [
        {
          "internalType": "uint256",
          "name": "",
          "type": "uint256"
        }
      ],
      "stateMutability": "view",
      "type": "function",
      "constant": true
    },
    {
      "inputs": [
        {
          "internalType": "uint256",
          "name": "",
          "type": "uint256"
        }
      ],
      "name": "epochTotalRewards",
      "outputs": [
        {
          "internalType": "uint256",
          "name": "",
          "type": "uint256"
        }
      ],
      "stateMutability": "view",
      "type": "function",
      "constant": true
    },
    {
      "inputs": [
        {
          "internalType": "uint256",
          "name": "",
          "type": "uint256"
        }
      ],
      "name": "epochYangPerBlock",
      "outputs": [
        {
          "internalType": "uint256",
          "name": "",
          "type": "uint256"
        }
      ],
      "stateMutability": "view",
      "type": "function",
      "constant": true
    },
    {
      "inputs": [],
      "name": "operator",
      "outputs": [
        {
          "internalType": "address",
          "name": "",
          "type": "address"
        }
      ],
      "stateMutability": "view",
      "type": "function",
      "constant": true
    },
    {
      "inputs": [
        {
          "internalType": "uint256",
          "name": "",
          "type": "uint256"
        }
      ],
      "name": "poolInfo",
      "outputs": [
        {
          "internalType": "contract IBEP20",
          "name": "lpToken",
          "type": "address"
        },
        {
          "internalType": "uint16",
          "name": "depositFee",
          "type": "uint16"
        },
        {
          "internalType": "uint256",
          "name": "allocPoint",
          "type": "uint256"
        },
        {
          "internalType": "uint256",
          "name": "lastRewardBlock",
          "type": "uint256"
        },
        {
          "internalType": "uint256",
          "name": "accYangPerShare",
          "type": "uint256"
        }
      ],
      "stateMutability": "view",
      "type": "function",
      "constant": true
    },
    {
      "inputs": [],
      "name": "startBlock",
      "outputs": [
        {
          "internalType": "uint256",
          "name": "",
          "type": "uint256"
        }
      ],
      "stateMutability": "view",
      "type": "function",
      "constant": true
    },
    {
      "inputs": [],
      "name": "totalAllocPoint",
      "outputs": [
        {
          "internalType": "uint256",
          "name": "",
          "type": "uint256"
        }
      ],
      "stateMutability": "view",
      "type": "function",
      "constant": true
    },
    {
      "inputs": [
        {
          "internalType": "uint256",
          "name": "",
          "type": "uint256"
        },
        {
          "internalType": "address",
          "name": "",
          "type": "address"
        }
      ],
      "name": "userInfo",
      "outputs": [
        {
          "internalType": "uint256",
          "name": "amount",
          "type": "uint256"
        },
        {
          "internalType": "uint256",
          "name": "rewardDebt",
          "type": "uint256"
        }
      ],
      "stateMutability": "view",
      "type": "function",
      "constant": true
    },
    {
      "inputs": [],
      "name": "yang",
      "outputs": [
        {
          "internalType": "contract IBEP20",
          "name": "",
          "type": "address"
        }
      ],
      "stateMutability": "view",
      "type": "function",
      "constant": true
    },
    {
      "inputs": [
        {
          "internalType": "uint256",
          "name": "_allocPoint",
          "type": "uint256"
        },
        {
          "internalType": "uint16",
          "name": "_depositFee",
          "type": "uint16"
        },
        {
          "internalType": "contract IBEP20",
          "name": "_lpToken",
          "type": "address"
        },
        {
          "internalType": "bool",
          "name": "_withUpdate",
          "type": "bool"
        },
        {
          "internalType": "uint256",
          "name": "_lastRewardBlock",
          "type": "uint256"
        }
      ],
      "name": "add",
      "outputs": [],
      "stateMutability": "nonpayable",
      "type": "function"
    },
    {
      "inputs": [
        {
          "internalType": "uint256",
          "name": "_pid",
          "type": "uint256"
        },
        {
          "internalType": "uint256",
          "name": "_allocPoint",
          "type": "uint256"
        },
        {
          "internalType": "uint16",
          "name": "_depositFee",
          "type": "uint16"
        }
      ],
      "name": "set",
      "outputs": [],
      "stateMutability": "nonpayable",
      "type": "function"
    },
    {
      "inputs": [
        {
          "internalType": "uint256",
          "name": "_from",
          "type": "uint256"
        },
        {
          "internalType": "uint256",
          "name": "_to",
          "type": "uint256"
        }
      ],
      "name": "getGeneratedReward",
      "outputs": [
        {
          "internalType": "uint256",
          "name": "",
          "type": "uint256"
        }
      ],
      "stateMutability": "view",
      "type": "function",
      "constant": true
    },
    {
      "inputs": [
        {
          "internalType": "uint256",
          "name": "_pid",
          "type": "uint256"
        },
        {
          "internalType": "address",
          "name": "_user",
          "type": "address"
        }
      ],
      "name": "pendingRewards",
      "outputs": [
        {
          "internalType": "uint256",
          "name": "",
          "type": "uint256"
        }
      ],
      "stateMutability": "view",
      "type": "function",
      "constant": true
    },
    {
      "inputs": [
        {
          "internalType": "uint256",
          "name": "_pid",
          "type": "uint256"
        },
        {
          "internalType": "address",
          "name": "_user",
          "type": "address"
        }
      ],
      "name": "balanceOf",
      "outputs": [
        {
          "internalType": "uint256",
          "name": "",
          "type": "uint256"
        }
      ],
      "stateMutability": "view",
      "type": "function",
      "constant": true
    },
    {
      "inputs": [],
      "name": "massUpdatePools",
      "outputs": [],
      "stateMutability": "nonpayable",
      "type": "function"
    },
    {
      "inputs": [
        {
          "internalType": "uint256",
          "name": "_pid",
          "type": "uint256"
        }
      ],
      "name": "updatePool",
      "outputs": [],
      "stateMutability": "nonpayable",
      "type": "function"
    },
    {
      "inputs": [
        {
          "internalType": "uint256",
          "name": "_pid",
          "type": "uint256"
        },
        {
          "internalType": "uint256",
          "name": "_amount",
          "type": "uint256"
        }
      ],
      "name": "deposit",
      "outputs": [],
      "stateMutability": "nonpayable",
      "type": "function"
    },
    {
      "inputs": [
        {
          "internalType": "uint256",
          "name": "_pid",
          "type": "uint256"
        },
        {
          "internalType": "uint256",
          "name": "_amount",
          "type": "uint256"
        }
      ],
      "name": "withdraw",
      "outputs": [],
      "stateMutability": "nonpayable",
      "type": "function"
    },
    {
      "inputs": [
        {
          "internalType": "uint256",
          "name": "_pid",
          "type": "uint256"
        }
      ],
      "name": "emergencyWithdraw",
      "outputs": [],
      "stateMutability": "nonpayable",
      "type": "function"
    },
    {
      "inputs": [
        {
          "internalType": "address",
          "name": "_operator",
          "type": "address"
        }
      ],
      "name": "setOperator",
      "outputs": [],
      "stateMutability": "nonpayable",
      "type": "function"
    }
  ],
  "bytecode": "0x6000600555610100604052692a5a058fc295ed0000006080818152693f870857a3e0e380000060a081905260c05260e0919091526200004390600790600462000289565b503480156200005157600080fd5b50604051620021fe380380620021fe833981810160405260408110156200007757600080fd5b508051602090910151438110156200008c5750435b6001600160a01b03821615620000b857600280546001600160a01b0319166001600160a01b0384161790555b600681905562031380810160085560015b6003811162000103576203138060086001830360048110620000e757fe5b01540160088260048110620000f857fe5b0155600101620000c9565b5060005b600381116200015e576200014562031380600783815481106200012657fe5b90600052602060002001546200019160201b620016731790919060201c565b600c82600581106200015357fe5b015560010162000107565b6000600c60040155505060008054336001600160a01b0319918216811790925560018054909116909117905550620002fb565b6000620001db83836040518060400160405280601a81526020017f536166654d6174683a206469766973696f6e206279207a65726f000000000000815250620001e260201b60201c565b9392505050565b60008183620002725760405162461bcd60e51b81526004018080602001828103825283818151815260200191508051906020019080838360005b83811015620002365781810151838201526020016200021c565b50505050905090810190601f168015620002645780820380516001836020036101000a031916815260200191505b509250505060405180910390fd5b5060008385816200027f57fe5b0495945050505050565b828054828255906000526020600020908101928215620002d2579160200282015b82811115620002d257825182906001600160501b0316905591602001919060010190620002aa565b50620002e0929150620002e4565b5090565b5b80821115620002e05760008155600101620002e5565b611ef3806200030b6000396000f3fe608060405234801561001057600080fd5b50600436106101825760003560e01c80635312ea8e116100d85780639a25cefc1161008c578063d18df53c11610066578063d18df53c14610469578063e2bbb158146104a2578063fc47e209146104c557610182565b80639a25cefc146103fc578063acca993e14610419578063b3ab15fb1461043657610182565b8063630b5ba1116100bd578063630b5ba11461039a5780638f8c06b7146103a257806393f1a40b146103aa57610182565b80635312ea8e14610375578063570ca7351461039257610182565b806324bcb38c1161013a578063441a3e7011610114578063441a3e701461032d57806348cd4cb11461035057806351eb05a61461035857610182565b806324bcb38c146102aa5780633656eec2146102d75780633fd500011461031057610182565b80631526fe271161016b5780631526fe271461020b57806317caf6f11461026d578063231f0c6a1461028757610182565b806302d05d3f14610187578063081d1de1146101b8575b600080fd5b61018f6104cd565b6040805173ffffffffffffffffffffffffffffffffffffffff9092168252519081900360200190f35b610209600480360360a08110156101ce57600080fd5b5080359061ffff6020820135169073ffffffffffffffffffffffffffffffffffffffff604082013516906060810135151590608001356104e9565b005b6102286004803603602081101561022157600080fd5b5035610752565b6040805173ffffffffffffffffffffffffffffffffffffffff909616865261ffff90941660208601528484019290925260608401526080830152519081900360a00190f35b6102756107bd565b60408051918252519081900360200190f35b6102756004803603604081101561029d57600080fd5b50803590602001356107c3565b610209600480360360608110156102c057600080fd5b508035906020810135906040013561ffff166109be565b610275600480360360408110156102ed57600080fd5b508035906020013573ffffffffffffffffffffffffffffffffffffffff16610af7565b6102756004803603602081101561032657600080fd5b5035610b2c565b6102096004803603604081101561034357600080fd5b5080359060200135610b40565b610275610ddb565b6102096004803603602081101561036e57600080fd5b5035610de1565b6102096004803603602081101561038b57600080fd5b5035610f34565b61018f610fda565b610209610ff6565b61018f611019565b6103e3600480360360408110156103c057600080fd5b508035906020013573ffffffffffffffffffffffffffffffffffffffff16611035565b6040805192835260208301919091528051918290030190f35b6102756004803603602081101561041257600080fd5b5035611059565b6102756004803603602081101561042f57600080fd5b5035611077565b6102096004803603602081101561044c57600080fd5b503573ffffffffffffffffffffffffffffffffffffffff16611084565b6102756004803603604081101561047f57600080fd5b508035906020013573ffffffffffffffffffffffffffffffffffffffff16611121565b610209600480360360408110156104b857600080fd5b50803590602001356112a5565b61027561166c565b60015473ffffffffffffffffffffffffffffffffffffffff1681565b60005473ffffffffffffffffffffffffffffffffffffffff16331461053f5760405162461bcd60e51b815260040180806020018281038252602b815260200180611e93602b913960400191505060405180910390fd5b610548836116b5565b6127108461ffff16111561058d5760405162461bcd60e51b8152600401808060200182810382526024815260200180611e6f6024913960400191505060405180910390fd5b811561059b5761059b610ff6565b6006544310156105c757806105b357506006546105c2565b6006548110156105c257506006545b6105db565b8015806105d357504381105b156105db5750435b6040805160a08101825273ffffffffffffffffffffffffffffffffffffffff808616825261ffff8088166020840190815293830189815260608401868152600060808601818152600380546001810182559252955160049091027fc2575a0e9e593c00f959f8c92f12db2869c3395a3b0502d05e2516446f71f85b81018054985190951674010000000000000000000000000000000000000000027fffffffffffffffffffff0000ffffffffffffffffffffffffffffffffffffffff929096167fffffffffffffffffffffffff0000000000000000000000000000000000000000909816979097171693909317909155517fc2575a0e9e593c00f959f8c92f12db2869c3395a3b0502d05e2516446f71f85c840155517fc2575a0e9e593c00f959f8c92f12db2869c3395a3b0502d05e2516446f71f85d830155517fc2575a0e9e593c00f959f8c92f12db2869c3395a3b0502d05e2516446f71f85e90910155600554610748908661176e565b6005555050505050565b6003818154811061075f57fe5b6000918252602090912060049091020180546001820154600283015460039093015473ffffffffffffffffffffffffffffffffffffffff831694507401000000000000000000000000000000000000000090920461ffff1692909185565b60055481565b600060045b60018160ff16106109a35760086001820360ff16600481106107e657fe5b0154831061097c5760086001820360ff166004811061080157fe5b015484106108365761082e600c8260ff166005811061081c57fe5b015461082885876117c8565b9061180a565b9150506109b8565b600061086c600c8360ff166005811061084b57fe5b015461082860086001860360ff166004811061086357fe5b015487906117c8565b90508160ff16600114156108a85761089f610898600c60005b015461082888600860005b0154906117c8565b829061176e565b925050506109b8565b6001820391505b60018260ff161061096d5760086001830360ff16600481106108cd57fe5b015485106109015761089f610898600c8460ff16600581106108eb57fe5b01546108288860088760ff166004811061089057fe5b610941610898600c8460ff166005811061091757fe5b015461082860086001870360ff166004811061092f57fe5b015460088760ff166004811061089057fe5b7fffffffffffffffffffffffffffffffffffffffffffffffffffffffffffffffff9092019190506108af565b61089f610898600c6000610885565b7fffffffffffffffffffffffffffffffffffffffffffffffffffffffffffffffff016107c8565b50600c546109b59061082884866117c8565b90505b92915050565b60005473ffffffffffffffffffffffffffffffffffffffff163314610a145760405162461bcd60e51b815260040180806020018281038252602b815260200180611e93602b913960400191505060405180910390fd5b6127108161ffff161115610a595760405162461bcd60e51b8152600401808060200182810382526024815260200180611e6f6024913960400191505060405180910390fd5b610a61610ff6565b600060038481548110610a7057fe5b90600052602060002090600402019050610aa383610a9d83600101546005546117c890919063ffffffff16565b9061176e565b6005556001810192909255815461ffff90911674010000000000000000000000000000000000000000027fffffffffffffffffffff0000ffffffffffffffffffffffffffffffffffffffff90911617905550565b600091825260046020908152604080842073ffffffffffffffffffffffffffffffffffffffff93909316845291905290205490565b60088160048110610b3957fe5b0154905081565b6000339050600060038481548110610b5457fe5b906000526020600020906004020190508060000160149054906101000a900461ffff1661ffff166127101415610bd1576040805162461bcd60e51b815260206004820152601e60248201527f59616e674469737472696275746f723a20646f6e6174696f6e20706f6f6c0000604482015290519081900360640190fd5b600084815260046020908152604080832073ffffffffffffffffffffffffffffffffffffffff8616845290915290208054841115610c56576040805162461bcd60e51b815260206004820152601260248201527f77697468647261773a206e6f7420676f6f640000000000000000000000000000604482015290519081900360640190fd5b610c5f85610de1565b6000610c9c8260010154610c96670de0b6b3a7640000610c908760030154876000015461180a90919063ffffffff16565b90611673565b906117c8565b90508015610cfb57610cae8482611863565b60408051828152905173ffffffffffffffffffffffffffffffffffffffff8616917fe2403640ba68fed3a2f88b7557551d1993f84b99bb10ff833f0cf8db0c5e0486919081900360200190a25b8415610d37578154610d0d90866117c8565b82558254610d329073ffffffffffffffffffffffffffffffffffffffff168587611959565b610d63565b8154600083558354909550610d639073ffffffffffffffffffffffffffffffffffffffff168587611959565b60038301548254610d8191670de0b6b3a764000091610c909161180a565b6001830155604080518681529051879173ffffffffffffffffffffffffffffffffffffffff8716917ff279e6a1f5e320cca91135676d9cb6e44ca8a08c0b88342bcdb1144f6511b5689181900360200190a3505050505050565b60065481565b600060038281548110610df057fe5b9060005260206000209060040201905080600201544311610e115750610f31565b8054604080517f70a08231000000000000000000000000000000000000000000000000000000008152306004820152905160009273ffffffffffffffffffffffffffffffffffffffff16916370a08231916024808301926020929190829003018186803b158015610e8157600080fd5b505afa158015610e95573d6000803e3d6000fd5b505050506040513d6020811015610eab57600080fd5b5051905080610ec1575043600290910155610f31565b60055415610f28576000610ed98360020154436107c3565b90506000610efa600554610c9086600101548561180a90919063ffffffff16565b9050610f20610f1584610c9084670de0b6b3a764000061180a565b60038601549061176e565b600385015550505b50436002909101555b50565b600060038281548110610f4357fe5b60009182526020808320858452600480835260408086203380885294528520805486825560018201969096559302018054909450919291610f9d9173ffffffffffffffffffffffffffffffffffffffff9091169083611959565b604080518281529051859133917fbb757047c2b5f3974fe26b7c10f732e7bce710b0952a71082702781e62ae05959181900360200190a350505050565b60005473ffffffffffffffffffffffffffffffffffffffff1681565b60035460005b818110156110155761100d81610de1565b600101610ffc565b5050565b60025473ffffffffffffffffffffffffffffffffffffffff1681565b60046020908152600092835260408084209091529082529020805460019091015482565b6007818154811061106657fe5b600091825260209091200154905081565b600c8160058110610b3957fe5b60005473ffffffffffffffffffffffffffffffffffffffff1633146110da5760405162461bcd60e51b815260040180806020018281038252602b815260200180611e93602b913960400191505060405180910390fd5b600080547fffffffffffffffffffffffff00000000000000000000000000000000000000001673ffffffffffffffffffffffffffffffffffffffff92909216919091179055565b6000806003848154811061113157fe5b600091825260208083208784526004808352604080862073ffffffffffffffffffffffffffffffffffffffff8a811688529085528187209583029093016003810154815483517f70a082310000000000000000000000000000000000000000000000000000000081523095810195909552925191985095969491909316926370a08231926024808201939291829003018186803b1580156111d157600080fd5b505afa1580156111e5573d6000803e3d6000fd5b505050506040513d60208110156111fb57600080fd5b505160028501549091504311801561121257508015155b1561126f5760006112278560020154436107c3565b90506000611248600554610c9088600101548561180a90919063ffffffff16565b905061126a61126384610c9084670de0b6b3a764000061180a565b859061176e565b935050505b61129a8360010154610c96670de0b6b3a7640000610c9086886000015461180a90919063ffffffff16565b979650505050505050565b60003390506000600384815481106112b957fe5b600091825260208083208784526004808352604080862073ffffffffffffffffffffffffffffffffffffffff89168752909352919093209102909101915061130085610de1565b8054156113995760006113388260010154610c96670de0b6b3a7640000610c908760030154876000015461180a90919063ffffffff16565b905080156113975761134a8482611863565b60408051828152905173ffffffffffffffffffffffffffffffffffffffff8616917fe2403640ba68fed3a2f88b7557551d1993f84b99bb10ff833f0cf8db0c5e0486919081900360200190a25b505b83156115f5578154604080517f70a08231000000000000000000000000000000000000000000000000000000008152306004820152905160009273ffffffffffffffffffffffffffffffffffffffff16916370a08231916024808301926020929190829003018186803b15801561140f57600080fd5b505afa158015611423573d6000803e3d6000fd5b505050506040513d602081101561143957600080fd5b505183549091506114629073ffffffffffffffffffffffffffffffffffffffff168530886119e6565b8254604080517f70a08231000000000000000000000000000000000000000000000000000000008152306004820152905161150a92849273ffffffffffffffffffffffffffffffffffffffff909116916370a0823191602480820192602092909190829003018186803b1580156114d857600080fd5b505afa1580156114ec573d6000803e3d6000fd5b505050506040513d602081101561150257600080fd5b5051906117c8565b835490955074010000000000000000000000000000000000000000900461ffff166127101415611547578154611540908661176e565b82556115f3565b825474010000000000000000000000000000000000000000900461ffff16156115e457825460009061159e9061271090610c9090899074010000000000000000000000000000000000000000900461ffff1661180a565b60015485549192506115ca9173ffffffffffffffffffffffffffffffffffffffff908116911683611959565b82546115dc908290610c96908961176e565b8355506115f3565b81546115f0908661176e565b82555b505b6003820154815461161391670de0b6b3a764000091610c909161180a565b6001820155604080518581529051869173ffffffffffffffffffffffffffffffffffffffff8616917f90890809c654f11d6e72a28fa60149770a0d11ec6c92319d6ceb2bb0a4ea1a159181900360200190a35050505050565b6203138081565b60006109b583836040518060400160405280601a81526020017f536166654d6174683a206469766973696f6e206279207a65726f000000000000815250611a81565b60035460005b81811015611769578273ffffffffffffffffffffffffffffffffffffffff16600382815481106116e757fe5b600091825260209091206004909102015473ffffffffffffffffffffffffffffffffffffffff161415611761576040805162461bcd60e51b815260206004820152601f60248201527f59616e674469737472696275746f723a206578697374696e6720706f6f6c3f00604482015290519081900360640190fd5b6001016116bb565b505050565b6000828201838110156109b5576040805162461bcd60e51b815260206004820152601b60248201527f536166654d6174683a206164646974696f6e206f766572666c6f770000000000604482015290519081900360640190fd5b60006109b583836040518060400160405280601e81526020017f536166654d6174683a207375627472616374696f6e206f766572666c6f770000815250611b23565b600082611819575060006109b8565b8282028284828161182657fe5b04146109b55760405162461bcd60e51b8152600401808060200182810382526021815260200180611e4e6021913960400191505060405180910390fd5b600254604080517f70a08231000000000000000000000000000000000000000000000000000000008152306004820152905160009273ffffffffffffffffffffffffffffffffffffffff16916370a08231916024808301926020929190829003018186803b1580156118d457600080fd5b505afa1580156118e8573d6000803e3d6000fd5b505050506040513d60208110156118fe57600080fd5b5051905080156117695780821115611939576002546119349073ffffffffffffffffffffffffffffffffffffffff168483611959565b611769565b6002546117699073ffffffffffffffffffffffffffffffffffffffff1684845b6040805173ffffffffffffffffffffffffffffffffffffffff8416602482015260448082018490528251808303909101815260649091019091526020810180517bffffffffffffffffffffffffffffffffffffffffffffffffffffffff167fa9059cbb00000000000000000000000000000000000000000000000000000000179052611769908490611b7d565b6040805173ffffffffffffffffffffffffffffffffffffffff80861660248301528416604482015260648082018490528251808303909101815260849091019091526020810180517bffffffffffffffffffffffffffffffffffffffffffffffffffffffff167f23b872dd00000000000000000000000000000000000000000000000000000000179052611a7b908590611b7d565b50505050565b60008183611b0d5760405162461bcd60e51b81526004018080602001828103825283818151815260200191508051906020019080838360005b83811015611ad2578181015183820152602001611aba565b50505050905090810190601f168015611aff5780820380516001836020036101000a031916815260200191505b509250505060405180910390fd5b506000838581611b1957fe5b0495945050505050565b60008184841115611b755760405162461bcd60e51b8152602060048201818152835160248401528351909283926044909101919085019080838360008315611ad2578181015183820152602001611aba565b505050900390565b6060611bdf826040518060400160405280602081526020017f5361666542455032303a206c6f772d6c6576656c2063616c6c206661696c65648152508573ffffffffffffffffffffffffffffffffffffffff16611c3b9092919063ffffffff16565b80519091501561176957808060200190516020811015611bfe57600080fd5b50516117695760405162461bcd60e51b815260040180806020018281038252602a815260200180611e24602a913960400191505060405180910390fd5b6060611c4a8484600085611c52565b949350505050565b6060611c5d85611dea565b611cae576040805162461bcd60e51b815260206004820152601d60248201527f416464726573733a2063616c6c20746f206e6f6e2d636f6e7472616374000000604482015290519081900360640190fd5b600060608673ffffffffffffffffffffffffffffffffffffffff1685876040518082805190602001908083835b60208310611d1857805182527fffffffffffffffffffffffffffffffffffffffffffffffffffffffffffffffe09092019160209182019101611cdb565b6001836020036101000a03801982511681845116808217855250505050505090500191505060006040518083038185875af1925050503d8060008114611d7a576040519150601f19603f3d011682016040523d82523d6000602084013e611d7f565b606091505b50915091508115611d93579150611c4a9050565b805115611da35780518082602001fd5b60405162461bcd60e51b8152602060048201818152865160248401528651879391928392604401919085019080838360008315611ad2578181015183820152602001611aba565b6000813f7fc5d2460186f7233c927e7db2dcc703c0e500b653ca82273b7bfad8045d85a470818114801590611c4a57505015159291505056fe5361666542455032303a204245503230206f7065726174696f6e20646964206e6f742073756363656564536166654d6174683a206d756c7469706c69636174696f6e206f766572666c6f7759616e674469737472696275746f723a20696e76616c6964206465706f7369742066656559616e674469737472696275746f723a2063616c6c6572206973206e6f7420746865206f70657261746f72a2646970667358221220620ec8354c64f3b9121bca38131bb913a1a30c43b77d842ffadb7efb0241888964736f6c634300060c0033",
  "immutableReferences": {},
  "source": "// SPDX-License-Identifier: MIT\r\npragma solidity ^0.6.12;\r\n\r\nimport \"./libraries/SafeMath.sol\";\r\nimport \"./libraries/SafeBEP20.sol\";\r\nimport \"./interfaces/IBEP20.sol\";\r\n\r\n// Note that this pool has no minter key of YANG (rewards).\r\n// Instead, the governance will call YANG distributeReward method and send reward to this pool at the beginning.\r\ncontract YangDistributor {\r\n    using SafeMath for uint256;\r\n    using SafeBEP20 for IBEP20;\r\n\r\n    // governance\r\n    address public operator;\r\n    address public creator;\r\n\r\n    // Info of each user.\r\n    struct UserInfo {\r\n        uint256 amount; // How many LP tokens the user has provided.\r\n        uint256 rewardDebt; // Reward debt. See explanation below.\r\n    }\r\n\r\n    // Info of each pool.\r\n    struct PoolInfo {\r\n        IBEP20 lpToken; // Address of LP token contract.\r\n        uint16 depositFee; // Deposit fee in basis points\r\n        uint256 allocPoint; // How many allocation points assigned to this pool. YANGs to distribute per block.\r\n        uint256 lastRewardBlock; // Last block number that YANG distribution occurs.\r\n        uint256 accYangPerShare; // Accumulated YANGs per share, times 1e18.\r\n    }\r\n\r\n    IBEP20 public yang;\r\n\r\n    // Info of each pool.\r\n    PoolInfo[] public poolInfo;\r\n\r\n    // Info of each user that stakes LP tokens.\r\n    mapping(uint256 => mapping(address => UserInfo)) public userInfo;\r\n\r\n    // Total allocation points. Must be the sum of all allocation points in all pools.\r\n    uint256 public totalAllocPoint = 0;\r\n\r\n    // The block number when YANG mining starts.\r\n    uint256 public startBlock;\r\n\r\n    uint256 public constant BLOCKS_PER_WEEK = 86400 * 7 / 3; // 7 DAYS!\r\n\r\n    uint256[] public epochTotalRewards = [200000 ether, 300000 ether, 300000 ether, 200000 ether];\r\n\r\n    // Block number when each epoch ends.\r\n    uint[4] public epochEndBlocks;\r\n\r\n    // Reward per block for each of 3 epochs (last item is equal to 0 - for sanity).\r\n    uint[5] public epochYangPerBlock;\r\n\r\n    event Deposit(address indexed user, uint256 indexed pid, uint256 amount);\r\n    event Withdraw(address indexed user, uint256 indexed pid, uint256 amount);\r\n    event EmergencyWithdraw(address indexed user, uint256 indexed pid, uint256 amount);\r\n    event RewardPaid(address indexed user, uint256 amount);\r\n\r\n    constructor(\r\n        address _yang,\r\n        uint256 _startBlock\r\n    ) public {\r\n        if (_startBlock < block.number) _startBlock = block.number;\r\n        if (_yang != address(0)) yang = IBEP20(_yang);\r\n        startBlock = _startBlock; // supposed to be 3,410,000 (Fri Dec 25 2020 15:00:00 UTC)\r\n        epochEndBlocks[0] = startBlock + BLOCKS_PER_WEEK;\r\n        uint256 i;\r\n        for (i = 1; i <= 3; ++i) {\r\n            epochEndBlocks[i] = epochEndBlocks[i - 1] + BLOCKS_PER_WEEK;\r\n        }\r\n        for (i = 0; i <= 3; ++i) {\r\n            epochYangPerBlock[i] = epochTotalRewards[i].div(BLOCKS_PER_WEEK);\r\n        }\r\n        epochYangPerBlock[4] = 0;\r\n        operator = msg.sender;\r\n        creator = msg.sender;\r\n    }\r\n\r\n    modifier onlyOperator() {\r\n        require(operator == msg.sender, \"YangDistributor: caller is not the operator\");\r\n        _;\r\n    }\r\n\r\n    function checkPoolDuplicate(IBEP20 _lpToken) internal view {\r\n        uint256 length = poolInfo.length;\r\n        for (uint256 pid = 0; pid < length; ++pid) {\r\n            require(poolInfo[pid].lpToken != _lpToken, \"YangDistributor: existing pool?\");\r\n        }\r\n    }\r\n\r\n    // Add a new lp to the pool. Can only be called by the owner.\r\n    function add(\r\n        uint256 _allocPoint,\r\n        uint16 _depositFee,\r\n        IBEP20 _lpToken,\r\n        bool _withUpdate,\r\n        uint256 _lastRewardBlock\r\n    ) public onlyOperator {\r\n        checkPoolDuplicate(_lpToken);\r\n        require(_depositFee <= 10000, \"YangDistributor: invalid deposit fee\");\r\n\r\n        if (_withUpdate) {\r\n            massUpdatePools();\r\n        }\r\n        if (block.number < startBlock) {\r\n            // chef is sleeping\r\n            if (_lastRewardBlock == 0) {\r\n                _lastRewardBlock = startBlock;\r\n            } else {\r\n                if (_lastRewardBlock < startBlock) {\r\n                    _lastRewardBlock = startBlock;\r\n                }\r\n            }\r\n        } else {\r\n            // chef is cooking\r\n            if (_lastRewardBlock == 0 || _lastRewardBlock < block.number) {\r\n                _lastRewardBlock = block.number;\r\n            }\r\n        }\r\n\r\n        poolInfo.push(PoolInfo({\r\n            lpToken : _lpToken,\r\n            depositFee: _depositFee,\r\n            allocPoint : _allocPoint,\r\n            lastRewardBlock : _lastRewardBlock,\r\n            accYangPerShare : 0\r\n            }));\r\n        \r\n        totalAllocPoint = totalAllocPoint.add(_allocPoint);\r\n    }\r\n\r\n    // Update the given pool's YANG allocation point. Can only be called by the owner.\r\n    function set(uint256 _pid, uint256 _allocPoint, uint16 _depositFee) public onlyOperator {\r\n        require(_depositFee <= 10000, \"YangDistributor: invalid deposit fee\");\r\n\r\n        massUpdatePools();\r\n        PoolInfo storage pool = poolInfo[_pid];\r\n        totalAllocPoint = totalAllocPoint.sub(pool.allocPoint).add(\r\n            _allocPoint\r\n        );\r\n        pool.allocPoint = _allocPoint;\r\n        pool.depositFee = _depositFee;\r\n    }\r\n\r\n    // Return accumulate rewards over the given _from to _to block.\r\n    function getGeneratedReward(uint256 _from, uint256 _to) public view returns (uint256) {\r\n        for (uint8 epochId = 4; epochId >= 1; --epochId) {\r\n            if (_to >= epochEndBlocks[epochId - 1]) {\r\n                if (_from >= epochEndBlocks[epochId - 1]) return _to.sub(_from).mul(epochYangPerBlock[epochId]);\r\n                uint256 _generatedReward = _to.sub(epochEndBlocks[epochId - 1]).mul(epochYangPerBlock[epochId]);\r\n                if (epochId == 1) return _generatedReward.add(epochEndBlocks[0].sub(_from).mul(epochYangPerBlock[0]));\r\n                for (epochId = epochId - 1; epochId >= 1; --epochId) {\r\n                    if (_from >= epochEndBlocks[epochId - 1]) return _generatedReward.add(epochEndBlocks[epochId].sub(_from).mul(epochYangPerBlock[epochId]));\r\n                    _generatedReward = _generatedReward.add(epochEndBlocks[epochId].sub(epochEndBlocks[epochId - 1]).mul(epochYangPerBlock[epochId]));\r\n                }\r\n                return _generatedReward.add(epochEndBlocks[0].sub(_from).mul(epochYangPerBlock[0]));\r\n            }\r\n        }\r\n        return _to.sub(_from).mul(epochYangPerBlock[0]);\r\n    }\r\n\r\n    // View function to see pending YANGs on frontend.\r\n    function pendingRewards(uint256 _pid, address _user) external view returns (uint256) {\r\n        PoolInfo storage pool = poolInfo[_pid];\r\n        UserInfo storage user = userInfo[_pid][_user];\r\n        uint256 accYangPerShare = pool.accYangPerShare;\r\n        uint256 lpSupply = pool.lpToken.balanceOf(address(this));\r\n        if (block.number > pool.lastRewardBlock && lpSupply != 0) {\r\n            uint256 _generatedReward = getGeneratedReward(pool.lastRewardBlock, block.number);\r\n            uint256 _yangReward = _generatedReward.mul(pool.allocPoint).div(totalAllocPoint);\r\n            accYangPerShare = accYangPerShare.add(_yangReward.mul(1e18).div(lpSupply));\r\n        }\r\n        return user.amount.mul(accYangPerShare).div(1e18).sub(user.rewardDebt);\r\n    }\r\n    // View function to see user balance on frontend.\r\n    function balanceOf(uint256 _pid, address _user) external view returns (uint256) {\r\n        UserInfo storage user = userInfo[_pid][_user];\r\n        return user.amount;\r\n    }\r\n\r\n    // Update reward variables for all pools. Be careful of gas spending!\r\n    function massUpdatePools() public {\r\n        uint256 length = poolInfo.length;\r\n        for (uint256 pid = 0; pid < length; ++pid) {\r\n            updatePool(pid);\r\n        }\r\n    }\r\n\r\n    // Update reward variables of the given pool to be up-to-date.\r\n    function updatePool(uint256 _pid) public {\r\n        PoolInfo storage pool = poolInfo[_pid];\r\n        if (block.number <= pool.lastRewardBlock) {\r\n            return;\r\n        }\r\n        uint256 lpSupply = pool.lpToken.balanceOf(address(this));\r\n        if (lpSupply == 0) {\r\n            pool.lastRewardBlock = block.number;\r\n            return;\r\n        }\r\n        if (totalAllocPoint > 0) {\r\n            uint256 _generatedReward = getGeneratedReward(pool.lastRewardBlock, block.number);\r\n            uint256 _yangReward = _generatedReward.mul(pool.allocPoint).div(totalAllocPoint);\r\n            pool.accYangPerShare = pool.accYangPerShare.add(_yangReward.mul(1e18).div(lpSupply));\r\n        }\r\n        pool.lastRewardBlock = block.number;\r\n    }\r\n\r\n    // Deposit LP tokens.\r\n    function deposit(uint256 _pid, uint256 _amount) public {\r\n        address _sender = msg.sender;\r\n        PoolInfo storage pool = poolInfo[_pid];\r\n        UserInfo storage user = userInfo[_pid][_sender];\r\n        updatePool(_pid);\r\n        if (user.amount > 0) {\r\n            uint256 _pending = user.amount.mul(pool.accYangPerShare).div(1e18).sub(user.rewardDebt);\r\n            if (_pending > 0) {\r\n                safeYangTransfer(_sender, _pending);\r\n                emit RewardPaid(_sender, _pending);\r\n            }\r\n        }\r\n        if (_amount > 0) {\r\n            uint256 balanceBefore = pool.lpToken.balanceOf(address(this));\r\n            pool.lpToken.safeTransferFrom(_sender, address(this), _amount);\r\n            _amount = pool.lpToken.balanceOf(address(this)).sub(balanceBefore); // burn fees\r\n            if(pool.depositFee == 10000) {\r\n                user.amount = user.amount.add(_amount);\r\n            } else if(pool.depositFee > 0) {\r\n                uint256 depositFee = _amount.mul(pool.depositFee).div(10000);\r\n                pool.lpToken.safeTransfer(creator, depositFee);\r\n                user.amount = user.amount.add(_amount).sub(depositFee);\r\n            } else {\r\n                user.amount = user.amount.add(_amount);\r\n            }\r\n        }\r\n        user.rewardDebt = user.amount.mul(pool.accYangPerShare).div(1e18);\r\n        emit Deposit(_sender, _pid, _amount);\r\n    }\r\n\r\n    // Withdraw LP tokens.\r\n    function withdraw(uint256 _pid, uint256 _amount) public {\r\n        address _sender = msg.sender;\r\n        PoolInfo storage pool = poolInfo[_pid];\r\n        require(pool.depositFee != 10000, \"YangDistributor: donation pool\");\r\n        UserInfo storage user = userInfo[_pid][_sender];\r\n        require(user.amount >= _amount, \"withdraw: not good\");\r\n        updatePool(_pid);\r\n        uint256 _pending = user.amount.mul(pool.accYangPerShare).div(1e18).sub(user.rewardDebt);\r\n        if (_pending > 0) {\r\n            safeYangTransfer(_sender, _pending);\r\n            emit RewardPaid(_sender, _pending);\r\n        }\r\n        if (_amount > 0) {\r\n            user.amount = user.amount.sub(_amount);\r\n            pool.lpToken.safeTransfer(_sender, _amount);\r\n        } else {\r\n            // withdraws all\r\n            _amount = user.amount;\r\n            user.amount = 0;\r\n            pool.lpToken.safeTransfer(_sender, _amount);\r\n        }\r\n        user.rewardDebt = user.amount.mul(pool.accYangPerShare).div(1e18);\r\n        emit Withdraw(_sender, _pid, _amount);\r\n    }\r\n\r\n    // Withdraw without caring about rewards. EMERGENCY ONLY.\r\n    function emergencyWithdraw(uint256 _pid) public {\r\n        PoolInfo storage pool = poolInfo[_pid];\r\n        UserInfo storage user = userInfo[_pid][msg.sender];\r\n        uint256 _amount = user.amount;\r\n        user.amount = 0;\r\n        user.rewardDebt = 0;\r\n        pool.lpToken.safeTransfer(msg.sender, _amount);\r\n        emit EmergencyWithdraw(msg.sender, _pid, _amount);\r\n    }\r\n\r\n    // Safe yang transfer function, just in case if rounding error causes pool to not have enough Yang.\r\n    function safeYangTransfer(address _to, uint256 _amount) internal {\r\n        uint256 _yangBal = yang.balanceOf(address(this));\r\n        if (_yangBal > 0) {\r\n            if (_amount > _yangBal) {\r\n                yang.safeTransfer(_to, _yangBal);\r\n            } else {\r\n                yang.safeTransfer(_to, _amount);\r\n            }\r\n        }\r\n    }\r\n\r\n    function setOperator(address _operator) external onlyOperator {\r\n        operator = _operator;\r\n    }\r\n}",
  "sourcePath": "C:/Users/jumic/Projets/truffle/yinyang/contracts/YangDistributor.sol",
  "compiler": {
    "name": "solc",
    "version": "0.6.12+commit.27d51765.Emscripten.clang"
  },
  "schemaVersion": "3.3.4",
  "updatedAt": "2021-04-24T09:00:36.017Z",
  "networkType": "ethereum",
  "devdoc": {
    "kind": "dev",
    "methods": {},
    "version": 1
  },
  "userdoc": {
    "kind": "user",
    "methods": {},
    "version": 1
  }
}