{
  "contractName": "YinRewardPool",
  "abi": [
    {
      "inputs": [
        {
          "internalType": "address",
          "name": "_yin",
          "type": "address"
        },
        {
          "internalType": "uint256",
          "name": "_startBlock",
          "type": "uint256"
        }
      ],
      "stateMutability": "nonpayable",
      "type": "constructor"
    },
    {
      "anonymous": false,
      "inputs": [
        {
          "indexed": true,
          "internalType": "address",
          "name": "user",
          "type": "address"
        },
        {
          "indexed": true,
          "internalType": "uint256",
          "name": "pid",
          "type": "uint256"
        },
        {
          "indexed": false,
          "internalType": "uint256",
          "name": "amount",
          "type": "uint256"
        }
      ],
      "name": "Deposit",
      "type": "event"
    },
    {
      "anonymous": false,
      "inputs": [
        {
          "indexed": true,
          "internalType": "address",
          "name": "user",
          "type": "address"
        },
        {
          "indexed": true,
          "internalType": "uint256",
          "name": "pid",
          "type": "uint256"
        },
        {
          "indexed": false,
          "internalType": "uint256",
          "name": "amount",
          "type": "uint256"
        }
      ],
      "name": "EmergencyWithdraw",
      "type": "event"
    },
    {
      "anonymous": false,
      "inputs": [
        {
          "indexed": true,
          "internalType": "address",
          "name": "user",
          "type": "address"
        },
        {
          "indexed": false,
          "internalType": "uint256",
          "name": "amount",
          "type": "uint256"
        }
      ],
      "name": "RewardPaid",
      "type": "event"
    },
    {
      "anonymous": false,
      "inputs": [
        {
          "indexed": true,
          "internalType": "address",
          "name": "user",
          "type": "address"
        },
        {
          "indexed": true,
          "internalType": "uint256",
          "name": "pid",
          "type": "uint256"
        },
        {
          "indexed": false,
          "internalType": "uint256",
          "name": "amount",
          "type": "uint256"
        }
      ],
      "name": "Withdraw",
      "type": "event"
    },
    {
      "inputs": [],
      "name": "BLOCKS_PER_WEEK",
      "outputs": [
        {
          "internalType": "uint256",
          "name": "",
          "type": "uint256"
        }
      ],
      "stateMutability": "view",
      "type": "function"
    },
    {
      "inputs": [
        {
          "internalType": "uint256",
          "name": "",
          "type": "uint256"
        }
      ],
      "name": "epochEndBlocks",
      "outputs": [
        {
          "internalType": "uint256",
          "name": "",
          "type": "uint256"
        }
      ],
      "stateMutability": "view",
      "type": "function"
    },
    {
      "inputs": [
        {
          "internalType": "uint256",
          "name": "",
          "type": "uint256"
        }
      ],
      "name": "epochTotalRewards",
      "outputs": [
        {
          "internalType": "uint256",
          "name": "",
          "type": "uint256"
        }
      ],
      "stateMutability": "view",
      "type": "function"
    },
    {
      "inputs": [
        {
          "internalType": "uint256",
          "name": "",
          "type": "uint256"
        }
      ],
      "name": "epochYinPerBlock",
      "outputs": [
        {
          "internalType": "uint256",
          "name": "",
          "type": "uint256"
        }
      ],
      "stateMutability": "view",
      "type": "function"
    },
    {
      "inputs": [],
      "name": "operator",
      "outputs": [
        {
          "internalType": "address",
          "name": "",
          "type": "address"
        }
      ],
      "stateMutability": "view",
      "type": "function"
    },
    {
      "inputs": [
        {
          "internalType": "uint256",
          "name": "",
          "type": "uint256"
        }
      ],
      "name": "poolInfo",
      "outputs": [
        {
          "internalType": "contract IBEP20",
          "name": "lpToken",
          "type": "address"
        },
        {
          "internalType": "uint256",
          "name": "allocPoint",
          "type": "uint256"
        },
        {
          "internalType": "uint256",
          "name": "lastRewardBlock",
          "type": "uint256"
        },
        {
          "internalType": "uint256",
          "name": "accYinPerShare",
          "type": "uint256"
        },
        {
          "internalType": "bool",
          "name": "isStarted",
          "type": "bool"
        }
      ],
      "stateMutability": "view",
      "type": "function"
    },
    {
      "inputs": [],
      "name": "startBlock",
      "outputs": [
        {
          "internalType": "uint256",
          "name": "",
          "type": "uint256"
        }
      ],
      "stateMutability": "view",
      "type": "function"
    },
    {
      "inputs": [],
      "name": "totalAllocPoint",
      "outputs": [
        {
          "internalType": "uint256",
          "name": "",
          "type": "uint256"
        }
      ],
      "stateMutability": "view",
      "type": "function"
    },
    {
      "inputs": [
        {
          "internalType": "uint256",
          "name": "",
          "type": "uint256"
        },
        {
          "internalType": "address",
          "name": "",
          "type": "address"
        }
      ],
      "name": "userInfo",
      "outputs": [
        {
          "internalType": "uint256",
          "name": "amount",
          "type": "uint256"
        },
        {
          "internalType": "uint256",
          "name": "rewardDebt",
          "type": "uint256"
        }
      ],
      "stateMutability": "view",
      "type": "function"
    },
    {
      "inputs": [],
      "name": "yin",
      "outputs": [
        {
          "internalType": "contract IBEP20",
          "name": "",
          "type": "address"
        }
      ],
      "stateMutability": "view",
      "type": "function"
    },
    {
      "inputs": [
        {
          "internalType": "uint256",
          "name": "_allocPoint",
          "type": "uint256"
        },
        {
          "internalType": "contract IBEP20",
          "name": "_lpToken",
          "type": "address"
        },
        {
          "internalType": "bool",
          "name": "_withUpdate",
          "type": "bool"
        },
        {
          "internalType": "uint256",
          "name": "_lastRewardBlock",
          "type": "uint256"
        }
      ],
      "name": "add",
      "outputs": [],
      "stateMutability": "nonpayable",
      "type": "function"
    },
    {
      "inputs": [
        {
          "internalType": "uint256",
          "name": "_pid",
          "type": "uint256"
        },
        {
          "internalType": "uint256",
          "name": "_allocPoint",
          "type": "uint256"
        }
      ],
      "name": "set",
      "outputs": [],
      "stateMutability": "nonpayable",
      "type": "function"
    },
    {
      "inputs": [
        {
          "internalType": "uint256",
          "name": "_from",
          "type": "uint256"
        },
        {
          "internalType": "uint256",
          "name": "_to",
          "type": "uint256"
        }
      ],
      "name": "getGeneratedReward",
      "outputs": [
        {
          "internalType": "uint256",
          "name": "",
          "type": "uint256"
        }
      ],
      "stateMutability": "view",
      "type": "function"
    },
    {
      "inputs": [
        {
          "internalType": "uint256",
          "name": "_pid",
          "type": "uint256"
        },
        {
          "internalType": "address",
          "name": "_user",
          "type": "address"
        }
      ],
      "name": "pendingRewards",
      "outputs": [
        {
          "internalType": "uint256",
          "name": "",
          "type": "uint256"
        }
      ],
      "stateMutability": "view",
      "type": "function"
    },
    {
      "inputs": [
        {
          "internalType": "uint256",
          "name": "_pid",
          "type": "uint256"
        },
        {
          "internalType": "address",
          "name": "_user",
          "type": "address"
        }
      ],
      "name": "balanceOf",
      "outputs": [
        {
          "internalType": "uint256",
          "name": "",
          "type": "uint256"
        }
      ],
      "stateMutability": "view",
      "type": "function"
    },
    {
      "inputs": [],
      "name": "massUpdatePools",
      "outputs": [],
      "stateMutability": "nonpayable",
      "type": "function"
    },
    {
      "inputs": [
        {
          "internalType": "uint256",
          "name": "_pid",
          "type": "uint256"
        }
      ],
      "name": "updatePool",
      "outputs": [],
      "stateMutability": "nonpayable",
      "type": "function"
    },
    {
      "inputs": [
        {
          "internalType": "uint256",
          "name": "_pid",
          "type": "uint256"
        },
        {
          "internalType": "uint256",
          "name": "_amount",
          "type": "uint256"
        }
      ],
      "name": "deposit",
      "outputs": [],
      "stateMutability": "nonpayable",
      "type": "function"
    },
    {
      "inputs": [
        {
          "internalType": "uint256",
          "name": "_pid",
          "type": "uint256"
        },
        {
          "internalType": "uint256",
          "name": "_amount",
          "type": "uint256"
        }
      ],
      "name": "withdraw",
      "outputs": [],
      "stateMutability": "nonpayable",
      "type": "function"
    },
    {
      "inputs": [
        {
          "internalType": "uint256",
          "name": "_pid",
          "type": "uint256"
        }
      ],
      "name": "emergencyWithdraw",
      "outputs": [],
      "stateMutability": "nonpayable",
      "type": "function"
    },
    {
      "inputs": [
        {
          "internalType": "address",
          "name": "_operator",
          "type": "address"
        }
      ],
      "name": "setOperator",
      "outputs": [],
      "stateMutability": "nonpayable",
      "type": "function"
    }
  ],
  "bytecode": "0x600060045560e06040526954b40b1f852bda000000608081815260a091909152692a23cfc614d00e60000060c0526200003d906006906003620002a5565b503480156200004b57600080fd5b5060405162001b2d38038062001b2d833981810160405260408110156200007157600080fd5b508051602090910151438111620000b8576040805162461bcd60e51b815260206004808301919091526024820152636c61746560e01b604482015290519081900360640190fd5b6001600160a01b03821615620000e457600180546001600160a01b0319166001600160a01b0384161790555b600581905562062700810160075560015b600281116200012f5762062700600760018303600381106200011357fe5b015401600782600381106200012457fe5b0155600101620000f5565b5060005b600281116200018a576200017162062700600683815481106200015257fe5b9060005260206000200154620001ad60201b620010b01790919060201c565b600a82600481106200017f57fe5b015560010162000133565b6000600a600301555050600080546001600160a01b031916331790555062000317565b6000620001f783836040518060400160405280601a81526020017f536166654d6174683a206469766973696f6e206279207a65726f000000000000815250620001fe60201b60201c565b9392505050565b600081836200028e5760405162461bcd60e51b81526004018080602001828103825283818151815260200191508051906020019080838360005b838110156200025257818101518382015260200162000238565b50505050905090810190601f168015620002805780820380516001836020036101000a031916815260200191505b509250505060405180910390fd5b5060008385816200029b57fe5b0495945050505050565b828054828255906000526020600020908101928215620002ee579160200282015b82811115620002ee57825182906001600160501b0316905591602001919060010190620002c6565b50620002fc92915062000300565b5090565b5b80821115620002fc576000815560010162000301565b61180680620003276000396000f3fe608060405234801561001057600080fd5b50600436106101375760003560e01c80635312ea8e116100b85780639a25cefc1161007c5780639a25cefc14610368578063b3ab15fb14610385578063bc6b4f32146103ab578063d18df53c146103b3578063e2bbb158146103df578063fc47e2091461040257610137565b80635312ea8e146102a0578063570ca735146102bd578063630b5ba1146102e157806393f1a40b146102e957806396805e541461032e57610137565b80633df7de71116100ff5780633df7de711461021e5780633fd500011461023b578063441a3e701461025857806348cd4cb11461027b57806351eb05a61461028357610137565b80631526fe271461013c57806317caf6f1146101905780631ab06ee5146101aa578063231f0c6a146101cf5780633656eec2146101f2575b600080fd5b6101596004803603602081101561015257600080fd5b503561040a565b604080516001600160a01b039096168652602086019490945284840192909252606084015215156080830152519081900360a00190f35b610198610455565b60408051918252519081900360200190f35b6101cd600480360360408110156101c057600080fd5b508035906020013561045b565b005b610198600480360360408110156101e557600080fd5b5080359060200135610509565b6101986004803603604081101561020857600080fd5b50803590602001356001600160a01b03166106c8565b6101986004803603602081101561023457600080fd5b50356106f0565b6101986004803603602081101561025157600080fd5b5035610704565b6101cd6004803603604081101561026e57600080fd5b5080359060200135610711565b6101986108f2565b6101cd6004803603602081101561029957600080fd5b50356108f8565b6101cd600480360360208110156102b657600080fd5b5035610a56565b6102c5610af2565b604080516001600160a01b039092168252519081900360200190f35b6101cd610b01565b610315600480360360408110156102ff57600080fd5b50803590602001356001600160a01b0316610b24565b6040805192835260208301919091528051918290030190f35b6101cd6004803603608081101561034457600080fd5b508035906001600160a01b0360208201351690604081013515159060600135610b48565b6101986004803603602081101561037e57600080fd5b5035610d45565b6101cd6004803603602081101561039b57600080fd5b50356001600160a01b0316610d63565b6102c5610dce565b610198600480360360408110156103c957600080fd5b50803590602001356001600160a01b0316610ddd565b6101cd600480360360408110156103f557600080fd5b5080359060200135610f39565b6101986110a9565b6002818154811061041757fe5b6000918252602090912060059091020180546001820154600283015460038401546004909401546001600160a01b0390931694509092909160ff1685565b60045481565b6000546001600160a01b031633146104a45760405162461bcd60e51b81526004018080602001828103825260298152602001806117a86029913960400191505060405180910390fd5b6104ac610b01565b6000600283815481106104bb57fe5b60009182526020909120600590910201600481015490915060ff1615610502576104fe826104f883600101546004546110f290919063ffffffff16565b90611134565b6004555b6001015550565b600060035b60018160ff16106106ad5760076001820360ff166003811061052c57fe5b015483106106a45760076001820360ff166003811061054757fe5b0154841061057c57610574600a8260ff166004811061056257fe5b015461056e85876110f2565b9061118e565b9150506106c2565b60006105b2600a8360ff166004811061059157fe5b015461056e60076001860360ff16600381106105a957fe5b015487906110f2565b90508160ff16600114156105ee576105e56105de600a60005b015461056e88600760005b0154906110f2565b8290611134565b925050506106c2565b6001820391505b60018260ff16106106955760076001830360ff166003811061061357fe5b01548510610647576105e56105de600a8460ff166004811061063157fe5b015461056e8860078760ff16600381106105d657fe5b6106876105de600a8460ff166004811061065d57fe5b015461056e60076001870360ff166003811061067557fe5b015460078760ff16600381106105d657fe5b6000199092019190506105f5565b6105e56105de600a60006105cb565b6000190161050e565b50600a546106bf9061056e84866110f2565b90505b92915050565b60009182526003602090815260408084206001600160a01b0393909316845291905290205490565b600a81600481106106fd57fe5b0154905081565b600781600381106106fd57fe5b600033905060006002848154811061072557fe5b600091825260208083208784526003825260408085206001600160a01b038816865290925292208054600590920290920192508411156107a1576040805162461bcd60e51b81526020600482015260126024820152711dda5d1a191c985dce881b9bdd0819dbdbd960721b604482015290519081900360640190fd5b6107aa856108f8565b60006107e782600101546107e1670de0b6b3a76400006107db8760030154876000015461118e90919063ffffffff16565b906110b0565b906110f2565b90508015610839576107f984826111e7565b6040805182815290516001600160a01b038616917fe2403640ba68fed3a2f88b7557551d1993f84b99bb10ff833f0cf8db0c5e0486919081900360200190a25b841561086857815461084b90866110f2565b82558254610863906001600160a01b031685876112a6565b610887565b8154600083558354909550610887906001600160a01b031685876112a6565b600383015482546108a591670de0b6b3a7640000916107db9161118e565b600183015560408051868152905187916001600160a01b038716917ff279e6a1f5e320cca91135676d9cb6e44ca8a08c0b88342bcdb1144f6511b5689181900360200190a3505050505050565b60055481565b60006002828154811061090757fe5b90600052602060002090600502019050806002015443116109285750610a53565b8054604080516370a0823160e01b815230600482015290516000926001600160a01b0316916370a08231916024808301926020929190829003018186803b15801561097257600080fd5b505afa158015610986573d6000803e3d6000fd5b505050506040513d602081101561099c57600080fd5b50519050806109b2575043600290910155610a53565b600482015460ff166109e3576004808301805460ff1916600190811790915583015490546109df91611134565b6004555b60045415610a4a5760006109fb836002015443610509565b90506000610a1c6004546107db86600101548561118e90919063ffffffff16565b9050610a42610a37846107db84670de0b6b3a764000061118e565b600386015490611134565b600385015550505b50436002909101555b50565b600060028281548110610a6557fe5b600091825260208083208584526003825260408085203380875293528420805485825560018201959095556005909302018054909450919291610ab5916001600160a01b039190911690836112a6565b604080518281529051859133917fbb757047c2b5f3974fe26b7c10f732e7bce710b0952a71082702781e62ae05959181900360200190a350505050565b6000546001600160a01b031681565b60025460005b81811015610b2057610b18816108f8565b600101610b07565b5050565b60036020908152600092835260408084209091529082529020805460019091015482565b6000546001600160a01b03163314610b915760405162461bcd60e51b81526004018080602001828103825260298152602001806117a86029913960400191505060405180910390fd5b610b9a836112f8565b8115610ba857610ba8610b01565b600554431015610bd45780610bc05750600554610bcf565b600554811015610bcf57506005545b610be8565b801580610be057504381105b15610be85750435b600060055482111580610bfb5750438211155b6040805160a0810182526001600160a01b03878116825260208201898152928201868152600060608401818152861580156080870190815260028054600181018255945295517f405787fa12a823e0f2b7631cc41b3ba8828b3321ca811111fa75cd3aa3bb5ace600590940293840180546001600160a01b031916919096161790945594517f405787fa12a823e0f2b7631cc41b3ba8828b3321ca811111fa75cd3aa3bb5acf82015590517f405787fa12a823e0f2b7631cc41b3ba8828b3321ca811111fa75cd3aa3bb5ad082015592517f405787fa12a823e0f2b7631cc41b3ba8828b3321ca811111fa75cd3aa3bb5ad184015590517f405787fa12a823e0f2b7631cc41b3ba8828b3321ca811111fa75cd3aa3bb5ad2909201805460ff191692151592909217909155909150610d3e57600454610d3a9086611134565b6004555b5050505050565b60068181548110610d5257fe5b600091825260209091200154905081565b6000546001600160a01b03163314610dac5760405162461bcd60e51b81526004018080602001828103825260298152602001806117a86029913960400191505060405180910390fd5b600080546001600160a01b0319166001600160a01b0392909216919091179055565b6001546001600160a01b031681565b60008060028481548110610ded57fe5b60009182526020808320878452600380835260408086206001600160a01b03808b168852908552818720600590960290930191820154825482516370a0823160e01b815230600482015292519398509596909590949316926370a0823192602480840193829003018186803b158015610e6557600080fd5b505afa158015610e79573d6000803e3d6000fd5b505050506040513d6020811015610e8f57600080fd5b5051600285015490915043118015610ea657508015155b15610f03576000610ebb856002015443610509565b90506000610edc6004546107db88600101548561118e90919063ffffffff16565b9050610efe610ef7846107db84670de0b6b3a764000061118e565b8590611134565b935050505b610f2e83600101546107e1670de0b6b3a76400006107db86886000015461118e90919063ffffffff16565b979650505050505050565b6000339050600060028481548110610f4d57fe5b600091825260208083208784526003825260408085206001600160a01b0388168652909252922060059091029091019150610f87856108f8565b805415611013576000610fbf82600101546107e1670de0b6b3a76400006107db8760030154876000015461118e90919063ffffffff16565b9050801561101157610fd184826111e7565b6040805182815290516001600160a01b038616917fe2403640ba68fed3a2f88b7557551d1993f84b99bb10ff833f0cf8db0c5e0486919081900360200190a25b505b831561103f578154611030906001600160a01b0316843087611392565b805461103c9085611134565b81555b6003820154815461105d91670de0b6b3a7640000916107db9161118e565b600182015560408051858152905186916001600160a01b038616917f90890809c654f11d6e72a28fa60149770a0d11ec6c92319d6ceb2bb0a4ea1a159181900360200190a35050505050565b6206270081565b60006106bf83836040518060400160405280601a81526020017f536166654d6174683a206469766973696f6e206279207a65726f0000000000008152506113f2565b60006106bf83836040518060400160405280601e81526020017f536166654d6174683a207375627472616374696f6e206f766572666c6f770000815250611494565b6000828201838110156106bf576040805162461bcd60e51b815260206004820152601b60248201527f536166654d6174683a206164646974696f6e206f766572666c6f770000000000604482015290519081900360640190fd5b60008261119d575060006106c2565b828202828482816111aa57fe5b04146106bf5760405162461bcd60e51b81526004018080602001828103825260218152602001806117876021913960400191505060405180910390fd5b600154604080516370a0823160e01b815230600482015290516000926001600160a01b0316916370a08231916024808301926020929190829003018186803b15801561123257600080fd5b505afa158015611246573d6000803e3d6000fd5b505050506040513d602081101561125c57600080fd5b5051905080156112a1578082111561128a57600154611285906001600160a01b031684836112a6565b6112a1565b6001546112a1906001600160a01b031684846112a6565b505050565b604080516001600160a01b038416602482015260448082018490528251808303909101815260649091019091526020810180516001600160e01b031663a9059cbb60e01b1790526112a19084906114ee565b60025460005b818110156112a157826001600160a01b03166002828154811061131d57fe5b60009182526020909120600590910201546001600160a01b0316141561138a576040805162461bcd60e51b815260206004820152601d60248201527f59696e526577617264506f6f6c3a206578697374696e6720706f6f6c3f000000604482015290519081900360640190fd5b6001016112fe565b604080516001600160a01b0380861660248301528416604482015260648082018490528251808303909101815260849091019091526020810180516001600160e01b03166323b872dd60e01b1790526113ec9085906114ee565b50505050565b6000818361147e5760405162461bcd60e51b81526004018080602001828103825283818151815260200191508051906020019080838360005b8381101561144357818101518382015260200161142b565b50505050905090810190601f1680156114705780820380516001836020036101000a031916815260200191505b509250505060405180910390fd5b50600083858161148a57fe5b0495945050505050565b600081848411156114e65760405162461bcd60e51b815260206004820181815283516024840152835190928392604490910191908501908083836000831561144357818101518382015260200161142b565b505050900390565b6060611543826040518060400160405280602081526020017f5361666542455032303a206c6f772d6c6576656c2063616c6c206661696c6564815250856001600160a01b031661159f9092919063ffffffff16565b8051909150156112a15780806020019051602081101561156257600080fd5b50516112a15760405162461bcd60e51b815260040180806020018281038252602a81526020018061175d602a913960400191505060405180910390fd5b60606115ae84846000856115b6565b949350505050565b60606115c185611723565b611612576040805162461bcd60e51b815260206004820152601d60248201527f416464726573733a2063616c6c20746f206e6f6e2d636f6e7472616374000000604482015290519081900360640190fd5b60006060866001600160a01b031685876040518082805190602001908083835b602083106116515780518252601f199092019160209182019101611632565b6001836020036101000a03801982511681845116808217855250505050505090500191505060006040518083038185875af1925050503d80600081146116b3576040519150601f19603f3d011682016040523d82523d6000602084013e6116b8565b606091505b509150915081156116cc5791506115ae9050565b8051156116dc5780518082602001fd5b60405162461bcd60e51b815260206004820181815286516024840152865187939192839260440191908501908083836000831561144357818101518382015260200161142b565b6000813f7fc5d2460186f7233c927e7db2dcc703c0e500b653ca82273b7bfad8045d85a4708181148015906115ae57505015159291505056fe5361666542455032303a204245503230206f7065726174696f6e20646964206e6f742073756363656564536166654d6174683a206d756c7469706c69636174696f6e206f766572666c6f7759696e526577617264506f6f6c3a2063616c6c6572206973206e6f7420746865206f70657261746f72a26469706673582212207f47407837f6cf524dab4c4c678b080f322a7290d19afad91a98219fedda56c464736f6c634300060c0033",
  "immutableReferences": {},
  "source": "// SPDX-License-Identifier: MIT\r\npragma solidity ^0.6.12;\r\n\r\nimport \"./libraries/SafeMath.sol\";\r\nimport \"./libraries/SafeBEP20.sol\";\r\nimport \"./interfaces/IBEP20.sol\";\r\n\r\n// Note that this pool has no minter key of YIN (rewards).\r\n// Instead, the governance will call YIN distributeReward method and send reward to this pool at the beginning.\r\ncontract YinRewardPool {\r\n    using SafeMath for uint256;\r\n    using SafeBEP20 for IBEP20;\r\n\r\n    // governance\r\n    address public operator;\r\n\r\n    // Info of each user.\r\n    struct UserInfo {\r\n        uint256 amount; // How many LP tokens the user has provided.\r\n        uint256 rewardDebt; // Reward debt. See explanation below.\r\n    }\r\n\r\n    // Info of each pool.\r\n    struct PoolInfo {\r\n        IBEP20 lpToken; // Address of LP token contract.\r\n        uint256 allocPoint; // How many allocation points assigned to this pool. YINs to distribute per block.\r\n        uint256 lastRewardBlock; // Last block number that YIN distribution occurs.\r\n        uint256 accYinPerShare; // Accumulated YINs per share, times 1e18. See below.\r\n        bool isStarted; // if lastRewardBlock has passed\r\n    }\r\n\r\n    IBEP20 public yin;\r\n\r\n    // Info of each pool.\r\n    PoolInfo[] public poolInfo;\r\n\r\n    // Info of each user that stakes LP tokens.\r\n    mapping(uint256 => mapping(address => UserInfo)) public userInfo;\r\n\r\n    // Total allocation points. Must be the sum of all allocation points in all pools.\r\n    uint256 public totalAllocPoint = 0;\r\n\r\n    // The block number when YIN mining starts.\r\n    uint256 public startBlock;\r\n\r\n    uint256 public constant BLOCKS_PER_WEEK = 86400 * 14 / 3; // 14 DAYS!\r\n\r\n    uint256[] public epochTotalRewards = [400000 ether, 400000 ether, 199000 ether];\r\n\r\n    // Block number when each epoch ends.\r\n    uint[3] public epochEndBlocks;\r\n\r\n    // Reward per block for each of 3 epochs (last item is equal to 0 - for sanity).\r\n    uint[4] public epochYinPerBlock;\r\n\r\n    event Deposit(address indexed user, uint256 indexed pid, uint256 amount);\r\n    event Withdraw(address indexed user, uint256 indexed pid, uint256 amount);\r\n    event EmergencyWithdraw(address indexed user, uint256 indexed pid, uint256 amount);\r\n    event RewardPaid(address indexed user, uint256 amount);\r\n\r\n    constructor(\r\n        address _yin,\r\n        uint256 _startBlock\r\n    ) public {\r\n        require(block.number < _startBlock, \"late\");\r\n        if (_yin != address(0)) yin = IBEP20(_yin);\r\n        startBlock = _startBlock; // supposed to be 3,410,000 (Fri Dec 25 2020 15:00:00 UTC)\r\n        epochEndBlocks[0] = startBlock + BLOCKS_PER_WEEK;\r\n        uint256 i;\r\n        for (i = 1; i <= 2; ++i) {\r\n            epochEndBlocks[i] = epochEndBlocks[i - 1] + BLOCKS_PER_WEEK;\r\n        }\r\n        for (i = 0; i <= 2; ++i) {\r\n            epochYinPerBlock[i] = epochTotalRewards[i].div(BLOCKS_PER_WEEK);\r\n        }\r\n        epochYinPerBlock[3] = 0;\r\n        operator = msg.sender;\r\n    }\r\n\r\n    modifier onlyOperator() {\r\n        require(operator == msg.sender, \"YinRewardPool: caller is not the operator\");\r\n        _;\r\n    }\r\n\r\n    function checkPoolDuplicate(IBEP20 _lpToken) internal view {\r\n        uint256 length = poolInfo.length;\r\n        for (uint256 pid = 0; pid < length; ++pid) {\r\n            require(poolInfo[pid].lpToken != _lpToken, \"YinRewardPool: existing pool?\");\r\n        }\r\n    }\r\n\r\n    // Add a new lp to the pool. Can only be called by the owner.\r\n    function add(\r\n        uint256 _allocPoint,\r\n        IBEP20 _lpToken,\r\n        bool _withUpdate,\r\n        uint256 _lastRewardBlock\r\n    ) public onlyOperator {\r\n        checkPoolDuplicate(_lpToken);\r\n        if (_withUpdate) {\r\n            massUpdatePools();\r\n        }\r\n        if (block.number < startBlock) {\r\n            // chef is sleeping\r\n            if (_lastRewardBlock == 0) {\r\n                _lastRewardBlock = startBlock;\r\n            } else {\r\n                if (_lastRewardBlock < startBlock) {\r\n                    _lastRewardBlock = startBlock;\r\n                }\r\n            }\r\n        } else {\r\n            // chef is cooking\r\n            if (_lastRewardBlock == 0 || _lastRewardBlock < block.number) {\r\n                _lastRewardBlock = block.number;\r\n            }\r\n        }\r\n        bool _isStarted =\r\n        (_lastRewardBlock <= startBlock) ||\r\n        (_lastRewardBlock <= block.number);\r\n        poolInfo.push(PoolInfo({\r\n            lpToken : _lpToken,\r\n            allocPoint : _allocPoint,\r\n            lastRewardBlock : _lastRewardBlock,\r\n            accYinPerShare : 0,\r\n            isStarted : _isStarted\r\n            }));\r\n        if (_isStarted) {\r\n            totalAllocPoint = totalAllocPoint.add(_allocPoint);\r\n        }\r\n    }\r\n\r\n    // Update the given pool's YIN allocation point. Can only be called by the owner.\r\n    function set(uint256 _pid, uint256 _allocPoint) public onlyOperator {\r\n        massUpdatePools();\r\n        PoolInfo storage pool = poolInfo[_pid];\r\n        if (pool.isStarted) {\r\n            totalAllocPoint = totalAllocPoint.sub(pool.allocPoint).add(\r\n                _allocPoint\r\n            );\r\n        }\r\n        pool.allocPoint = _allocPoint;\r\n    }\r\n\r\n    // Return accumulate rewards over the given _from to _to block.\r\n    function getGeneratedReward(uint256 _from, uint256 _to) public view returns (uint256) {\r\n        for (uint8 epochId = 3; epochId >= 1; --epochId) {\r\n            if (_to >= epochEndBlocks[epochId - 1]) {\r\n                if (_from >= epochEndBlocks[epochId - 1]) return _to.sub(_from).mul(epochYinPerBlock[epochId]);\r\n                uint256 _generatedReward = _to.sub(epochEndBlocks[epochId - 1]).mul(epochYinPerBlock[epochId]);\r\n                if (epochId == 1) return _generatedReward.add(epochEndBlocks[0].sub(_from).mul(epochYinPerBlock[0]));\r\n                for (epochId = epochId - 1; epochId >= 1; --epochId) {\r\n                    if (_from >= epochEndBlocks[epochId - 1]) return _generatedReward.add(epochEndBlocks[epochId].sub(_from).mul(epochYinPerBlock[epochId]));\r\n                    _generatedReward = _generatedReward.add(epochEndBlocks[epochId].sub(epochEndBlocks[epochId - 1]).mul(epochYinPerBlock[epochId]));\r\n                }\r\n                return _generatedReward.add(epochEndBlocks[0].sub(_from).mul(epochYinPerBlock[0]));\r\n            }\r\n        }\r\n        return _to.sub(_from).mul(epochYinPerBlock[0]);\r\n    }\r\n\r\n    // View function to see pending YINs on frontend.\r\n    function pendingRewards(uint256 _pid, address _user) external view returns (uint256) {\r\n        PoolInfo storage pool = poolInfo[_pid];\r\n        UserInfo storage user = userInfo[_pid][_user];\r\n        uint256 accYinPerShare = pool.accYinPerShare;\r\n        uint256 lpSupply = pool.lpToken.balanceOf(address(this));\r\n        if (block.number > pool.lastRewardBlock && lpSupply != 0) {\r\n            uint256 _generatedReward = getGeneratedReward(pool.lastRewardBlock, block.number);\r\n            uint256 _yinReward = _generatedReward.mul(pool.allocPoint).div(totalAllocPoint);\r\n            accYinPerShare = accYinPerShare.add(_yinReward.mul(1e18).div(lpSupply));\r\n        }\r\n        return user.amount.mul(accYinPerShare).div(1e18).sub(user.rewardDebt);\r\n    }\r\n    // View function to see user balance on frontend.\r\n    function balanceOf(uint256 _pid, address _user) external view returns (uint256) {\r\n        UserInfo storage user = userInfo[_pid][_user];\r\n        return user.amount;\r\n    }\r\n\r\n    // Update reward variables for all pools. Be careful of gas spending!\r\n    function massUpdatePools() public {\r\n        uint256 length = poolInfo.length;\r\n        for (uint256 pid = 0; pid < length; ++pid) {\r\n            updatePool(pid);\r\n        }\r\n    }\r\n\r\n    // Update reward variables of the given pool to be up-to-date.\r\n    function updatePool(uint256 _pid) public {\r\n        PoolInfo storage pool = poolInfo[_pid];\r\n        if (block.number <= pool.lastRewardBlock) {\r\n            return;\r\n        }\r\n        uint256 lpSupply = pool.lpToken.balanceOf(address(this));\r\n        if (lpSupply == 0) {\r\n            pool.lastRewardBlock = block.number;\r\n            return;\r\n        }\r\n        if (!pool.isStarted) {\r\n            pool.isStarted = true;\r\n            totalAllocPoint = totalAllocPoint.add(pool.allocPoint);\r\n        }\r\n        if (totalAllocPoint > 0) {\r\n            uint256 _generatedReward = getGeneratedReward(pool.lastRewardBlock, block.number);\r\n            uint256 _yinReward = _generatedReward.mul(pool.allocPoint).div(totalAllocPoint);\r\n            pool.accYinPerShare = pool.accYinPerShare.add(_yinReward.mul(1e18).div(lpSupply));\r\n        }\r\n        pool.lastRewardBlock = block.number;\r\n    }\r\n\r\n    // Deposit LP tokens.\r\n    function deposit(uint256 _pid, uint256 _amount) public {\r\n        address _sender = msg.sender;\r\n        PoolInfo storage pool = poolInfo[_pid];\r\n        UserInfo storage user = userInfo[_pid][_sender];\r\n        updatePool(_pid);\r\n        if (user.amount > 0) {\r\n            uint256 _pending = user.amount.mul(pool.accYinPerShare).div(1e18).sub(user.rewardDebt);\r\n            if (_pending > 0) {\r\n                safeYinTransfer(_sender, _pending);\r\n                emit RewardPaid(_sender, _pending);\r\n            }\r\n        }\r\n        if (_amount > 0) {\r\n            pool.lpToken.safeTransferFrom(_sender, address(this), _amount);\r\n            user.amount = user.amount.add(_amount);\r\n        }\r\n        user.rewardDebt = user.amount.mul(pool.accYinPerShare).div(1e18);\r\n        emit Deposit(_sender, _pid, _amount);\r\n    }\r\n\r\n    // Withdraw LP tokens.\r\n    function withdraw(uint256 _pid, uint256 _amount) public {\r\n        address _sender = msg.sender;\r\n        PoolInfo storage pool = poolInfo[_pid];\r\n        UserInfo storage user = userInfo[_pid][_sender];\r\n        require(user.amount >= _amount, \"withdraw: not good\");\r\n        updatePool(_pid);\r\n        uint256 _pending = user.amount.mul(pool.accYinPerShare).div(1e18).sub(user.rewardDebt);\r\n        if (_pending > 0) {\r\n            safeYinTransfer(_sender, _pending);\r\n            emit RewardPaid(_sender, _pending);\r\n        }\r\n        if (_amount > 0) {\r\n            user.amount = user.amount.sub(_amount);\r\n            pool.lpToken.safeTransfer(_sender, _amount);\r\n        } else {\r\n            // withdraws all\r\n            _amount = user.amount;\r\n            user.amount = 0;\r\n            pool.lpToken.safeTransfer(_sender, _amount);\r\n        }\r\n        user.rewardDebt = user.amount.mul(pool.accYinPerShare).div(1e18);\r\n        emit Withdraw(_sender, _pid, _amount);\r\n    }\r\n\r\n    // Withdraw without caring about rewards. EMERGENCY ONLY.\r\n    function emergencyWithdraw(uint256 _pid) public {\r\n        PoolInfo storage pool = poolInfo[_pid];\r\n        UserInfo storage user = userInfo[_pid][msg.sender];\r\n        uint256 _amount = user.amount;\r\n        user.amount = 0;\r\n        user.rewardDebt = 0;\r\n        pool.lpToken.safeTransfer(msg.sender, _amount);\r\n        emit EmergencyWithdraw(msg.sender, _pid, _amount);\r\n    }\r\n\r\n    // Safe yin transfer function, just in case if rounding error causes pool to not have enough Yin.\r\n    function safeYinTransfer(address _to, uint256 _amount) internal {\r\n        uint256 _yinBal = yin.balanceOf(address(this));\r\n        if (_yinBal > 0) {\r\n            if (_amount > _yinBal) {\r\n                yin.safeTransfer(_to, _yinBal);\r\n            } else {\r\n                yin.safeTransfer(_to, _amount);\r\n            }\r\n        }\r\n    }\r\n\r\n    function setOperator(address _operator) external onlyOperator {\r\n        operator = _operator;\r\n    }\r\n}",
  "sourcePath": "C:/Users/jumic/Projets/truffle/yinyang/contracts/YinDistributor.sol",
  "compiler": {
    "name": "solc",
    "version": "0.6.12+commit.27d51765.Emscripten.clang"
  },
  "schemaVersion": "3.3.4",
  "updatedAt": "2021-03-30T21:35:42.550Z",
  "devdoc": {
    "kind": "dev",
    "methods": {},
    "version": 1
  },
  "userdoc": {
    "kind": "user",
    "methods": {},
    "version": 1
  }
}