{
  "contractName": "Zen",
  "abi": [
    {
      "inputs": [
        {
          "internalType": "contract IPancakeFactory",
          "name": "pancakeFactory",
          "type": "address"
        },
        {
          "internalType": "address",
          "name": "bnb",
          "type": "address"
        },
        {
          "internalType": "address",
          "name": "usd",
          "type": "address"
        }
      ],
      "stateMutability": "nonpayable",
      "type": "constructor"
    },
    {
      "anonymous": false,
      "inputs": [
        {
          "indexed": true,
          "internalType": "address",
          "name": "owner",
          "type": "address"
        },
        {
          "indexed": true,
          "internalType": "address",
          "name": "spender",
          "type": "address"
        },
        {
          "indexed": false,
          "internalType": "uint256",
          "name": "value",
          "type": "uint256"
        }
      ],
      "name": "Approval",
      "type": "event"
    },
    {
      "anonymous": false,
      "inputs": [
        {
          "indexed": true,
          "internalType": "address",
          "name": "previousOwner",
          "type": "address"
        },
        {
          "indexed": true,
          "internalType": "address",
          "name": "newOwner",
          "type": "address"
        }
      ],
      "name": "OwnershipTransferred",
      "type": "event"
    },
    {
      "anonymous": false,
      "inputs": [
        {
          "indexed": true,
          "internalType": "address",
          "name": "from",
          "type": "address"
        },
        {
          "indexed": true,
          "internalType": "address",
          "name": "to",
          "type": "address"
        },
        {
          "indexed": false,
          "internalType": "uint256",
          "name": "value",
          "type": "uint256"
        }
      ],
      "name": "Transfer",
      "type": "event"
    },
    {
      "inputs": [
        {
          "internalType": "address",
          "name": "owner",
          "type": "address"
        },
        {
          "internalType": "address",
          "name": "spender",
          "type": "address"
        }
      ],
      "name": "allowance",
      "outputs": [
        {
          "internalType": "uint256",
          "name": "",
          "type": "uint256"
        }
      ],
      "stateMutability": "view",
      "type": "function",
      "constant": true
    },
    {
      "inputs": [
        {
          "internalType": "address",
          "name": "spender",
          "type": "address"
        },
        {
          "internalType": "uint256",
          "name": "amount",
          "type": "uint256"
        }
      ],
      "name": "approve",
      "outputs": [
        {
          "internalType": "bool",
          "name": "",
          "type": "bool"
        }
      ],
      "stateMutability": "nonpayable",
      "type": "function"
    },
    {
      "inputs": [
        {
          "internalType": "address",
          "name": "account",
          "type": "address"
        }
      ],
      "name": "balanceOf",
      "outputs": [
        {
          "internalType": "uint256",
          "name": "",
          "type": "uint256"
        }
      ],
      "stateMutability": "view",
      "type": "function",
      "constant": true
    },
    {
      "inputs": [
        {
          "internalType": "uint256",
          "name": "amount",
          "type": "uint256"
        }
      ],
      "name": "burn",
      "outputs": [
        {
          "internalType": "bool",
          "name": "",
          "type": "bool"
        }
      ],
      "stateMutability": "nonpayable",
      "type": "function"
    },
    {
      "inputs": [],
      "name": "decimals",
      "outputs": [
        {
          "internalType": "uint8",
          "name": "",
          "type": "uint8"
        }
      ],
      "stateMutability": "view",
      "type": "function",
      "constant": true
    },
    {
      "inputs": [
        {
          "internalType": "address",
          "name": "spender",
          "type": "address"
        },
        {
          "internalType": "uint256",
          "name": "subtractedValue",
          "type": "uint256"
        }
      ],
      "name": "decreaseAllowance",
      "outputs": [
        {
          "internalType": "bool",
          "name": "",
          "type": "bool"
        }
      ],
      "stateMutability": "nonpayable",
      "type": "function"
    },
    {
      "inputs": [],
      "name": "getOwner",
      "outputs": [
        {
          "internalType": "address",
          "name": "",
          "type": "address"
        }
      ],
      "stateMutability": "view",
      "type": "function",
      "constant": true
    },
    {
      "inputs": [
        {
          "internalType": "address",
          "name": "spender",
          "type": "address"
        },
        {
          "internalType": "uint256",
          "name": "addedValue",
          "type": "uint256"
        }
      ],
      "name": "increaseAllowance",
      "outputs": [
        {
          "internalType": "bool",
          "name": "",
          "type": "bool"
        }
      ],
      "stateMutability": "nonpayable",
      "type": "function"
    },
    {
      "inputs": [
        {
          "internalType": "uint256",
          "name": "amount",
          "type": "uint256"
        }
      ],
      "name": "mint",
      "outputs": [
        {
          "internalType": "bool",
          "name": "",
          "type": "bool"
        }
      ],
      "stateMutability": "nonpayable",
      "type": "function"
    },
    {
      "inputs": [],
      "name": "name",
      "outputs": [
        {
          "internalType": "string",
          "name": "",
          "type": "string"
        }
      ],
      "stateMutability": "view",
      "type": "function",
      "constant": true
    },
    {
      "inputs": [],
      "name": "owner",
      "outputs": [
        {
          "internalType": "address",
          "name": "",
          "type": "address"
        }
      ],
      "stateMutability": "view",
      "type": "function",
      "constant": true
    },
    {
      "inputs": [],
      "name": "pancakeZenBNBPair",
      "outputs": [
        {
          "internalType": "address",
          "name": "",
          "type": "address"
        }
      ],
      "stateMutability": "view",
      "type": "function",
      "constant": true
    },
    {
      "inputs": [],
      "name": "pancakeZenUSDPair",
      "outputs": [
        {
          "internalType": "address",
          "name": "",
          "type": "address"
        }
      ],
      "stateMutability": "view",
      "type": "function",
      "constant": true
    },
    {
      "inputs": [],
      "name": "renounceOwnership",
      "outputs": [],
      "stateMutability": "nonpayable",
      "type": "function"
    },
    {
      "inputs": [],
      "name": "symbol",
      "outputs": [
        {
          "internalType": "string",
          "name": "",
          "type": "string"
        }
      ],
      "stateMutability": "view",
      "type": "function",
      "constant": true
    },
    {
      "inputs": [],
      "name": "totalSupply",
      "outputs": [
        {
          "internalType": "uint256",
          "name": "",
          "type": "uint256"
        }
      ],
      "stateMutability": "view",
      "type": "function",
      "constant": true
    },
    {
      "inputs": [
        {
          "internalType": "address",
          "name": "recipient",
          "type": "address"
        },
        {
          "internalType": "uint256",
          "name": "amount",
          "type": "uint256"
        }
      ],
      "name": "transfer",
      "outputs": [
        {
          "internalType": "bool",
          "name": "",
          "type": "bool"
        }
      ],
      "stateMutability": "nonpayable",
      "type": "function"
    },
    {
      "inputs": [
        {
          "internalType": "address",
          "name": "sender",
          "type": "address"
        },
        {
          "internalType": "address",
          "name": "recipient",
          "type": "address"
        },
        {
          "internalType": "uint256",
          "name": "amount",
          "type": "uint256"
        }
      ],
      "name": "transferFrom",
      "outputs": [
        {
          "internalType": "bool",
          "name": "",
          "type": "bool"
        }
      ],
      "stateMutability": "nonpayable",
      "type": "function"
    },
    {
      "inputs": [
        {
          "internalType": "address",
          "name": "newOwner",
          "type": "address"
        }
      ],
      "name": "transferOwnership",
      "outputs": [],
      "stateMutability": "nonpayable",
      "type": "function"
    },
    {
      "inputs": [
        {
          "internalType": "address",
          "name": "account",
          "type": "address"
        },
        {
          "internalType": "uint256",
          "name": "amount",
          "type": "uint256"
        }
      ],
      "name": "burnFrom",
      "outputs": [],
      "stateMutability": "nonpayable",
      "type": "function"
    },
    {
      "inputs": [],
      "name": "getPairs",
      "outputs": [
        {
          "internalType": "address",
          "name": "",
          "type": "address"
        },
        {
          "internalType": "address",
          "name": "",
          "type": "address"
        }
      ],
      "stateMutability": "view",
      "type": "function",
      "constant": true
    },
    {
      "inputs": [],
      "name": "circulatingSupply",
      "outputs": [
        {
          "internalType": "uint256",
          "name": "",
          "type": "uint256"
        }
      ],
      "stateMutability": "view",
      "type": "function",
      "constant": true
    }
  ],
  "bytecode": "0x60806040523480156200001157600080fd5b506040516200174138038062001741833981810160405260608110156200003757600080fd5b508051602080830151604093840151845180860186526003808252622d32b760e91b8286015286518088019097528652622d22a760e91b9386019390935292939092919060006200008762000250565b600080546001600160a01b0319166001600160a01b0383169081178255604051929350917f8be0079c531659141344cd1fd0a4f28419497f9722a3daafe3b4186f6b6457e0908290a3508151620000e690600490602085019062000254565b508051620000fc90600590602084019062000254565b50506006805460ff1916601217905550604080516364e329cb60e11b81523060048201526001600160a01b03848116602483015291519185169163c9c65396916044808201926020929091908290030181600087803b1580156200015f57600080fd5b505af115801562000174573d6000803e3d6000fd5b505050506040513d60208110156200018b57600080fd5b505160068054610100600160a81b0319166101006001600160a01b0393841602179055604080516364e329cb60e11b8152306004820152838316602482015290519185169163c9c65396916044808201926020929091908290030181600087803b158015620001f957600080fd5b505af11580156200020e573d6000803e3d6000fd5b505050506040513d60208110156200022557600080fd5b5051600780546001600160a01b0319166001600160a01b0390921691909117905550620002f0915050565b3390565b828054600181600116156101000203166002900490600052602060002090601f016020900481019282601f106200029757805160ff1916838001178555620002c7565b82800160010185558215620002c7579182015b82811115620002c7578251825591602001919060010190620002aa565b50620002d5929150620002d9565b5090565b5b80821115620002d55760008155600101620002da565b61144180620003006000396000f3fe608060405234801561001057600080fd5b50600436106101825760003560e01c8063767eb5ef116100d857806395d89b411161008c578063a9059cbb11610066578063a9059cbb14610423578063dd62ed3e1461044f578063f2fde38b1461047d57610182565b806395d89b41146103d2578063a0712d68146103da578063a457c2d7146103f757610182565b8063893d20e8116100bd578063893d20e8146103ba5780638da5cb5b146103c25780639358928b146103ca57610182565b8063767eb5ef1461035757806379cc67901461038e57610182565b8063313ce5671161013a5780634e6cce7a116101145780634e6cce7a1461031f57806370a0823114610327578063715018a61461034d57610182565b8063313ce567146102b857806339509351146102d657806342966c681461030257610182565b80630f4389371161016b5780630f4389371461024457806318160ddd1461026857806323b872dd1461028257610182565b806306fdde0314610187578063095ea7b314610204575b600080fd5b61018f6104a3565b6040805160208082528351818301528351919283929083019185019080838360005b838110156101c95781810151838201526020016101b1565b50505050905090810190601f1680156101f65780820380516001836020036101000a031916815260200191505b509250505060405180910390f35b6102306004803603604081101561021a57600080fd5b506001600160a01b038135169060200135610539565b604080519115158252519081900360200190f35b61024c610556565b604080516001600160a01b039092168252519081900360200190f35b61027061056a565b60408051918252519081900360200190f35b6102306004803603606081101561029857600080fd5b506001600160a01b03813581169160208101359091169060400135610570565b6102c06105f7565b6040805160ff9092168252519081900360200190f35b610230600480360360408110156102ec57600080fd5b506001600160a01b038135169060200135610600565b6102306004803603602081101561031857600080fd5b503561064e565b61024c6106d3565b6102706004803603602081101561033d57600080fd5b50356001600160a01b03166106e2565b6103556106fd565b005b61035f6107c9565b60405180836001600160a01b03168152602001826001600160a01b031681526020019250505060405180910390f35b610355600480360360408110156103a457600080fd5b506001600160a01b0381351690602001356107e5565b61024c61085d565b61024c61086c565b61027061087b565b61018f610a9c565b610230600480360360208110156103f057600080fd5b5035610afd565b6102306004803603604081101561040d57600080fd5b506001600160a01b038135169060200135610b7a565b6102306004803603604081101561043957600080fd5b506001600160a01b038135169060200135610be2565b6102706004803603604081101561046557600080fd5b506001600160a01b0381358116916020013516610bf6565b6103556004803603602081101561049357600080fd5b50356001600160a01b0316610c21565b60048054604080516020601f600260001961010060018816150201909516949094049384018190048102820181019092528281526060939092909183018282801561052f5780601f106105045761010080835404028352916020019161052f565b820191906000526020600020905b81548152906001019060200180831161051257829003601f168201915b5050505050905090565b600061054d610546610c97565b8484610c9b565b50600192915050565b60065461010090046001600160a01b031681565b60035490565b600061057d848484610d87565b6105ed84610589610c97565b6105e885604051806060016040528060288152602001611311602891396001600160a01b038a166000908152600260205260408120906105c7610c97565b6001600160a01b031681526020810191909152604001600020549190610ed9565b610c9b565b5060019392505050565b60065460ff1690565b600061054d61060d610c97565b846105e8856002600061061e610c97565b6001600160a01b03908116825260208083019390935260409182016000908120918c168152925290205490610f70565b6000610658610c97565b6000546001600160a01b039081169116146106ba576040805162461bcd60e51b815260206004820181905260248201527f4f776e61626c653a2063616c6c6572206973206e6f7420746865206f776e6572604482015290519081900360640190fd5b6106cb6106c5610c97565b83610fd1565b506001919050565b6007546001600160a01b031681565b6001600160a01b031660009081526001602052604090205490565b610705610c97565b6000546001600160a01b03908116911614610767576040805162461bcd60e51b815260206004820181905260248201527f4f776e61626c653a2063616c6c6572206973206e6f7420746865206f776e6572604482015290519081900360640190fd5b600080546040516001600160a01b03909116907f8be0079c531659141344cd1fd0a4f28419497f9722a3daafe3b4186f6b6457e0908390a3600080547fffffffffffffffffffffffff0000000000000000000000000000000000000000169055565b6006546007546001600160a01b03610100909204821691169091565b6107ed610c97565b6000546001600160a01b0390811691161461084f576040805162461bcd60e51b815260206004820181905260248201527f4f776e61626c653a2063616c6c6572206973206e6f7420746865206f776e6572604482015290519081900360640190fd5b6108598282610fd1565b5050565b600061086761086c565b905090565b6000546001600160a01b031690565b6000806000306001600160a01b031663767eb5ef6040518163ffffffff1660e01b8152600401604080518083038186803b1580156108b857600080fd5b505afa1580156108cc573d6000803e3d6000fd5b505050506040513d60408110156108e257600080fd5b508051602091820151604080517f70a082310000000000000000000000000000000000000000000000000000000081526001600160a01b03831660048201529051929550909350610a959230926370a08231926024808201939291829003018186803b15801561095157600080fd5b505afa158015610965573d6000803e3d6000fd5b505050506040513d602081101561097b57600080fd5b5051604080517f70a082310000000000000000000000000000000000000000000000000000000081526001600160a01b03861660048201529051610a8f9130916370a0823191602480820192602092909190829003018186803b1580156109e157600080fd5b505afa1580156109f5573d6000803e3d6000fd5b505050506040513d6020811015610a0b57600080fd5b5051604080517f18160ddd000000000000000000000000000000000000000000000000000000008152905130916318160ddd916004808301926020929190829003018186803b158015610a5d57600080fd5b505afa158015610a71573d6000803e3d6000fd5b505050506040513d6020811015610a8757600080fd5b5051906110c1565b906110c1565b9250505090565b60058054604080516020601f600260001961010060018816150201909516949094049384018190048102820181019092528281526060939092909183018282801561052f5780601f106105045761010080835404028352916020019161052f565b6000610b07610c97565b6000546001600160a01b03908116911614610b69576040805162461bcd60e51b815260206004820181905260248201527f4f776e61626c653a2063616c6c6572206973206e6f7420746865206f776e6572604482015290519081900360640190fd5b6106cb610b74610c97565b83611103565b600061054d610b87610c97565b846105e8856040518060600160405280602581526020016113826025913960026000610bb1610c97565b6001600160a01b03908116825260208083019390935260409182016000908120918d16815292529020549190610ed9565b600061054d610bef610c97565b8484610d87565b6001600160a01b03918216600090815260026020908152604080832093909416825291909152205490565b610c29610c97565b6000546001600160a01b03908116911614610c8b576040805162461bcd60e51b815260206004820181905260248201527f4f776e61626c653a2063616c6c6572206973206e6f7420746865206f776e6572604482015290519081900360640190fd5b610c94816111e9565b50565b3390565b6001600160a01b038316610ce05760405162461bcd60e51b81526004018080602001828103825260248152602001806112c76024913960400191505060405180910390fd5b6001600160a01b038216610d255760405162461bcd60e51b81526004018080602001828103825260228152602001806113ea6022913960400191505060405180910390fd5b6001600160a01b03808416600081815260026020908152604080832094871680845294825291829020859055815185815291517f8c5be1e5ebec7d5bd14f71427d1e84f3dd0314c0f7b2291e5b200ac8c7c3b9259281900390910190a3505050565b6001600160a01b038316610dcc5760405162461bcd60e51b81526004018080602001828103825260258152602001806112a26025913960400191505060405180910390fd5b6001600160a01b038216610e115760405162461bcd60e51b815260040180806020018281038252602381526020018061135f6023913960400191505060405180910390fd5b610e4e81604051806060016040528060268152602001611339602691396001600160a01b0386166000908152600160205260409020549190610ed9565b6001600160a01b038085166000908152600160205260408082209390935590841681522054610e7d9082610f70565b6001600160a01b0380841660008181526001602090815260409182902094909455805185815290519193928716927fddf252ad1be2c89b69c2b068fc378daa952ba7f163c4a11628f55a4df523b3ef92918290030190a3505050565b60008184841115610f685760405162461bcd60e51b81526004018080602001828103825283818151815260200191508051906020019080838360005b83811015610f2d578181015183820152602001610f15565b50505050905090810190601f168015610f5a5780820380516001836020036101000a031916815260200191505b509250505060405180910390fd5b505050900390565b600082820183811015610fca576040805162461bcd60e51b815260206004820152601b60248201527f536166654d6174683a206164646974696f6e206f766572666c6f770000000000604482015290519081900360640190fd5b9392505050565b6001600160a01b0382166110165760405162461bcd60e51b81526004018080602001828103825260218152602001806113a76021913960400191505060405180910390fd5b611053816040518060600160405280602281526020016113c8602291396001600160a01b0385166000908152600160205260409020549190610ed9565b6001600160a01b03831660009081526001602052604090205560035461107990826110c1565b6003556040805182815290516000916001600160a01b038516917fddf252ad1be2c89b69c2b068fc378daa952ba7f163c4a11628f55a4df523b3ef9181900360200190a35050565b6000610fca83836040518060400160405280601e81526020017f536166654d6174683a207375627472616374696f6e206f766572666c6f770000815250610ed9565b6001600160a01b03821661115e576040805162461bcd60e51b815260206004820152601f60248201527f42455032303a206d696e7420746f20746865207a65726f206164647265737300604482015290519081900360640190fd5b60035461116b9082610f70565b6003556001600160a01b0382166000908152600160205260409020546111919082610f70565b6001600160a01b03831660008181526001602090815260408083209490945583518581529351929391927fddf252ad1be2c89b69c2b068fc378daa952ba7f163c4a11628f55a4df523b3ef9281900390910190a35050565b6001600160a01b03811661122e5760405162461bcd60e51b81526004018080602001828103825260268152602001806112eb6026913960400191505060405180910390fd5b600080546040516001600160a01b03808516939216917f8be0079c531659141344cd1fd0a4f28419497f9722a3daafe3b4186f6b6457e091a3600080547fffffffffffffffffffffffff0000000000000000000000000000000000000000166001600160a01b039290921691909117905556fe42455032303a207472616e736665722066726f6d20746865207a65726f206164647265737342455032303a20617070726f76652066726f6d20746865207a65726f20616464726573734f776e61626c653a206e6577206f776e657220697320746865207a65726f206164647265737342455032303a207472616e7366657220616d6f756e74206578636565647320616c6c6f77616e636542455032303a207472616e7366657220616d6f756e7420657863656564732062616c616e636542455032303a207472616e7366657220746f20746865207a65726f206164647265737342455032303a2064656372656173656420616c6c6f77616e63652062656c6f77207a65726f42455032303a206275726e2066726f6d20746865207a65726f206164647265737342455032303a206275726e20616d6f756e7420657863656564732062616c616e636542455032303a20617070726f766520746f20746865207a65726f2061646472657373a26469706673582212208076c286a8d310e875fa698791e13ffd2fb1147dbddab6bbbdb2fe3779fce10064736f6c634300060c0033",
  "immutableReferences": {},
  "source": "// SPDX-License-Identifier: MIT\r\npragma solidity ^0.6.12;\r\n\r\nimport \"./libraries/Address.sol\";\r\nimport \"./libraries/SafeMath.sol\";\r\nimport \"./interfaces/IBEP20.sol\";\r\nimport \"./interfaces/IPancakeRouter02.sol\";\r\nimport \"./interfaces/IPancakeFactory.sol\";\r\nimport \"./BEP20.sol\";\r\n\r\n// ZenToken with Governance.\r\ncontract Zen is BEP20('Zen', 'ZEN') {\r\n    address public pancakeZenBNBPair;\r\n    address public pancakeZenUSDPair;\r\n\r\n    constructor (\r\n        IPancakeFactory pancakeFactory,\r\n        address bnb,\r\n        address usd\r\n    ) public {\r\n        pancakeZenBNBPair = pancakeFactory.createPair(address(this), bnb);\r\n        pancakeZenUSDPair = pancakeFactory.createPair(address(this), usd);\r\n    }\r\n\r\n    function burnFrom(address account, uint256 amount) public onlyOwner() {\r\n        _burn(account, amount);\r\n    }\r\n\r\n    function getPairs() public view returns (address, address) {\r\n        return (pancakeZenBNBPair, pancakeZenUSDPair);\r\n    }\r\n\r\n    function circulatingSupply() public view returns (uint256) {\r\n        (address zenBNB, address zenBUSD) = this.getPairs();\r\n        return this.totalSupply().sub(this.balanceOf(zenBNB)).sub(this.balanceOf(zenBUSD));\r\n    }\r\n}",
  "sourcePath": "C:/Users/jumic/Projets/truffle/yinyang/contracts/Zen.sol",
  "compiler": {
    "name": "solc",
    "version": "0.6.12+commit.27d51765.Emscripten.clang"
  },
  "schemaVersion": "3.3.4",
  "updatedAt": "2021-04-24T09:04:01.038Z",
  "networkType": "ethereum",
  "devdoc": {
    "kind": "dev",
    "methods": {
      "allowance(address,address)": {
        "details": "See {BEP20-allowance}."
      },
      "approve(address,uint256)": {
        "details": "See {BEP20-approve}. Requirements: - `spender` cannot be the zero address."
      },
      "balanceOf(address)": {
        "details": "See {BEP20-balanceOf}."
      },
      "burn(uint256)": {
        "details": "Destroy `amount` tokens from `msg.sender` balance, decreasing the total supply."
      },
      "decimals()": {
        "details": "Returns the token decimals."
      },
      "decreaseAllowance(address,uint256)": {
        "details": "Atomically decreases the allowance granted to `spender` by the caller. This is an alternative to {approve} that can be used as a mitigation for problems described in {BEP20-approve}. Emits an {Approval} event indicating the updated allowance. Requirements: - `spender` cannot be the zero address. - `spender` must have allowance for the caller of at least `subtractedValue`."
      },
      "getOwner()": {
        "details": "Returns the bep token owner."
      },
      "increaseAllowance(address,uint256)": {
        "details": "Atomically increases the allowance granted to `spender` by the caller. This is an alternative to {approve} that can be used as a mitigation for problems described in {BEP20-approve}. Emits an {Approval} event indicating the updated allowance. Requirements: - `spender` cannot be the zero address."
      },
      "mint(uint256)": {
        "details": "Creates `amount` tokens and assigns them to `msg.sender`, increasing the total supply. Requirements - `msg.sender` must be the token owner"
      },
      "name()": {
        "details": "Returns the token name."
      },
      "owner()": {
        "details": "Returns the address of the current owner."
      },
      "renounceOwnership()": {
        "details": "Leaves the contract without owner. It will not be possible to call `onlyOwner` functions anymore. Can only be called by the current owner. NOTE: Renouncing ownership will leave the contract without an owner, thereby removing any functionality that is only available to the owner."
      },
      "symbol()": {
        "details": "Returns the token symbol."
      },
      "totalSupply()": {
        "details": "See {BEP20-totalSupply}."
      },
      "transfer(address,uint256)": {
        "details": "See {BEP20-transfer}. Requirements: - `recipient` cannot be the zero address. - the caller must have a balance of at least `amount`."
      },
      "transferFrom(address,address,uint256)": {
        "details": "See {BEP20-transferFrom}. Emits an {Approval} event indicating the updated allowance. This is not required by the EIP. See the note at the beginning of {BEP20}; Requirements: - `sender` and `recipient` cannot be the zero address. - `sender` must have a balance of at least `amount`. - the caller must have allowance for `sender`'s tokens of at least `amount`."
      },
      "transferOwnership(address)": {
        "details": "Transfers ownership of the contract to a new account (`newOwner`). Can only be called by the current owner."
      }
    },
    "version": 1
  },
  "userdoc": {
    "kind": "user",
    "methods": {},
    "version": 1
  }
}