{
  "contractName": "ZenGarden",
  "abi": [
    {
      "inputs": [
        {
          "internalType": "uint256",
          "name": "_zenPerBlock",
          "type": "uint256"
        },
        {
          "internalType": "uint256",
          "name": "_startBlock",
          "type": "uint256"
        },
        {
          "internalType": "address",
          "name": "_peaceMaster",
          "type": "address"
        },
        {
          "internalType": "address",
          "name": "_zen",
          "type": "address"
        }
      ],
      "stateMutability": "nonpayable",
      "type": "constructor"
    },
    {
      "anonymous": false,
      "inputs": [
        {
          "indexed": true,
          "internalType": "address",
          "name": "user",
          "type": "address"
        },
        {
          "indexed": true,
          "internalType": "uint256",
          "name": "pid",
          "type": "uint256"
        },
        {
          "indexed": false,
          "internalType": "uint256",
          "name": "amount",
          "type": "uint256"
        }
      ],
      "name": "Deposit",
      "type": "event"
    },
    {
      "anonymous": false,
      "inputs": [
        {
          "indexed": true,
          "internalType": "address",
          "name": "user",
          "type": "address"
        },
        {
          "indexed": true,
          "internalType": "uint256",
          "name": "pid",
          "type": "uint256"
        },
        {
          "indexed": false,
          "internalType": "uint256",
          "name": "amount",
          "type": "uint256"
        }
      ],
      "name": "EmergencyWithdraw",
      "type": "event"
    },
    {
      "anonymous": false,
      "inputs": [
        {
          "indexed": true,
          "internalType": "address",
          "name": "previousOwner",
          "type": "address"
        },
        {
          "indexed": true,
          "internalType": "address",
          "name": "newOwner",
          "type": "address"
        }
      ],
      "name": "OwnershipTransferred",
      "type": "event"
    },
    {
      "anonymous": false,
      "inputs": [
        {
          "indexed": true,
          "internalType": "address",
          "name": "user",
          "type": "address"
        },
        {
          "indexed": true,
          "internalType": "uint256",
          "name": "pid",
          "type": "uint256"
        },
        {
          "indexed": false,
          "internalType": "uint256",
          "name": "amount",
          "type": "uint256"
        }
      ],
      "name": "Withdraw",
      "type": "event"
    },
    {
      "inputs": [],
      "name": "owner",
      "outputs": [
        {
          "internalType": "address",
          "name": "",
          "type": "address"
        }
      ],
      "stateMutability": "view",
      "type": "function",
      "constant": true
    },
    {
      "inputs": [],
      "name": "peaceMaster",
      "outputs": [
        {
          "internalType": "address",
          "name": "",
          "type": "address"
        }
      ],
      "stateMutability": "view",
      "type": "function",
      "constant": true
    },
    {
      "inputs": [
        {
          "internalType": "uint256",
          "name": "",
          "type": "uint256"
        }
      ],
      "name": "poolInfo",
      "outputs": [
        {
          "internalType": "contract IBEP20",
          "name": "lpToken",
          "type": "address"
        },
        {
          "internalType": "uint256",
          "name": "allocPoint",
          "type": "uint256"
        },
        {
          "internalType": "uint256",
          "name": "lastRewardBlock",
          "type": "uint256"
        },
        {
          "internalType": "uint256",
          "name": "accZenPerShare",
          "type": "uint256"
        }
      ],
      "stateMutability": "view",
      "type": "function",
      "constant": true
    },
    {
      "inputs": [],
      "name": "renounceOwnership",
      "outputs": [],
      "stateMutability": "nonpayable",
      "type": "function"
    },
    {
      "inputs": [],
      "name": "startBlock",
      "outputs": [
        {
          "internalType": "uint256",
          "name": "",
          "type": "uint256"
        }
      ],
      "stateMutability": "view",
      "type": "function",
      "constant": true
    },
    {
      "inputs": [],
      "name": "totalAllocPoint",
      "outputs": [
        {
          "internalType": "uint256",
          "name": "",
          "type": "uint256"
        }
      ],
      "stateMutability": "view",
      "type": "function",
      "constant": true
    },
    {
      "inputs": [
        {
          "internalType": "address",
          "name": "newOwner",
          "type": "address"
        }
      ],
      "name": "transferOwnership",
      "outputs": [],
      "stateMutability": "nonpayable",
      "type": "function"
    },
    {
      "inputs": [
        {
          "internalType": "uint256",
          "name": "",
          "type": "uint256"
        },
        {
          "internalType": "address",
          "name": "",
          "type": "address"
        }
      ],
      "name": "userInfo",
      "outputs": [
        {
          "internalType": "uint256",
          "name": "amount",
          "type": "uint256"
        },
        {
          "internalType": "uint256",
          "name": "rewardDebt",
          "type": "uint256"
        }
      ],
      "stateMutability": "view",
      "type": "function",
      "constant": true
    },
    {
      "inputs": [],
      "name": "zen",
      "outputs": [
        {
          "internalType": "contract Zen",
          "name": "",
          "type": "address"
        }
      ],
      "stateMutability": "view",
      "type": "function",
      "constant": true
    },
    {
      "inputs": [],
      "name": "zenPerBlock",
      "outputs": [
        {
          "internalType": "uint256",
          "name": "",
          "type": "uint256"
        }
      ],
      "stateMutability": "view",
      "type": "function",
      "constant": true
    },
    {
      "inputs": [],
      "name": "poolLength",
      "outputs": [
        {
          "internalType": "uint256",
          "name": "",
          "type": "uint256"
        }
      ],
      "stateMutability": "view",
      "type": "function",
      "constant": true
    },
    {
      "inputs": [
        {
          "internalType": "uint256",
          "name": "_from",
          "type": "uint256"
        },
        {
          "internalType": "uint256",
          "name": "_to",
          "type": "uint256"
        }
      ],
      "name": "getMultiplier",
      "outputs": [
        {
          "internalType": "uint256",
          "name": "",
          "type": "uint256"
        }
      ],
      "stateMutability": "pure",
      "type": "function",
      "constant": true
    },
    {
      "inputs": [
        {
          "internalType": "uint256",
          "name": "_pid",
          "type": "uint256"
        },
        {
          "internalType": "address",
          "name": "_user",
          "type": "address"
        }
      ],
      "name": "balanceOf",
      "outputs": [
        {
          "internalType": "uint256",
          "name": "",
          "type": "uint256"
        }
      ],
      "stateMutability": "view",
      "type": "function",
      "constant": true
    },
    {
      "inputs": [],
      "name": "massUpdatePools",
      "outputs": [],
      "stateMutability": "nonpayable",
      "type": "function"
    },
    {
      "inputs": [
        {
          "internalType": "uint256",
          "name": "_allocPoint",
          "type": "uint256"
        },
        {
          "internalType": "contract IBEP20",
          "name": "_lpToken",
          "type": "address"
        },
        {
          "internalType": "bool",
          "name": "_withUpdate",
          "type": "bool"
        },
        {
          "internalType": "uint256",
          "name": "_lastRewardBlock",
          "type": "uint256"
        }
      ],
      "name": "add",
      "outputs": [],
      "stateMutability": "nonpayable",
      "type": "function"
    },
    {
      "inputs": [
        {
          "internalType": "uint256",
          "name": "_pid",
          "type": "uint256"
        },
        {
          "internalType": "uint256",
          "name": "_allocPoint",
          "type": "uint256"
        }
      ],
      "name": "set",
      "outputs": [],
      "stateMutability": "nonpayable",
      "type": "function"
    },
    {
      "inputs": [
        {
          "internalType": "uint256",
          "name": "_pid",
          "type": "uint256"
        },
        {
          "internalType": "address",
          "name": "_user",
          "type": "address"
        }
      ],
      "name": "pendingRewards",
      "outputs": [
        {
          "internalType": "uint256",
          "name": "",
          "type": "uint256"
        }
      ],
      "stateMutability": "view",
      "type": "function",
      "constant": true
    },
    {
      "inputs": [
        {
          "internalType": "uint256",
          "name": "_pid",
          "type": "uint256"
        }
      ],
      "name": "updatePool",
      "outputs": [],
      "stateMutability": "nonpayable",
      "type": "function"
    },
    {
      "inputs": [
        {
          "internalType": "uint256",
          "name": "_pid",
          "type": "uint256"
        },
        {
          "internalType": "uint256",
          "name": "_amount",
          "type": "uint256"
        }
      ],
      "name": "deposit",
      "outputs": [],
      "stateMutability": "nonpayable",
      "type": "function"
    },
    {
      "inputs": [
        {
          "internalType": "uint256",
          "name": "_pid",
          "type": "uint256"
        },
        {
          "internalType": "uint256",
          "name": "_amount",
          "type": "uint256"
        }
      ],
      "name": "withdraw",
      "outputs": [],
      "stateMutability": "nonpayable",
      "type": "function"
    },
    {
      "inputs": [
        {
          "internalType": "uint256",
          "name": "_pid",
          "type": "uint256"
        }
      ],
      "name": "emergencyWithdraw",
      "outputs": [],
      "stateMutability": "nonpayable",
      "type": "function"
    },
    {
      "inputs": [
        {
          "internalType": "address",
          "name": "_from",
          "type": "address"
        },
        {
          "internalType": "uint256",
          "name": "_amount",
          "type": "uint256"
        }
      ],
      "name": "safeZenBurn",
      "outputs": [],
      "stateMutability": "nonpayable",
      "type": "function"
    }
  ],
  "bytecode": "0x6080604052600060065534801561001557600080fd5b506040516119b03803806119b08339818101604052608081101561003857600080fd5b508051602082015160408301516060909301519192909160006100596100e0565b600080546001600160a01b0319166001600160a01b0383169081178255604051929350917f8be0079c531659141344cd1fd0a4f28419497f9722a3daafe3b4186f6b6457e0908290a350600393909355600791909155600280546001600160a01b039283166001600160a01b031991821617909155600180549290931691161790556100e4565b3390565b6118bd806100f36000396000f3fe608060405234801561001057600080fd5b50600436106101825760003560e01c8063630b5ba1116100d857806396805e541161008c578063d586002e11610066578063d586002e146103ea578063e2bbb158146103f2578063f2fde38b1461041557610182565b806396805e541461037c578063c8290efd146103b6578063d18df53c146103be57610182565b80638da5cb5b116100bd5780638da5cb5b1461030c5780638dbb1e3a1461031457806393f1a40b1461033757610182565b8063630b5ba1146102fc578063715018a61461030457610182565b806329aeabf61161013a57806348cd4cb11161011457806348cd4cb1146102ba57806351eb05a6146102c25780635312ea8e146102df57610182565b806329aeabf61461023f5780633656eec21461026b578063441a3e701461029757610182565b80631526fe271161016b5780631526fe27146101c557806317caf6f1146102125780631ab06ee51461021a57610182565b8063081e3eda1461018757806308391d60146101a1575b600080fd5b61018f61043b565b60408051918252519081900360200190f35b6101a9610441565b604080516001600160a01b039092168252519081900360200190f35b6101e2600480360360208110156101db57600080fd5b5035610450565b604080516001600160a01b0390951685526020850193909352838301919091526060830152519081900360800190f35b61018f610491565b61023d6004803603604081101561023057600080fd5b5080359060200135610497565b005b61023d6004803603604081101561025557600080fd5b506001600160a01b038135169060200135610555565b61018f6004803603604081101561028157600080fd5b50803590602001356001600160a01b031661063e565b61023d600480360360408110156102ad57600080fd5b5080359060200135610668565b61018f6107d2565b61023d600480360360208110156102d857600080fd5b50356107d8565b61023d600480360360208110156102f557600080fd5b5035610921565b61023d6109bc565b61023d6109df565b6101a9610aa0565b61018f6004803603604081101561032a57600080fd5b5080359060200135610aaf565b6103636004803603604081101561034d57600080fd5b50803590602001356001600160a01b0316610ac2565b6040805192835260208301919091528051918290030190f35b61023d6004803603608081101561039257600080fd5b508035906001600160a01b0360208201351690604081013515159060600135610ae6565b6101a9610cb8565b61018f600480360360408110156103d457600080fd5b50803590602001356001600160a01b0316610cc7565b61018f610e42565b61023d6004803603604081101561040857600080fd5b5080359060200135610e48565b61023d6004803603602081101561042b57600080fd5b50356001600160a01b0316610f5a565b60045490565b6002546001600160a01b031681565b6004818154811061045d57fe5b600091825260209091206004909102018054600182015460028301546003909301546001600160a01b039092169350919084565b60065481565b61049f610fcd565b6000546001600160a01b03908116911614610501576040805162461bcd60e51b815260206004820181905260248201527f4f776e61626c653a2063616c6c6572206973206e6f7420746865206f776e6572604482015290519081900360640190fd5b6105096109bc565b60006004838154811061051857fe5b9060005260206000209060040201905061054b826105458360010154600654610fd190919063ffffffff16565b90611013565b6006556001015550565b6002546001600160a01b031633146105b4576040805162461bcd60e51b815260206004820152601c60248201527f5a656e47617264656e3a206e6f74205065616365204d61737465722100000000604482015290519081900360640190fd5b600154604080517f79cc67900000000000000000000000000000000000000000000000000000000081526001600160a01b03858116600483015260248201859052915191909216916379cc679091604480830192600092919082900301818387803b15801561062257600080fd5b505af1158015610636573d6000803e3d6000fd5b505050505050565b60008281526005602090815260408083206001600160a01b03851684529091529020545b92915050565b60006004838154811061067757fe5b6000918252602080832086845260058252604080852033865290925292208054600490920290920192508311156106f5576040805162461bcd60e51b815260206004820152601260248201527f77697468647261773a206e6f7420676f6f640000000000000000000000000000604482015290519081900360640190fd5b6106fe846107d8565b6000610738826001015461073264e8d4a5100061072c8760030154876000015461106d90919063ffffffff16565b906110c6565b90610fd1565b9050801561074a5761074a3382611108565b831561077457815461075c9085610fd1565b82558254610774906001600160a01b0316338661123a565b6003830154825461078f9164e8d4a510009161072c9161106d565b6001830155604080518581529051869133917ff279e6a1f5e320cca91135676d9cb6e44ca8a08c0b88342bcdb1144f6511b5689181900360200190a35050505050565b60075481565b6000600482815481106107e757fe5b9060005260206000209060040201905080600201544311610808575061091e565b8054604080517f70a0823100000000000000000000000000000000000000000000000000000000815230600482015290516000926001600160a01b0316916370a08231916024808301926020929190829003018186803b15801561086b57600080fd5b505afa15801561087f573d6000803e3d6000fd5b505050506040513d602081101561089557600080fd5b50519050806108ab57504360029091015561091e565b60006108bb836002015443610aaf565b905060006108e860065461072c86600101546108e26003548761106d90919063ffffffff16565b9061106d565b905061090b6109008461072c8464e8d4a5100061106d565b600386015490611013565b6003850155505043600290920191909155505b50565b60006004828154811061093057fe5b60009182526020808320858452600582526040808520338087529352909320805460049093029093018054909450610975926001600160a01b0391909116919061123a565b80546040805191825251849133917fbb757047c2b5f3974fe26b7c10f732e7bce710b0952a71082702781e62ae05959181900360200190a360008082556001909101555050565b60045460005b818110156109db576109d3816107d8565b6001016109c2565b5050565b6109e7610fcd565b6000546001600160a01b03908116911614610a49576040805162461bcd60e51b815260206004820181905260248201527f4f776e61626c653a2063616c6c6572206973206e6f7420746865206f776e6572604482015290519081900360640190fd5b600080546040516001600160a01b03909116907f8be0079c531659141344cd1fd0a4f28419497f9722a3daafe3b4186f6b6457e0908390a36000805473ffffffffffffffffffffffffffffffffffffffff19169055565b6000546001600160a01b031690565b6000610abb8284610fd1565b9392505050565b60056020908152600092835260408084209091529082529020805460019091015482565b610aee610fcd565b6000546001600160a01b03908116911614610b50576040805162461bcd60e51b815260206004820181905260248201527f4f776e61626c653a2063616c6c6572206973206e6f7420746865206f776e6572604482015290519081900360640190fd5b610b59836112bf565b8115610b6757610b676109bc565b600754431015610b935780610b7f5750600754610b8e565b600754811015610b8e57506007545b610ba7565b801580610b9f57504381105b15610ba75750435b604080516080810182526001600160a01b03858116825260208201878152928201848152600060608401818152600480546001810182559281905294517f8a35acfbc15ff81a39ae7d344fd709f28e8600b4aa8c65c6b64bfe7fe36bd19b92909502918201805473ffffffffffffffffffffffffffffffffffffffff1916959094169490941790925592517f8a35acfbc15ff81a39ae7d344fd709f28e8600b4aa8c65c6b64bfe7fe36bd19c82015591517f8a35acfbc15ff81a39ae7d344fd709f28e8600b4aa8c65c6b64bfe7fe36bd19d830155517f8a35acfbc15ff81a39ae7d344fd709f28e8600b4aa8c65c6b64bfe7fe36bd19e90910155600654610caf9085611013565b60065550505050565b6001546001600160a01b031681565b60008060048481548110610cd757fe5b600091825260208083208784526005825260408085206001600160a01b03898116875290845281862060049586029093016003810154815484517f70a082310000000000000000000000000000000000000000000000000000000081523098810198909852935191985093969395939492909116926370a08231926024808301939192829003018186803b158015610d6e57600080fd5b505afa158015610d82573d6000803e3d6000fd5b505050506040513d6020811015610d9857600080fd5b5051600285015490915043118015610daf57508015155b15610e0f576000610dc4856002015443610aaf565b90506000610deb60065461072c88600101546108e26003548761106d90919063ffffffff16565b9050610e0a610e038461072c8464e8d4a5100061106d565b8590611013565b935050505b610e37836001015461073264e8d4a5100061072c86886000015461106d90919063ffffffff16565b979650505050505050565b60035481565b600060048381548110610e5757fe5b60009182526020808320868452600582526040808520338652909252922060049091029091019150610e88846107d8565b805415610ed1576000610ebd826001015461073264e8d4a5100061072c8760030154876000015461106d90919063ffffffff16565b90508015610ecf57610ecf3382611108565b505b8215610efd578154610eee906001600160a01b0316333086611359565b8054610efa9084611013565b81555b60038201548154610f189164e8d4a510009161072c9161106d565b6001820155604080518481529051859133917f90890809c654f11d6e72a28fa60149770a0d11ec6c92319d6ceb2bb0a4ea1a159181900360200190a350505050565b610f62610fcd565b6000546001600160a01b03908116911614610fc4576040805162461bcd60e51b815260206004820181905260248201527f4f776e61626c653a2063616c6c6572206973206e6f7420746865206f776e6572604482015290519081900360640190fd5b61091e816113e1565b3390565b6000610abb83836040518060400160405280601e81526020017f536166654d6174683a207375627472616374696f6e206f766572666c6f77000081525061148e565b600082820183811015610abb576040805162461bcd60e51b815260206004820152601b60248201527f536166654d6174683a206164646974696f6e206f766572666c6f770000000000604482015290519081900360640190fd5b60008261107c57506000610662565b8282028284828161108957fe5b0414610abb5760405162461bcd60e51b81526004018080602001828103825260218152602001806118676021913960400191505060405180910390fd5b6000610abb83836040518060400160405280601a81526020017f536166654d6174683a206469766973696f6e206279207a65726f000000000000815250611525565b600154604080517fa0712d680000000000000000000000000000000000000000000000000000000081526004810184905290516001600160a01b039092169163a0712d68916024808201926020929091908290030181600087803b15801561116f57600080fd5b505af1158015611183573d6000803e3d6000fd5b505050506040513d602081101561119957600080fd5b5050600154604080517fa9059cbb0000000000000000000000000000000000000000000000000000000081526001600160a01b038581166004830152602482018590529151919092169163a9059cbb9160448083019260209291908290030181600087803b15801561120a57600080fd5b505af115801561121e573d6000803e3d6000fd5b505050506040513d602081101561123457600080fd5b50505050565b604080516001600160a01b038416602482015260448082018490528251808303909101815260649091019091526020810180517bffffffffffffffffffffffffffffffffffffffffffffffffffffffff167fa9059cbb000000000000000000000000000000000000000000000000000000001790526112ba90849061158a565b505050565b60045460005b818110156112ba57826001600160a01b0316600482815481106112e457fe5b60009182526020909120600490910201546001600160a01b03161415611351576040805162461bcd60e51b815260206004820152601960248201527f5a656e47617264656e3a206578697374696e6720706f6f6c3f00000000000000604482015290519081900360640190fd5b6001016112c5565b604080516001600160a01b0380861660248301528416604482015260648082018490528251808303909101815260849091019091526020810180517bffffffffffffffffffffffffffffffffffffffffffffffffffffffff167f23b872dd0000000000000000000000000000000000000000000000000000000017905261123490859061158a565b6001600160a01b0381166114265760405162461bcd60e51b81526004018080602001828103825260268152602001806118416026913960400191505060405180910390fd5b600080546040516001600160a01b03808516939216917f8be0079c531659141344cd1fd0a4f28419497f9722a3daafe3b4186f6b6457e091a36000805473ffffffffffffffffffffffffffffffffffffffff19166001600160a01b0392909216919091179055565b6000818484111561151d5760405162461bcd60e51b81526004018080602001828103825283818151815260200191508051906020019080838360005b838110156114e25781810151838201526020016114ca565b50505050905090810190601f16801561150f5780820380516001836020036101000a031916815260200191505b509250505060405180910390fd5b505050900390565b600081836115745760405162461bcd60e51b81526020600482018181528351602484015283519092839260449091019190850190808383600083156114e25781810151838201526020016114ca565b50600083858161158057fe5b0495945050505050565b60606115df826040518060400160405280602081526020017f5361666542455032303a206c6f772d6c6576656c2063616c6c206661696c6564815250856001600160a01b031661163b9092919063ffffffff16565b8051909150156112ba578080602001905160208110156115fe57600080fd5b50516112ba5760405162461bcd60e51b815260040180806020018281038252602a815260200180611817602a913960400191505060405180910390fd5b606061164a8484600085611652565b949350505050565b606061165d856117dd565b6116ae576040805162461bcd60e51b815260206004820152601d60248201527f416464726573733a2063616c6c20746f206e6f6e2d636f6e7472616374000000604482015290519081900360640190fd5b60006060866001600160a01b031685876040518082805190602001908083835b6020831061170b57805182527fffffffffffffffffffffffffffffffffffffffffffffffffffffffffffffffe090920191602091820191016116ce565b6001836020036101000a03801982511681845116808217855250505050505090500191505060006040518083038185875af1925050503d806000811461176d576040519150601f19603f3d011682016040523d82523d6000602084013e611772565b606091505b5091509150811561178657915061164a9050565b8051156117965780518082602001fd5b60405162461bcd60e51b81526020600482018181528651602484015286518793919283926044019190850190808383600083156114e25781810151838201526020016114ca565b6000813f7fc5d2460186f7233c927e7db2dcc703c0e500b653ca82273b7bfad8045d85a47081811480159061164a57505015159291505056fe5361666542455032303a204245503230206f7065726174696f6e20646964206e6f7420737563636565644f776e61626c653a206e6577206f776e657220697320746865207a65726f2061646472657373536166654d6174683a206d756c7469706c69636174696f6e206f766572666c6f77a2646970667358221220589d90263ef5c6c57cae41150b88c375213da607514f00a5274cf1b9906dd42864736f6c634300060c0033",
  "immutableReferences": {},
  "source": "// SPDX-License-Identifier: MIT\npragma solidity ^0.6.12;\n\nimport \"./libraries/Address.sol\";\nimport \"./libraries/SafeMath.sol\";\nimport \"./libraries/SafeBEP20.sol\";\nimport \"./interfaces/IPancakeRouter02.sol\";\nimport \"./interfaces/IBEP20.sol\";\nimport \"./Ownable.sol\";\n\nimport \"./Yin.sol\";\nimport \"./Yang.sol\";\nimport \"./Zen.sol\";\n\ncontract ZenGarden is Ownable {\n    using SafeMath for uint256;\n    using SafeBEP20 for IBEP20;\n\n    // Info of each user.\n    struct UserInfo {\n        uint256 amount;     // How many LP tokens the user has provided.\n        uint256 rewardDebt; // Reward debt. See explanation below.\n        //\n        // We do some fancy math here. Basically, any point in time, the amount of ZENs\n        // entitled to a user but is pending to be distributed is:\n        //\n        //   pending reward = (user.amount * pool.accZenPerShare) - user.rewardDebt\n        //\n        // Whenever a user deposits or withdraws LP tokens to a pool. Here's what happens:\n        //   1. The pool's `accZenPerShare` (and `lastRewardBlock`) gets updated.\n        //   2. User receives the pending reward sent to his/her address.\n        //   3. User's `amount` gets updated.\n        //   4. User's `rewardDebt` gets updated.\n    }\n\n    // Info of each pool.\n    struct PoolInfo {\n        IBEP20 lpToken;           // Address of LP token contract.\n        uint256 allocPoint;       // How many allocation points assigned to this pool. ZENs to distribute per block.\n        uint256 lastRewardBlock;  // Last block number that ZENs distribution occurs.\n        uint256 accZenPerShare; // Accumulated ZENs per share, times 1e12. See below.\n    }\n\n    // The ZEN TOKEN!\n    Zen public zen;\n    address public peaceMaster;\n    // ZEN tokens created per block.\n    uint256 public zenPerBlock;\n\n    // Info of each pool.\n    PoolInfo[] public poolInfo;\n    // Info of each user that stakes LP tokens.\n    mapping (uint256 => mapping (address => UserInfo)) public userInfo;\n    // Total allocation poitns. Must be the sum of all allocation points in all pools.\n    uint256 public totalAllocPoint = 0;\n    // The block number when ZEN mining starts.\n    uint256 public startBlock;\n\n    event Deposit(address indexed user, uint256 indexed pid, uint256 amount);\n    event Withdraw(address indexed user, uint256 indexed pid, uint256 amount);\n    event EmergencyWithdraw(address indexed user, uint256 indexed pid, uint256 amount);\n\n    constructor(\n        uint256 _zenPerBlock,\n        uint256 _startBlock,\n        address _peaceMaster,\n        address _zen\n    ) public {\n        zenPerBlock = _zenPerBlock;\n        startBlock = _startBlock;\n        peaceMaster = _peaceMaster;\n        zen = Zen(_zen);\n    }\n\n    function poolLength() external view returns (uint256) {\n        return poolInfo.length;\n    }\n\n    // Return reward multiplier over the given _from to _to block.\n    function getMultiplier(uint256 _from, uint256 _to) public pure returns (uint256) {\n        return _to.sub(_from);\n    }\n\n    // View function to see user balance on frontend.\n    function balanceOf(uint256 _pid, address _user) external view returns (uint256) {\n        UserInfo storage user = userInfo[_pid][_user];\n        return user.amount;\n    }\n\n    // Update reward variables for all pools. Be careful of gas spending!\n    function massUpdatePools() public {\n        uint256 length = poolInfo.length;\n        for (uint256 pid = 0; pid < length; ++pid) {\n            updatePool(pid);\n        }\n    }\n\n    function checkPoolDuplicate(IBEP20 _lpToken) internal view {\n        uint256 length = poolInfo.length;\n        for (uint256 pid = 0; pid < length; ++pid) {\n            require(poolInfo[pid].lpToken != _lpToken, \"ZenGarden: existing pool?\");\n        }\n    }\n\n    // Add a new lp to the pool. Can only be called by the owner.\n    function add(\n        uint256 _allocPoint,\n        IBEP20 _lpToken,\n        bool _withUpdate,\n        uint256 _lastRewardBlock\n    ) public onlyOwner {\n        checkPoolDuplicate(_lpToken);\n\n        if (_withUpdate) {\n            massUpdatePools();\n        }\n        if (block.number < startBlock) {\n            // chef is sleeping\n            if (_lastRewardBlock == 0) {\n                _lastRewardBlock = startBlock;\n            } else {\n                if (_lastRewardBlock < startBlock) {\n                    _lastRewardBlock = startBlock;\n                }\n            }\n        } else {\n            // chef is cooking\n            if (_lastRewardBlock == 0 || _lastRewardBlock < block.number) {\n                _lastRewardBlock = block.number;\n            }\n        }\n        poolInfo.push(PoolInfo({\n            lpToken : _lpToken,\n            allocPoint : _allocPoint,\n            lastRewardBlock : _lastRewardBlock,\n            accZenPerShare : 0\n            }));\n\n        totalAllocPoint = totalAllocPoint.add(_allocPoint);\n    }\n\n    // Update the given pool's YANG allocation point. Can only be called by the owner.\n    function set(uint256 _pid, uint256 _allocPoint) public onlyOwner {\n        massUpdatePools();\n        PoolInfo storage pool = poolInfo[_pid];\n        totalAllocPoint = totalAllocPoint.sub(pool.allocPoint).add(\n            _allocPoint\n        );\n        pool.allocPoint = _allocPoint;\n    }\n\n    // View function to see pending ZENs on frontend.\n    function pendingRewards(uint256 _pid, address _user) external view returns (uint256) {\n        PoolInfo storage pool = poolInfo[_pid];\n        UserInfo storage user = userInfo[_pid][_user];\n        uint256 accZenPerShare = pool.accZenPerShare;\n        uint256 lpSupply = pool.lpToken.balanceOf(address(this));\n        if (block.number > pool.lastRewardBlock && lpSupply != 0) {\n            uint256 multiplier = getMultiplier(pool.lastRewardBlock, block.number);\n            uint256 zenReward = multiplier.mul(zenPerBlock).mul(pool.allocPoint).div(totalAllocPoint);\n            accZenPerShare = accZenPerShare.add(zenReward.mul(1e12).div(lpSupply));\n        }\n        return user.amount.mul(accZenPerShare).div(1e12).sub(user.rewardDebt);\n    }\n\n    // Update reward variables of the given pool to be up-to-date.\n    function updatePool(uint256 _pid) public {\n        PoolInfo storage pool = poolInfo[_pid];\n        if (block.number <= pool.lastRewardBlock) {\n            return;\n        }\n        uint256 lpSupply = pool.lpToken.balanceOf(address(this));\n        if (lpSupply == 0) {\n            pool.lastRewardBlock = block.number;\n            return;\n        }\n        uint256 multiplier = getMultiplier(pool.lastRewardBlock, block.number);\n        uint256 zenReward = multiplier.mul(zenPerBlock).mul(pool.allocPoint).div(totalAllocPoint);\n        pool.accZenPerShare = pool.accZenPerShare.add(zenReward.mul(1e12).div(lpSupply));\n        pool.lastRewardBlock = block.number;\n    }\n\n    // Deposit LP tokens to MasterChef for ZEN allocation.\n    function deposit(uint256 _pid, uint256 _amount) public {\n        PoolInfo storage pool = poolInfo[_pid];\n        UserInfo storage user = userInfo[_pid][msg.sender];\n        updatePool(_pid);\n        if (user.amount > 0) {\n            uint256 pending = user.amount.mul(pool.accZenPerShare).div(1e12).sub(user.rewardDebt);\n            if(pending > 0) {\n                safeZenTransfer(msg.sender, pending);\n            }\n        }\n        if (_amount > 0) {\n            pool.lpToken.safeTransferFrom(address(msg.sender), address(this), _amount);\n            user.amount = user.amount.add(_amount);\n        }\n        user.rewardDebt = user.amount.mul(pool.accZenPerShare).div(1e12);\n        emit Deposit(msg.sender, _pid, _amount);\n    }\n\n    // Withdraw LP tokens from MasterChef.\n    function withdraw(uint256 _pid, uint256 _amount) public {\n        PoolInfo storage pool = poolInfo[_pid];\n        UserInfo storage user = userInfo[_pid][msg.sender];\n        require(user.amount >= _amount, \"withdraw: not good\");\n        updatePool(_pid);\n        uint256 pending = user.amount.mul(pool.accZenPerShare).div(1e12).sub(user.rewardDebt);\n        if(pending > 0) {\n            safeZenTransfer(msg.sender, pending);\n        }\n        if(_amount > 0) {\n            user.amount = user.amount.sub(_amount);\n            pool.lpToken.safeTransfer(address(msg.sender), _amount);\n        }\n        user.rewardDebt = user.amount.mul(pool.accZenPerShare).div(1e12);\n        emit Withdraw(msg.sender, _pid, _amount);\n    }\n\n    // Withdraw without caring about rewards. EMERGENCY ONLY.\n    function emergencyWithdraw(uint256 _pid) public {\n        PoolInfo storage pool = poolInfo[_pid];\n        UserInfo storage user = userInfo[_pid][msg.sender];\n        pool.lpToken.safeTransfer(address(msg.sender), user.amount);\n        emit EmergencyWithdraw(msg.sender, _pid, user.amount);\n        user.amount = 0;\n        user.rewardDebt = 0;\n    }\n\n    // Some would say the name does not fit\n    function safeZenTransfer(address _to, uint256 _amount) internal {\n        zen.mint(_amount);\n        zen.transfer(_to, _amount);\n    }\n\n    function safeZenBurn(address _from, uint256 _amount) public {\n        require(msg.sender == peaceMaster, \"ZenGarden: not Peace Master!\");\n        zen.burnFrom(_from, _amount);\n    }\n}\n",
  "sourcePath": "C:/Users/jumic/Projets/truffle/yinyang/contracts/ZenGarden.sol",
  "compiler": {
    "name": "solc",
    "version": "0.6.12+commit.27d51765.Emscripten.clang"
  },
  "schemaVersion": "3.3.4",
  "updatedAt": "2021-04-24T09:04:00.932Z",
  "networkType": "ethereum",
  "devdoc": {
    "kind": "dev",
    "methods": {
      "owner()": {
        "details": "Returns the address of the current owner."
      },
      "renounceOwnership()": {
        "details": "Leaves the contract without owner. It will not be possible to call `onlyOwner` functions anymore. Can only be called by the current owner. NOTE: Renouncing ownership will leave the contract without an owner, thereby removing any functionality that is only available to the owner."
      },
      "transferOwnership(address)": {
        "details": "Transfers ownership of the contract to a new account (`newOwner`). Can only be called by the current owner."
      }
    },
    "version": 1
  },
  "userdoc": {
    "kind": "user",
    "methods": {},
    "version": 1
  }
}